{
	"tests/new/new2.sol": {
		"NFTMint": {
			"abi": [
				{
					"inputs": [
						{
							"internalType": "bytes32",
							"name": "_merkleRoot",
							"type": "bytes32"
						}
					],
					"stateMutability": "nonpayable",
					"type": "constructor"
				},
				{
					"inputs": [
						{
							"internalType": "bytes32[]",
							"name": "_proof",
							"type": "bytes32[]"
						}
					],
					"name": "claim",
					"outputs": [],
					"stateMutability": "nonpayable",
					"type": "function"
				},
				{
					"inputs": [],
					"name": "merkleRoot",
					"outputs": [
						{
							"internalType": "bytes32",
							"name": "",
							"type": "bytes32"
						}
					],
					"stateMutability": "view",
					"type": "function"
				},
				{
					"inputs": [],
					"name": "test",
					"outputs": [
						{
							"internalType": "address",
							"name": "",
							"type": "address"
						}
					],
					"stateMutability": "view",
					"type": "function"
				}
			],
			"devdoc": {
				"kind": "dev",
				"methods": {},
				"version": 1
			},
			"evm": {
				"assembly": "    /* \"tests/new/new2.sol\":133:572  contract NFTMint {... */\n  mstore(0x40, 0x80)\n    /* \"tests/new/new2.sol\":213:283  constructor(bytes32 _merkleRoot) {... */\n  callvalue\n  dup1\n  iszero\n  tag_1\n  jumpi\n  0x00\n  dup1\n  revert\ntag_1:\n  pop\n  mload(0x40)\n  sub(codesize, bytecodeSize)\n  dup1\n  bytecodeSize\n  dup4\n  codecopy\n  dup2\n  dup2\n  add\n  0x40\n  mstore\n  dup2\n  add\n  swap1\n  tag_2\n  swap2\n  swap1\n  tag_3\n  jump\t// in\ntag_2:\n    /* \"tests/new/new2.sol\":266:277  _merkleRoot */\n  dup1\n    /* \"tests/new/new2.sol\":253:263  merkleRoot */\n  0x01\n    /* \"tests/new/new2.sol\":253:277  merkleRoot = _merkleRoot */\n  dup2\n  swap1\n  sstore\n  pop\n    /* \"tests/new/new2.sol\":213:283  constructor(bytes32 _merkleRoot) {... */\n  pop\n    /* \"tests/new/new2.sol\":133:572  contract NFTMint {... */\n  jump(tag_6)\n    /* \"#utility.yul\":88:205   */\ntag_8:\n    /* \"#utility.yul\":197:198   */\n  0x00\n    /* \"#utility.yul\":194:195   */\n  dup1\n    /* \"#utility.yul\":187:199   */\n  revert\n    /* \"#utility.yul\":334:411   */\ntag_10:\n    /* \"#utility.yul\":371:378   */\n  0x00\n    /* \"#utility.yul\":400:405   */\n  dup2\n    /* \"#utility.yul\":389:405   */\n  swap1\n  pop\n    /* \"#utility.yul\":334:411   */\n  swap2\n  swap1\n  pop\n  jump\t// out\n    /* \"#utility.yul\":417:539   */\ntag_11:\n    /* \"#utility.yul\":490:514   */\n  tag_19\n    /* \"#utility.yul\":508:513   */\n  dup2\n    /* \"#utility.yul\":490:514   */\n  tag_10\n  jump\t// in\ntag_19:\n    /* \"#utility.yul\":483:488   */\n  dup2\n    /* \"#utility.yul\":480:515   */\n  eq\n    /* \"#utility.yul\":470:533   */\n  tag_20\n  jumpi\n    /* \"#utility.yul\":529:530   */\n  0x00\n    /* \"#utility.yul\":526:527   */\n  dup1\n    /* \"#utility.yul\":519:531   */\n  revert\n    /* \"#utility.yul\":470:533   */\ntag_20:\n    /* \"#utility.yul\":417:539   */\n  pop\n  jump\t// out\n    /* \"#utility.yul\":545:688   */\ntag_12:\n    /* \"#utility.yul\":602:607   */\n  0x00\n    /* \"#utility.yul\":633:639   */\n  dup2\n    /* \"#utility.yul\":627:640   */\n  mload\n    /* \"#utility.yul\":618:640   */\n  swap1\n  pop\n    /* \"#utility.yul\":649:682   */\n  tag_22\n    /* \"#utility.yul\":676:681   */\n  dup2\n    /* \"#utility.yul\":649:682   */\n  tag_11\n  jump\t// in\ntag_22:\n    /* \"#utility.yul\":545:688   */\n  swap3\n  swap2\n  pop\n  pop\n  jump\t// out\n    /* \"#utility.yul\":694:1045   */\ntag_3:\n    /* \"#utility.yul\":764:770   */\n  0x00\n    /* \"#utility.yul\":813:815   */\n  0x20\n    /* \"#utility.yul\":801:810   */\n  dup3\n    /* \"#utility.yul\":792:799   */\n  dup5\n    /* \"#utility.yul\":788:811   */\n  sub\n    /* \"#utility.yul\":784:816   */\n  slt\n    /* \"#utility.yul\":781:900   */\n  iszero\n  tag_24\n  jumpi\n    /* \"#utility.yul\":819:898   */\n  tag_25\n  tag_8\n  jump\t// in\ntag_25:\n    /* \"#utility.yul\":781:900   */\ntag_24:\n    /* \"#utility.yul\":939:940   */\n  0x00\n    /* \"#utility.yul\":964:1028   */\n  tag_26\n    /* \"#utility.yul\":1020:1027   */\n  dup5\n    /* \"#utility.yul\":1011:1017   */\n  dup3\n    /* \"#utility.yul\":1000:1009   */\n  dup6\n    /* \"#utility.yul\":996:1018   */\n  add\n    /* \"#utility.yul\":964:1028   */\n  tag_12\n  jump\t// in\ntag_26:\n    /* \"#utility.yul\":954:1028   */\n  swap2\n  pop\n    /* \"#utility.yul\":910:1038   */\n  pop\n    /* \"#utility.yul\":694:1045   */\n  swap3\n  swap2\n  pop\n  pop\n  jump\t// out\n    /* \"tests/new/new2.sol\":133:572  contract NFTMint {... */\ntag_6:\n  dataSize(sub_0)\n  dup1\n  dataOffset(sub_0)\n  0x00\n  codecopy\n  0x00\n  return\nstop\n\nsub_0: assembly {\n        /* \"tests/new/new2.sol\":133:572  contract NFTMint {... */\n      mstore(0x40, 0x80)\n      callvalue\n      dup1\n      iszero\n      tag_1\n      jumpi\n      0x00\n      dup1\n      revert\n    tag_1:\n      pop\n      jumpi(tag_2, lt(calldatasize, 0x04))\n      shr(0xe0, calldataload(0x00))\n      dup1\n      0x2eb4a7ab\n      eq\n      tag_3\n      jumpi\n      dup1\n      0xb391c508\n      eq\n      tag_4\n      jumpi\n      dup1\n      0xf8a8fd6d\n      eq\n      tag_5\n      jumpi\n    tag_2:\n      0x00\n      dup1\n      revert\n        /* \"tests/new/new2.sol\":181:206  bytes32 public merkleRoot */\n    tag_3:\n      tag_6\n      tag_7\n      jump\t// in\n    tag_6:\n      mload(0x40)\n      tag_8\n      swap2\n      swap1\n      tag_9\n      jump\t// in\n    tag_8:\n      mload(0x40)\n      dup1\n      swap2\n      sub\n      swap1\n      return\n        /* \"tests/new/new2.sol\":289:569  function claim(bytes32[] memory _proof) public  {... */\n    tag_4:\n      tag_10\n      0x04\n      dup1\n      calldatasize\n      sub\n      dup2\n      add\n      swap1\n      tag_11\n      swap2\n      swap1\n      tag_12\n      jump\t// in\n    tag_11:\n      tag_13\n      jump\t// in\n    tag_10:\n      stop\n        /* \"tests/new/new2.sol\":157:176  address public test */\n    tag_5:\n      tag_14\n      tag_15\n      jump\t// in\n    tag_14:\n      mload(0x40)\n      tag_16\n      swap2\n      swap1\n      tag_17\n      jump\t// in\n    tag_16:\n      mload(0x40)\n      dup1\n      swap2\n      sub\n      swap1\n      return\n        /* \"tests/new/new2.sol\":181:206  bytes32 public merkleRoot */\n    tag_7:\n      sload(0x01)\n      dup2\n      jump\t// out\n        /* \"tests/new/new2.sol\":289:569  function claim(bytes32[] memory _proof) public  {... */\n    tag_13:\n        /* \"tests/new/new2.sol\":344:356  bytes32 leaf */\n      0x00\n        /* \"tests/new/new2.sol\":386:396  msg.sender */\n      caller\n        /* \"tests/new/new2.sol\":369:397  abi.encodePacked(msg.sender) */\n      add(0x20, mload(0x40))\n      tag_19\n      swap2\n      swap1\n      tag_20\n      jump\t// in\n    tag_19:\n      mload(0x40)\n      0x20\n      dup2\n      dup4\n      sub\n      sub\n      dup2\n      mstore\n      swap1\n      0x40\n      mstore\n        /* \"tests/new/new2.sol\":359:398  keccak256(abi.encodePacked(msg.sender)) */\n      dup1\n      mload\n      swap1\n      0x20\n      add\n      keccak256\n        /* \"tests/new/new2.sol\":344:398  bytes32 leaf = keccak256(abi.encodePacked(msg.sender)) */\n      swap1\n      pop\n        /* \"tests/new/new2.sol\":413:457  MerkleProof.verify(_proof, merkleRoot, leaf) */\n      tag_21\n        /* \"tests/new/new2.sol\":432:438  _proof */\n      dup3\n        /* \"tests/new/new2.sol\":440:450  merkleRoot */\n      sload(0x01)\n        /* \"tests/new/new2.sol\":452:456  leaf */\n      dup4\n        /* \"tests/new/new2.sol\":413:431  MerkleProof.verify */\n      tag_22\n        /* \"tests/new/new2.sol\":413:457  MerkleProof.verify(_proof, merkleRoot, leaf) */\n      jump\t// in\n    tag_21:\n        /* \"tests/new/new2.sol\":405:475  require(MerkleProof.verify(_proof, merkleRoot, leaf), \"Invalid proof\") */\n      tag_23\n      jumpi\n      mload(0x40)\n      0x08c379a000000000000000000000000000000000000000000000000000000000\n      dup2\n      mstore\n      0x04\n      add\n      tag_24\n      swap1\n      tag_25\n      jump\t// in\n    tag_24:\n      mload(0x40)\n      dup1\n      swap2\n      sub\n      swap1\n      revert\n    tag_23:\n        /* \"tests/new/new2.sol\":489:499  msg.sender */\n      caller\n        /* \"tests/new/new2.sol\":482:486  test */\n      0x00\n      dup1\n        /* \"tests/new/new2.sol\":482:499  test = msg.sender */\n      0x0100\n      exp\n      dup2\n      sload\n      dup2\n      0xffffffffffffffffffffffffffffffffffffffff\n      mul\n      not\n      and\n      swap1\n      dup4\n      0xffffffffffffffffffffffffffffffffffffffff\n      and\n      mul\n      or\n      swap1\n      sstore\n      pop\n        /* \"tests/new/new2.sol\":337:569  {... */\n      pop\n        /* \"tests/new/new2.sol\":289:569  function claim(bytes32[] memory _proof) public  {... */\n      pop\n      jump\t// out\n        /* \"tests/new/new2.sol\":157:176  address public test */\n    tag_15:\n      0x00\n      dup1\n      sload\n      swap1\n      0x0100\n      exp\n      swap1\n      div\n      0xffffffffffffffffffffffffffffffffffffffff\n      and\n      dup2\n      jump\t// out\n        /* \"@openzeppelin/contracts/utils/cryptography/MerkleProof.sol\":1265:1419  function verify(bytes32[] memory proof, bytes32 root, bytes32 leaf) internal pure returns (bool) {... */\n    tag_22:\n        /* \"@openzeppelin/contracts/utils/cryptography/MerkleProof.sol\":1356:1360  bool */\n      0x00\n        /* \"@openzeppelin/contracts/utils/cryptography/MerkleProof.sol\":1408:1412  root */\n      dup3\n        /* \"@openzeppelin/contracts/utils/cryptography/MerkleProof.sol\":1379:1404  processProof(proof, leaf) */\n      tag_27\n        /* \"@openzeppelin/contracts/utils/cryptography/MerkleProof.sol\":1392:1397  proof */\n      dup6\n        /* \"@openzeppelin/contracts/utils/cryptography/MerkleProof.sol\":1399:1403  leaf */\n      dup5\n        /* \"@openzeppelin/contracts/utils/cryptography/MerkleProof.sol\":1379:1391  processProof */\n      tag_28\n        /* \"@openzeppelin/contracts/utils/cryptography/MerkleProof.sol\":1379:1404  processProof(proof, leaf) */\n      jump\t// in\n    tag_27:\n        /* \"@openzeppelin/contracts/utils/cryptography/MerkleProof.sol\":1379:1412  processProof(proof, leaf) == root */\n      eq\n        /* \"@openzeppelin/contracts/utils/cryptography/MerkleProof.sol\":1372:1412  return processProof(proof, leaf) == root */\n      swap1\n      pop\n        /* \"@openzeppelin/contracts/utils/cryptography/MerkleProof.sol\":1265:1419  function verify(bytes32[] memory proof, bytes32 root, bytes32 leaf) internal pure returns (bool) {... */\n      swap4\n      swap3\n      pop\n      pop\n      pop\n      jump\t// out\n        /* \"@openzeppelin/contracts/utils/cryptography/MerkleProof.sol\":1967:2257  function processProof(bytes32[] memory proof, bytes32 leaf) internal pure returns (bytes32) {... */\n    tag_28:\n        /* \"@openzeppelin/contracts/utils/cryptography/MerkleProof.sol\":2050:2057  bytes32 */\n      0x00\n        /* \"@openzeppelin/contracts/utils/cryptography/MerkleProof.sol\":2069:2089  bytes32 computedHash */\n      dup1\n        /* \"@openzeppelin/contracts/utils/cryptography/MerkleProof.sol\":2092:2096  leaf */\n      dup3\n        /* \"@openzeppelin/contracts/utils/cryptography/MerkleProof.sol\":2069:2096  bytes32 computedHash = leaf */\n      swap1\n      pop\n        /* \"@openzeppelin/contracts/utils/cryptography/MerkleProof.sol\":2111:2120  uint256 i */\n      0x00\n        /* \"@openzeppelin/contracts/utils/cryptography/MerkleProof.sol\":2106:2222  for (uint256 i = 0; i < proof.length; i++) {... */\n    tag_30:\n        /* \"@openzeppelin/contracts/utils/cryptography/MerkleProof.sol\":2130:2135  proof */\n      dup5\n        /* \"@openzeppelin/contracts/utils/cryptography/MerkleProof.sol\":2130:2142  proof.length */\n      mload\n        /* \"@openzeppelin/contracts/utils/cryptography/MerkleProof.sol\":2126:2127  i */\n      dup2\n        /* \"@openzeppelin/contracts/utils/cryptography/MerkleProof.sol\":2126:2142  i < proof.length */\n      lt\n        /* \"@openzeppelin/contracts/utils/cryptography/MerkleProof.sol\":2106:2222  for (uint256 i = 0; i < proof.length; i++) {... */\n      iszero\n      tag_31\n      jumpi\n        /* \"@openzeppelin/contracts/utils/cryptography/MerkleProof.sol\":2178:2211  _hashPair(computedHash, proof[i]) */\n      tag_33\n        /* \"@openzeppelin/contracts/utils/cryptography/MerkleProof.sol\":2188:2200  computedHash */\n      dup3\n        /* \"@openzeppelin/contracts/utils/cryptography/MerkleProof.sol\":2202:2207  proof */\n      dup7\n        /* \"@openzeppelin/contracts/utils/cryptography/MerkleProof.sol\":2208:2209  i */\n      dup4\n        /* \"@openzeppelin/contracts/utils/cryptography/MerkleProof.sol\":2202:2210  proof[i] */\n      dup2\n      mload\n      dup2\n      lt\n      tag_34\n      jumpi\n      tag_35\n      tag_36\n      jump\t// in\n    tag_35:\n    tag_34:\n      0x20\n      mul\n      0x20\n      add\n      add\n      mload\n        /* \"@openzeppelin/contracts/utils/cryptography/MerkleProof.sol\":2178:2187  _hashPair */\n      tag_37\n        /* \"@openzeppelin/contracts/utils/cryptography/MerkleProof.sol\":2178:2211  _hashPair(computedHash, proof[i]) */\n      jump\t// in\n    tag_33:\n        /* \"@openzeppelin/contracts/utils/cryptography/MerkleProof.sol\":2163:2211  computedHash = _hashPair(computedHash, proof[i]) */\n      swap2\n      pop\n        /* \"@openzeppelin/contracts/utils/cryptography/MerkleProof.sol\":2144:2147  i++ */\n      dup1\n      dup1\n      0x01\n      add\n      swap2\n      pop\n      pop\n        /* \"@openzeppelin/contracts/utils/cryptography/MerkleProof.sol\":2106:2222  for (uint256 i = 0; i < proof.length; i++) {... */\n      jump(tag_30)\n    tag_31:\n      pop\n        /* \"@openzeppelin/contracts/utils/cryptography/MerkleProof.sol\":2238:2250  computedHash */\n      dup1\n        /* \"@openzeppelin/contracts/utils/cryptography/MerkleProof.sol\":2231:2250  return computedHash */\n      swap2\n      pop\n      pop\n        /* \"@openzeppelin/contracts/utils/cryptography/MerkleProof.sol\":1967:2257  function processProof(bytes32[] memory proof, bytes32 leaf) internal pure returns (bytes32) {... */\n      swap3\n      swap2\n      pop\n      pop\n      jump\t// out\n        /* \"@openzeppelin/contracts/utils/cryptography/MerkleProof.sol\":9229:9376  function _hashPair(bytes32 a, bytes32 b) private pure returns (bytes32) {... */\n    tag_37:\n        /* \"@openzeppelin/contracts/utils/cryptography/MerkleProof.sol\":9292:9299  bytes32 */\n      0x00\n        /* \"@openzeppelin/contracts/utils/cryptography/MerkleProof.sol\":9322:9323  b */\n      dup2\n        /* \"@openzeppelin/contracts/utils/cryptography/MerkleProof.sol\":9318:9319  a */\n      dup4\n        /* \"@openzeppelin/contracts/utils/cryptography/MerkleProof.sol\":9318:9323  a < b */\n      lt\n        /* \"@openzeppelin/contracts/utils/cryptography/MerkleProof.sol\":9318:9369  a < b ? _efficientHash(a, b) : _efficientHash(b, a) */\n      tag_39\n      jumpi\n        /* \"@openzeppelin/contracts/utils/cryptography/MerkleProof.sol\":9349:9369  _efficientHash(b, a) */\n      tag_40\n        /* \"@openzeppelin/contracts/utils/cryptography/MerkleProof.sol\":9364:9365  b */\n      dup3\n        /* \"@openzeppelin/contracts/utils/cryptography/MerkleProof.sol\":9367:9368  a */\n      dup5\n        /* \"@openzeppelin/contracts/utils/cryptography/MerkleProof.sol\":9349:9363  _efficientHash */\n      tag_41\n        /* \"@openzeppelin/contracts/utils/cryptography/MerkleProof.sol\":9349:9369  _efficientHash(b, a) */\n      jump\t// in\n    tag_40:\n        /* \"@openzeppelin/contracts/utils/cryptography/MerkleProof.sol\":9318:9369  a < b ? _efficientHash(a, b) : _efficientHash(b, a) */\n      jump(tag_42)\n    tag_39:\n        /* \"@openzeppelin/contracts/utils/cryptography/MerkleProof.sol\":9326:9346  _efficientHash(a, b) */\n      tag_43\n        /* \"@openzeppelin/contracts/utils/cryptography/MerkleProof.sol\":9341:9342  a */\n      dup4\n        /* \"@openzeppelin/contracts/utils/cryptography/MerkleProof.sol\":9344:9345  b */\n      dup4\n        /* \"@openzeppelin/contracts/utils/cryptography/MerkleProof.sol\":9326:9340  _efficientHash */\n      tag_41\n        /* \"@openzeppelin/contracts/utils/cryptography/MerkleProof.sol\":9326:9346  _efficientHash(a, b) */\n      jump\t// in\n    tag_43:\n        /* \"@openzeppelin/contracts/utils/cryptography/MerkleProof.sol\":9318:9369  a < b ? _efficientHash(a, b) : _efficientHash(b, a) */\n    tag_42:\n        /* \"@openzeppelin/contracts/utils/cryptography/MerkleProof.sol\":9311:9369  return a < b ? _efficientHash(a, b) : _efficientHash(b, a) */\n      swap1\n      pop\n        /* \"@openzeppelin/contracts/utils/cryptography/MerkleProof.sol\":9229:9376  function _hashPair(bytes32 a, bytes32 b) private pure returns (bytes32) {... */\n      swap3\n      swap2\n      pop\n      pop\n      jump\t// out\n        /* \"@openzeppelin/contracts/utils/cryptography/MerkleProof.sol\":9496:9757  function _efficientHash(bytes32 a, bytes32 b) private pure returns (bytes32 value) {... */\n    tag_41:\n        /* \"@openzeppelin/contracts/utils/cryptography/MerkleProof.sol\":9564:9577  bytes32 value */\n      0x00\n        /* \"@openzeppelin/contracts/utils/cryptography/MerkleProof.sol\":9668:9669  a */\n      dup3\n        /* \"@openzeppelin/contracts/utils/cryptography/MerkleProof.sol\":9662:9666  0x00 */\n      0x00\n        /* \"@openzeppelin/contracts/utils/cryptography/MerkleProof.sol\":9655:9670  mstore(0x00, a) */\n      mstore\n        /* \"@openzeppelin/contracts/utils/cryptography/MerkleProof.sol\":9696:9697  b */\n      dup2\n        /* \"@openzeppelin/contracts/utils/cryptography/MerkleProof.sol\":9690:9694  0x20 */\n      0x20\n        /* \"@openzeppelin/contracts/utils/cryptography/MerkleProof.sol\":9683:9698  mstore(0x20, b) */\n      mstore\n        /* \"@openzeppelin/contracts/utils/cryptography/MerkleProof.sol\":9736:9740  0x40 */\n      0x40\n        /* \"@openzeppelin/contracts/utils/cryptography/MerkleProof.sol\":9730:9734  0x00 */\n      0x00\n        /* \"@openzeppelin/contracts/utils/cryptography/MerkleProof.sol\":9720:9741  keccak256(0x00, 0x40) */\n      keccak256\n        /* \"@openzeppelin/contracts/utils/cryptography/MerkleProof.sol\":9711:9741  value := keccak256(0x00, 0x40) */\n      swap1\n      pop\n        /* \"@openzeppelin/contracts/utils/cryptography/MerkleProof.sol\":9496:9757  function _efficientHash(bytes32 a, bytes32 b) private pure returns (bytes32 value) {... */\n      swap3\n      swap2\n      pop\n      pop\n      jump\t// out\n        /* \"#utility.yul\":7:84   */\n    tag_45:\n        /* \"#utility.yul\":44:51   */\n      0x00\n        /* \"#utility.yul\":73:78   */\n      dup2\n        /* \"#utility.yul\":62:78   */\n      swap1\n      pop\n        /* \"#utility.yul\":7:84   */\n      swap2\n      swap1\n      pop\n      jump\t// out\n        /* \"#utility.yul\":90:208   */\n    tag_46:\n        /* \"#utility.yul\":177:201   */\n      tag_74\n        /* \"#utility.yul\":195:200   */\n      dup2\n        /* \"#utility.yul\":177:201   */\n      tag_45\n      jump\t// in\n    tag_74:\n        /* \"#utility.yul\":172:175   */\n      dup3\n        /* \"#utility.yul\":165:202   */\n      mstore\n        /* \"#utility.yul\":90:208   */\n      pop\n      pop\n      jump\t// out\n        /* \"#utility.yul\":214:436   */\n    tag_9:\n        /* \"#utility.yul\":307:311   */\n      0x00\n        /* \"#utility.yul\":345:347   */\n      0x20\n        /* \"#utility.yul\":334:343   */\n      dup3\n        /* \"#utility.yul\":330:348   */\n      add\n        /* \"#utility.yul\":322:348   */\n      swap1\n      pop\n        /* \"#utility.yul\":358:429   */\n      tag_76\n        /* \"#utility.yul\":426:427   */\n      0x00\n        /* \"#utility.yul\":415:424   */\n      dup4\n        /* \"#utility.yul\":411:428   */\n      add\n        /* \"#utility.yul\":402:408   */\n      dup5\n        /* \"#utility.yul\":358:429   */\n      tag_46\n      jump\t// in\n    tag_76:\n        /* \"#utility.yul\":214:436   */\n      swap3\n      swap2\n      pop\n      pop\n      jump\t// out\n        /* \"#utility.yul\":442:517   */\n    tag_47:\n        /* \"#utility.yul\":475:481   */\n      0x00\n        /* \"#utility.yul\":508:510   */\n      0x40\n        /* \"#utility.yul\":502:511   */\n      mload\n        /* \"#utility.yul\":492:511   */\n      swap1\n      pop\n        /* \"#utility.yul\":442:517   */\n      swap1\n      jump\t// out\n        /* \"#utility.yul\":523:640   */\n    tag_48:\n        /* \"#utility.yul\":632:633   */\n      0x00\n        /* \"#utility.yul\":629:630   */\n      dup1\n        /* \"#utility.yul\":622:634   */\n      revert\n        /* \"#utility.yul\":646:763   */\n    tag_49:\n        /* \"#utility.yul\":755:756   */\n      0x00\n        /* \"#utility.yul\":752:753   */\n      dup1\n        /* \"#utility.yul\":745:757   */\n      revert\n        /* \"#utility.yul\":769:886   */\n    tag_50:\n        /* \"#utility.yul\":878:879   */\n      0x00\n        /* \"#utility.yul\":875:876   */\n      dup1\n        /* \"#utility.yul\":868:880   */\n      revert\n        /* \"#utility.yul\":892:994   */\n    tag_51:\n        /* \"#utility.yul\":933:939   */\n      0x00\n        /* \"#utility.yul\":984:986   */\n      0x1f\n        /* \"#utility.yul\":980:987   */\n      not\n        /* \"#utility.yul\":975:977   */\n      0x1f\n        /* \"#utility.yul\":968:973   */\n      dup4\n        /* \"#utility.yul\":964:978   */\n      add\n        /* \"#utility.yul\":960:988   */\n      and\n        /* \"#utility.yul\":950:988   */\n      swap1\n      pop\n        /* \"#utility.yul\":892:994   */\n      swap2\n      swap1\n      pop\n      jump\t// out\n        /* \"#utility.yul\":1000:1180   */\n    tag_52:\n        /* \"#utility.yul\":1048:1125   */\n      0x4e487b7100000000000000000000000000000000000000000000000000000000\n        /* \"#utility.yul\":1045:1046   */\n      0x00\n        /* \"#utility.yul\":1038:1126   */\n      mstore\n        /* \"#utility.yul\":1145:1149   */\n      0x41\n        /* \"#utility.yul\":1142:1143   */\n      0x04\n        /* \"#utility.yul\":1135:1150   */\n      mstore\n        /* \"#utility.yul\":1169:1173   */\n      0x24\n        /* \"#utility.yul\":1166:1167   */\n      0x00\n        /* \"#utility.yul\":1159:1174   */\n      revert\n        /* \"#utility.yul\":1186:1467   */\n    tag_53:\n        /* \"#utility.yul\":1269:1296   */\n      tag_84\n        /* \"#utility.yul\":1291:1295   */\n      dup3\n        /* \"#utility.yul\":1269:1296   */\n      tag_51\n      jump\t// in\n    tag_84:\n        /* \"#utility.yul\":1261:1267   */\n      dup2\n        /* \"#utility.yul\":1257:1297   */\n      add\n        /* \"#utility.yul\":1399:1405   */\n      dup2\n        /* \"#utility.yul\":1387:1397   */\n      dup2\n        /* \"#utility.yul\":1384:1406   */\n      lt\n        /* \"#utility.yul\":1363:1381   */\n      0xffffffffffffffff\n        /* \"#utility.yul\":1351:1361   */\n      dup3\n        /* \"#utility.yul\":1348:1382   */\n      gt\n        /* \"#utility.yul\":1345:1407   */\n      or\n        /* \"#utility.yul\":1342:1430   */\n      iszero\n      tag_85\n      jumpi\n        /* \"#utility.yul\":1410:1428   */\n      tag_86\n      tag_52\n      jump\t// in\n    tag_86:\n        /* \"#utility.yul\":1342:1430   */\n    tag_85:\n        /* \"#utility.yul\":1450:1460   */\n      dup1\n        /* \"#utility.yul\":1446:1448   */\n      0x40\n        /* \"#utility.yul\":1439:1461   */\n      mstore\n        /* \"#utility.yul\":1229:1467   */\n      pop\n        /* \"#utility.yul\":1186:1467   */\n      pop\n      pop\n      jump\t// out\n        /* \"#utility.yul\":1473:1602   */\n    tag_54:\n        /* \"#utility.yul\":1507:1513   */\n      0x00\n        /* \"#utility.yul\":1534:1554   */\n      tag_88\n      tag_47\n      jump\t// in\n    tag_88:\n        /* \"#utility.yul\":1524:1554   */\n      swap1\n      pop\n        /* \"#utility.yul\":1563:1596   */\n      tag_89\n        /* \"#utility.yul\":1591:1595   */\n      dup3\n        /* \"#utility.yul\":1583:1589   */\n      dup3\n        /* \"#utility.yul\":1563:1596   */\n      tag_53\n      jump\t// in\n    tag_89:\n        /* \"#utility.yul\":1473:1602   */\n      swap2\n      swap1\n      pop\n      jump\t// out\n        /* \"#utility.yul\":1608:1919   */\n    tag_55:\n        /* \"#utility.yul\":1685:1689   */\n      0x00\n        /* \"#utility.yul\":1775:1793   */\n      0xffffffffffffffff\n        /* \"#utility.yul\":1767:1773   */\n      dup3\n        /* \"#utility.yul\":1764:1794   */\n      gt\n        /* \"#utility.yul\":1761:1817   */\n      iszero\n      tag_91\n      jumpi\n        /* \"#utility.yul\":1797:1815   */\n      tag_92\n      tag_52\n      jump\t// in\n    tag_92:\n        /* \"#utility.yul\":1761:1817   */\n    tag_91:\n        /* \"#utility.yul\":1847:1851   */\n      0x20\n        /* \"#utility.yul\":1839:1845   */\n      dup3\n        /* \"#utility.yul\":1835:1852   */\n      mul\n        /* \"#utility.yul\":1827:1852   */\n      swap1\n      pop\n        /* \"#utility.yul\":1907:1911   */\n      0x20\n        /* \"#utility.yul\":1901:1905   */\n      dup2\n        /* \"#utility.yul\":1897:1912   */\n      add\n        /* \"#utility.yul\":1889:1912   */\n      swap1\n      pop\n        /* \"#utility.yul\":1608:1919   */\n      swap2\n      swap1\n      pop\n      jump\t// out\n        /* \"#utility.yul\":1925:2042   */\n    tag_56:\n        /* \"#utility.yul\":2034:2035   */\n      0x00\n        /* \"#utility.yul\":2031:2032   */\n      dup1\n        /* \"#utility.yul\":2024:2036   */\n      revert\n        /* \"#utility.yul\":2048:2170   */\n    tag_57:\n        /* \"#utility.yul\":2121:2145   */\n      tag_95\n        /* \"#utility.yul\":2139:2144   */\n      dup2\n        /* \"#utility.yul\":2121:2145   */\n      tag_45\n      jump\t// in\n    tag_95:\n        /* \"#utility.yul\":2114:2119   */\n      dup2\n        /* \"#utility.yul\":2111:2146   */\n      eq\n        /* \"#utility.yul\":2101:2164   */\n      tag_96\n      jumpi\n        /* \"#utility.yul\":2160:2161   */\n      0x00\n        /* \"#utility.yul\":2157:2158   */\n      dup1\n        /* \"#utility.yul\":2150:2162   */\n      revert\n        /* \"#utility.yul\":2101:2164   */\n    tag_96:\n        /* \"#utility.yul\":2048:2170   */\n      pop\n      jump\t// out\n        /* \"#utility.yul\":2176:2315   */\n    tag_58:\n        /* \"#utility.yul\":2222:2227   */\n      0x00\n        /* \"#utility.yul\":2260:2266   */\n      dup2\n        /* \"#utility.yul\":2247:2267   */\n      calldataload\n        /* \"#utility.yul\":2238:2267   */\n      swap1\n      pop\n        /* \"#utility.yul\":2276:2309   */\n      tag_98\n        /* \"#utility.yul\":2303:2308   */\n      dup2\n        /* \"#utility.yul\":2276:2309   */\n      tag_57\n      jump\t// in\n    tag_98:\n        /* \"#utility.yul\":2176:2315   */\n      swap3\n      swap2\n      pop\n      pop\n      jump\t// out\n        /* \"#utility.yul\":2338:3048   */\n    tag_59:\n        /* \"#utility.yul\":2434:2439   */\n      0x00\n        /* \"#utility.yul\":2459:2540   */\n      tag_100\n        /* \"#utility.yul\":2475:2539   */\n      tag_101\n        /* \"#utility.yul\":2532:2538   */\n      dup5\n        /* \"#utility.yul\":2475:2539   */\n      tag_55\n      jump\t// in\n    tag_101:\n        /* \"#utility.yul\":2459:2540   */\n      tag_54\n      jump\t// in\n    tag_100:\n        /* \"#utility.yul\":2450:2540   */\n      swap1\n      pop\n        /* \"#utility.yul\":2560:2565   */\n      dup1\n        /* \"#utility.yul\":2589:2595   */\n      dup4\n        /* \"#utility.yul\":2582:2587   */\n      dup3\n        /* \"#utility.yul\":2575:2596   */\n      mstore\n        /* \"#utility.yul\":2623:2627   */\n      0x20\n        /* \"#utility.yul\":2616:2621   */\n      dup3\n        /* \"#utility.yul\":2612:2628   */\n      add\n        /* \"#utility.yul\":2605:2628   */\n      swap1\n      pop\n        /* \"#utility.yul\":2676:2680   */\n      0x20\n        /* \"#utility.yul\":2668:2674   */\n      dup5\n        /* \"#utility.yul\":2664:2681   */\n      mul\n        /* \"#utility.yul\":2656:2662   */\n      dup4\n        /* \"#utility.yul\":2652:2682   */\n      add\n        /* \"#utility.yul\":2705:2708   */\n      dup6\n        /* \"#utility.yul\":2697:2703   */\n      dup2\n        /* \"#utility.yul\":2694:2709   */\n      gt\n        /* \"#utility.yul\":2691:2813   */\n      iszero\n      tag_102\n      jumpi\n        /* \"#utility.yul\":2724:2803   */\n      tag_103\n      tag_56\n      jump\t// in\n    tag_103:\n        /* \"#utility.yul\":2691:2813   */\n    tag_102:\n        /* \"#utility.yul\":2839:2845   */\n      dup4\n        /* \"#utility.yul\":2822:3042   */\n    tag_104:\n        /* \"#utility.yul\":2856:2862   */\n      dup2\n        /* \"#utility.yul\":2851:2854   */\n      dup2\n        /* \"#utility.yul\":2848:2863   */\n      lt\n        /* \"#utility.yul\":2822:3042   */\n      iszero\n      tag_106\n      jumpi\n        /* \"#utility.yul\":2931:2934   */\n      dup1\n        /* \"#utility.yul\":2960:2997   */\n      tag_107\n        /* \"#utility.yul\":2993:2996   */\n      dup9\n        /* \"#utility.yul\":2981:2991   */\n      dup3\n        /* \"#utility.yul\":2960:2997   */\n      tag_58\n      jump\t// in\n    tag_107:\n        /* \"#utility.yul\":2955:2958   */\n      dup5\n        /* \"#utility.yul\":2948:2998   */\n      mstore\n        /* \"#utility.yul\":3027:3031   */\n      0x20\n        /* \"#utility.yul\":3022:3025   */\n      dup5\n        /* \"#utility.yul\":3018:3032   */\n      add\n        /* \"#utility.yul\":3011:3032   */\n      swap4\n      pop\n        /* \"#utility.yul\":2898:3042   */\n      pop\n        /* \"#utility.yul\":2882:2886   */\n      0x20\n        /* \"#utility.yul\":2877:2880   */\n      dup2\n        /* \"#utility.yul\":2873:2887   */\n      add\n        /* \"#utility.yul\":2866:2887   */\n      swap1\n      pop\n        /* \"#utility.yul\":2822:3042   */\n      jump(tag_104)\n    tag_106:\n        /* \"#utility.yul\":2826:2847   */\n      pop\n        /* \"#utility.yul\":2440:3048   */\n      pop\n      pop\n        /* \"#utility.yul\":2338:3048   */\n      swap4\n      swap3\n      pop\n      pop\n      pop\n      jump\t// out\n        /* \"#utility.yul\":3071:3441   */\n    tag_60:\n        /* \"#utility.yul\":3142:3147   */\n      0x00\n        /* \"#utility.yul\":3191:3194   */\n      dup3\n        /* \"#utility.yul\":3184:3188   */\n      0x1f\n        /* \"#utility.yul\":3176:3182   */\n      dup4\n        /* \"#utility.yul\":3172:3189   */\n      add\n        /* \"#utility.yul\":3168:3195   */\n      slt\n        /* \"#utility.yul\":3158:3280   */\n      tag_109\n      jumpi\n        /* \"#utility.yul\":3199:3278   */\n      tag_110\n      tag_50\n      jump\t// in\n    tag_110:\n        /* \"#utility.yul\":3158:3280   */\n    tag_109:\n        /* \"#utility.yul\":3316:3322   */\n      dup2\n        /* \"#utility.yul\":3303:3323   */\n      calldataload\n        /* \"#utility.yul\":3341:3435   */\n      tag_111\n        /* \"#utility.yul\":3431:3434   */\n      dup5\n        /* \"#utility.yul\":3423:3429   */\n      dup3\n        /* \"#utility.yul\":3416:3420   */\n      0x20\n        /* \"#utility.yul\":3408:3414   */\n      dup7\n        /* \"#utility.yul\":3404:3421   */\n      add\n        /* \"#utility.yul\":3341:3435   */\n      tag_59\n      jump\t// in\n    tag_111:\n        /* \"#utility.yul\":3332:3435   */\n      swap2\n      pop\n        /* \"#utility.yul\":3148:3441   */\n      pop\n        /* \"#utility.yul\":3071:3441   */\n      swap3\n      swap2\n      pop\n      pop\n      jump\t// out\n        /* \"#utility.yul\":3447:3986   */\n    tag_12:\n        /* \"#utility.yul\":3531:3537   */\n      0x00\n        /* \"#utility.yul\":3580:3582   */\n      0x20\n        /* \"#utility.yul\":3568:3577   */\n      dup3\n        /* \"#utility.yul\":3559:3566   */\n      dup5\n        /* \"#utility.yul\":3555:3578   */\n      sub\n        /* \"#utility.yul\":3551:3583   */\n      slt\n        /* \"#utility.yul\":3548:3667   */\n      iszero\n      tag_113\n      jumpi\n        /* \"#utility.yul\":3586:3665   */\n      tag_114\n      tag_48\n      jump\t// in\n    tag_114:\n        /* \"#utility.yul\":3548:3667   */\n    tag_113:\n        /* \"#utility.yul\":3734:3735   */\n      0x00\n        /* \"#utility.yul\":3723:3732   */\n      dup3\n        /* \"#utility.yul\":3719:3736   */\n      add\n        /* \"#utility.yul\":3706:3737   */\n      calldataload\n        /* \"#utility.yul\":3764:3782   */\n      0xffffffffffffffff\n        /* \"#utility.yul\":3756:3762   */\n      dup2\n        /* \"#utility.yul\":3753:3783   */\n      gt\n        /* \"#utility.yul\":3750:3867   */\n      iszero\n      tag_115\n      jumpi\n        /* \"#utility.yul\":3786:3865   */\n      tag_116\n      tag_49\n      jump\t// in\n    tag_116:\n        /* \"#utility.yul\":3750:3867   */\n    tag_115:\n        /* \"#utility.yul\":3891:3969   */\n      tag_117\n        /* \"#utility.yul\":3961:3968   */\n      dup5\n        /* \"#utility.yul\":3952:3958   */\n      dup3\n        /* \"#utility.yul\":3941:3950   */\n      dup6\n        /* \"#utility.yul\":3937:3959   */\n      add\n        /* \"#utility.yul\":3891:3969   */\n      tag_60\n      jump\t// in\n    tag_117:\n        /* \"#utility.yul\":3881:3969   */\n      swap2\n      pop\n        /* \"#utility.yul\":3677:3979   */\n      pop\n        /* \"#utility.yul\":3447:3986   */\n      swap3\n      swap2\n      pop\n      pop\n      jump\t// out\n        /* \"#utility.yul\":3992:4118   */\n    tag_61:\n        /* \"#utility.yul\":4029:4036   */\n      0x00\n        /* \"#utility.yul\":4069:4111   */\n      0xffffffffffffffffffffffffffffffffffffffff\n        /* \"#utility.yul\":4062:4067   */\n      dup3\n        /* \"#utility.yul\":4058:4112   */\n      and\n        /* \"#utility.yul\":4047:4112   */\n      swap1\n      pop\n        /* \"#utility.yul\":3992:4118   */\n      swap2\n      swap1\n      pop\n      jump\t// out\n        /* \"#utility.yul\":4124:4220   */\n    tag_62:\n        /* \"#utility.yul\":4161:4168   */\n      0x00\n        /* \"#utility.yul\":4190:4214   */\n      tag_120\n        /* \"#utility.yul\":4208:4213   */\n      dup3\n        /* \"#utility.yul\":4190:4214   */\n      tag_61\n      jump\t// in\n    tag_120:\n        /* \"#utility.yul\":4179:4214   */\n      swap1\n      pop\n        /* \"#utility.yul\":4124:4220   */\n      swap2\n      swap1\n      pop\n      jump\t// out\n        /* \"#utility.yul\":4226:4344   */\n    tag_63:\n        /* \"#utility.yul\":4313:4337   */\n      tag_122\n        /* \"#utility.yul\":4331:4336   */\n      dup2\n        /* \"#utility.yul\":4313:4337   */\n      tag_62\n      jump\t// in\n    tag_122:\n        /* \"#utility.yul\":4308:4311   */\n      dup3\n        /* \"#utility.yul\":4301:4338   */\n      mstore\n        /* \"#utility.yul\":4226:4344   */\n      pop\n      pop\n      jump\t// out\n        /* \"#utility.yul\":4350:4572   */\n    tag_17:\n        /* \"#utility.yul\":4443:4447   */\n      0x00\n        /* \"#utility.yul\":4481:4483   */\n      0x20\n        /* \"#utility.yul\":4470:4479   */\n      dup3\n        /* \"#utility.yul\":4466:4484   */\n      add\n        /* \"#utility.yul\":4458:4484   */\n      swap1\n      pop\n        /* \"#utility.yul\":4494:4565   */\n      tag_124\n        /* \"#utility.yul\":4562:4563   */\n      0x00\n        /* \"#utility.yul\":4551:4560   */\n      dup4\n        /* \"#utility.yul\":4547:4564   */\n      add\n        /* \"#utility.yul\":4538:4544   */\n      dup5\n        /* \"#utility.yul\":4494:4565   */\n      tag_63\n      jump\t// in\n    tag_124:\n        /* \"#utility.yul\":4350:4572   */\n      swap3\n      swap2\n      pop\n      pop\n      jump\t// out\n        /* \"#utility.yul\":4578:4672   */\n    tag_64:\n        /* \"#utility.yul\":4611:4619   */\n      0x00\n        /* \"#utility.yul\":4659:4664   */\n      dup2\n        /* \"#utility.yul\":4655:4657   */\n      0x60\n        /* \"#utility.yul\":4651:4665   */\n      shl\n        /* \"#utility.yul\":4630:4665   */\n      swap1\n      pop\n        /* \"#utility.yul\":4578:4672   */\n      swap2\n      swap1\n      pop\n      jump\t// out\n        /* \"#utility.yul\":4678:4772   */\n    tag_65:\n        /* \"#utility.yul\":4717:4724   */\n      0x00\n        /* \"#utility.yul\":4746:4766   */\n      tag_127\n        /* \"#utility.yul\":4760:4765   */\n      dup3\n        /* \"#utility.yul\":4746:4766   */\n      tag_64\n      jump\t// in\n    tag_127:\n        /* \"#utility.yul\":4735:4766   */\n      swap1\n      pop\n        /* \"#utility.yul\":4678:4772   */\n      swap2\n      swap1\n      pop\n      jump\t// out\n        /* \"#utility.yul\":4778:4878   */\n    tag_66:\n        /* \"#utility.yul\":4817:4824   */\n      0x00\n        /* \"#utility.yul\":4846:4872   */\n      tag_129\n        /* \"#utility.yul\":4866:4871   */\n      dup3\n        /* \"#utility.yul\":4846:4872   */\n      tag_65\n      jump\t// in\n    tag_129:\n        /* \"#utility.yul\":4835:4872   */\n      swap1\n      pop\n        /* \"#utility.yul\":4778:4878   */\n      swap2\n      swap1\n      pop\n      jump\t// out\n        /* \"#utility.yul\":4884:5041   */\n    tag_67:\n        /* \"#utility.yul\":4989:5034   */\n      tag_131\n        /* \"#utility.yul\":5009:5033   */\n      tag_132\n        /* \"#utility.yul\":5027:5032   */\n      dup3\n        /* \"#utility.yul\":5009:5033   */\n      tag_62\n      jump\t// in\n    tag_132:\n        /* \"#utility.yul\":4989:5034   */\n      tag_66\n      jump\t// in\n    tag_131:\n        /* \"#utility.yul\":4984:4987   */\n      dup3\n        /* \"#utility.yul\":4977:5035   */\n      mstore\n        /* \"#utility.yul\":4884:5041   */\n      pop\n      pop\n      jump\t// out\n        /* \"#utility.yul\":5047:5303   */\n    tag_20:\n        /* \"#utility.yul\":5159:5162   */\n      0x00\n        /* \"#utility.yul\":5174:5249   */\n      tag_134\n        /* \"#utility.yul\":5245:5248   */\n      dup3\n        /* \"#utility.yul\":5236:5242   */\n      dup5\n        /* \"#utility.yul\":5174:5249   */\n      tag_67\n      jump\t// in\n    tag_134:\n        /* \"#utility.yul\":5274:5276   */\n      0x14\n        /* \"#utility.yul\":5269:5272   */\n      dup3\n        /* \"#utility.yul\":5265:5277   */\n      add\n        /* \"#utility.yul\":5258:5277   */\n      swap2\n      pop\n        /* \"#utility.yul\":5294:5297   */\n      dup2\n        /* \"#utility.yul\":5287:5297   */\n      swap1\n      pop\n        /* \"#utility.yul\":5047:5303   */\n      swap3\n      swap2\n      pop\n      pop\n      jump\t// out\n        /* \"#utility.yul\":5309:5478   */\n    tag_68:\n        /* \"#utility.yul\":5393:5404   */\n      0x00\n        /* \"#utility.yul\":5427:5433   */\n      dup3\n        /* \"#utility.yul\":5422:5425   */\n      dup3\n        /* \"#utility.yul\":5415:5434   */\n      mstore\n        /* \"#utility.yul\":5467:5471   */\n      0x20\n        /* \"#utility.yul\":5462:5465   */\n      dup3\n        /* \"#utility.yul\":5458:5472   */\n      add\n        /* \"#utility.yul\":5443:5472   */\n      swap1\n      pop\n        /* \"#utility.yul\":5309:5478   */\n      swap3\n      swap2\n      pop\n      pop\n      jump\t// out\n        /* \"#utility.yul\":5484:5647   */\n    tag_69:\n        /* \"#utility.yul\":5624:5639   */\n      0x496e76616c69642070726f6f6600000000000000000000000000000000000000\n        /* \"#utility.yul\":5620:5621   */\n      0x00\n        /* \"#utility.yul\":5612:5618   */\n      dup3\n        /* \"#utility.yul\":5608:5622   */\n      add\n        /* \"#utility.yul\":5601:5640   */\n      mstore\n        /* \"#utility.yul\":5484:5647   */\n      pop\n      jump\t// out\n        /* \"#utility.yul\":5653:6019   */\n    tag_70:\n        /* \"#utility.yul\":5795:5798   */\n      0x00\n        /* \"#utility.yul\":5816:5883   */\n      tag_138\n        /* \"#utility.yul\":5880:5882   */\n      0x0d\n        /* \"#utility.yul\":5875:5878   */\n      dup4\n        /* \"#utility.yul\":5816:5883   */\n      tag_68\n      jump\t// in\n    tag_138:\n        /* \"#utility.yul\":5809:5883   */\n      swap2\n      pop\n        /* \"#utility.yul\":5892:5985   */\n      tag_139\n        /* \"#utility.yul\":5981:5984   */\n      dup3\n        /* \"#utility.yul\":5892:5985   */\n      tag_69\n      jump\t// in\n    tag_139:\n        /* \"#utility.yul\":6010:6012   */\n      0x20\n        /* \"#utility.yul\":6005:6008   */\n      dup3\n        /* \"#utility.yul\":6001:6013   */\n      add\n        /* \"#utility.yul\":5994:6013   */\n      swap1\n      pop\n        /* \"#utility.yul\":5653:6019   */\n      swap2\n      swap1\n      pop\n      jump\t// out\n        /* \"#utility.yul\":6025:6444   */\n    tag_25:\n        /* \"#utility.yul\":6191:6195   */\n      0x00\n        /* \"#utility.yul\":6229:6231   */\n      0x20\n        /* \"#utility.yul\":6218:6227   */\n      dup3\n        /* \"#utility.yul\":6214:6232   */\n      add\n        /* \"#utility.yul\":6206:6232   */\n      swap1\n      pop\n        /* \"#utility.yul\":6278:6287   */\n      dup2\n        /* \"#utility.yul\":6272:6276   */\n      dup2\n        /* \"#utility.yul\":6268:6288   */\n      sub\n        /* \"#utility.yul\":6264:6265   */\n      0x00\n        /* \"#utility.yul\":6253:6262   */\n      dup4\n        /* \"#utility.yul\":6249:6266   */\n      add\n        /* \"#utility.yul\":6242:6289   */\n      mstore\n        /* \"#utility.yul\":6306:6437   */\n      tag_141\n        /* \"#utility.yul\":6432:6436   */\n      dup2\n        /* \"#utility.yul\":6306:6437   */\n      tag_70\n      jump\t// in\n    tag_141:\n        /* \"#utility.yul\":6298:6437   */\n      swap1\n      pop\n        /* \"#utility.yul\":6025:6444   */\n      swap2\n      swap1\n      pop\n      jump\t// out\n        /* \"#utility.yul\":6450:6630   */\n    tag_36:\n        /* \"#utility.yul\":6498:6575   */\n      0x4e487b7100000000000000000000000000000000000000000000000000000000\n        /* \"#utility.yul\":6495:6496   */\n      0x00\n        /* \"#utility.yul\":6488:6576   */\n      mstore\n        /* \"#utility.yul\":6595:6599   */\n      0x32\n        /* \"#utility.yul\":6592:6593   */\n      0x04\n        /* \"#utility.yul\":6585:6600   */\n      mstore\n        /* \"#utility.yul\":6619:6623   */\n      0x24\n        /* \"#utility.yul\":6616:6617   */\n      0x00\n        /* \"#utility.yul\":6609:6624   */\n      revert\n\n    auxdata: 0xa26469706673582212208b3871c2b888d41a8d3d4d7097cb2b2a63745c5a7c7958127e809a6589679aa164736f6c63430008160033\n}\n",
				"bytecode": {
					"linkReferences": {},
					"object": "608060405234801561000f575f80fd5b5060405161066138038061066183398181016040528101906100319190610075565b80600181905550506100a0565b5f80fd5b5f819050919050565b61005481610042565b811461005e575f80fd5b50565b5f8151905061006f8161004b565b92915050565b5f6020828403121561008a5761008961003e565b5b5f61009784828501610061565b91505092915050565b6105b4806100ad5f395ff3fe608060405234801561000f575f80fd5b506004361061003f575f3560e01c80632eb4a7ab14610043578063b391c50814610061578063f8a8fd6d1461007d575b5f80fd5b61004b61009b565b6040516100589190610237565b60405180910390f35b61007b600480360381019061007691906103db565b6100a1565b005b61008561015a565b6040516100929190610461565b60405180910390f35b60015481565b5f336040516020016100b391906104bf565b6040516020818303038152906040528051906020012090506100d8826001548361017d565b610117576040517f08c379a000000000000000000000000000000000000000000000000000000000815260040161010e90610533565b60405180910390fd5b335f806101000a81548173ffffffffffffffffffffffffffffffffffffffff021916908373ffffffffffffffffffffffffffffffffffffffff1602179055505050565b5f8054906101000a900473ffffffffffffffffffffffffffffffffffffffff1681565b5f826101898584610193565b1490509392505050565b5f808290505f5b84518110156101d6576101c7828683815181106101ba576101b9610551565b5b60200260200101516101e1565b9150808060010191505061019a565b508091505092915050565b5f8183106101f8576101f3828461020b565b610203565b610202838361020b565b5b905092915050565b5f825f528160205260405f20905092915050565b5f819050919050565b6102318161021f565b82525050565b5f60208201905061024a5f830184610228565b92915050565b5f604051905090565b5f80fd5b5f80fd5b5f80fd5b5f601f19601f8301169050919050565b7f4e487b71000000000000000000000000000000000000000000000000000000005f52604160045260245ffd5b6102ab82610265565b810181811067ffffffffffffffff821117156102ca576102c9610275565b5b80604052505050565b5f6102dc610250565b90506102e882826102a2565b919050565b5f67ffffffffffffffff82111561030757610306610275565b5b602082029050602081019050919050565b5f80fd5b6103258161021f565b811461032f575f80fd5b50565b5f813590506103408161031c565b92915050565b5f610358610353846102ed565b6102d3565b9050808382526020820190506020840283018581111561037b5761037a610318565b5b835b818110156103a457806103908882610332565b84526020840193505060208101905061037d565b5050509392505050565b5f82601f8301126103c2576103c1610261565b5b81356103d2848260208601610346565b91505092915050565b5f602082840312156103f0576103ef610259565b5b5f82013567ffffffffffffffff81111561040d5761040c61025d565b5b610419848285016103ae565b91505092915050565b5f73ffffffffffffffffffffffffffffffffffffffff82169050919050565b5f61044b82610422565b9050919050565b61045b81610441565b82525050565b5f6020820190506104745f830184610452565b92915050565b5f8160601b9050919050565b5f6104908261047a565b9050919050565b5f6104a182610486565b9050919050565b6104b96104b482610441565b610497565b82525050565b5f6104ca82846104a8565b60148201915081905092915050565b5f82825260208201905092915050565b7f496e76616c69642070726f6f66000000000000000000000000000000000000005f82015250565b5f61051d600d836104d9565b9150610528826104e9565b602082019050919050565b5f6020820190508181035f83015261054a81610511565b9050919050565b7f4e487b71000000000000000000000000000000000000000000000000000000005f52603260045260245ffdfea26469706673582212208b3871c2b888d41a8d3d4d7097cb2b2a63745c5a7c7958127e809a6589679aa164736f6c63430008160033",
					"opcodes": "PUSH1 0x80 PUSH1 0x40 MSTORE CALLVALUE DUP1 ISZERO PUSH2 0xF JUMPI PUSH0 DUP1 REVERT JUMPDEST POP PUSH1 0x40 MLOAD PUSH2 0x661 CODESIZE SUB DUP1 PUSH2 0x661 DUP4 CODECOPY DUP2 DUP2 ADD PUSH1 0x40 MSTORE DUP2 ADD SWAP1 PUSH2 0x31 SWAP2 SWAP1 PUSH2 0x75 JUMP JUMPDEST DUP1 PUSH1 0x1 DUP2 SWAP1 SSTORE POP POP PUSH2 0xA0 JUMP JUMPDEST PUSH0 DUP1 REVERT JUMPDEST PUSH0 DUP2 SWAP1 POP SWAP2 SWAP1 POP JUMP JUMPDEST PUSH2 0x54 DUP2 PUSH2 0x42 JUMP JUMPDEST DUP2 EQ PUSH2 0x5E JUMPI PUSH0 DUP1 REVERT JUMPDEST POP JUMP JUMPDEST PUSH0 DUP2 MLOAD SWAP1 POP PUSH2 0x6F DUP2 PUSH2 0x4B JUMP JUMPDEST SWAP3 SWAP2 POP POP JUMP JUMPDEST PUSH0 PUSH1 0x20 DUP3 DUP5 SUB SLT ISZERO PUSH2 0x8A JUMPI PUSH2 0x89 PUSH2 0x3E JUMP JUMPDEST JUMPDEST PUSH0 PUSH2 0x97 DUP5 DUP3 DUP6 ADD PUSH2 0x61 JUMP JUMPDEST SWAP2 POP POP SWAP3 SWAP2 POP POP JUMP JUMPDEST PUSH2 0x5B4 DUP1 PUSH2 0xAD PUSH0 CODECOPY PUSH0 RETURN INVALID PUSH1 0x80 PUSH1 0x40 MSTORE CALLVALUE DUP1 ISZERO PUSH2 0xF JUMPI PUSH0 DUP1 REVERT JUMPDEST POP PUSH1 0x4 CALLDATASIZE LT PUSH2 0x3F JUMPI PUSH0 CALLDATALOAD PUSH1 0xE0 SHR DUP1 PUSH4 0x2EB4A7AB EQ PUSH2 0x43 JUMPI DUP1 PUSH4 0xB391C508 EQ PUSH2 0x61 JUMPI DUP1 PUSH4 0xF8A8FD6D EQ PUSH2 0x7D JUMPI JUMPDEST PUSH0 DUP1 REVERT JUMPDEST PUSH2 0x4B PUSH2 0x9B JUMP JUMPDEST PUSH1 0x40 MLOAD PUSH2 0x58 SWAP2 SWAP1 PUSH2 0x237 JUMP JUMPDEST PUSH1 0x40 MLOAD DUP1 SWAP2 SUB SWAP1 RETURN JUMPDEST PUSH2 0x7B PUSH1 0x4 DUP1 CALLDATASIZE SUB DUP2 ADD SWAP1 PUSH2 0x76 SWAP2 SWAP1 PUSH2 0x3DB JUMP JUMPDEST PUSH2 0xA1 JUMP JUMPDEST STOP JUMPDEST PUSH2 0x85 PUSH2 0x15A JUMP JUMPDEST PUSH1 0x40 MLOAD PUSH2 0x92 SWAP2 SWAP1 PUSH2 0x461 JUMP JUMPDEST PUSH1 0x40 MLOAD DUP1 SWAP2 SUB SWAP1 RETURN JUMPDEST PUSH1 0x1 SLOAD DUP2 JUMP JUMPDEST PUSH0 CALLER PUSH1 0x40 MLOAD PUSH1 0x20 ADD PUSH2 0xB3 SWAP2 SWAP1 PUSH2 0x4BF JUMP JUMPDEST PUSH1 0x40 MLOAD PUSH1 0x20 DUP2 DUP4 SUB SUB DUP2 MSTORE SWAP1 PUSH1 0x40 MSTORE DUP1 MLOAD SWAP1 PUSH1 0x20 ADD KECCAK256 SWAP1 POP PUSH2 0xD8 DUP3 PUSH1 0x1 SLOAD DUP4 PUSH2 0x17D JUMP JUMPDEST PUSH2 0x117 JUMPI PUSH1 0x40 MLOAD PUSH32 0x8C379A000000000000000000000000000000000000000000000000000000000 DUP2 MSTORE PUSH1 0x4 ADD PUSH2 0x10E SWAP1 PUSH2 0x533 JUMP JUMPDEST PUSH1 0x40 MLOAD DUP1 SWAP2 SUB SWAP1 REVERT JUMPDEST CALLER PUSH0 DUP1 PUSH2 0x100 EXP DUP2 SLOAD DUP2 PUSH20 0xFFFFFFFFFFFFFFFFFFFFFFFFFFFFFFFFFFFFFFFF MUL NOT AND SWAP1 DUP4 PUSH20 0xFFFFFFFFFFFFFFFFFFFFFFFFFFFFFFFFFFFFFFFF AND MUL OR SWAP1 SSTORE POP POP POP JUMP JUMPDEST PUSH0 DUP1 SLOAD SWAP1 PUSH2 0x100 EXP SWAP1 DIV PUSH20 0xFFFFFFFFFFFFFFFFFFFFFFFFFFFFFFFFFFFFFFFF AND DUP2 JUMP JUMPDEST PUSH0 DUP3 PUSH2 0x189 DUP6 DUP5 PUSH2 0x193 JUMP JUMPDEST EQ SWAP1 POP SWAP4 SWAP3 POP POP POP JUMP JUMPDEST PUSH0 DUP1 DUP3 SWAP1 POP PUSH0 JUMPDEST DUP5 MLOAD DUP2 LT ISZERO PUSH2 0x1D6 JUMPI PUSH2 0x1C7 DUP3 DUP7 DUP4 DUP2 MLOAD DUP2 LT PUSH2 0x1BA JUMPI PUSH2 0x1B9 PUSH2 0x551 JUMP JUMPDEST JUMPDEST PUSH1 0x20 MUL PUSH1 0x20 ADD ADD MLOAD PUSH2 0x1E1 JUMP JUMPDEST SWAP2 POP DUP1 DUP1 PUSH1 0x1 ADD SWAP2 POP POP PUSH2 0x19A JUMP JUMPDEST POP DUP1 SWAP2 POP POP SWAP3 SWAP2 POP POP JUMP JUMPDEST PUSH0 DUP2 DUP4 LT PUSH2 0x1F8 JUMPI PUSH2 0x1F3 DUP3 DUP5 PUSH2 0x20B JUMP JUMPDEST PUSH2 0x203 JUMP JUMPDEST PUSH2 0x202 DUP4 DUP4 PUSH2 0x20B JUMP JUMPDEST JUMPDEST SWAP1 POP SWAP3 SWAP2 POP POP JUMP JUMPDEST PUSH0 DUP3 PUSH0 MSTORE DUP2 PUSH1 0x20 MSTORE PUSH1 0x40 PUSH0 KECCAK256 SWAP1 POP SWAP3 SWAP2 POP POP JUMP JUMPDEST PUSH0 DUP2 SWAP1 POP SWAP2 SWAP1 POP JUMP JUMPDEST PUSH2 0x231 DUP2 PUSH2 0x21F JUMP JUMPDEST DUP3 MSTORE POP POP JUMP JUMPDEST PUSH0 PUSH1 0x20 DUP3 ADD SWAP1 POP PUSH2 0x24A PUSH0 DUP4 ADD DUP5 PUSH2 0x228 JUMP JUMPDEST SWAP3 SWAP2 POP POP JUMP JUMPDEST PUSH0 PUSH1 0x40 MLOAD SWAP1 POP SWAP1 JUMP JUMPDEST PUSH0 DUP1 REVERT JUMPDEST PUSH0 DUP1 REVERT JUMPDEST PUSH0 DUP1 REVERT JUMPDEST PUSH0 PUSH1 0x1F NOT PUSH1 0x1F DUP4 ADD AND SWAP1 POP SWAP2 SWAP1 POP JUMP JUMPDEST PUSH32 0x4E487B7100000000000000000000000000000000000000000000000000000000 PUSH0 MSTORE PUSH1 0x41 PUSH1 0x4 MSTORE PUSH1 0x24 PUSH0 REVERT JUMPDEST PUSH2 0x2AB DUP3 PUSH2 0x265 JUMP JUMPDEST DUP2 ADD DUP2 DUP2 LT PUSH8 0xFFFFFFFFFFFFFFFF DUP3 GT OR ISZERO PUSH2 0x2CA JUMPI PUSH2 0x2C9 PUSH2 0x275 JUMP JUMPDEST JUMPDEST DUP1 PUSH1 0x40 MSTORE POP POP POP JUMP JUMPDEST PUSH0 PUSH2 0x2DC PUSH2 0x250 JUMP JUMPDEST SWAP1 POP PUSH2 0x2E8 DUP3 DUP3 PUSH2 0x2A2 JUMP JUMPDEST SWAP2 SWAP1 POP JUMP JUMPDEST PUSH0 PUSH8 0xFFFFFFFFFFFFFFFF DUP3 GT ISZERO PUSH2 0x307 JUMPI PUSH2 0x306 PUSH2 0x275 JUMP JUMPDEST JUMPDEST PUSH1 0x20 DUP3 MUL SWAP1 POP PUSH1 0x20 DUP2 ADD SWAP1 POP SWAP2 SWAP1 POP JUMP JUMPDEST PUSH0 DUP1 REVERT JUMPDEST PUSH2 0x325 DUP2 PUSH2 0x21F JUMP JUMPDEST DUP2 EQ PUSH2 0x32F JUMPI PUSH0 DUP1 REVERT JUMPDEST POP JUMP JUMPDEST PUSH0 DUP2 CALLDATALOAD SWAP1 POP PUSH2 0x340 DUP2 PUSH2 0x31C JUMP JUMPDEST SWAP3 SWAP2 POP POP JUMP JUMPDEST PUSH0 PUSH2 0x358 PUSH2 0x353 DUP5 PUSH2 0x2ED JUMP JUMPDEST PUSH2 0x2D3 JUMP JUMPDEST SWAP1 POP DUP1 DUP4 DUP3 MSTORE PUSH1 0x20 DUP3 ADD SWAP1 POP PUSH1 0x20 DUP5 MUL DUP4 ADD DUP6 DUP2 GT ISZERO PUSH2 0x37B JUMPI PUSH2 0x37A PUSH2 0x318 JUMP JUMPDEST JUMPDEST DUP4 JUMPDEST DUP2 DUP2 LT ISZERO PUSH2 0x3A4 JUMPI DUP1 PUSH2 0x390 DUP9 DUP3 PUSH2 0x332 JUMP JUMPDEST DUP5 MSTORE PUSH1 0x20 DUP5 ADD SWAP4 POP POP PUSH1 0x20 DUP2 ADD SWAP1 POP PUSH2 0x37D JUMP JUMPDEST POP POP POP SWAP4 SWAP3 POP POP POP JUMP JUMPDEST PUSH0 DUP3 PUSH1 0x1F DUP4 ADD SLT PUSH2 0x3C2 JUMPI PUSH2 0x3C1 PUSH2 0x261 JUMP JUMPDEST JUMPDEST DUP2 CALLDATALOAD PUSH2 0x3D2 DUP5 DUP3 PUSH1 0x20 DUP7 ADD PUSH2 0x346 JUMP JUMPDEST SWAP2 POP POP SWAP3 SWAP2 POP POP JUMP JUMPDEST PUSH0 PUSH1 0x20 DUP3 DUP5 SUB SLT ISZERO PUSH2 0x3F0 JUMPI PUSH2 0x3EF PUSH2 0x259 JUMP JUMPDEST JUMPDEST PUSH0 DUP3 ADD CALLDATALOAD PUSH8 0xFFFFFFFFFFFFFFFF DUP2 GT ISZERO PUSH2 0x40D JUMPI PUSH2 0x40C PUSH2 0x25D JUMP JUMPDEST JUMPDEST PUSH2 0x419 DUP5 DUP3 DUP6 ADD PUSH2 0x3AE JUMP JUMPDEST SWAP2 POP POP SWAP3 SWAP2 POP POP JUMP JUMPDEST PUSH0 PUSH20 0xFFFFFFFFFFFFFFFFFFFFFFFFFFFFFFFFFFFFFFFF DUP3 AND SWAP1 POP SWAP2 SWAP1 POP JUMP JUMPDEST PUSH0 PUSH2 0x44B DUP3 PUSH2 0x422 JUMP JUMPDEST SWAP1 POP SWAP2 SWAP1 POP JUMP JUMPDEST PUSH2 0x45B DUP2 PUSH2 0x441 JUMP JUMPDEST DUP3 MSTORE POP POP JUMP JUMPDEST PUSH0 PUSH1 0x20 DUP3 ADD SWAP1 POP PUSH2 0x474 PUSH0 DUP4 ADD DUP5 PUSH2 0x452 JUMP JUMPDEST SWAP3 SWAP2 POP POP JUMP JUMPDEST PUSH0 DUP2 PUSH1 0x60 SHL SWAP1 POP SWAP2 SWAP1 POP JUMP JUMPDEST PUSH0 PUSH2 0x490 DUP3 PUSH2 0x47A JUMP JUMPDEST SWAP1 POP SWAP2 SWAP1 POP JUMP JUMPDEST PUSH0 PUSH2 0x4A1 DUP3 PUSH2 0x486 JUMP JUMPDEST SWAP1 POP SWAP2 SWAP1 POP JUMP JUMPDEST PUSH2 0x4B9 PUSH2 0x4B4 DUP3 PUSH2 0x441 JUMP JUMPDEST PUSH2 0x497 JUMP JUMPDEST DUP3 MSTORE POP POP JUMP JUMPDEST PUSH0 PUSH2 0x4CA DUP3 DUP5 PUSH2 0x4A8 JUMP JUMPDEST PUSH1 0x14 DUP3 ADD SWAP2 POP DUP2 SWAP1 POP SWAP3 SWAP2 POP POP JUMP JUMPDEST PUSH0 DUP3 DUP3 MSTORE PUSH1 0x20 DUP3 ADD SWAP1 POP SWAP3 SWAP2 POP POP JUMP JUMPDEST PUSH32 0x496E76616C69642070726F6F6600000000000000000000000000000000000000 PUSH0 DUP3 ADD MSTORE POP JUMP JUMPDEST PUSH0 PUSH2 0x51D PUSH1 0xD DUP4 PUSH2 0x4D9 JUMP JUMPDEST SWAP2 POP PUSH2 0x528 DUP3 PUSH2 0x4E9 JUMP JUMPDEST PUSH1 0x20 DUP3 ADD SWAP1 POP SWAP2 SWAP1 POP JUMP JUMPDEST PUSH0 PUSH1 0x20 DUP3 ADD SWAP1 POP DUP2 DUP2 SUB PUSH0 DUP4 ADD MSTORE PUSH2 0x54A DUP2 PUSH2 0x511 JUMP JUMPDEST SWAP1 POP SWAP2 SWAP1 POP JUMP JUMPDEST PUSH32 0x4E487B7100000000000000000000000000000000000000000000000000000000 PUSH0 MSTORE PUSH1 0x32 PUSH1 0x4 MSTORE PUSH1 0x24 PUSH0 REVERT INVALID LOG2 PUSH5 0x6970667358 0x22 SLT KECCAK256 DUP12 CODESIZE PUSH18 0xC2B888D41A8D3D4D7097CB2B2A63745C5A7C PUSH26 0x58127E809A6589679AA164736F6C634300081600330000000000 "
				},
				"gasEstimates": {
					"creation": {
						"codeDepositCost": "292000",
						"executionCost": "infinite",
						"totalCost": "infinite"
					},
					"external": {
						"claim(bytes32[])": "infinite",
						"merkleRoot()": "2403",
						"test()": "2527"
					}
				},
				"methodIdentifiers": {
					"claim(bytes32[])": "b391c508",
					"merkleRoot()": "2eb4a7ab",
					"test()": "f8a8fd6d"
				}
			},
			"storageLayout": {
				"storage": [
					{
						"astId": 541,
						"contract": "tests/new/new2.sol:NFTMint",
						"label": "test",
						"offset": 0,
						"slot": "0",
						"type": "t_address"
					},
					{
						"astId": 543,
						"contract": "tests/new/new2.sol:NFTMint",
						"label": "merkleRoot",
						"offset": 0,
						"slot": "1",
						"type": "t_bytes32"
					}
				],
				"types": {
					"t_address": {
						"encoding": "inplace",
						"label": "address",
						"numberOfBytes": "20"
					},
					"t_bytes32": {
						"encoding": "inplace",
						"label": "bytes32",
						"numberOfBytes": "32"
					}
				}
			},
			"userdoc": {
				"kind": "user",
				"methods": {},
				"version": 1
			}
		}
	}
}