{
	"tests/new/usecase2part2.sol": {
		"Bank": {
			"abi": [
				{
					"inputs": [],
					"stateMutability": "nonpayable",
					"type": "constructor"
				},
				{
					"anonymous": false,
					"inputs": [
						{
							"indexed": false,
							"internalType": "uint256",
							"name": "amount",
							"type": "uint256"
						},
						{
							"indexed": true,
							"internalType": "address",
							"name": "depositedOwner",
							"type": "address"
						}
					],
					"name": "depositedFund",
					"type": "event"
				},
				{
					"anonymous": false,
					"inputs": [
						{
							"indexed": false,
							"internalType": "uint256",
							"name": "amount",
							"type": "uint256"
						},
						{
							"indexed": true,
							"internalType": "address",
							"name": "withdrawalOwner",
							"type": "address"
						}
					],
					"name": "withdrawalFund",
					"type": "event"
				},
				{
					"inputs": [
						{
							"internalType": "address",
							"name": "",
							"type": "address"
						}
					],
					"name": "depositFund",
					"outputs": [
						{
							"internalType": "uint256",
							"name": "",
							"type": "uint256"
						}
					],
					"stateMutability": "view",
					"type": "function"
				},
				{
					"inputs": [],
					"name": "deposite",
					"outputs": [],
					"stateMutability": "payable",
					"type": "function"
				},
				{
					"inputs": [],
					"name": "getBalance",
					"outputs": [
						{
							"internalType": "uint256",
							"name": "balance",
							"type": "uint256"
						}
					],
					"stateMutability": "view",
					"type": "function"
				},
				{
					"inputs": [],
					"name": "markleRoot",
					"outputs": [
						{
							"internalType": "bytes32",
							"name": "",
							"type": "bytes32"
						}
					],
					"stateMutability": "view",
					"type": "function"
				},
				{
					"inputs": [
						{
							"internalType": "address",
							"name": "",
							"type": "address"
						}
					],
					"name": "whitelistClaimed",
					"outputs": [
						{
							"internalType": "bool",
							"name": "",
							"type": "bool"
						}
					],
					"stateMutability": "view",
					"type": "function"
				},
				{
					"inputs": [
						{
							"internalType": "bytes32[]",
							"name": "_merkaleProof",
							"type": "bytes32[]"
						}
					],
					"name": "whitelistMint",
					"outputs": [],
					"stateMutability": "nonpayable",
					"type": "function"
				},
				{
					"inputs": [
						{
							"internalType": "uint256",
							"name": "_amount",
							"type": "uint256"
						}
					],
					"name": "withdrawal",
					"outputs": [],
					"stateMutability": "nonpayable",
					"type": "function"
				},
				{
					"inputs": [
						{
							"internalType": "address",
							"name": "",
							"type": "address"
						}
					],
					"name": "withdrawlFund",
					"outputs": [
						{
							"internalType": "uint256",
							"name": "",
							"type": "uint256"
						}
					],
					"stateMutability": "view",
					"type": "function"
				}
			],
			"devdoc": {
				"kind": "dev",
				"methods": {},
				"version": 1
			},
			"evm": {
				"assembly": "    /* \"tests/new/usecase2part2.sol\":133:1868  contract Bank{... */\n  mstore(0x40, 0x80)\n    /* \"tests/new/usecase2part2.sol\":1342:1408  0x9d997719c0a5b5f6db9b8ac69a988be57cf324cb9fffd51dc2c37544bb520d65 */\n  0x9d997719c0a5b5f6db9b8ac69a988be57cf324cb9fffd51dc2c37544bb520d65\n    /* \"tests/new/usecase2part2.sol\":1314:1408  bytes32 public markleRoot = 0x9d997719c0a5b5f6db9b8ac69a988be57cf324cb9fffd51dc2c37544bb520d65 */\n  0x00\n  shl\n  0x03\n  sstore\n    /* \"tests/new/usecase2part2.sol\":765:816  constructor() {... */\n  callvalue\n  dup1\n  iszero\n  tag_1\n  jumpi\n  0x00\n  dup1\n  revert\ntag_1:\n  pop\n    /* \"tests/new/usecase2part2.sol\":798:808  msg.sender */\n  caller\n    /* \"tests/new/usecase2part2.sol\":790:795  owner */\n  0x02\n  0x00\n    /* \"tests/new/usecase2part2.sol\":790:808  owner = msg.sender */\n  0x0100\n  exp\n  dup2\n  sload\n  dup2\n  0xffffffffffffffffffffffffffffffffffffffff\n  mul\n  not\n  and\n  swap1\n  dup4\n  0xffffffffffffffffffffffffffffffffffffffff\n  and\n  mul\n  or\n  swap1\n  sstore\n  pop\n    /* \"tests/new/usecase2part2.sol\":133:1868  contract Bank{... */\n  dataSize(sub_0)\n  dup1\n  dataOffset(sub_0)\n  0x00\n  codecopy\n  0x00\n  return\nstop\n\nsub_0: assembly {\n        /* \"tests/new/usecase2part2.sol\":133:1868  contract Bank{... */\n      mstore(0x40, 0x80)\n      jumpi(tag_1, lt(calldatasize, 0x04))\n      shr(0xe0, calldataload(0x00))\n      dup1\n      0xa1a049a7\n      gt\n      tag_10\n      jumpi\n      dup1\n      0xa1a049a7\n      eq\n      tag_6\n      jumpi\n      dup1\n      0xa50ec326\n      eq\n      tag_7\n      jumpi\n      dup1\n      0xdb4bec44\n      eq\n      tag_8\n      jumpi\n      dup1\n      0xe12d4a52\n      eq\n      tag_9\n      jumpi\n      jump(tag_1)\n    tag_10:\n      dup1\n      0x12065fe0\n      eq\n      tag_2\n      jumpi\n      dup1\n      0x372f657c\n      eq\n      tag_3\n      jumpi\n      dup1\n      0x835fc6ca\n      eq\n      tag_4\n      jumpi\n      dup1\n      0xa14c2d5b\n      eq\n      tag_5\n      jumpi\n    tag_1:\n      0x00\n      dup1\n      revert\n        /* \"tests/new/usecase2part2.sol\":1173:1306  function getBalance() public view returns (uint balance){... */\n    tag_2:\n      callvalue\n      dup1\n      iszero\n      tag_11\n      jumpi\n      0x00\n      dup1\n      revert\n    tag_11:\n      pop\n      tag_12\n      tag_13\n      jump\t// in\n    tag_12:\n      mload(0x40)\n      tag_14\n      swap2\n      swap1\n      tag_15\n      jump\t// in\n    tag_14:\n      mload(0x40)\n      dup1\n      swap2\n      sub\n      swap1\n      return\n        /* \"tests/new/usecase2part2.sol\":1478:1865  function whitelistMint(bytes32[] memory _merkaleProof) public {... */\n    tag_3:\n      callvalue\n      dup1\n      iszero\n      tag_16\n      jumpi\n      0x00\n      dup1\n      revert\n    tag_16:\n      pop\n      tag_17\n      0x04\n      dup1\n      calldatasize\n      sub\n      dup2\n      add\n      swap1\n      tag_18\n      swap2\n      swap1\n      tag_19\n      jump\t// in\n    tag_18:\n      tag_20\n      jump\t// in\n    tag_17:\n      stop\n        /* \"tests/new/usecase2part2.sol\":984:1165  function withdrawal(uint _amount) public onlyOwner isWithdraw(_amount) {... */\n    tag_4:\n      callvalue\n      dup1\n      iszero\n      tag_21\n      jumpi\n      0x00\n      dup1\n      revert\n    tag_21:\n      pop\n      tag_22\n      0x04\n      dup1\n      calldatasize\n      sub\n      dup2\n      add\n      swap1\n      tag_23\n      swap2\n      swap1\n      tag_24\n      jump\t// in\n    tag_23:\n      tag_25\n      jump\t// in\n    tag_22:\n      stop\n        /* \"tests/new/usecase2part2.sol\":203:249  mapping (address => uint) public withdrawlFund */\n    tag_5:\n      callvalue\n      dup1\n      iszero\n      tag_26\n      jumpi\n      0x00\n      dup1\n      revert\n    tag_26:\n      pop\n      tag_27\n      0x04\n      dup1\n      calldatasize\n      sub\n      dup2\n      add\n      swap1\n      tag_28\n      swap2\n      swap1\n      tag_29\n      jump\t// in\n    tag_28:\n      tag_30\n      jump\t// in\n    tag_27:\n      mload(0x40)\n      tag_31\n      swap2\n      swap1\n      tag_15\n      jump\t// in\n    tag_31:\n      mload(0x40)\n      dup1\n      swap2\n      sub\n      swap1\n      return\n        /* \"tests/new/usecase2part2.sol\":1314:1408  bytes32 public markleRoot = 0x9d997719c0a5b5f6db9b8ac69a988be57cf324cb9fffd51dc2c37544bb520d65 */\n    tag_6:\n      callvalue\n      dup1\n      iszero\n      tag_32\n      jumpi\n      0x00\n      dup1\n      revert\n    tag_32:\n      pop\n      tag_33\n      tag_34\n      jump\t// in\n    tag_33:\n      mload(0x40)\n      tag_35\n      swap2\n      swap1\n      tag_36\n      jump\t// in\n    tag_35:\n      mload(0x40)\n      dup1\n      swap2\n      sub\n      swap1\n      return\n        /* \"tests/new/usecase2part2.sol\":824:976  function deposite() public onlyOwner payable {... */\n    tag_7:\n      tag_37\n      tag_38\n      jump\t// in\n    tag_37:\n      stop\n        /* \"tests/new/usecase2part2.sol\":1417:1465  mapping (address=> bool) public whitelistClaimed */\n    tag_8:\n      callvalue\n      dup1\n      iszero\n      tag_39\n      jumpi\n      0x00\n      dup1\n      revert\n    tag_39:\n      pop\n      tag_40\n      0x04\n      dup1\n      calldatasize\n      sub\n      dup2\n      add\n      swap1\n      tag_41\n      swap2\n      swap1\n      tag_29\n      jump\t// in\n    tag_41:\n      tag_42\n      jump\t// in\n    tag_40:\n      mload(0x40)\n      tag_43\n      swap2\n      swap1\n      tag_44\n      jump\t// in\n    tag_43:\n      mload(0x40)\n      dup1\n      swap2\n      sub\n      swap1\n      return\n        /* \"tests/new/usecase2part2.sol\":153:196  mapping(address => uint) public depositFund */\n    tag_9:\n      callvalue\n      dup1\n      iszero\n      tag_45\n      jumpi\n      0x00\n      dup1\n      revert\n    tag_45:\n      pop\n      tag_46\n      0x04\n      dup1\n      calldatasize\n      sub\n      dup2\n      add\n      swap1\n      tag_47\n      swap2\n      swap1\n      tag_29\n      jump\t// in\n    tag_47:\n      tag_48\n      jump\t// in\n    tag_46:\n      mload(0x40)\n      tag_49\n      swap2\n      swap1\n      tag_15\n      jump\t// in\n    tag_49:\n      mload(0x40)\n      dup1\n      swap2\n      sub\n      swap1\n      return\n        /* \"tests/new/usecase2part2.sol\":1173:1306  function getBalance() public view returns (uint balance){... */\n    tag_13:\n        /* \"tests/new/usecase2part2.sol\":1216:1228  uint balance */\n      0x00\n        /* \"tests/new/usecase2part2.sol\":1273:1286  withdrawlFund */\n      0x01\n        /* \"tests/new/usecase2part2.sol\":1273:1298  withdrawlFund[msg.sender] */\n      0x00\n        /* \"tests/new/usecase2part2.sol\":1287:1297  msg.sender */\n      caller\n        /* \"tests/new/usecase2part2.sol\":1273:1298  withdrawlFund[msg.sender] */\n      0xffffffffffffffffffffffffffffffffffffffff\n      and\n      0xffffffffffffffffffffffffffffffffffffffff\n      and\n      dup2\n      mstore\n      0x20\n      add\n      swap1\n      dup2\n      mstore\n      0x20\n      add\n      0x00\n      keccak256\n      sload\n        /* \"tests/new/usecase2part2.sol\":1247:1258  depositFund */\n      0x00\n        /* \"tests/new/usecase2part2.sol\":1247:1270  depositFund[msg.sender] */\n      dup1\n        /* \"tests/new/usecase2part2.sol\":1259:1269  msg.sender */\n      caller\n        /* \"tests/new/usecase2part2.sol\":1247:1270  depositFund[msg.sender] */\n      0xffffffffffffffffffffffffffffffffffffffff\n      and\n      0xffffffffffffffffffffffffffffffffffffffff\n      and\n      dup2\n      mstore\n      0x20\n      add\n      swap1\n      dup2\n      mstore\n      0x20\n      add\n      0x00\n      keccak256\n      sload\n        /* \"tests/new/usecase2part2.sol\":1247:1298  depositFund[msg.sender] - withdrawlFund[msg.sender] */\n      tag_51\n      swap2\n      swap1\n      tag_52\n      jump\t// in\n    tag_51:\n        /* \"tests/new/usecase2part2.sol\":1240:1298  return depositFund[msg.sender] - withdrawlFund[msg.sender] */\n      swap1\n      pop\n        /* \"tests/new/usecase2part2.sol\":1173:1306  function getBalance() public view returns (uint balance){... */\n      swap1\n      jump\t// out\n        /* \"tests/new/usecase2part2.sol\":1478:1865  function whitelistMint(bytes32[] memory _merkaleProof) public {... */\n    tag_20:\n        /* \"tests/new/usecase2part2.sol\":1560:1576  whitelistClaimed */\n      0x04\n        /* \"tests/new/usecase2part2.sol\":1560:1588  whitelistClaimed[msg.sender] */\n      0x00\n        /* \"tests/new/usecase2part2.sol\":1577:1587  msg.sender */\n      caller\n        /* \"tests/new/usecase2part2.sol\":1560:1588  whitelistClaimed[msg.sender] */\n      0xffffffffffffffffffffffffffffffffffffffff\n      and\n      0xffffffffffffffffffffffffffffffffffffffff\n      and\n      dup2\n      mstore\n      0x20\n      add\n      swap1\n      dup2\n      mstore\n      0x20\n      add\n      0x00\n      keccak256\n      0x00\n      swap1\n      sload\n      swap1\n      0x0100\n      exp\n      swap1\n      div\n      0xff\n      and\n        /* \"tests/new/usecase2part2.sol\":1559:1588  !whitelistClaimed[msg.sender] */\n      iszero\n        /* \"tests/new/usecase2part2.sol\":1551:1616  require(!whitelistClaimed[msg.sender], \"Address already claimed\") */\n      tag_54\n      jumpi\n      mload(0x40)\n      0x08c379a000000000000000000000000000000000000000000000000000000000\n      dup2\n      mstore\n      0x04\n      add\n      tag_55\n      swap1\n      tag_56\n      jump\t// in\n    tag_55:\n      mload(0x40)\n      dup1\n      swap2\n      sub\n      swap1\n      revert\n    tag_54:\n        /* \"tests/new/usecase2part2.sol\":1629:1641  bytes32 leaf */\n      0x00\n        /* \"tests/new/usecase2part2.sol\":1665:1675  msg.sender */\n      caller\n        /* \"tests/new/usecase2part2.sol\":1654:1676  abi.encode(msg.sender) */\n      add(0x20, mload(0x40))\n      tag_57\n      swap2\n      swap1\n      tag_58\n      jump\t// in\n    tag_57:\n      mload(0x40)\n      0x20\n      dup2\n      dup4\n      sub\n      sub\n      dup2\n      mstore\n      swap1\n      0x40\n      mstore\n        /* \"tests/new/usecase2part2.sol\":1644:1677  keccak256(abi.encode(msg.sender)) */\n      dup1\n      mload\n      swap1\n      0x20\n      add\n      keccak256\n        /* \"tests/new/usecase2part2.sol\":1629:1677  bytes32 leaf = keccak256(abi.encode(msg.sender)) */\n      swap1\n      pop\n        /* \"tests/new/usecase2part2.sol\":1712:1763  MerkleProof.verify(_merkaleProof, markleRoot, leaf) */\n      tag_59\n        /* \"tests/new/usecase2part2.sol\":1731:1744  _merkaleProof */\n      dup3\n        /* \"tests/new/usecase2part2.sol\":1746:1756  markleRoot */\n      sload(0x03)\n        /* \"tests/new/usecase2part2.sol\":1758:1762  leaf */\n      dup4\n        /* \"tests/new/usecase2part2.sol\":1712:1730  MerkleProof.verify */\n      tag_60\n        /* \"tests/new/usecase2part2.sol\":1712:1763  MerkleProof.verify(_merkaleProof, markleRoot, leaf) */\n      jump\t// in\n    tag_59:\n        /* \"tests/new/usecase2part2.sol\":1690:1809  require(... */\n      tag_61\n      jumpi\n      mload(0x40)\n      0x08c379a000000000000000000000000000000000000000000000000000000000\n      dup2\n      mstore\n      0x04\n      add\n      tag_62\n      swap1\n      tag_63\n      jump\t// in\n    tag_62:\n      mload(0x40)\n      dup1\n      swap2\n      sub\n      swap1\n      revert\n    tag_61:\n        /* \"tests/new/usecase2part2.sol\":1853:1857  true */\n      0x01\n        /* \"tests/new/usecase2part2.sol\":1822:1838  whitelistClaimed */\n      0x04\n        /* \"tests/new/usecase2part2.sol\":1822:1850  whitelistClaimed[msg.sender] */\n      0x00\n        /* \"tests/new/usecase2part2.sol\":1839:1849  msg.sender */\n      caller\n        /* \"tests/new/usecase2part2.sol\":1822:1850  whitelistClaimed[msg.sender] */\n      0xffffffffffffffffffffffffffffffffffffffff\n      and\n      0xffffffffffffffffffffffffffffffffffffffff\n      and\n      dup2\n      mstore\n      0x20\n      add\n      swap1\n      dup2\n      mstore\n      0x20\n      add\n      0x00\n      keccak256\n      0x00\n        /* \"tests/new/usecase2part2.sol\":1822:1857  whitelistClaimed[msg.sender] = true */\n      0x0100\n      exp\n      dup2\n      sload\n      dup2\n      0xff\n      mul\n      not\n      and\n      swap1\n      dup4\n      iszero\n      iszero\n      mul\n      or\n      swap1\n      sstore\n      pop\n        /* \"tests/new/usecase2part2.sol\":1540:1865  {... */\n      pop\n        /* \"tests/new/usecase2part2.sol\":1478:1865  function whitelistMint(bytes32[] memory _merkaleProof) public {... */\n      pop\n      jump\t// out\n        /* \"tests/new/usecase2part2.sol\":984:1165  function withdrawal(uint _amount) public onlyOwner isWithdraw(_amount) {... */\n    tag_25:\n        /* \"tests/new/usecase2part2.sol\":489:494  owner */\n      0x02\n      0x00\n      swap1\n      sload\n      swap1\n      0x0100\n      exp\n      swap1\n      div\n      0xffffffffffffffffffffffffffffffffffffffff\n      and\n        /* \"tests/new/usecase2part2.sol\":475:494  msg.sender == owner */\n      0xffffffffffffffffffffffffffffffffffffffff\n      and\n        /* \"tests/new/usecase2part2.sol\":475:485  msg.sender */\n      caller\n        /* \"tests/new/usecase2part2.sol\":475:494  msg.sender == owner */\n      0xffffffffffffffffffffffffffffffffffffffff\n      and\n      eq\n        /* \"tests/new/usecase2part2.sol\":467:508  require(msg.sender == owner, \"Not Allow\") */\n      tag_65\n      jumpi\n      mload(0x40)\n      0x08c379a000000000000000000000000000000000000000000000000000000000\n      dup2\n      mstore\n      0x04\n      add\n      tag_66\n      swap1\n      tag_67\n      jump\t// in\n    tag_66:\n      mload(0x40)\n      dup1\n      swap2\n      sub\n      swap1\n      revert\n    tag_65:\n        /* \"tests/new/usecase2part2.sol\":1046:1053  _amount */\n      dup1\n        /* \"tests/new/usecase2part2.sol\":580:603  uint previousWithdrawal */\n      0x00\n        /* \"tests/new/usecase2part2.sol\":606:619  withdrawlFund */\n      0x01\n        /* \"tests/new/usecase2part2.sol\":606:631  withdrawlFund[msg.sender] */\n      0x00\n        /* \"tests/new/usecase2part2.sol\":620:630  msg.sender */\n      caller\n        /* \"tests/new/usecase2part2.sol\":606:631  withdrawlFund[msg.sender] */\n      0xffffffffffffffffffffffffffffffffffffffff\n      and\n      0xffffffffffffffffffffffffffffffffffffffff\n      and\n      dup2\n      mstore\n      0x20\n      add\n      swap1\n      dup2\n      mstore\n      0x20\n      add\n      0x00\n      keccak256\n      sload\n        /* \"tests/new/usecase2part2.sol\":580:631  uint previousWithdrawal = withdrawlFund[msg.sender] */\n      swap1\n      pop\n        /* \"tests/new/usecase2part2.sol\":698:704  amount */\n      dup2\n        /* \"tests/new/usecase2part2.sol\":676:694  previousWithdrawal */\n      dup2\n        /* \"tests/new/usecase2part2.sol\":650:661  depositFund */\n      0x00\n        /* \"tests/new/usecase2part2.sol\":650:673  depositFund[msg.sender] */\n      dup1\n        /* \"tests/new/usecase2part2.sol\":662:672  msg.sender */\n      caller\n        /* \"tests/new/usecase2part2.sol\":650:673  depositFund[msg.sender] */\n      0xffffffffffffffffffffffffffffffffffffffff\n      and\n      0xffffffffffffffffffffffffffffffffffffffff\n      and\n      dup2\n      mstore\n      0x20\n      add\n      swap1\n      dup2\n      mstore\n      0x20\n      add\n      0x00\n      keccak256\n      sload\n        /* \"tests/new/usecase2part2.sol\":650:694  depositFund[msg.sender] - previousWithdrawal */\n      tag_69\n      swap2\n      swap1\n      tag_52\n      jump\t// in\n    tag_69:\n        /* \"tests/new/usecase2part2.sol\":650:704  depositFund[msg.sender] - previousWithdrawal >= amount */\n      lt\n      iszero\n        /* \"tests/new/usecase2part2.sol\":642:737  require(depositFund[msg.sender] - previousWithdrawal >= amount, \"Insufficient Account Balance\") */\n      tag_70\n      jumpi\n      mload(0x40)\n      0x08c379a000000000000000000000000000000000000000000000000000000000\n      dup2\n      mstore\n      0x04\n      add\n      tag_71\n      swap1\n      tag_72\n      jump\t// in\n    tag_71:\n      mload(0x40)\n      dup1\n      swap2\n      sub\n      swap1\n      revert\n    tag_70:\n        /* \"tests/new/usecase2part2.sol\":1095:1102  _amount */\n      dup3\n        /* \"tests/new/usecase2part2.sol\":1066:1079  withdrawlFund */\n      0x01\n        /* \"tests/new/usecase2part2.sol\":1066:1091  withdrawlFund[msg.sender] */\n      0x00\n        /* \"tests/new/usecase2part2.sol\":1080:1090  msg.sender */\n      caller\n        /* \"tests/new/usecase2part2.sol\":1066:1091  withdrawlFund[msg.sender] */\n      0xffffffffffffffffffffffffffffffffffffffff\n      and\n      0xffffffffffffffffffffffffffffffffffffffff\n      and\n      dup2\n      mstore\n      0x20\n      add\n      swap1\n      dup2\n      mstore\n      0x20\n      add\n      0x00\n      keccak256\n      0x00\n        /* \"tests/new/usecase2part2.sol\":1066:1102  withdrawlFund[msg.sender] += _amount */\n      dup3\n      dup3\n      sload\n      tag_74\n      swap2\n      swap1\n      tag_75\n      jump\t// in\n    tag_74:\n      swap3\n      pop\n      pop\n      dup2\n      swap1\n      sstore\n      pop\n        /* \"tests/new/usecase2part2.sol\":1144:1154  msg.sender */\n      caller\n        /* \"tests/new/usecase2part2.sol\":1120:1155  withdrawalFund(_amount, msg.sender) */\n      0xffffffffffffffffffffffffffffffffffffffff\n      and\n      0x5abb37b6a6e999ed1b32adaa92157f682779d5c878f8133de3e53cfdd319fafb\n        /* \"tests/new/usecase2part2.sol\":1135:1142  _amount */\n      dup5\n        /* \"tests/new/usecase2part2.sol\":1120:1155  withdrawalFund(_amount, msg.sender) */\n      mload(0x40)\n      tag_76\n      swap2\n      swap1\n      tag_15\n      jump\t// in\n    tag_76:\n      mload(0x40)\n      dup1\n      swap2\n      sub\n      swap1\n      log2\n        /* \"tests/new/usecase2part2.sol\":569:757  {... */\n      pop\n        /* \"tests/new/usecase2part2.sol\":519:520  _ */\n      pop\n        /* \"tests/new/usecase2part2.sol\":984:1165  function withdrawal(uint _amount) public onlyOwner isWithdraw(_amount) {... */\n      pop\n      jump\t// out\n        /* \"tests/new/usecase2part2.sol\":203:249  mapping (address => uint) public withdrawlFund */\n    tag_30:\n      mstore(0x20, 0x01)\n      dup1\n      0x00\n      mstore\n      keccak256(0x00, 0x40)\n      0x00\n      swap2\n      pop\n      swap1\n      pop\n      sload\n      dup2\n      jump\t// out\n        /* \"tests/new/usecase2part2.sol\":1314:1408  bytes32 public markleRoot = 0x9d997719c0a5b5f6db9b8ac69a988be57cf324cb9fffd51dc2c37544bb520d65 */\n    tag_34:\n      sload(0x03)\n      dup2\n      jump\t// out\n        /* \"tests/new/usecase2part2.sol\":824:976  function deposite() public onlyOwner payable {... */\n    tag_38:\n        /* \"tests/new/usecase2part2.sol\":489:494  owner */\n      0x02\n      0x00\n      swap1\n      sload\n      swap1\n      0x0100\n      exp\n      swap1\n      div\n      0xffffffffffffffffffffffffffffffffffffffff\n      and\n        /* \"tests/new/usecase2part2.sol\":475:494  msg.sender == owner */\n      0xffffffffffffffffffffffffffffffffffffffff\n      and\n        /* \"tests/new/usecase2part2.sol\":475:485  msg.sender */\n      caller\n        /* \"tests/new/usecase2part2.sol\":475:494  msg.sender == owner */\n      0xffffffffffffffffffffffffffffffffffffffff\n      and\n      eq\n        /* \"tests/new/usecase2part2.sol\":467:508  require(msg.sender == owner, \"Not Allow\") */\n      tag_78\n      jumpi\n      mload(0x40)\n      0x08c379a000000000000000000000000000000000000000000000000000000000\n      dup2\n      mstore\n      0x04\n      add\n      tag_79\n      swap1\n      tag_67\n      jump\t// in\n    tag_79:\n      mload(0x40)\n      dup1\n      swap2\n      sub\n      swap1\n      revert\n    tag_78:\n        /* \"tests/new/usecase2part2.sol\":907:916  msg.value */\n      callvalue\n        /* \"tests/new/usecase2part2.sol\":880:891  depositFund */\n      0x00\n        /* \"tests/new/usecase2part2.sol\":880:903  depositFund[msg.sender] */\n      dup1\n        /* \"tests/new/usecase2part2.sol\":892:902  msg.sender */\n      caller\n        /* \"tests/new/usecase2part2.sol\":880:903  depositFund[msg.sender] */\n      0xffffffffffffffffffffffffffffffffffffffff\n      and\n      0xffffffffffffffffffffffffffffffffffffffff\n      and\n      dup2\n      mstore\n      0x20\n      add\n      swap1\n      dup2\n      mstore\n      0x20\n      add\n      0x00\n      keccak256\n      0x00\n        /* \"tests/new/usecase2part2.sol\":880:916  depositFund[msg.sender] += msg.value */\n      dup3\n      dup3\n      sload\n      tag_81\n      swap2\n      swap1\n      tag_75\n      jump\t// in\n    tag_81:\n      swap3\n      pop\n      pop\n      dup2\n      swap1\n      sstore\n      pop\n        /* \"tests/new/usecase2part2.sol\":957:967  msg.sender */\n      caller\n        /* \"tests/new/usecase2part2.sol\":932:968  depositedFund(msg.value, msg.sender) */\n      0xffffffffffffffffffffffffffffffffffffffff\n      and\n      0xe5249d60e46bc17c93ebe0077404ce0986693b526789d52d468942ca2eba7ad3\n        /* \"tests/new/usecase2part2.sol\":946:955  msg.value */\n      callvalue\n        /* \"tests/new/usecase2part2.sol\":932:968  depositedFund(msg.value, msg.sender) */\n      mload(0x40)\n      tag_82\n      swap2\n      swap1\n      tag_15\n      jump\t// in\n    tag_82:\n      mload(0x40)\n      dup1\n      swap2\n      sub\n      swap1\n      log2\n        /* \"tests/new/usecase2part2.sol\":824:976  function deposite() public onlyOwner payable {... */\n      jump\t// out\n        /* \"tests/new/usecase2part2.sol\":1417:1465  mapping (address=> bool) public whitelistClaimed */\n    tag_42:\n      mstore(0x20, 0x04)\n      dup1\n      0x00\n      mstore\n      keccak256(0x00, 0x40)\n      0x00\n      swap2\n      pop\n      sload\n      swap1\n      0x0100\n      exp\n      swap1\n      div\n      0xff\n      and\n      dup2\n      jump\t// out\n        /* \"tests/new/usecase2part2.sol\":153:196  mapping(address => uint) public depositFund */\n    tag_48:\n      mstore(0x20, 0x00)\n      dup1\n      0x00\n      mstore\n      keccak256(0x00, 0x40)\n      0x00\n      swap2\n      pop\n      swap1\n      pop\n      sload\n      dup2\n      jump\t// out\n        /* \"@openzeppelin/contracts/utils/cryptography/MerkleProof.sol\":1265:1419  function verify(bytes32[] memory proof, bytes32 root, bytes32 leaf) internal pure returns (bool) {... */\n    tag_60:\n        /* \"@openzeppelin/contracts/utils/cryptography/MerkleProof.sol\":1356:1360  bool */\n      0x00\n        /* \"@openzeppelin/contracts/utils/cryptography/MerkleProof.sol\":1408:1412  root */\n      dup3\n        /* \"@openzeppelin/contracts/utils/cryptography/MerkleProof.sol\":1379:1404  processProof(proof, leaf) */\n      tag_84\n        /* \"@openzeppelin/contracts/utils/cryptography/MerkleProof.sol\":1392:1397  proof */\n      dup6\n        /* \"@openzeppelin/contracts/utils/cryptography/MerkleProof.sol\":1399:1403  leaf */\n      dup5\n        /* \"@openzeppelin/contracts/utils/cryptography/MerkleProof.sol\":1379:1391  processProof */\n      tag_85\n        /* \"@openzeppelin/contracts/utils/cryptography/MerkleProof.sol\":1379:1404  processProof(proof, leaf) */\n      jump\t// in\n    tag_84:\n        /* \"@openzeppelin/contracts/utils/cryptography/MerkleProof.sol\":1379:1412  processProof(proof, leaf) == root */\n      eq\n        /* \"@openzeppelin/contracts/utils/cryptography/MerkleProof.sol\":1372:1412  return processProof(proof, leaf) == root */\n      swap1\n      pop\n        /* \"@openzeppelin/contracts/utils/cryptography/MerkleProof.sol\":1265:1419  function verify(bytes32[] memory proof, bytes32 root, bytes32 leaf) internal pure returns (bool) {... */\n      swap4\n      swap3\n      pop\n      pop\n      pop\n      jump\t// out\n        /* \"@openzeppelin/contracts/utils/cryptography/MerkleProof.sol\":1967:2257  function processProof(bytes32[] memory proof, bytes32 leaf) internal pure returns (bytes32) {... */\n    tag_85:\n        /* \"@openzeppelin/contracts/utils/cryptography/MerkleProof.sol\":2050:2057  bytes32 */\n      0x00\n        /* \"@openzeppelin/contracts/utils/cryptography/MerkleProof.sol\":2069:2089  bytes32 computedHash */\n      dup1\n        /* \"@openzeppelin/contracts/utils/cryptography/MerkleProof.sol\":2092:2096  leaf */\n      dup3\n        /* \"@openzeppelin/contracts/utils/cryptography/MerkleProof.sol\":2069:2096  bytes32 computedHash = leaf */\n      swap1\n      pop\n        /* \"@openzeppelin/contracts/utils/cryptography/MerkleProof.sol\":2111:2120  uint256 i */\n      0x00\n        /* \"@openzeppelin/contracts/utils/cryptography/MerkleProof.sol\":2106:2222  for (uint256 i = 0; i < proof.length; i++) {... */\n    tag_87:\n        /* \"@openzeppelin/contracts/utils/cryptography/MerkleProof.sol\":2130:2135  proof */\n      dup5\n        /* \"@openzeppelin/contracts/utils/cryptography/MerkleProof.sol\":2130:2142  proof.length */\n      mload\n        /* \"@openzeppelin/contracts/utils/cryptography/MerkleProof.sol\":2126:2127  i */\n      dup2\n        /* \"@openzeppelin/contracts/utils/cryptography/MerkleProof.sol\":2126:2142  i < proof.length */\n      lt\n        /* \"@openzeppelin/contracts/utils/cryptography/MerkleProof.sol\":2106:2222  for (uint256 i = 0; i < proof.length; i++) {... */\n      iszero\n      tag_88\n      jumpi\n        /* \"@openzeppelin/contracts/utils/cryptography/MerkleProof.sol\":2178:2211  _hashPair(computedHash, proof[i]) */\n      tag_90\n        /* \"@openzeppelin/contracts/utils/cryptography/MerkleProof.sol\":2188:2200  computedHash */\n      dup3\n        /* \"@openzeppelin/contracts/utils/cryptography/MerkleProof.sol\":2202:2207  proof */\n      dup7\n        /* \"@openzeppelin/contracts/utils/cryptography/MerkleProof.sol\":2208:2209  i */\n      dup4\n        /* \"@openzeppelin/contracts/utils/cryptography/MerkleProof.sol\":2202:2210  proof[i] */\n      dup2\n      mload\n      dup2\n      lt\n      tag_91\n      jumpi\n      tag_92\n      tag_93\n      jump\t// in\n    tag_92:\n    tag_91:\n      0x20\n      mul\n      0x20\n      add\n      add\n      mload\n        /* \"@openzeppelin/contracts/utils/cryptography/MerkleProof.sol\":2178:2187  _hashPair */\n      tag_94\n        /* \"@openzeppelin/contracts/utils/cryptography/MerkleProof.sol\":2178:2211  _hashPair(computedHash, proof[i]) */\n      jump\t// in\n    tag_90:\n        /* \"@openzeppelin/contracts/utils/cryptography/MerkleProof.sol\":2163:2211  computedHash = _hashPair(computedHash, proof[i]) */\n      swap2\n      pop\n        /* \"@openzeppelin/contracts/utils/cryptography/MerkleProof.sol\":2144:2147  i++ */\n      dup1\n      dup1\n      0x01\n      add\n      swap2\n      pop\n      pop\n        /* \"@openzeppelin/contracts/utils/cryptography/MerkleProof.sol\":2106:2222  for (uint256 i = 0; i < proof.length; i++) {... */\n      jump(tag_87)\n    tag_88:\n      pop\n        /* \"@openzeppelin/contracts/utils/cryptography/MerkleProof.sol\":2238:2250  computedHash */\n      dup1\n        /* \"@openzeppelin/contracts/utils/cryptography/MerkleProof.sol\":2231:2250  return computedHash */\n      swap2\n      pop\n      pop\n        /* \"@openzeppelin/contracts/utils/cryptography/MerkleProof.sol\":1967:2257  function processProof(bytes32[] memory proof, bytes32 leaf) internal pure returns (bytes32) {... */\n      swap3\n      swap2\n      pop\n      pop\n      jump\t// out\n        /* \"@openzeppelin/contracts/utils/cryptography/MerkleProof.sol\":9229:9376  function _hashPair(bytes32 a, bytes32 b) private pure returns (bytes32) {... */\n    tag_94:\n        /* \"@openzeppelin/contracts/utils/cryptography/MerkleProof.sol\":9292:9299  bytes32 */\n      0x00\n        /* \"@openzeppelin/contracts/utils/cryptography/MerkleProof.sol\":9322:9323  b */\n      dup2\n        /* \"@openzeppelin/contracts/utils/cryptography/MerkleProof.sol\":9318:9319  a */\n      dup4\n        /* \"@openzeppelin/contracts/utils/cryptography/MerkleProof.sol\":9318:9323  a < b */\n      lt\n        /* \"@openzeppelin/contracts/utils/cryptography/MerkleProof.sol\":9318:9369  a < b ? _efficientHash(a, b) : _efficientHash(b, a) */\n      tag_96\n      jumpi\n        /* \"@openzeppelin/contracts/utils/cryptography/MerkleProof.sol\":9349:9369  _efficientHash(b, a) */\n      tag_97\n        /* \"@openzeppelin/contracts/utils/cryptography/MerkleProof.sol\":9364:9365  b */\n      dup3\n        /* \"@openzeppelin/contracts/utils/cryptography/MerkleProof.sol\":9367:9368  a */\n      dup5\n        /* \"@openzeppelin/contracts/utils/cryptography/MerkleProof.sol\":9349:9363  _efficientHash */\n      tag_98\n        /* \"@openzeppelin/contracts/utils/cryptography/MerkleProof.sol\":9349:9369  _efficientHash(b, a) */\n      jump\t// in\n    tag_97:\n        /* \"@openzeppelin/contracts/utils/cryptography/MerkleProof.sol\":9318:9369  a < b ? _efficientHash(a, b) : _efficientHash(b, a) */\n      jump(tag_99)\n    tag_96:\n        /* \"@openzeppelin/contracts/utils/cryptography/MerkleProof.sol\":9326:9346  _efficientHash(a, b) */\n      tag_100\n        /* \"@openzeppelin/contracts/utils/cryptography/MerkleProof.sol\":9341:9342  a */\n      dup4\n        /* \"@openzeppelin/contracts/utils/cryptography/MerkleProof.sol\":9344:9345  b */\n      dup4\n        /* \"@openzeppelin/contracts/utils/cryptography/MerkleProof.sol\":9326:9340  _efficientHash */\n      tag_98\n        /* \"@openzeppelin/contracts/utils/cryptography/MerkleProof.sol\":9326:9346  _efficientHash(a, b) */\n      jump\t// in\n    tag_100:\n        /* \"@openzeppelin/contracts/utils/cryptography/MerkleProof.sol\":9318:9369  a < b ? _efficientHash(a, b) : _efficientHash(b, a) */\n    tag_99:\n        /* \"@openzeppelin/contracts/utils/cryptography/MerkleProof.sol\":9311:9369  return a < b ? _efficientHash(a, b) : _efficientHash(b, a) */\n      swap1\n      pop\n        /* \"@openzeppelin/contracts/utils/cryptography/MerkleProof.sol\":9229:9376  function _hashPair(bytes32 a, bytes32 b) private pure returns (bytes32) {... */\n      swap3\n      swap2\n      pop\n      pop\n      jump\t// out\n        /* \"@openzeppelin/contracts/utils/cryptography/MerkleProof.sol\":9496:9757  function _efficientHash(bytes32 a, bytes32 b) private pure returns (bytes32 value) {... */\n    tag_98:\n        /* \"@openzeppelin/contracts/utils/cryptography/MerkleProof.sol\":9564:9577  bytes32 value */\n      0x00\n        /* \"@openzeppelin/contracts/utils/cryptography/MerkleProof.sol\":9668:9669  a */\n      dup3\n        /* \"@openzeppelin/contracts/utils/cryptography/MerkleProof.sol\":9662:9666  0x00 */\n      0x00\n        /* \"@openzeppelin/contracts/utils/cryptography/MerkleProof.sol\":9655:9670  mstore(0x00, a) */\n      mstore\n        /* \"@openzeppelin/contracts/utils/cryptography/MerkleProof.sol\":9696:9697  b */\n      dup2\n        /* \"@openzeppelin/contracts/utils/cryptography/MerkleProof.sol\":9690:9694  0x20 */\n      0x20\n        /* \"@openzeppelin/contracts/utils/cryptography/MerkleProof.sol\":9683:9698  mstore(0x20, b) */\n      mstore\n        /* \"@openzeppelin/contracts/utils/cryptography/MerkleProof.sol\":9736:9740  0x40 */\n      0x40\n        /* \"@openzeppelin/contracts/utils/cryptography/MerkleProof.sol\":9730:9734  0x00 */\n      0x00\n        /* \"@openzeppelin/contracts/utils/cryptography/MerkleProof.sol\":9720:9741  keccak256(0x00, 0x40) */\n      keccak256\n        /* \"@openzeppelin/contracts/utils/cryptography/MerkleProof.sol\":9711:9741  value := keccak256(0x00, 0x40) */\n      swap1\n      pop\n        /* \"@openzeppelin/contracts/utils/cryptography/MerkleProof.sol\":9496:9757  function _efficientHash(bytes32 a, bytes32 b) private pure returns (bytes32 value) {... */\n      swap3\n      swap2\n      pop\n      pop\n      jump\t// out\n        /* \"#utility.yul\":7:84   */\n    tag_102:\n        /* \"#utility.yul\":44:51   */\n      0x00\n        /* \"#utility.yul\":73:78   */\n      dup2\n        /* \"#utility.yul\":62:78   */\n      swap1\n      pop\n        /* \"#utility.yul\":7:84   */\n      swap2\n      swap1\n      pop\n      jump\t// out\n        /* \"#utility.yul\":90:208   */\n    tag_103:\n        /* \"#utility.yul\":177:201   */\n      tag_142\n        /* \"#utility.yul\":195:200   */\n      dup2\n        /* \"#utility.yul\":177:201   */\n      tag_102\n      jump\t// in\n    tag_142:\n        /* \"#utility.yul\":172:175   */\n      dup3\n        /* \"#utility.yul\":165:202   */\n      mstore\n        /* \"#utility.yul\":90:208   */\n      pop\n      pop\n      jump\t// out\n        /* \"#utility.yul\":214:436   */\n    tag_15:\n        /* \"#utility.yul\":307:311   */\n      0x00\n        /* \"#utility.yul\":345:347   */\n      0x20\n        /* \"#utility.yul\":334:343   */\n      dup3\n        /* \"#utility.yul\":330:348   */\n      add\n        /* \"#utility.yul\":322:348   */\n      swap1\n      pop\n        /* \"#utility.yul\":358:429   */\n      tag_144\n        /* \"#utility.yul\":426:427   */\n      0x00\n        /* \"#utility.yul\":415:424   */\n      dup4\n        /* \"#utility.yul\":411:428   */\n      add\n        /* \"#utility.yul\":402:408   */\n      dup5\n        /* \"#utility.yul\":358:429   */\n      tag_103\n      jump\t// in\n    tag_144:\n        /* \"#utility.yul\":214:436   */\n      swap3\n      swap2\n      pop\n      pop\n      jump\t// out\n        /* \"#utility.yul\":442:517   */\n    tag_104:\n        /* \"#utility.yul\":475:481   */\n      0x00\n        /* \"#utility.yul\":508:510   */\n      0x40\n        /* \"#utility.yul\":502:511   */\n      mload\n        /* \"#utility.yul\":492:511   */\n      swap1\n      pop\n        /* \"#utility.yul\":442:517   */\n      swap1\n      jump\t// out\n        /* \"#utility.yul\":523:640   */\n    tag_105:\n        /* \"#utility.yul\":632:633   */\n      0x00\n        /* \"#utility.yul\":629:630   */\n      dup1\n        /* \"#utility.yul\":622:634   */\n      revert\n        /* \"#utility.yul\":646:763   */\n    tag_106:\n        /* \"#utility.yul\":755:756   */\n      0x00\n        /* \"#utility.yul\":752:753   */\n      dup1\n        /* \"#utility.yul\":745:757   */\n      revert\n        /* \"#utility.yul\":769:886   */\n    tag_107:\n        /* \"#utility.yul\":878:879   */\n      0x00\n        /* \"#utility.yul\":875:876   */\n      dup1\n        /* \"#utility.yul\":868:880   */\n      revert\n        /* \"#utility.yul\":892:994   */\n    tag_108:\n        /* \"#utility.yul\":933:939   */\n      0x00\n        /* \"#utility.yul\":984:986   */\n      0x1f\n        /* \"#utility.yul\":980:987   */\n      not\n        /* \"#utility.yul\":975:977   */\n      0x1f\n        /* \"#utility.yul\":968:973   */\n      dup4\n        /* \"#utility.yul\":964:978   */\n      add\n        /* \"#utility.yul\":960:988   */\n      and\n        /* \"#utility.yul\":950:988   */\n      swap1\n      pop\n        /* \"#utility.yul\":892:994   */\n      swap2\n      swap1\n      pop\n      jump\t// out\n        /* \"#utility.yul\":1000:1180   */\n    tag_109:\n        /* \"#utility.yul\":1048:1125   */\n      0x4e487b7100000000000000000000000000000000000000000000000000000000\n        /* \"#utility.yul\":1045:1046   */\n      0x00\n        /* \"#utility.yul\":1038:1126   */\n      mstore\n        /* \"#utility.yul\":1145:1149   */\n      0x41\n        /* \"#utility.yul\":1142:1143   */\n      0x04\n        /* \"#utility.yul\":1135:1150   */\n      mstore\n        /* \"#utility.yul\":1169:1173   */\n      0x24\n        /* \"#utility.yul\":1166:1167   */\n      0x00\n        /* \"#utility.yul\":1159:1174   */\n      revert\n        /* \"#utility.yul\":1186:1467   */\n    tag_110:\n        /* \"#utility.yul\":1269:1296   */\n      tag_152\n        /* \"#utility.yul\":1291:1295   */\n      dup3\n        /* \"#utility.yul\":1269:1296   */\n      tag_108\n      jump\t// in\n    tag_152:\n        /* \"#utility.yul\":1261:1267   */\n      dup2\n        /* \"#utility.yul\":1257:1297   */\n      add\n        /* \"#utility.yul\":1399:1405   */\n      dup2\n        /* \"#utility.yul\":1387:1397   */\n      dup2\n        /* \"#utility.yul\":1384:1406   */\n      lt\n        /* \"#utility.yul\":1363:1381   */\n      0xffffffffffffffff\n        /* \"#utility.yul\":1351:1361   */\n      dup3\n        /* \"#utility.yul\":1348:1382   */\n      gt\n        /* \"#utility.yul\":1345:1407   */\n      or\n        /* \"#utility.yul\":1342:1430   */\n      iszero\n      tag_153\n      jumpi\n        /* \"#utility.yul\":1410:1428   */\n      tag_154\n      tag_109\n      jump\t// in\n    tag_154:\n        /* \"#utility.yul\":1342:1430   */\n    tag_153:\n        /* \"#utility.yul\":1450:1460   */\n      dup1\n        /* \"#utility.yul\":1446:1448   */\n      0x40\n        /* \"#utility.yul\":1439:1461   */\n      mstore\n        /* \"#utility.yul\":1229:1467   */\n      pop\n        /* \"#utility.yul\":1186:1467   */\n      pop\n      pop\n      jump\t// out\n        /* \"#utility.yul\":1473:1602   */\n    tag_111:\n        /* \"#utility.yul\":1507:1513   */\n      0x00\n        /* \"#utility.yul\":1534:1554   */\n      tag_156\n      tag_104\n      jump\t// in\n    tag_156:\n        /* \"#utility.yul\":1524:1554   */\n      swap1\n      pop\n        /* \"#utility.yul\":1563:1596   */\n      tag_157\n        /* \"#utility.yul\":1591:1595   */\n      dup3\n        /* \"#utility.yul\":1583:1589   */\n      dup3\n        /* \"#utility.yul\":1563:1596   */\n      tag_110\n      jump\t// in\n    tag_157:\n        /* \"#utility.yul\":1473:1602   */\n      swap2\n      swap1\n      pop\n      jump\t// out\n        /* \"#utility.yul\":1608:1919   */\n    tag_112:\n        /* \"#utility.yul\":1685:1689   */\n      0x00\n        /* \"#utility.yul\":1775:1793   */\n      0xffffffffffffffff\n        /* \"#utility.yul\":1767:1773   */\n      dup3\n        /* \"#utility.yul\":1764:1794   */\n      gt\n        /* \"#utility.yul\":1761:1817   */\n      iszero\n      tag_159\n      jumpi\n        /* \"#utility.yul\":1797:1815   */\n      tag_160\n      tag_109\n      jump\t// in\n    tag_160:\n        /* \"#utility.yul\":1761:1817   */\n    tag_159:\n        /* \"#utility.yul\":1847:1851   */\n      0x20\n        /* \"#utility.yul\":1839:1845   */\n      dup3\n        /* \"#utility.yul\":1835:1852   */\n      mul\n        /* \"#utility.yul\":1827:1852   */\n      swap1\n      pop\n        /* \"#utility.yul\":1907:1911   */\n      0x20\n        /* \"#utility.yul\":1901:1905   */\n      dup2\n        /* \"#utility.yul\":1897:1912   */\n      add\n        /* \"#utility.yul\":1889:1912   */\n      swap1\n      pop\n        /* \"#utility.yul\":1608:1919   */\n      swap2\n      swap1\n      pop\n      jump\t// out\n        /* \"#utility.yul\":1925:2042   */\n    tag_113:\n        /* \"#utility.yul\":2034:2035   */\n      0x00\n        /* \"#utility.yul\":2031:2032   */\n      dup1\n        /* \"#utility.yul\":2024:2036   */\n      revert\n        /* \"#utility.yul\":2048:2125   */\n    tag_114:\n        /* \"#utility.yul\":2085:2092   */\n      0x00\n        /* \"#utility.yul\":2114:2119   */\n      dup2\n        /* \"#utility.yul\":2103:2119   */\n      swap1\n      pop\n        /* \"#utility.yul\":2048:2125   */\n      swap2\n      swap1\n      pop\n      jump\t// out\n        /* \"#utility.yul\":2131:2253   */\n    tag_115:\n        /* \"#utility.yul\":2204:2228   */\n      tag_164\n        /* \"#utility.yul\":2222:2227   */\n      dup2\n        /* \"#utility.yul\":2204:2228   */\n      tag_114\n      jump\t// in\n    tag_164:\n        /* \"#utility.yul\":2197:2202   */\n      dup2\n        /* \"#utility.yul\":2194:2229   */\n      eq\n        /* \"#utility.yul\":2184:2247   */\n      tag_165\n      jumpi\n        /* \"#utility.yul\":2243:2244   */\n      0x00\n        /* \"#utility.yul\":2240:2241   */\n      dup1\n        /* \"#utility.yul\":2233:2245   */\n      revert\n        /* \"#utility.yul\":2184:2247   */\n    tag_165:\n        /* \"#utility.yul\":2131:2253   */\n      pop\n      jump\t// out\n        /* \"#utility.yul\":2259:2398   */\n    tag_116:\n        /* \"#utility.yul\":2305:2310   */\n      0x00\n        /* \"#utility.yul\":2343:2349   */\n      dup2\n        /* \"#utility.yul\":2330:2350   */\n      calldataload\n        /* \"#utility.yul\":2321:2350   */\n      swap1\n      pop\n        /* \"#utility.yul\":2359:2392   */\n      tag_167\n        /* \"#utility.yul\":2386:2391   */\n      dup2\n        /* \"#utility.yul\":2359:2392   */\n      tag_115\n      jump\t// in\n    tag_167:\n        /* \"#utility.yul\":2259:2398   */\n      swap3\n      swap2\n      pop\n      pop\n      jump\t// out\n        /* \"#utility.yul\":2421:3131   */\n    tag_117:\n        /* \"#utility.yul\":2517:2522   */\n      0x00\n        /* \"#utility.yul\":2542:2623   */\n      tag_169\n        /* \"#utility.yul\":2558:2622   */\n      tag_170\n        /* \"#utility.yul\":2615:2621   */\n      dup5\n        /* \"#utility.yul\":2558:2622   */\n      tag_112\n      jump\t// in\n    tag_170:\n        /* \"#utility.yul\":2542:2623   */\n      tag_111\n      jump\t// in\n    tag_169:\n        /* \"#utility.yul\":2533:2623   */\n      swap1\n      pop\n        /* \"#utility.yul\":2643:2648   */\n      dup1\n        /* \"#utility.yul\":2672:2678   */\n      dup4\n        /* \"#utility.yul\":2665:2670   */\n      dup3\n        /* \"#utility.yul\":2658:2679   */\n      mstore\n        /* \"#utility.yul\":2706:2710   */\n      0x20\n        /* \"#utility.yul\":2699:2704   */\n      dup3\n        /* \"#utility.yul\":2695:2711   */\n      add\n        /* \"#utility.yul\":2688:2711   */\n      swap1\n      pop\n        /* \"#utility.yul\":2759:2763   */\n      0x20\n        /* \"#utility.yul\":2751:2757   */\n      dup5\n        /* \"#utility.yul\":2747:2764   */\n      mul\n        /* \"#utility.yul\":2739:2745   */\n      dup4\n        /* \"#utility.yul\":2735:2765   */\n      add\n        /* \"#utility.yul\":2788:2791   */\n      dup6\n        /* \"#utility.yul\":2780:2786   */\n      dup2\n        /* \"#utility.yul\":2777:2792   */\n      gt\n        /* \"#utility.yul\":2774:2896   */\n      iszero\n      tag_171\n      jumpi\n        /* \"#utility.yul\":2807:2886   */\n      tag_172\n      tag_113\n      jump\t// in\n    tag_172:\n        /* \"#utility.yul\":2774:2896   */\n    tag_171:\n        /* \"#utility.yul\":2922:2928   */\n      dup4\n        /* \"#utility.yul\":2905:3125   */\n    tag_173:\n        /* \"#utility.yul\":2939:2945   */\n      dup2\n        /* \"#utility.yul\":2934:2937   */\n      dup2\n        /* \"#utility.yul\":2931:2946   */\n      lt\n        /* \"#utility.yul\":2905:3125   */\n      iszero\n      tag_175\n      jumpi\n        /* \"#utility.yul\":3014:3017   */\n      dup1\n        /* \"#utility.yul\":3043:3080   */\n      tag_176\n        /* \"#utility.yul\":3076:3079   */\n      dup9\n        /* \"#utility.yul\":3064:3074   */\n      dup3\n        /* \"#utility.yul\":3043:3080   */\n      tag_116\n      jump\t// in\n    tag_176:\n        /* \"#utility.yul\":3038:3041   */\n      dup5\n        /* \"#utility.yul\":3031:3081   */\n      mstore\n        /* \"#utility.yul\":3110:3114   */\n      0x20\n        /* \"#utility.yul\":3105:3108   */\n      dup5\n        /* \"#utility.yul\":3101:3115   */\n      add\n        /* \"#utility.yul\":3094:3115   */\n      swap4\n      pop\n        /* \"#utility.yul\":2981:3125   */\n      pop\n        /* \"#utility.yul\":2965:2969   */\n      0x20\n        /* \"#utility.yul\":2960:2963   */\n      dup2\n        /* \"#utility.yul\":2956:2970   */\n      add\n        /* \"#utility.yul\":2949:2970   */\n      swap1\n      pop\n        /* \"#utility.yul\":2905:3125   */\n      jump(tag_173)\n    tag_175:\n        /* \"#utility.yul\":2909:2930   */\n      pop\n        /* \"#utility.yul\":2523:3131   */\n      pop\n      pop\n        /* \"#utility.yul\":2421:3131   */\n      swap4\n      swap3\n      pop\n      pop\n      pop\n      jump\t// out\n        /* \"#utility.yul\":3154:3524   */\n    tag_118:\n        /* \"#utility.yul\":3225:3230   */\n      0x00\n        /* \"#utility.yul\":3274:3277   */\n      dup3\n        /* \"#utility.yul\":3267:3271   */\n      0x1f\n        /* \"#utility.yul\":3259:3265   */\n      dup4\n        /* \"#utility.yul\":3255:3272   */\n      add\n        /* \"#utility.yul\":3251:3278   */\n      slt\n        /* \"#utility.yul\":3241:3363   */\n      tag_178\n      jumpi\n        /* \"#utility.yul\":3282:3361   */\n      tag_179\n      tag_107\n      jump\t// in\n    tag_179:\n        /* \"#utility.yul\":3241:3363   */\n    tag_178:\n        /* \"#utility.yul\":3399:3405   */\n      dup2\n        /* \"#utility.yul\":3386:3406   */\n      calldataload\n        /* \"#utility.yul\":3424:3518   */\n      tag_180\n        /* \"#utility.yul\":3514:3517   */\n      dup5\n        /* \"#utility.yul\":3506:3512   */\n      dup3\n        /* \"#utility.yul\":3499:3503   */\n      0x20\n        /* \"#utility.yul\":3491:3497   */\n      dup7\n        /* \"#utility.yul\":3487:3504   */\n      add\n        /* \"#utility.yul\":3424:3518   */\n      tag_117\n      jump\t// in\n    tag_180:\n        /* \"#utility.yul\":3415:3518   */\n      swap2\n      pop\n        /* \"#utility.yul\":3231:3524   */\n      pop\n        /* \"#utility.yul\":3154:3524   */\n      swap3\n      swap2\n      pop\n      pop\n      jump\t// out\n        /* \"#utility.yul\":3530:4069   */\n    tag_19:\n        /* \"#utility.yul\":3614:3620   */\n      0x00\n        /* \"#utility.yul\":3663:3665   */\n      0x20\n        /* \"#utility.yul\":3651:3660   */\n      dup3\n        /* \"#utility.yul\":3642:3649   */\n      dup5\n        /* \"#utility.yul\":3638:3661   */\n      sub\n        /* \"#utility.yul\":3634:3666   */\n      slt\n        /* \"#utility.yul\":3631:3750   */\n      iszero\n      tag_182\n      jumpi\n        /* \"#utility.yul\":3669:3748   */\n      tag_183\n      tag_105\n      jump\t// in\n    tag_183:\n        /* \"#utility.yul\":3631:3750   */\n    tag_182:\n        /* \"#utility.yul\":3817:3818   */\n      0x00\n        /* \"#utility.yul\":3806:3815   */\n      dup3\n        /* \"#utility.yul\":3802:3819   */\n      add\n        /* \"#utility.yul\":3789:3820   */\n      calldataload\n        /* \"#utility.yul\":3847:3865   */\n      0xffffffffffffffff\n        /* \"#utility.yul\":3839:3845   */\n      dup2\n        /* \"#utility.yul\":3836:3866   */\n      gt\n        /* \"#utility.yul\":3833:3950   */\n      iszero\n      tag_184\n      jumpi\n        /* \"#utility.yul\":3869:3948   */\n      tag_185\n      tag_106\n      jump\t// in\n    tag_185:\n        /* \"#utility.yul\":3833:3950   */\n    tag_184:\n        /* \"#utility.yul\":3974:4052   */\n      tag_186\n        /* \"#utility.yul\":4044:4051   */\n      dup5\n        /* \"#utility.yul\":4035:4041   */\n      dup3\n        /* \"#utility.yul\":4024:4033   */\n      dup6\n        /* \"#utility.yul\":4020:4042   */\n      add\n        /* \"#utility.yul\":3974:4052   */\n      tag_118\n      jump\t// in\n    tag_186:\n        /* \"#utility.yul\":3964:4052   */\n      swap2\n      pop\n        /* \"#utility.yul\":3760:4062   */\n      pop\n        /* \"#utility.yul\":3530:4069   */\n      swap3\n      swap2\n      pop\n      pop\n      jump\t// out\n        /* \"#utility.yul\":4075:4197   */\n    tag_119:\n        /* \"#utility.yul\":4148:4172   */\n      tag_188\n        /* \"#utility.yul\":4166:4171   */\n      dup2\n        /* \"#utility.yul\":4148:4172   */\n      tag_102\n      jump\t// in\n    tag_188:\n        /* \"#utility.yul\":4141:4146   */\n      dup2\n        /* \"#utility.yul\":4138:4173   */\n      eq\n        /* \"#utility.yul\":4128:4191   */\n      tag_189\n      jumpi\n        /* \"#utility.yul\":4187:4188   */\n      0x00\n        /* \"#utility.yul\":4184:4185   */\n      dup1\n        /* \"#utility.yul\":4177:4189   */\n      revert\n        /* \"#utility.yul\":4128:4191   */\n    tag_189:\n        /* \"#utility.yul\":4075:4197   */\n      pop\n      jump\t// out\n        /* \"#utility.yul\":4203:4342   */\n    tag_120:\n        /* \"#utility.yul\":4249:4254   */\n      0x00\n        /* \"#utility.yul\":4287:4293   */\n      dup2\n        /* \"#utility.yul\":4274:4294   */\n      calldataload\n        /* \"#utility.yul\":4265:4294   */\n      swap1\n      pop\n        /* \"#utility.yul\":4303:4336   */\n      tag_191\n        /* \"#utility.yul\":4330:4335   */\n      dup2\n        /* \"#utility.yul\":4303:4336   */\n      tag_119\n      jump\t// in\n    tag_191:\n        /* \"#utility.yul\":4203:4342   */\n      swap3\n      swap2\n      pop\n      pop\n      jump\t// out\n        /* \"#utility.yul\":4348:4677   */\n    tag_24:\n        /* \"#utility.yul\":4407:4413   */\n      0x00\n        /* \"#utility.yul\":4456:4458   */\n      0x20\n        /* \"#utility.yul\":4444:4453   */\n      dup3\n        /* \"#utility.yul\":4435:4442   */\n      dup5\n        /* \"#utility.yul\":4431:4454   */\n      sub\n        /* \"#utility.yul\":4427:4459   */\n      slt\n        /* \"#utility.yul\":4424:4543   */\n      iszero\n      tag_193\n      jumpi\n        /* \"#utility.yul\":4462:4541   */\n      tag_194\n      tag_105\n      jump\t// in\n    tag_194:\n        /* \"#utility.yul\":4424:4543   */\n    tag_193:\n        /* \"#utility.yul\":4582:4583   */\n      0x00\n        /* \"#utility.yul\":4607:4660   */\n      tag_195\n        /* \"#utility.yul\":4652:4659   */\n      dup5\n        /* \"#utility.yul\":4643:4649   */\n      dup3\n        /* \"#utility.yul\":4632:4641   */\n      dup6\n        /* \"#utility.yul\":4628:4650   */\n      add\n        /* \"#utility.yul\":4607:4660   */\n      tag_120\n      jump\t// in\n    tag_195:\n        /* \"#utility.yul\":4597:4660   */\n      swap2\n      pop\n        /* \"#utility.yul\":4553:4670   */\n      pop\n        /* \"#utility.yul\":4348:4677   */\n      swap3\n      swap2\n      pop\n      pop\n      jump\t// out\n        /* \"#utility.yul\":4683:4809   */\n    tag_121:\n        /* \"#utility.yul\":4720:4727   */\n      0x00\n        /* \"#utility.yul\":4760:4802   */\n      0xffffffffffffffffffffffffffffffffffffffff\n        /* \"#utility.yul\":4753:4758   */\n      dup3\n        /* \"#utility.yul\":4749:4803   */\n      and\n        /* \"#utility.yul\":4738:4803   */\n      swap1\n      pop\n        /* \"#utility.yul\":4683:4809   */\n      swap2\n      swap1\n      pop\n      jump\t// out\n        /* \"#utility.yul\":4815:4911   */\n    tag_122:\n        /* \"#utility.yul\":4852:4859   */\n      0x00\n        /* \"#utility.yul\":4881:4905   */\n      tag_198\n        /* \"#utility.yul\":4899:4904   */\n      dup3\n        /* \"#utility.yul\":4881:4905   */\n      tag_121\n      jump\t// in\n    tag_198:\n        /* \"#utility.yul\":4870:4905   */\n      swap1\n      pop\n        /* \"#utility.yul\":4815:4911   */\n      swap2\n      swap1\n      pop\n      jump\t// out\n        /* \"#utility.yul\":4917:5039   */\n    tag_123:\n        /* \"#utility.yul\":4990:5014   */\n      tag_200\n        /* \"#utility.yul\":5008:5013   */\n      dup2\n        /* \"#utility.yul\":4990:5014   */\n      tag_122\n      jump\t// in\n    tag_200:\n        /* \"#utility.yul\":4983:4988   */\n      dup2\n        /* \"#utility.yul\":4980:5015   */\n      eq\n        /* \"#utility.yul\":4970:5033   */\n      tag_201\n      jumpi\n        /* \"#utility.yul\":5029:5030   */\n      0x00\n        /* \"#utility.yul\":5026:5027   */\n      dup1\n        /* \"#utility.yul\":5019:5031   */\n      revert\n        /* \"#utility.yul\":4970:5033   */\n    tag_201:\n        /* \"#utility.yul\":4917:5039   */\n      pop\n      jump\t// out\n        /* \"#utility.yul\":5045:5184   */\n    tag_124:\n        /* \"#utility.yul\":5091:5096   */\n      0x00\n        /* \"#utility.yul\":5129:5135   */\n      dup2\n        /* \"#utility.yul\":5116:5136   */\n      calldataload\n        /* \"#utility.yul\":5107:5136   */\n      swap1\n      pop\n        /* \"#utility.yul\":5145:5178   */\n      tag_203\n        /* \"#utility.yul\":5172:5177   */\n      dup2\n        /* \"#utility.yul\":5145:5178   */\n      tag_123\n      jump\t// in\n    tag_203:\n        /* \"#utility.yul\":5045:5184   */\n      swap3\n      swap2\n      pop\n      pop\n      jump\t// out\n        /* \"#utility.yul\":5190:5519   */\n    tag_29:\n        /* \"#utility.yul\":5249:5255   */\n      0x00\n        /* \"#utility.yul\":5298:5300   */\n      0x20\n        /* \"#utility.yul\":5286:5295   */\n      dup3\n        /* \"#utility.yul\":5277:5284   */\n      dup5\n        /* \"#utility.yul\":5273:5296   */\n      sub\n        /* \"#utility.yul\":5269:5301   */\n      slt\n        /* \"#utility.yul\":5266:5385   */\n      iszero\n      tag_205\n      jumpi\n        /* \"#utility.yul\":5304:5383   */\n      tag_206\n      tag_105\n      jump\t// in\n    tag_206:\n        /* \"#utility.yul\":5266:5385   */\n    tag_205:\n        /* \"#utility.yul\":5424:5425   */\n      0x00\n        /* \"#utility.yul\":5449:5502   */\n      tag_207\n        /* \"#utility.yul\":5494:5501   */\n      dup5\n        /* \"#utility.yul\":5485:5491   */\n      dup3\n        /* \"#utility.yul\":5474:5483   */\n      dup6\n        /* \"#utility.yul\":5470:5492   */\n      add\n        /* \"#utility.yul\":5449:5502   */\n      tag_124\n      jump\t// in\n    tag_207:\n        /* \"#utility.yul\":5439:5502   */\n      swap2\n      pop\n        /* \"#utility.yul\":5395:5512   */\n      pop\n        /* \"#utility.yul\":5190:5519   */\n      swap3\n      swap2\n      pop\n      pop\n      jump\t// out\n        /* \"#utility.yul\":5525:5643   */\n    tag_125:\n        /* \"#utility.yul\":5612:5636   */\n      tag_209\n        /* \"#utility.yul\":5630:5635   */\n      dup2\n        /* \"#utility.yul\":5612:5636   */\n      tag_114\n      jump\t// in\n    tag_209:\n        /* \"#utility.yul\":5607:5610   */\n      dup3\n        /* \"#utility.yul\":5600:5637   */\n      mstore\n        /* \"#utility.yul\":5525:5643   */\n      pop\n      pop\n      jump\t// out\n        /* \"#utility.yul\":5649:5871   */\n    tag_36:\n        /* \"#utility.yul\":5742:5746   */\n      0x00\n        /* \"#utility.yul\":5780:5782   */\n      0x20\n        /* \"#utility.yul\":5769:5778   */\n      dup3\n        /* \"#utility.yul\":5765:5783   */\n      add\n        /* \"#utility.yul\":5757:5783   */\n      swap1\n      pop\n        /* \"#utility.yul\":5793:5864   */\n      tag_211\n        /* \"#utility.yul\":5861:5862   */\n      0x00\n        /* \"#utility.yul\":5850:5859   */\n      dup4\n        /* \"#utility.yul\":5846:5863   */\n      add\n        /* \"#utility.yul\":5837:5843   */\n      dup5\n        /* \"#utility.yul\":5793:5864   */\n      tag_125\n      jump\t// in\n    tag_211:\n        /* \"#utility.yul\":5649:5871   */\n      swap3\n      swap2\n      pop\n      pop\n      jump\t// out\n        /* \"#utility.yul\":5877:5967   */\n    tag_126:\n        /* \"#utility.yul\":5911:5918   */\n      0x00\n        /* \"#utility.yul\":5954:5959   */\n      dup2\n        /* \"#utility.yul\":5947:5960   */\n      iszero\n        /* \"#utility.yul\":5940:5961   */\n      iszero\n        /* \"#utility.yul\":5929:5961   */\n      swap1\n      pop\n        /* \"#utility.yul\":5877:5967   */\n      swap2\n      swap1\n      pop\n      jump\t// out\n        /* \"#utility.yul\":5973:6082   */\n    tag_127:\n        /* \"#utility.yul\":6054:6075   */\n      tag_214\n        /* \"#utility.yul\":6069:6074   */\n      dup2\n        /* \"#utility.yul\":6054:6075   */\n      tag_126\n      jump\t// in\n    tag_214:\n        /* \"#utility.yul\":6049:6052   */\n      dup3\n        /* \"#utility.yul\":6042:6076   */\n      mstore\n        /* \"#utility.yul\":5973:6082   */\n      pop\n      pop\n      jump\t// out\n        /* \"#utility.yul\":6088:6298   */\n    tag_44:\n        /* \"#utility.yul\":6175:6179   */\n      0x00\n        /* \"#utility.yul\":6213:6215   */\n      0x20\n        /* \"#utility.yul\":6202:6211   */\n      dup3\n        /* \"#utility.yul\":6198:6216   */\n      add\n        /* \"#utility.yul\":6190:6216   */\n      swap1\n      pop\n        /* \"#utility.yul\":6226:6291   */\n      tag_216\n        /* \"#utility.yul\":6288:6289   */\n      0x00\n        /* \"#utility.yul\":6277:6286   */\n      dup4\n        /* \"#utility.yul\":6273:6290   */\n      add\n        /* \"#utility.yul\":6264:6270   */\n      dup5\n        /* \"#utility.yul\":6226:6291   */\n      tag_127\n      jump\t// in\n    tag_216:\n        /* \"#utility.yul\":6088:6298   */\n      swap3\n      swap2\n      pop\n      pop\n      jump\t// out\n        /* \"#utility.yul\":6304:6484   */\n    tag_128:\n        /* \"#utility.yul\":6352:6429   */\n      0x4e487b7100000000000000000000000000000000000000000000000000000000\n        /* \"#utility.yul\":6349:6350   */\n      0x00\n        /* \"#utility.yul\":6342:6430   */\n      mstore\n        /* \"#utility.yul\":6449:6453   */\n      0x11\n        /* \"#utility.yul\":6446:6447   */\n      0x04\n        /* \"#utility.yul\":6439:6454   */\n      mstore\n        /* \"#utility.yul\":6473:6477   */\n      0x24\n        /* \"#utility.yul\":6470:6471   */\n      0x00\n        /* \"#utility.yul\":6463:6478   */\n      revert\n        /* \"#utility.yul\":6490:6684   */\n    tag_52:\n        /* \"#utility.yul\":6530:6534   */\n      0x00\n        /* \"#utility.yul\":6550:6570   */\n      tag_219\n        /* \"#utility.yul\":6568:6569   */\n      dup3\n        /* \"#utility.yul\":6550:6570   */\n      tag_102\n      jump\t// in\n    tag_219:\n        /* \"#utility.yul\":6545:6570   */\n      swap2\n      pop\n        /* \"#utility.yul\":6584:6604   */\n      tag_220\n        /* \"#utility.yul\":6602:6603   */\n      dup4\n        /* \"#utility.yul\":6584:6604   */\n      tag_102\n      jump\t// in\n    tag_220:\n        /* \"#utility.yul\":6579:6604   */\n      swap3\n      pop\n        /* \"#utility.yul\":6628:6629   */\n      dup3\n        /* \"#utility.yul\":6625:6626   */\n      dup3\n        /* \"#utility.yul\":6621:6630   */\n      sub\n        /* \"#utility.yul\":6613:6630   */\n      swap1\n      pop\n        /* \"#utility.yul\":6652:6653   */\n      dup2\n        /* \"#utility.yul\":6646:6650   */\n      dup2\n        /* \"#utility.yul\":6643:6654   */\n      gt\n        /* \"#utility.yul\":6640:6677   */\n      iszero\n      tag_221\n      jumpi\n        /* \"#utility.yul\":6657:6675   */\n      tag_222\n      tag_128\n      jump\t// in\n    tag_222:\n        /* \"#utility.yul\":6640:6677   */\n    tag_221:\n        /* \"#utility.yul\":6490:6684   */\n      swap3\n      swap2\n      pop\n      pop\n      jump\t// out\n        /* \"#utility.yul\":6690:6859   */\n    tag_129:\n        /* \"#utility.yul\":6774:6785   */\n      0x00\n        /* \"#utility.yul\":6808:6814   */\n      dup3\n        /* \"#utility.yul\":6803:6806   */\n      dup3\n        /* \"#utility.yul\":6796:6815   */\n      mstore\n        /* \"#utility.yul\":6848:6852   */\n      0x20\n        /* \"#utility.yul\":6843:6846   */\n      dup3\n        /* \"#utility.yul\":6839:6853   */\n      add\n        /* \"#utility.yul\":6824:6853   */\n      swap1\n      pop\n        /* \"#utility.yul\":6690:6859   */\n      swap3\n      swap2\n      pop\n      pop\n      jump\t// out\n        /* \"#utility.yul\":6865:7038   */\n    tag_130:\n        /* \"#utility.yul\":7005:7030   */\n      0x4164647265737320616c726561647920636c61696d6564000000000000000000\n        /* \"#utility.yul\":7001:7002   */\n      0x00\n        /* \"#utility.yul\":6993:6999   */\n      dup3\n        /* \"#utility.yul\":6989:7003   */\n      add\n        /* \"#utility.yul\":6982:7031   */\n      mstore\n        /* \"#utility.yul\":6865:7038   */\n      pop\n      jump\t// out\n        /* \"#utility.yul\":7044:7410   */\n    tag_131:\n        /* \"#utility.yul\":7186:7189   */\n      0x00\n        /* \"#utility.yul\":7207:7274   */\n      tag_226\n        /* \"#utility.yul\":7271:7273   */\n      0x17\n        /* \"#utility.yul\":7266:7269   */\n      dup4\n        /* \"#utility.yul\":7207:7274   */\n      tag_129\n      jump\t// in\n    tag_226:\n        /* \"#utility.yul\":7200:7274   */\n      swap2\n      pop\n        /* \"#utility.yul\":7283:7376   */\n      tag_227\n        /* \"#utility.yul\":7372:7375   */\n      dup3\n        /* \"#utility.yul\":7283:7376   */\n      tag_130\n      jump\t// in\n    tag_227:\n        /* \"#utility.yul\":7401:7403   */\n      0x20\n        /* \"#utility.yul\":7396:7399   */\n      dup3\n        /* \"#utility.yul\":7392:7404   */\n      add\n        /* \"#utility.yul\":7385:7404   */\n      swap1\n      pop\n        /* \"#utility.yul\":7044:7410   */\n      swap2\n      swap1\n      pop\n      jump\t// out\n        /* \"#utility.yul\":7416:7835   */\n    tag_56:\n        /* \"#utility.yul\":7582:7586   */\n      0x00\n        /* \"#utility.yul\":7620:7622   */\n      0x20\n        /* \"#utility.yul\":7609:7618   */\n      dup3\n        /* \"#utility.yul\":7605:7623   */\n      add\n        /* \"#utility.yul\":7597:7623   */\n      swap1\n      pop\n        /* \"#utility.yul\":7669:7678   */\n      dup2\n        /* \"#utility.yul\":7663:7667   */\n      dup2\n        /* \"#utility.yul\":7659:7679   */\n      sub\n        /* \"#utility.yul\":7655:7656   */\n      0x00\n        /* \"#utility.yul\":7644:7653   */\n      dup4\n        /* \"#utility.yul\":7640:7657   */\n      add\n        /* \"#utility.yul\":7633:7680   */\n      mstore\n        /* \"#utility.yul\":7697:7828   */\n      tag_229\n        /* \"#utility.yul\":7823:7827   */\n      dup2\n        /* \"#utility.yul\":7697:7828   */\n      tag_131\n      jump\t// in\n    tag_229:\n        /* \"#utility.yul\":7689:7828   */\n      swap1\n      pop\n        /* \"#utility.yul\":7416:7835   */\n      swap2\n      swap1\n      pop\n      jump\t// out\n        /* \"#utility.yul\":7841:7959   */\n    tag_132:\n        /* \"#utility.yul\":7928:7952   */\n      tag_231\n        /* \"#utility.yul\":7946:7951   */\n      dup2\n        /* \"#utility.yul\":7928:7952   */\n      tag_122\n      jump\t// in\n    tag_231:\n        /* \"#utility.yul\":7923:7926   */\n      dup3\n        /* \"#utility.yul\":7916:7953   */\n      mstore\n        /* \"#utility.yul\":7841:7959   */\n      pop\n      pop\n      jump\t// out\n        /* \"#utility.yul\":7965:8187   */\n    tag_58:\n        /* \"#utility.yul\":8058:8062   */\n      0x00\n        /* \"#utility.yul\":8096:8098   */\n      0x20\n        /* \"#utility.yul\":8085:8094   */\n      dup3\n        /* \"#utility.yul\":8081:8099   */\n      add\n        /* \"#utility.yul\":8073:8099   */\n      swap1\n      pop\n        /* \"#utility.yul\":8109:8180   */\n      tag_233\n        /* \"#utility.yul\":8177:8178   */\n      0x00\n        /* \"#utility.yul\":8166:8175   */\n      dup4\n        /* \"#utility.yul\":8162:8179   */\n      add\n        /* \"#utility.yul\":8153:8159   */\n      dup5\n        /* \"#utility.yul\":8109:8180   */\n      tag_132\n      jump\t// in\n    tag_233:\n        /* \"#utility.yul\":7965:8187   */\n      swap3\n      swap2\n      pop\n      pop\n      jump\t// out\n        /* \"#utility.yul\":8193:8364   */\n    tag_133:\n        /* \"#utility.yul\":8333:8356   */\n      0x496e76616c6964204d65726b6c652050726f6f662e0000000000000000000000\n        /* \"#utility.yul\":8329:8330   */\n      0x00\n        /* \"#utility.yul\":8321:8327   */\n      dup3\n        /* \"#utility.yul\":8317:8331   */\n      add\n        /* \"#utility.yul\":8310:8357   */\n      mstore\n        /* \"#utility.yul\":8193:8364   */\n      pop\n      jump\t// out\n        /* \"#utility.yul\":8370:8736   */\n    tag_134:\n        /* \"#utility.yul\":8512:8515   */\n      0x00\n        /* \"#utility.yul\":8533:8600   */\n      tag_236\n        /* \"#utility.yul\":8597:8599   */\n      0x15\n        /* \"#utility.yul\":8592:8595   */\n      dup4\n        /* \"#utility.yul\":8533:8600   */\n      tag_129\n      jump\t// in\n    tag_236:\n        /* \"#utility.yul\":8526:8600   */\n      swap2\n      pop\n        /* \"#utility.yul\":8609:8702   */\n      tag_237\n        /* \"#utility.yul\":8698:8701   */\n      dup3\n        /* \"#utility.yul\":8609:8702   */\n      tag_133\n      jump\t// in\n    tag_237:\n        /* \"#utility.yul\":8727:8729   */\n      0x20\n        /* \"#utility.yul\":8722:8725   */\n      dup3\n        /* \"#utility.yul\":8718:8730   */\n      add\n        /* \"#utility.yul\":8711:8730   */\n      swap1\n      pop\n        /* \"#utility.yul\":8370:8736   */\n      swap2\n      swap1\n      pop\n      jump\t// out\n        /* \"#utility.yul\":8742:9161   */\n    tag_63:\n        /* \"#utility.yul\":8908:8912   */\n      0x00\n        /* \"#utility.yul\":8946:8948   */\n      0x20\n        /* \"#utility.yul\":8935:8944   */\n      dup3\n        /* \"#utility.yul\":8931:8949   */\n      add\n        /* \"#utility.yul\":8923:8949   */\n      swap1\n      pop\n        /* \"#utility.yul\":8995:9004   */\n      dup2\n        /* \"#utility.yul\":8989:8993   */\n      dup2\n        /* \"#utility.yul\":8985:9005   */\n      sub\n        /* \"#utility.yul\":8981:8982   */\n      0x00\n        /* \"#utility.yul\":8970:8979   */\n      dup4\n        /* \"#utility.yul\":8966:8983   */\n      add\n        /* \"#utility.yul\":8959:9006   */\n      mstore\n        /* \"#utility.yul\":9023:9154   */\n      tag_239\n        /* \"#utility.yul\":9149:9153   */\n      dup2\n        /* \"#utility.yul\":9023:9154   */\n      tag_134\n      jump\t// in\n    tag_239:\n        /* \"#utility.yul\":9015:9154   */\n      swap1\n      pop\n        /* \"#utility.yul\":8742:9161   */\n      swap2\n      swap1\n      pop\n      jump\t// out\n        /* \"#utility.yul\":9167:9326   */\n    tag_135:\n        /* \"#utility.yul\":9307:9318   */\n      0x4e6f7420416c6c6f770000000000000000000000000000000000000000000000\n        /* \"#utility.yul\":9303:9304   */\n      0x00\n        /* \"#utility.yul\":9295:9301   */\n      dup3\n        /* \"#utility.yul\":9291:9305   */\n      add\n        /* \"#utility.yul\":9284:9319   */\n      mstore\n        /* \"#utility.yul\":9167:9326   */\n      pop\n      jump\t// out\n        /* \"#utility.yul\":9332:9697   */\n    tag_136:\n        /* \"#utility.yul\":9474:9477   */\n      0x00\n        /* \"#utility.yul\":9495:9561   */\n      tag_242\n        /* \"#utility.yul\":9559:9560   */\n      0x09\n        /* \"#utility.yul\":9554:9557   */\n      dup4\n        /* \"#utility.yul\":9495:9561   */\n      tag_129\n      jump\t// in\n    tag_242:\n        /* \"#utility.yul\":9488:9561   */\n      swap2\n      pop\n        /* \"#utility.yul\":9570:9663   */\n      tag_243\n        /* \"#utility.yul\":9659:9662   */\n      dup3\n        /* \"#utility.yul\":9570:9663   */\n      tag_135\n      jump\t// in\n    tag_243:\n        /* \"#utility.yul\":9688:9690   */\n      0x20\n        /* \"#utility.yul\":9683:9686   */\n      dup3\n        /* \"#utility.yul\":9679:9691   */\n      add\n        /* \"#utility.yul\":9672:9691   */\n      swap1\n      pop\n        /* \"#utility.yul\":9332:9697   */\n      swap2\n      swap1\n      pop\n      jump\t// out\n        /* \"#utility.yul\":9703:10122   */\n    tag_67:\n        /* \"#utility.yul\":9869:9873   */\n      0x00\n        /* \"#utility.yul\":9907:9909   */\n      0x20\n        /* \"#utility.yul\":9896:9905   */\n      dup3\n        /* \"#utility.yul\":9892:9910   */\n      add\n        /* \"#utility.yul\":9884:9910   */\n      swap1\n      pop\n        /* \"#utility.yul\":9956:9965   */\n      dup2\n        /* \"#utility.yul\":9950:9954   */\n      dup2\n        /* \"#utility.yul\":9946:9966   */\n      sub\n        /* \"#utility.yul\":9942:9943   */\n      0x00\n        /* \"#utility.yul\":9931:9940   */\n      dup4\n        /* \"#utility.yul\":9927:9944   */\n      add\n        /* \"#utility.yul\":9920:9967   */\n      mstore\n        /* \"#utility.yul\":9984:10115   */\n      tag_245\n        /* \"#utility.yul\":10110:10114   */\n      dup2\n        /* \"#utility.yul\":9984:10115   */\n      tag_136\n      jump\t// in\n    tag_245:\n        /* \"#utility.yul\":9976:10115   */\n      swap1\n      pop\n        /* \"#utility.yul\":9703:10122   */\n      swap2\n      swap1\n      pop\n      jump\t// out\n        /* \"#utility.yul\":10128:10306   */\n    tag_137:\n        /* \"#utility.yul\":10268:10298   */\n      0x496e73756666696369656e74204163636f756e742042616c616e636500000000\n        /* \"#utility.yul\":10264:10265   */\n      0x00\n        /* \"#utility.yul\":10256:10262   */\n      dup3\n        /* \"#utility.yul\":10252:10266   */\n      add\n        /* \"#utility.yul\":10245:10299   */\n      mstore\n        /* \"#utility.yul\":10128:10306   */\n      pop\n      jump\t// out\n        /* \"#utility.yul\":10312:10678   */\n    tag_138:\n        /* \"#utility.yul\":10454:10457   */\n      0x00\n        /* \"#utility.yul\":10475:10542   */\n      tag_248\n        /* \"#utility.yul\":10539:10541   */\n      0x1c\n        /* \"#utility.yul\":10534:10537   */\n      dup4\n        /* \"#utility.yul\":10475:10542   */\n      tag_129\n      jump\t// in\n    tag_248:\n        /* \"#utility.yul\":10468:10542   */\n      swap2\n      pop\n        /* \"#utility.yul\":10551:10644   */\n      tag_249\n        /* \"#utility.yul\":10640:10643   */\n      dup3\n        /* \"#utility.yul\":10551:10644   */\n      tag_137\n      jump\t// in\n    tag_249:\n        /* \"#utility.yul\":10669:10671   */\n      0x20\n        /* \"#utility.yul\":10664:10667   */\n      dup3\n        /* \"#utility.yul\":10660:10672   */\n      add\n        /* \"#utility.yul\":10653:10672   */\n      swap1\n      pop\n        /* \"#utility.yul\":10312:10678   */\n      swap2\n      swap1\n      pop\n      jump\t// out\n        /* \"#utility.yul\":10684:11103   */\n    tag_72:\n        /* \"#utility.yul\":10850:10854   */\n      0x00\n        /* \"#utility.yul\":10888:10890   */\n      0x20\n        /* \"#utility.yul\":10877:10886   */\n      dup3\n        /* \"#utility.yul\":10873:10891   */\n      add\n        /* \"#utility.yul\":10865:10891   */\n      swap1\n      pop\n        /* \"#utility.yul\":10937:10946   */\n      dup2\n        /* \"#utility.yul\":10931:10935   */\n      dup2\n        /* \"#utility.yul\":10927:10947   */\n      sub\n        /* \"#utility.yul\":10923:10924   */\n      0x00\n        /* \"#utility.yul\":10912:10921   */\n      dup4\n        /* \"#utility.yul\":10908:10925   */\n      add\n        /* \"#utility.yul\":10901:10948   */\n      mstore\n        /* \"#utility.yul\":10965:11096   */\n      tag_251\n        /* \"#utility.yul\":11091:11095   */\n      dup2\n        /* \"#utility.yul\":10965:11096   */\n      tag_138\n      jump\t// in\n    tag_251:\n        /* \"#utility.yul\":10957:11096   */\n      swap1\n      pop\n        /* \"#utility.yul\":10684:11103   */\n      swap2\n      swap1\n      pop\n      jump\t// out\n        /* \"#utility.yul\":11109:11300   */\n    tag_75:\n        /* \"#utility.yul\":11149:11152   */\n      0x00\n        /* \"#utility.yul\":11168:11188   */\n      tag_253\n        /* \"#utility.yul\":11186:11187   */\n      dup3\n        /* \"#utility.yul\":11168:11188   */\n      tag_102\n      jump\t// in\n    tag_253:\n        /* \"#utility.yul\":11163:11188   */\n      swap2\n      pop\n        /* \"#utility.yul\":11202:11222   */\n      tag_254\n        /* \"#utility.yul\":11220:11221   */\n      dup4\n        /* \"#utility.yul\":11202:11222   */\n      tag_102\n      jump\t// in\n    tag_254:\n        /* \"#utility.yul\":11197:11222   */\n      swap3\n      pop\n        /* \"#utility.yul\":11245:11246   */\n      dup3\n        /* \"#utility.yul\":11242:11243   */\n      dup3\n        /* \"#utility.yul\":11238:11247   */\n      add\n        /* \"#utility.yul\":11231:11247   */\n      swap1\n      pop\n        /* \"#utility.yul\":11266:11269   */\n      dup1\n        /* \"#utility.yul\":11263:11264   */\n      dup3\n        /* \"#utility.yul\":11260:11270   */\n      gt\n        /* \"#utility.yul\":11257:11293   */\n      iszero\n      tag_255\n      jumpi\n        /* \"#utility.yul\":11273:11291   */\n      tag_256\n      tag_128\n      jump\t// in\n    tag_256:\n        /* \"#utility.yul\":11257:11293   */\n    tag_255:\n        /* \"#utility.yul\":11109:11300   */\n      swap3\n      swap2\n      pop\n      pop\n      jump\t// out\n        /* \"#utility.yul\":11306:11486   */\n    tag_93:\n        /* \"#utility.yul\":11354:11431   */\n      0x4e487b7100000000000000000000000000000000000000000000000000000000\n        /* \"#utility.yul\":11351:11352   */\n      0x00\n        /* \"#utility.yul\":11344:11432   */\n      mstore\n        /* \"#utility.yul\":11451:11455   */\n      0x32\n        /* \"#utility.yul\":11448:11449   */\n      0x04\n        /* \"#utility.yul\":11441:11456   */\n      mstore\n        /* \"#utility.yul\":11475:11479   */\n      0x24\n        /* \"#utility.yul\":11472:11473   */\n      0x00\n        /* \"#utility.yul\":11465:11480   */\n      revert\n\n    auxdata: 0xa2646970667358221220d957299fa07b589476a8a4a18f74931856d0cf3ae4e21162267d4793afd8377e64736f6c63430008160033\n}\n",
				"bytecode": {
					"linkReferences": {},
					"object": "60806040527f9d997719c0a5b5f6db9b8ac69a988be57cf324cb9fffd51dc2c37544bb520d655f1b600355348015610035575f80fd5b503360025f6101000a81548173ffffffffffffffffffffffffffffffffffffffff021916908373ffffffffffffffffffffffffffffffffffffffff160217905550610df3806100835f395ff3fe60806040526004361061007a575f3560e01c8063a1a049a71161004d578063a1a049a714610134578063a50ec3261461015e578063db4bec4414610168578063e12d4a52146101a45761007a565b806312065fe01461007e578063372f657c146100a8578063835fc6ca146100d0578063a14c2d5b146100f8575b5f80fd5b348015610089575f80fd5b506100926101e0565b60405161009f91906107fc565b60405180910390f35b3480156100b3575f80fd5b506100ce60048036038101906100c991906109a9565b61026b565b005b3480156100db575f80fd5b506100f660048036038101906100f19190610a1a565b6103c4565b005b348015610103575f80fd5b5061011e60048036038101906101199190610a9f565b6105c5565b60405161012b91906107fc565b60405180910390f35b34801561013f575f80fd5b506101486105da565b6040516101559190610ad9565b60405180910390f35b6101666105e0565b005b348015610173575f80fd5b5061018e60048036038101906101899190610a9f565b610711565b60405161019b9190610b0c565b60405180910390f35b3480156101af575f80fd5b506101ca60048036038101906101c59190610a9f565b61072e565b6040516101d791906107fc565b60405180910390f35b5f60015f3373ffffffffffffffffffffffffffffffffffffffff1673ffffffffffffffffffffffffffffffffffffffff1681526020019081526020015f20545f803373ffffffffffffffffffffffffffffffffffffffff1673ffffffffffffffffffffffffffffffffffffffff1681526020019081526020015f20546102669190610b52565b905090565b60045f3373ffffffffffffffffffffffffffffffffffffffff1673ffffffffffffffffffffffffffffffffffffffff1681526020019081526020015f205f9054906101000a900460ff16156102f5576040517f08c379a00000000000000000000000000000000000000000000000000000000081526004016102ec90610bdf565b60405180910390fd5b5f336040516020016103079190610c0c565b60405160208183030381529060405280519060200120905061032c8260035483610742565b61036b576040517f08c379a000000000000000000000000000000000000000000000000000000000815260040161036290610c6f565b60405180910390fd5b600160045f3373ffffffffffffffffffffffffffffffffffffffff1673ffffffffffffffffffffffffffffffffffffffff1681526020019081526020015f205f6101000a81548160ff0219169083151502179055505050565b60025f9054906101000a900473ffffffffffffffffffffffffffffffffffffffff1673ffffffffffffffffffffffffffffffffffffffff163373ffffffffffffffffffffffffffffffffffffffff1614610453576040517f08c379a000000000000000000000000000000000000000000000000000000000815260040161044a90610cd7565b60405180910390fd5b805f60015f3373ffffffffffffffffffffffffffffffffffffffff1673ffffffffffffffffffffffffffffffffffffffff1681526020019081526020015f2054905081815f803373ffffffffffffffffffffffffffffffffffffffff1673ffffffffffffffffffffffffffffffffffffffff1681526020019081526020015f20546104de9190610b52565b101561051f576040517f08c379a000000000000000000000000000000000000000000000000000000000815260040161051690610d3f565b60405180910390fd5b8260015f3373ffffffffffffffffffffffffffffffffffffffff1673ffffffffffffffffffffffffffffffffffffffff1681526020019081526020015f205f82825461056b9190610d5d565b925050819055503373ffffffffffffffffffffffffffffffffffffffff167f5abb37b6a6e999ed1b32adaa92157f682779d5c878f8133de3e53cfdd319fafb846040516105b891906107fc565b60405180910390a2505050565b6001602052805f5260405f205f915090505481565b60035481565b60025f9054906101000a900473ffffffffffffffffffffffffffffffffffffffff1673ffffffffffffffffffffffffffffffffffffffff163373ffffffffffffffffffffffffffffffffffffffff161461066f576040517f08c379a000000000000000000000000000000000000000000000000000000000815260040161066690610cd7565b60405180910390fd5b345f803373ffffffffffffffffffffffffffffffffffffffff1673ffffffffffffffffffffffffffffffffffffffff1681526020019081526020015f205f8282546106ba9190610d5d565b925050819055503373ffffffffffffffffffffffffffffffffffffffff167fe5249d60e46bc17c93ebe0077404ce0986693b526789d52d468942ca2eba7ad33460405161070791906107fc565b60405180910390a2565b6004602052805f5260405f205f915054906101000a900460ff1681565b5f602052805f5260405f205f915090505481565b5f8261074e8584610758565b1490509392505050565b5f808290505f5b845181101561079b5761078c8286838151811061077f5761077e610d90565b5b60200260200101516107a6565b9150808060010191505061075f565b508091505092915050565b5f8183106107bd576107b882846107d0565b6107c8565b6107c783836107d0565b5b905092915050565b5f825f528160205260405f20905092915050565b5f819050919050565b6107f6816107e4565b82525050565b5f60208201905061080f5f8301846107ed565b92915050565b5f604051905090565b5f80fd5b5f80fd5b5f80fd5b5f601f19601f8301169050919050565b7f4e487b71000000000000000000000000000000000000000000000000000000005f52604160045260245ffd5b6108708261082a565b810181811067ffffffffffffffff8211171561088f5761088e61083a565b5b80604052505050565b5f6108a1610815565b90506108ad8282610867565b919050565b5f67ffffffffffffffff8211156108cc576108cb61083a565b5b602082029050602081019050919050565b5f80fd5b5f819050919050565b6108f3816108e1565b81146108fd575f80fd5b50565b5f8135905061090e816108ea565b92915050565b5f610926610921846108b2565b610898565b90508083825260208201905060208402830185811115610949576109486108dd565b5b835b81811015610972578061095e8882610900565b84526020840193505060208101905061094b565b5050509392505050565b5f82601f8301126109905761098f610826565b5b81356109a0848260208601610914565b91505092915050565b5f602082840312156109be576109bd61081e565b5b5f82013567ffffffffffffffff8111156109db576109da610822565b5b6109e78482850161097c565b91505092915050565b6109f9816107e4565b8114610a03575f80fd5b50565b5f81359050610a14816109f0565b92915050565b5f60208284031215610a2f57610a2e61081e565b5b5f610a3c84828501610a06565b91505092915050565b5f73ffffffffffffffffffffffffffffffffffffffff82169050919050565b5f610a6e82610a45565b9050919050565b610a7e81610a64565b8114610a88575f80fd5b50565b5f81359050610a9981610a75565b92915050565b5f60208284031215610ab457610ab361081e565b5b5f610ac184828501610a8b565b91505092915050565b610ad3816108e1565b82525050565b5f602082019050610aec5f830184610aca565b92915050565b5f8115159050919050565b610b0681610af2565b82525050565b5f602082019050610b1f5f830184610afd565b92915050565b7f4e487b71000000000000000000000000000000000000000000000000000000005f52601160045260245ffd5b5f610b5c826107e4565b9150610b67836107e4565b9250828203905081811115610b7f57610b7e610b25565b5b92915050565b5f82825260208201905092915050565b7f4164647265737320616c726561647920636c61696d65640000000000000000005f82015250565b5f610bc9601783610b85565b9150610bd482610b95565b602082019050919050565b5f6020820190508181035f830152610bf681610bbd565b9050919050565b610c0681610a64565b82525050565b5f602082019050610c1f5f830184610bfd565b92915050565b7f496e76616c6964204d65726b6c652050726f6f662e00000000000000000000005f82015250565b5f610c59601583610b85565b9150610c6482610c25565b602082019050919050565b5f6020820190508181035f830152610c8681610c4d565b9050919050565b7f4e6f7420416c6c6f7700000000000000000000000000000000000000000000005f82015250565b5f610cc1600983610b85565b9150610ccc82610c8d565b602082019050919050565b5f6020820190508181035f830152610cee81610cb5565b9050919050565b7f496e73756666696369656e74204163636f756e742042616c616e6365000000005f82015250565b5f610d29601c83610b85565b9150610d3482610cf5565b602082019050919050565b5f6020820190508181035f830152610d5681610d1d565b9050919050565b5f610d67826107e4565b9150610d72836107e4565b9250828201905080821115610d8a57610d89610b25565b5b92915050565b7f4e487b71000000000000000000000000000000000000000000000000000000005f52603260045260245ffdfea2646970667358221220d957299fa07b589476a8a4a18f74931856d0cf3ae4e21162267d4793afd8377e64736f6c63430008160033",
					"opcodes": "PUSH1 0x80 PUSH1 0x40 MSTORE PUSH32 0x9D997719C0A5B5F6DB9B8AC69A988BE57CF324CB9FFFD51DC2C37544BB520D65 PUSH0 SHL PUSH1 0x3 SSTORE CALLVALUE DUP1 ISZERO PUSH2 0x35 JUMPI PUSH0 DUP1 REVERT JUMPDEST POP CALLER PUSH1 0x2 PUSH0 PUSH2 0x100 EXP DUP2 SLOAD DUP2 PUSH20 0xFFFFFFFFFFFFFFFFFFFFFFFFFFFFFFFFFFFFFFFF MUL NOT AND SWAP1 DUP4 PUSH20 0xFFFFFFFFFFFFFFFFFFFFFFFFFFFFFFFFFFFFFFFF AND MUL OR SWAP1 SSTORE POP PUSH2 0xDF3 DUP1 PUSH2 0x83 PUSH0 CODECOPY PUSH0 RETURN INVALID PUSH1 0x80 PUSH1 0x40 MSTORE PUSH1 0x4 CALLDATASIZE LT PUSH2 0x7A JUMPI PUSH0 CALLDATALOAD PUSH1 0xE0 SHR DUP1 PUSH4 0xA1A049A7 GT PUSH2 0x4D JUMPI DUP1 PUSH4 0xA1A049A7 EQ PUSH2 0x134 JUMPI DUP1 PUSH4 0xA50EC326 EQ PUSH2 0x15E JUMPI DUP1 PUSH4 0xDB4BEC44 EQ PUSH2 0x168 JUMPI DUP1 PUSH4 0xE12D4A52 EQ PUSH2 0x1A4 JUMPI PUSH2 0x7A JUMP JUMPDEST DUP1 PUSH4 0x12065FE0 EQ PUSH2 0x7E JUMPI DUP1 PUSH4 0x372F657C EQ PUSH2 0xA8 JUMPI DUP1 PUSH4 0x835FC6CA EQ PUSH2 0xD0 JUMPI DUP1 PUSH4 0xA14C2D5B EQ PUSH2 0xF8 JUMPI JUMPDEST PUSH0 DUP1 REVERT JUMPDEST CALLVALUE DUP1 ISZERO PUSH2 0x89 JUMPI PUSH0 DUP1 REVERT JUMPDEST POP PUSH2 0x92 PUSH2 0x1E0 JUMP JUMPDEST PUSH1 0x40 MLOAD PUSH2 0x9F SWAP2 SWAP1 PUSH2 0x7FC JUMP JUMPDEST PUSH1 0x40 MLOAD DUP1 SWAP2 SUB SWAP1 RETURN JUMPDEST CALLVALUE DUP1 ISZERO PUSH2 0xB3 JUMPI PUSH0 DUP1 REVERT JUMPDEST POP PUSH2 0xCE PUSH1 0x4 DUP1 CALLDATASIZE SUB DUP2 ADD SWAP1 PUSH2 0xC9 SWAP2 SWAP1 PUSH2 0x9A9 JUMP JUMPDEST PUSH2 0x26B JUMP JUMPDEST STOP JUMPDEST CALLVALUE DUP1 ISZERO PUSH2 0xDB JUMPI PUSH0 DUP1 REVERT JUMPDEST POP PUSH2 0xF6 PUSH1 0x4 DUP1 CALLDATASIZE SUB DUP2 ADD SWAP1 PUSH2 0xF1 SWAP2 SWAP1 PUSH2 0xA1A JUMP JUMPDEST PUSH2 0x3C4 JUMP JUMPDEST STOP JUMPDEST CALLVALUE DUP1 ISZERO PUSH2 0x103 JUMPI PUSH0 DUP1 REVERT JUMPDEST POP PUSH2 0x11E PUSH1 0x4 DUP1 CALLDATASIZE SUB DUP2 ADD SWAP1 PUSH2 0x119 SWAP2 SWAP1 PUSH2 0xA9F JUMP JUMPDEST PUSH2 0x5C5 JUMP JUMPDEST PUSH1 0x40 MLOAD PUSH2 0x12B SWAP2 SWAP1 PUSH2 0x7FC JUMP JUMPDEST PUSH1 0x40 MLOAD DUP1 SWAP2 SUB SWAP1 RETURN JUMPDEST CALLVALUE DUP1 ISZERO PUSH2 0x13F JUMPI PUSH0 DUP1 REVERT JUMPDEST POP PUSH2 0x148 PUSH2 0x5DA JUMP JUMPDEST PUSH1 0x40 MLOAD PUSH2 0x155 SWAP2 SWAP1 PUSH2 0xAD9 JUMP JUMPDEST PUSH1 0x40 MLOAD DUP1 SWAP2 SUB SWAP1 RETURN JUMPDEST PUSH2 0x166 PUSH2 0x5E0 JUMP JUMPDEST STOP JUMPDEST CALLVALUE DUP1 ISZERO PUSH2 0x173 JUMPI PUSH0 DUP1 REVERT JUMPDEST POP PUSH2 0x18E PUSH1 0x4 DUP1 CALLDATASIZE SUB DUP2 ADD SWAP1 PUSH2 0x189 SWAP2 SWAP1 PUSH2 0xA9F JUMP JUMPDEST PUSH2 0x711 JUMP JUMPDEST PUSH1 0x40 MLOAD PUSH2 0x19B SWAP2 SWAP1 PUSH2 0xB0C JUMP JUMPDEST PUSH1 0x40 MLOAD DUP1 SWAP2 SUB SWAP1 RETURN JUMPDEST CALLVALUE DUP1 ISZERO PUSH2 0x1AF JUMPI PUSH0 DUP1 REVERT JUMPDEST POP PUSH2 0x1CA PUSH1 0x4 DUP1 CALLDATASIZE SUB DUP2 ADD SWAP1 PUSH2 0x1C5 SWAP2 SWAP1 PUSH2 0xA9F JUMP JUMPDEST PUSH2 0x72E JUMP JUMPDEST PUSH1 0x40 MLOAD PUSH2 0x1D7 SWAP2 SWAP1 PUSH2 0x7FC JUMP JUMPDEST PUSH1 0x40 MLOAD DUP1 SWAP2 SUB SWAP1 RETURN JUMPDEST PUSH0 PUSH1 0x1 PUSH0 CALLER PUSH20 0xFFFFFFFFFFFFFFFFFFFFFFFFFFFFFFFFFFFFFFFF AND PUSH20 0xFFFFFFFFFFFFFFFFFFFFFFFFFFFFFFFFFFFFFFFF AND DUP2 MSTORE PUSH1 0x20 ADD SWAP1 DUP2 MSTORE PUSH1 0x20 ADD PUSH0 KECCAK256 SLOAD PUSH0 DUP1 CALLER PUSH20 0xFFFFFFFFFFFFFFFFFFFFFFFFFFFFFFFFFFFFFFFF AND PUSH20 0xFFFFFFFFFFFFFFFFFFFFFFFFFFFFFFFFFFFFFFFF AND DUP2 MSTORE PUSH1 0x20 ADD SWAP1 DUP2 MSTORE PUSH1 0x20 ADD PUSH0 KECCAK256 SLOAD PUSH2 0x266 SWAP2 SWAP1 PUSH2 0xB52 JUMP JUMPDEST SWAP1 POP SWAP1 JUMP JUMPDEST PUSH1 0x4 PUSH0 CALLER PUSH20 0xFFFFFFFFFFFFFFFFFFFFFFFFFFFFFFFFFFFFFFFF AND PUSH20 0xFFFFFFFFFFFFFFFFFFFFFFFFFFFFFFFFFFFFFFFF AND DUP2 MSTORE PUSH1 0x20 ADD SWAP1 DUP2 MSTORE PUSH1 0x20 ADD PUSH0 KECCAK256 PUSH0 SWAP1 SLOAD SWAP1 PUSH2 0x100 EXP SWAP1 DIV PUSH1 0xFF AND ISZERO PUSH2 0x2F5 JUMPI PUSH1 0x40 MLOAD PUSH32 0x8C379A000000000000000000000000000000000000000000000000000000000 DUP2 MSTORE PUSH1 0x4 ADD PUSH2 0x2EC SWAP1 PUSH2 0xBDF JUMP JUMPDEST PUSH1 0x40 MLOAD DUP1 SWAP2 SUB SWAP1 REVERT JUMPDEST PUSH0 CALLER PUSH1 0x40 MLOAD PUSH1 0x20 ADD PUSH2 0x307 SWAP2 SWAP1 PUSH2 0xC0C JUMP JUMPDEST PUSH1 0x40 MLOAD PUSH1 0x20 DUP2 DUP4 SUB SUB DUP2 MSTORE SWAP1 PUSH1 0x40 MSTORE DUP1 MLOAD SWAP1 PUSH1 0x20 ADD KECCAK256 SWAP1 POP PUSH2 0x32C DUP3 PUSH1 0x3 SLOAD DUP4 PUSH2 0x742 JUMP JUMPDEST PUSH2 0x36B JUMPI PUSH1 0x40 MLOAD PUSH32 0x8C379A000000000000000000000000000000000000000000000000000000000 DUP2 MSTORE PUSH1 0x4 ADD PUSH2 0x362 SWAP1 PUSH2 0xC6F JUMP JUMPDEST PUSH1 0x40 MLOAD DUP1 SWAP2 SUB SWAP1 REVERT JUMPDEST PUSH1 0x1 PUSH1 0x4 PUSH0 CALLER PUSH20 0xFFFFFFFFFFFFFFFFFFFFFFFFFFFFFFFFFFFFFFFF AND PUSH20 0xFFFFFFFFFFFFFFFFFFFFFFFFFFFFFFFFFFFFFFFF AND DUP2 MSTORE PUSH1 0x20 ADD SWAP1 DUP2 MSTORE PUSH1 0x20 ADD PUSH0 KECCAK256 PUSH0 PUSH2 0x100 EXP DUP2 SLOAD DUP2 PUSH1 0xFF MUL NOT AND SWAP1 DUP4 ISZERO ISZERO MUL OR SWAP1 SSTORE POP POP POP JUMP JUMPDEST PUSH1 0x2 PUSH0 SWAP1 SLOAD SWAP1 PUSH2 0x100 EXP SWAP1 DIV PUSH20 0xFFFFFFFFFFFFFFFFFFFFFFFFFFFFFFFFFFFFFFFF AND PUSH20 0xFFFFFFFFFFFFFFFFFFFFFFFFFFFFFFFFFFFFFFFF AND CALLER PUSH20 0xFFFFFFFFFFFFFFFFFFFFFFFFFFFFFFFFFFFFFFFF AND EQ PUSH2 0x453 JUMPI PUSH1 0x40 MLOAD PUSH32 0x8C379A000000000000000000000000000000000000000000000000000000000 DUP2 MSTORE PUSH1 0x4 ADD PUSH2 0x44A SWAP1 PUSH2 0xCD7 JUMP JUMPDEST PUSH1 0x40 MLOAD DUP1 SWAP2 SUB SWAP1 REVERT JUMPDEST DUP1 PUSH0 PUSH1 0x1 PUSH0 CALLER PUSH20 0xFFFFFFFFFFFFFFFFFFFFFFFFFFFFFFFFFFFFFFFF AND PUSH20 0xFFFFFFFFFFFFFFFFFFFFFFFFFFFFFFFFFFFFFFFF AND DUP2 MSTORE PUSH1 0x20 ADD SWAP1 DUP2 MSTORE PUSH1 0x20 ADD PUSH0 KECCAK256 SLOAD SWAP1 POP DUP2 DUP2 PUSH0 DUP1 CALLER PUSH20 0xFFFFFFFFFFFFFFFFFFFFFFFFFFFFFFFFFFFFFFFF AND PUSH20 0xFFFFFFFFFFFFFFFFFFFFFFFFFFFFFFFFFFFFFFFF AND DUP2 MSTORE PUSH1 0x20 ADD SWAP1 DUP2 MSTORE PUSH1 0x20 ADD PUSH0 KECCAK256 SLOAD PUSH2 0x4DE SWAP2 SWAP1 PUSH2 0xB52 JUMP JUMPDEST LT ISZERO PUSH2 0x51F JUMPI PUSH1 0x40 MLOAD PUSH32 0x8C379A000000000000000000000000000000000000000000000000000000000 DUP2 MSTORE PUSH1 0x4 ADD PUSH2 0x516 SWAP1 PUSH2 0xD3F JUMP JUMPDEST PUSH1 0x40 MLOAD DUP1 SWAP2 SUB SWAP1 REVERT JUMPDEST DUP3 PUSH1 0x1 PUSH0 CALLER PUSH20 0xFFFFFFFFFFFFFFFFFFFFFFFFFFFFFFFFFFFFFFFF AND PUSH20 0xFFFFFFFFFFFFFFFFFFFFFFFFFFFFFFFFFFFFFFFF AND DUP2 MSTORE PUSH1 0x20 ADD SWAP1 DUP2 MSTORE PUSH1 0x20 ADD PUSH0 KECCAK256 PUSH0 DUP3 DUP3 SLOAD PUSH2 0x56B SWAP2 SWAP1 PUSH2 0xD5D JUMP JUMPDEST SWAP3 POP POP DUP2 SWAP1 SSTORE POP CALLER PUSH20 0xFFFFFFFFFFFFFFFFFFFFFFFFFFFFFFFFFFFFFFFF AND PUSH32 0x5ABB37B6A6E999ED1B32ADAA92157F682779D5C878F8133DE3E53CFDD319FAFB DUP5 PUSH1 0x40 MLOAD PUSH2 0x5B8 SWAP2 SWAP1 PUSH2 0x7FC JUMP JUMPDEST PUSH1 0x40 MLOAD DUP1 SWAP2 SUB SWAP1 LOG2 POP POP POP JUMP JUMPDEST PUSH1 0x1 PUSH1 0x20 MSTORE DUP1 PUSH0 MSTORE PUSH1 0x40 PUSH0 KECCAK256 PUSH0 SWAP2 POP SWAP1 POP SLOAD DUP2 JUMP JUMPDEST PUSH1 0x3 SLOAD DUP2 JUMP JUMPDEST PUSH1 0x2 PUSH0 SWAP1 SLOAD SWAP1 PUSH2 0x100 EXP SWAP1 DIV PUSH20 0xFFFFFFFFFFFFFFFFFFFFFFFFFFFFFFFFFFFFFFFF AND PUSH20 0xFFFFFFFFFFFFFFFFFFFFFFFFFFFFFFFFFFFFFFFF AND CALLER PUSH20 0xFFFFFFFFFFFFFFFFFFFFFFFFFFFFFFFFFFFFFFFF AND EQ PUSH2 0x66F JUMPI PUSH1 0x40 MLOAD PUSH32 0x8C379A000000000000000000000000000000000000000000000000000000000 DUP2 MSTORE PUSH1 0x4 ADD PUSH2 0x666 SWAP1 PUSH2 0xCD7 JUMP JUMPDEST PUSH1 0x40 MLOAD DUP1 SWAP2 SUB SWAP1 REVERT JUMPDEST CALLVALUE PUSH0 DUP1 CALLER PUSH20 0xFFFFFFFFFFFFFFFFFFFFFFFFFFFFFFFFFFFFFFFF AND PUSH20 0xFFFFFFFFFFFFFFFFFFFFFFFFFFFFFFFFFFFFFFFF AND DUP2 MSTORE PUSH1 0x20 ADD SWAP1 DUP2 MSTORE PUSH1 0x20 ADD PUSH0 KECCAK256 PUSH0 DUP3 DUP3 SLOAD PUSH2 0x6BA SWAP2 SWAP1 PUSH2 0xD5D JUMP JUMPDEST SWAP3 POP POP DUP2 SWAP1 SSTORE POP CALLER PUSH20 0xFFFFFFFFFFFFFFFFFFFFFFFFFFFFFFFFFFFFFFFF AND PUSH32 0xE5249D60E46BC17C93EBE0077404CE0986693B526789D52D468942CA2EBA7AD3 CALLVALUE PUSH1 0x40 MLOAD PUSH2 0x707 SWAP2 SWAP1 PUSH2 0x7FC JUMP JUMPDEST PUSH1 0x40 MLOAD DUP1 SWAP2 SUB SWAP1 LOG2 JUMP JUMPDEST PUSH1 0x4 PUSH1 0x20 MSTORE DUP1 PUSH0 MSTORE PUSH1 0x40 PUSH0 KECCAK256 PUSH0 SWAP2 POP SLOAD SWAP1 PUSH2 0x100 EXP SWAP1 DIV PUSH1 0xFF AND DUP2 JUMP JUMPDEST PUSH0 PUSH1 0x20 MSTORE DUP1 PUSH0 MSTORE PUSH1 0x40 PUSH0 KECCAK256 PUSH0 SWAP2 POP SWAP1 POP SLOAD DUP2 JUMP JUMPDEST PUSH0 DUP3 PUSH2 0x74E DUP6 DUP5 PUSH2 0x758 JUMP JUMPDEST EQ SWAP1 POP SWAP4 SWAP3 POP POP POP JUMP JUMPDEST PUSH0 DUP1 DUP3 SWAP1 POP PUSH0 JUMPDEST DUP5 MLOAD DUP2 LT ISZERO PUSH2 0x79B JUMPI PUSH2 0x78C DUP3 DUP7 DUP4 DUP2 MLOAD DUP2 LT PUSH2 0x77F JUMPI PUSH2 0x77E PUSH2 0xD90 JUMP JUMPDEST JUMPDEST PUSH1 0x20 MUL PUSH1 0x20 ADD ADD MLOAD PUSH2 0x7A6 JUMP JUMPDEST SWAP2 POP DUP1 DUP1 PUSH1 0x1 ADD SWAP2 POP POP PUSH2 0x75F JUMP JUMPDEST POP DUP1 SWAP2 POP POP SWAP3 SWAP2 POP POP JUMP JUMPDEST PUSH0 DUP2 DUP4 LT PUSH2 0x7BD JUMPI PUSH2 0x7B8 DUP3 DUP5 PUSH2 0x7D0 JUMP JUMPDEST PUSH2 0x7C8 JUMP JUMPDEST PUSH2 0x7C7 DUP4 DUP4 PUSH2 0x7D0 JUMP JUMPDEST JUMPDEST SWAP1 POP SWAP3 SWAP2 POP POP JUMP JUMPDEST PUSH0 DUP3 PUSH0 MSTORE DUP2 PUSH1 0x20 MSTORE PUSH1 0x40 PUSH0 KECCAK256 SWAP1 POP SWAP3 SWAP2 POP POP JUMP JUMPDEST PUSH0 DUP2 SWAP1 POP SWAP2 SWAP1 POP JUMP JUMPDEST PUSH2 0x7F6 DUP2 PUSH2 0x7E4 JUMP JUMPDEST DUP3 MSTORE POP POP JUMP JUMPDEST PUSH0 PUSH1 0x20 DUP3 ADD SWAP1 POP PUSH2 0x80F PUSH0 DUP4 ADD DUP5 PUSH2 0x7ED JUMP JUMPDEST SWAP3 SWAP2 POP POP JUMP JUMPDEST PUSH0 PUSH1 0x40 MLOAD SWAP1 POP SWAP1 JUMP JUMPDEST PUSH0 DUP1 REVERT JUMPDEST PUSH0 DUP1 REVERT JUMPDEST PUSH0 DUP1 REVERT JUMPDEST PUSH0 PUSH1 0x1F NOT PUSH1 0x1F DUP4 ADD AND SWAP1 POP SWAP2 SWAP1 POP JUMP JUMPDEST PUSH32 0x4E487B7100000000000000000000000000000000000000000000000000000000 PUSH0 MSTORE PUSH1 0x41 PUSH1 0x4 MSTORE PUSH1 0x24 PUSH0 REVERT JUMPDEST PUSH2 0x870 DUP3 PUSH2 0x82A JUMP JUMPDEST DUP2 ADD DUP2 DUP2 LT PUSH8 0xFFFFFFFFFFFFFFFF DUP3 GT OR ISZERO PUSH2 0x88F JUMPI PUSH2 0x88E PUSH2 0x83A JUMP JUMPDEST JUMPDEST DUP1 PUSH1 0x40 MSTORE POP POP POP JUMP JUMPDEST PUSH0 PUSH2 0x8A1 PUSH2 0x815 JUMP JUMPDEST SWAP1 POP PUSH2 0x8AD DUP3 DUP3 PUSH2 0x867 JUMP JUMPDEST SWAP2 SWAP1 POP JUMP JUMPDEST PUSH0 PUSH8 0xFFFFFFFFFFFFFFFF DUP3 GT ISZERO PUSH2 0x8CC JUMPI PUSH2 0x8CB PUSH2 0x83A JUMP JUMPDEST JUMPDEST PUSH1 0x20 DUP3 MUL SWAP1 POP PUSH1 0x20 DUP2 ADD SWAP1 POP SWAP2 SWAP1 POP JUMP JUMPDEST PUSH0 DUP1 REVERT JUMPDEST PUSH0 DUP2 SWAP1 POP SWAP2 SWAP1 POP JUMP JUMPDEST PUSH2 0x8F3 DUP2 PUSH2 0x8E1 JUMP JUMPDEST DUP2 EQ PUSH2 0x8FD JUMPI PUSH0 DUP1 REVERT JUMPDEST POP JUMP JUMPDEST PUSH0 DUP2 CALLDATALOAD SWAP1 POP PUSH2 0x90E DUP2 PUSH2 0x8EA JUMP JUMPDEST SWAP3 SWAP2 POP POP JUMP JUMPDEST PUSH0 PUSH2 0x926 PUSH2 0x921 DUP5 PUSH2 0x8B2 JUMP JUMPDEST PUSH2 0x898 JUMP JUMPDEST SWAP1 POP DUP1 DUP4 DUP3 MSTORE PUSH1 0x20 DUP3 ADD SWAP1 POP PUSH1 0x20 DUP5 MUL DUP4 ADD DUP6 DUP2 GT ISZERO PUSH2 0x949 JUMPI PUSH2 0x948 PUSH2 0x8DD JUMP JUMPDEST JUMPDEST DUP4 JUMPDEST DUP2 DUP2 LT ISZERO PUSH2 0x972 JUMPI DUP1 PUSH2 0x95E DUP9 DUP3 PUSH2 0x900 JUMP JUMPDEST DUP5 MSTORE PUSH1 0x20 DUP5 ADD SWAP4 POP POP PUSH1 0x20 DUP2 ADD SWAP1 POP PUSH2 0x94B JUMP JUMPDEST POP POP POP SWAP4 SWAP3 POP POP POP JUMP JUMPDEST PUSH0 DUP3 PUSH1 0x1F DUP4 ADD SLT PUSH2 0x990 JUMPI PUSH2 0x98F PUSH2 0x826 JUMP JUMPDEST JUMPDEST DUP2 CALLDATALOAD PUSH2 0x9A0 DUP5 DUP3 PUSH1 0x20 DUP7 ADD PUSH2 0x914 JUMP JUMPDEST SWAP2 POP POP SWAP3 SWAP2 POP POP JUMP JUMPDEST PUSH0 PUSH1 0x20 DUP3 DUP5 SUB SLT ISZERO PUSH2 0x9BE JUMPI PUSH2 0x9BD PUSH2 0x81E JUMP JUMPDEST JUMPDEST PUSH0 DUP3 ADD CALLDATALOAD PUSH8 0xFFFFFFFFFFFFFFFF DUP2 GT ISZERO PUSH2 0x9DB JUMPI PUSH2 0x9DA PUSH2 0x822 JUMP JUMPDEST JUMPDEST PUSH2 0x9E7 DUP5 DUP3 DUP6 ADD PUSH2 0x97C JUMP JUMPDEST SWAP2 POP POP SWAP3 SWAP2 POP POP JUMP JUMPDEST PUSH2 0x9F9 DUP2 PUSH2 0x7E4 JUMP JUMPDEST DUP2 EQ PUSH2 0xA03 JUMPI PUSH0 DUP1 REVERT JUMPDEST POP JUMP JUMPDEST PUSH0 DUP2 CALLDATALOAD SWAP1 POP PUSH2 0xA14 DUP2 PUSH2 0x9F0 JUMP JUMPDEST SWAP3 SWAP2 POP POP JUMP JUMPDEST PUSH0 PUSH1 0x20 DUP3 DUP5 SUB SLT ISZERO PUSH2 0xA2F JUMPI PUSH2 0xA2E PUSH2 0x81E JUMP JUMPDEST JUMPDEST PUSH0 PUSH2 0xA3C DUP5 DUP3 DUP6 ADD PUSH2 0xA06 JUMP JUMPDEST SWAP2 POP POP SWAP3 SWAP2 POP POP JUMP JUMPDEST PUSH0 PUSH20 0xFFFFFFFFFFFFFFFFFFFFFFFFFFFFFFFFFFFFFFFF DUP3 AND SWAP1 POP SWAP2 SWAP1 POP JUMP JUMPDEST PUSH0 PUSH2 0xA6E DUP3 PUSH2 0xA45 JUMP JUMPDEST SWAP1 POP SWAP2 SWAP1 POP JUMP JUMPDEST PUSH2 0xA7E DUP2 PUSH2 0xA64 JUMP JUMPDEST DUP2 EQ PUSH2 0xA88 JUMPI PUSH0 DUP1 REVERT JUMPDEST POP JUMP JUMPDEST PUSH0 DUP2 CALLDATALOAD SWAP1 POP PUSH2 0xA99 DUP2 PUSH2 0xA75 JUMP JUMPDEST SWAP3 SWAP2 POP POP JUMP JUMPDEST PUSH0 PUSH1 0x20 DUP3 DUP5 SUB SLT ISZERO PUSH2 0xAB4 JUMPI PUSH2 0xAB3 PUSH2 0x81E JUMP JUMPDEST JUMPDEST PUSH0 PUSH2 0xAC1 DUP5 DUP3 DUP6 ADD PUSH2 0xA8B JUMP JUMPDEST SWAP2 POP POP SWAP3 SWAP2 POP POP JUMP JUMPDEST PUSH2 0xAD3 DUP2 PUSH2 0x8E1 JUMP JUMPDEST DUP3 MSTORE POP POP JUMP JUMPDEST PUSH0 PUSH1 0x20 DUP3 ADD SWAP1 POP PUSH2 0xAEC PUSH0 DUP4 ADD DUP5 PUSH2 0xACA JUMP JUMPDEST SWAP3 SWAP2 POP POP JUMP JUMPDEST PUSH0 DUP2 ISZERO ISZERO SWAP1 POP SWAP2 SWAP1 POP JUMP JUMPDEST PUSH2 0xB06 DUP2 PUSH2 0xAF2 JUMP JUMPDEST DUP3 MSTORE POP POP JUMP JUMPDEST PUSH0 PUSH1 0x20 DUP3 ADD SWAP1 POP PUSH2 0xB1F PUSH0 DUP4 ADD DUP5 PUSH2 0xAFD JUMP JUMPDEST SWAP3 SWAP2 POP POP JUMP JUMPDEST PUSH32 0x4E487B7100000000000000000000000000000000000000000000000000000000 PUSH0 MSTORE PUSH1 0x11 PUSH1 0x4 MSTORE PUSH1 0x24 PUSH0 REVERT JUMPDEST PUSH0 PUSH2 0xB5C DUP3 PUSH2 0x7E4 JUMP JUMPDEST SWAP2 POP PUSH2 0xB67 DUP4 PUSH2 0x7E4 JUMP JUMPDEST SWAP3 POP DUP3 DUP3 SUB SWAP1 POP DUP2 DUP2 GT ISZERO PUSH2 0xB7F JUMPI PUSH2 0xB7E PUSH2 0xB25 JUMP JUMPDEST JUMPDEST SWAP3 SWAP2 POP POP JUMP JUMPDEST PUSH0 DUP3 DUP3 MSTORE PUSH1 0x20 DUP3 ADD SWAP1 POP SWAP3 SWAP2 POP POP JUMP JUMPDEST PUSH32 0x4164647265737320616C726561647920636C61696D6564000000000000000000 PUSH0 DUP3 ADD MSTORE POP JUMP JUMPDEST PUSH0 PUSH2 0xBC9 PUSH1 0x17 DUP4 PUSH2 0xB85 JUMP JUMPDEST SWAP2 POP PUSH2 0xBD4 DUP3 PUSH2 0xB95 JUMP JUMPDEST PUSH1 0x20 DUP3 ADD SWAP1 POP SWAP2 SWAP1 POP JUMP JUMPDEST PUSH0 PUSH1 0x20 DUP3 ADD SWAP1 POP DUP2 DUP2 SUB PUSH0 DUP4 ADD MSTORE PUSH2 0xBF6 DUP2 PUSH2 0xBBD JUMP JUMPDEST SWAP1 POP SWAP2 SWAP1 POP JUMP JUMPDEST PUSH2 0xC06 DUP2 PUSH2 0xA64 JUMP JUMPDEST DUP3 MSTORE POP POP JUMP JUMPDEST PUSH0 PUSH1 0x20 DUP3 ADD SWAP1 POP PUSH2 0xC1F PUSH0 DUP4 ADD DUP5 PUSH2 0xBFD JUMP JUMPDEST SWAP3 SWAP2 POP POP JUMP JUMPDEST PUSH32 0x496E76616C6964204D65726B6C652050726F6F662E0000000000000000000000 PUSH0 DUP3 ADD MSTORE POP JUMP JUMPDEST PUSH0 PUSH2 0xC59 PUSH1 0x15 DUP4 PUSH2 0xB85 JUMP JUMPDEST SWAP2 POP PUSH2 0xC64 DUP3 PUSH2 0xC25 JUMP JUMPDEST PUSH1 0x20 DUP3 ADD SWAP1 POP SWAP2 SWAP1 POP JUMP JUMPDEST PUSH0 PUSH1 0x20 DUP3 ADD SWAP1 POP DUP2 DUP2 SUB PUSH0 DUP4 ADD MSTORE PUSH2 0xC86 DUP2 PUSH2 0xC4D JUMP JUMPDEST SWAP1 POP SWAP2 SWAP1 POP JUMP JUMPDEST PUSH32 0x4E6F7420416C6C6F770000000000000000000000000000000000000000000000 PUSH0 DUP3 ADD MSTORE POP JUMP JUMPDEST PUSH0 PUSH2 0xCC1 PUSH1 0x9 DUP4 PUSH2 0xB85 JUMP JUMPDEST SWAP2 POP PUSH2 0xCCC DUP3 PUSH2 0xC8D JUMP JUMPDEST PUSH1 0x20 DUP3 ADD SWAP1 POP SWAP2 SWAP1 POP JUMP JUMPDEST PUSH0 PUSH1 0x20 DUP3 ADD SWAP1 POP DUP2 DUP2 SUB PUSH0 DUP4 ADD MSTORE PUSH2 0xCEE DUP2 PUSH2 0xCB5 JUMP JUMPDEST SWAP1 POP SWAP2 SWAP1 POP JUMP JUMPDEST PUSH32 0x496E73756666696369656E74204163636F756E742042616C616E636500000000 PUSH0 DUP3 ADD MSTORE POP JUMP JUMPDEST PUSH0 PUSH2 0xD29 PUSH1 0x1C DUP4 PUSH2 0xB85 JUMP JUMPDEST SWAP2 POP PUSH2 0xD34 DUP3 PUSH2 0xCF5 JUMP JUMPDEST PUSH1 0x20 DUP3 ADD SWAP1 POP SWAP2 SWAP1 POP JUMP JUMPDEST PUSH0 PUSH1 0x20 DUP3 ADD SWAP1 POP DUP2 DUP2 SUB PUSH0 DUP4 ADD MSTORE PUSH2 0xD56 DUP2 PUSH2 0xD1D JUMP JUMPDEST SWAP1 POP SWAP2 SWAP1 POP JUMP JUMPDEST PUSH0 PUSH2 0xD67 DUP3 PUSH2 0x7E4 JUMP JUMPDEST SWAP2 POP PUSH2 0xD72 DUP4 PUSH2 0x7E4 JUMP JUMPDEST SWAP3 POP DUP3 DUP3 ADD SWAP1 POP DUP1 DUP3 GT ISZERO PUSH2 0xD8A JUMPI PUSH2 0xD89 PUSH2 0xB25 JUMP JUMPDEST JUMPDEST SWAP3 SWAP2 POP POP JUMP JUMPDEST PUSH32 0x4E487B7100000000000000000000000000000000000000000000000000000000 PUSH0 MSTORE PUSH1 0x32 PUSH1 0x4 MSTORE PUSH1 0x24 PUSH0 REVERT INVALID LOG2 PUSH5 0x6970667358 0x22 SLT KECCAK256 0xD9 JUMPI 0x29 SWAP16 LOG0 PUSH28 0x589476A8A4A18F74931856D0CF3AE4E21162267D4793AFD8377E6473 PUSH16 0x6C634300081600330000000000000000 "
				},
				"gasEstimates": {
					"creation": {
						"codeDepositCost": "714200",
						"executionCost": "47121",
						"totalCost": "761321"
					},
					"external": {
						"depositFund(address)": "2867",
						"deposite()": "infinite",
						"getBalance()": "infinite",
						"markleRoot()": "2425",
						"whitelistClaimed(address)": "2877",
						"whitelistMint(bytes32[])": "infinite",
						"withdrawal(uint256)": "infinite",
						"withdrawlFund(address)": "2869"
					}
				},
				"methodIdentifiers": {
					"depositFund(address)": "e12d4a52",
					"deposite()": "a50ec326",
					"getBalance()": "12065fe0",
					"markleRoot()": "a1a049a7",
					"whitelistClaimed(address)": "db4bec44",
					"whitelistMint(bytes32[])": "372f657c",
					"withdrawal(uint256)": "835fc6ca",
					"withdrawlFund(address)": "a14c2d5b"
				}
			},
			"storageLayout": {
				"storage": [
					{
						"astId": 543,
						"contract": "tests/new/usecase2part2.sol:Bank",
						"label": "depositFund",
						"offset": 0,
						"slot": "0",
						"type": "t_mapping(t_address,t_uint256)"
					},
					{
						"astId": 547,
						"contract": "tests/new/usecase2part2.sol:Bank",
						"label": "withdrawlFund",
						"offset": 0,
						"slot": "1",
						"type": "t_mapping(t_address,t_uint256)"
					},
					{
						"astId": 549,
						"contract": "tests/new/usecase2part2.sol:Bank",
						"label": "owner",
						"offset": 0,
						"slot": "2",
						"type": "t_address"
					},
					{
						"astId": 671,
						"contract": "tests/new/usecase2part2.sol:Bank",
						"label": "markleRoot",
						"offset": 0,
						"slot": "3",
						"type": "t_bytes32"
					},
					{
						"astId": 675,
						"contract": "tests/new/usecase2part2.sol:Bank",
						"label": "whitelistClaimed",
						"offset": 0,
						"slot": "4",
						"type": "t_mapping(t_address,t_bool)"
					}
				],
				"types": {
					"t_address": {
						"encoding": "inplace",
						"label": "address",
						"numberOfBytes": "20"
					},
					"t_bool": {
						"encoding": "inplace",
						"label": "bool",
						"numberOfBytes": "1"
					},
					"t_bytes32": {
						"encoding": "inplace",
						"label": "bytes32",
						"numberOfBytes": "32"
					},
					"t_mapping(t_address,t_bool)": {
						"encoding": "mapping",
						"key": "t_address",
						"label": "mapping(address => bool)",
						"numberOfBytes": "32",
						"value": "t_bool"
					},
					"t_mapping(t_address,t_uint256)": {
						"encoding": "mapping",
						"key": "t_address",
						"label": "mapping(address => uint256)",
						"numberOfBytes": "32",
						"value": "t_uint256"
					},
					"t_uint256": {
						"encoding": "inplace",
						"label": "uint256",
						"numberOfBytes": "32"
					}
				}
			},
			"userdoc": {
				"kind": "user",
				"methods": {},
				"version": 1
			}
		}
	}
}