{
	"tests/new/Payble.sol": {
		"Bank": {
			"abi": [
				{
					"inputs": [],
					"stateMutability": "nonpayable",
					"type": "constructor"
				},
				{
					"anonymous": false,
					"inputs": [
						{
							"indexed": false,
							"internalType": "uint256",
							"name": "amount",
							"type": "uint256"
						},
						{
							"indexed": false,
							"internalType": "address",
							"name": "depositedTo",
							"type": "address"
						}
					],
					"name": "depositDone",
					"type": "event"
				},
				{
					"inputs": [],
					"name": "deposit",
					"outputs": [
						{
							"internalType": "uint256",
							"name": "",
							"type": "uint256"
						}
					],
					"stateMutability": "payable",
					"type": "function"
				},
				{
					"inputs": [],
					"name": "getBlance",
					"outputs": [
						{
							"internalType": "uint256",
							"name": "",
							"type": "uint256"
						}
					],
					"stateMutability": "view",
					"type": "function"
				},
				{
					"inputs": [
						{
							"internalType": "address",
							"name": "recipient",
							"type": "address"
						},
						{
							"internalType": "uint256",
							"name": "amount",
							"type": "uint256"
						}
					],
					"name": "transfer",
					"outputs": [],
					"stateMutability": "nonpayable",
					"type": "function"
				}
			],
			"devdoc": {
				"kind": "dev",
				"methods": {},
				"version": 1
			},
			"evm": {
				"assembly": "    /* \"tests/new/Payble.sol\":60:1175  contract Bank{... */\n  mstore(0x40, 0x80)\n    /* \"tests/new/Payble.sol\":288:332  constructor(){... */\n  callvalue\n  dup1\n  iszero\n  tag_1\n  jumpi\n  0x00\n  dup1\n  revert\ntag_1:\n  pop\n    /* \"tests/new/Payble.sol\":316:326  msg.sender */\n  caller\n    /* \"tests/new/Payble.sol\":308:313  owner */\n  0x01\n  0x00\n    /* \"tests/new/Payble.sol\":308:326  owner = msg.sender */\n  0x0100\n  exp\n  dup2\n  sload\n  dup2\n  0xffffffffffffffffffffffffffffffffffffffff\n  mul\n  not\n  and\n  swap1\n  dup4\n  0xffffffffffffffffffffffffffffffffffffffff\n  and\n  mul\n  or\n  swap1\n  sstore\n  pop\n    /* \"tests/new/Payble.sol\":60:1175  contract Bank{... */\n  dataSize(sub_0)\n  dup1\n  dataOffset(sub_0)\n  0x00\n  codecopy\n  0x00\n  return\nstop\n\nsub_0: assembly {\n        /* \"tests/new/Payble.sol\":60:1175  contract Bank{... */\n      mstore(0x40, 0x80)\n      jumpi(tag_1, lt(calldatasize, 0x04))\n      shr(0xe0, calldataload(0x00))\n      dup1\n      0x941be5f7\n      eq\n      tag_2\n      jumpi\n      dup1\n      0xa9059cbb\n      eq\n      tag_3\n      jumpi\n      dup1\n      0xd0e30db0\n      eq\n      tag_4\n      jumpi\n    tag_1:\n      0x00\n      dup1\n      revert\n        /* \"tests/new/Payble.sol\":519:605  function getBlance() public view returns (uint){... */\n    tag_2:\n      callvalue\n      dup1\n      iszero\n      tag_5\n      jumpi\n      0x00\n      dup1\n      revert\n    tag_5:\n      pop\n      tag_6\n      tag_7\n      jump\t// in\n    tag_6:\n      mload(0x40)\n      tag_8\n      swap2\n      swap1\n      tag_9\n      jump\t// in\n    tag_8:\n      mload(0x40)\n      dup1\n      swap2\n      sub\n      swap1\n      return\n        /* \"tests/new/Payble.sol\":613:1020  function transfer(address recipient, uint amount) public {... */\n    tag_3:\n      callvalue\n      dup1\n      iszero\n      tag_10\n      jumpi\n      0x00\n      dup1\n      revert\n    tag_10:\n      pop\n      tag_11\n      0x04\n      dup1\n      calldatasize\n      sub\n      dup2\n      add\n      swap1\n      tag_12\n      swap2\n      swap1\n      tag_13\n      jump\t// in\n    tag_12:\n      tag_14\n      jump\t// in\n    tag_11:\n      stop\n        /* \"tests/new/Payble.sol\":338:513  function deposit() public payable  returns (uint){... */\n    tag_4:\n      tag_15\n      tag_16\n      jump\t// in\n    tag_15:\n      mload(0x40)\n      tag_17\n      swap2\n      swap1\n      tag_9\n      jump\t// in\n    tag_17:\n      mload(0x40)\n      dup1\n      swap2\n      sub\n      swap1\n      return\n        /* \"tests/new/Payble.sol\":519:605  function getBlance() public view returns (uint){... */\n    tag_7:\n        /* \"tests/new/Payble.sol\":561:565  uint */\n      0x00\n        /* \"tests/new/Payble.sol\":580:587  balance */\n      dup1\n        /* \"tests/new/Payble.sol\":580:599  balance[msg.sender] */\n      0x00\n        /* \"tests/new/Payble.sol\":588:598  msg.sender */\n      caller\n        /* \"tests/new/Payble.sol\":580:599  balance[msg.sender] */\n      0xffffffffffffffffffffffffffffffffffffffff\n      and\n      0xffffffffffffffffffffffffffffffffffffffff\n      and\n      dup2\n      mstore\n      0x20\n      add\n      swap1\n      dup2\n      mstore\n      0x20\n      add\n      0x00\n      keccak256\n      sload\n        /* \"tests/new/Payble.sol\":573:599  return balance[msg.sender] */\n      swap1\n      pop\n        /* \"tests/new/Payble.sol\":519:605  function getBlance() public view returns (uint){... */\n      swap1\n      jump\t// out\n        /* \"tests/new/Payble.sol\":613:1020  function transfer(address recipient, uint amount) public {... */\n    tag_14:\n        /* \"tests/new/Payble.sol\":712:718  amount */\n      dup1\n        /* \"tests/new/Payble.sol\":689:696  balance */\n      0x00\n        /* \"tests/new/Payble.sol\":689:708  balance[msg.sender] */\n      dup1\n        /* \"tests/new/Payble.sol\":697:707  msg.sender */\n      caller\n        /* \"tests/new/Payble.sol\":689:708  balance[msg.sender] */\n      0xffffffffffffffffffffffffffffffffffffffff\n      and\n      0xffffffffffffffffffffffffffffffffffffffff\n      and\n      dup2\n      mstore\n      0x20\n      add\n      swap1\n      dup2\n      mstore\n      0x20\n      add\n      0x00\n      keccak256\n      sload\n        /* \"tests/new/Payble.sol\":689:718  balance[msg.sender] >= amount */\n      lt\n      iszero\n        /* \"tests/new/Payble.sol\":681:745  require(balance[msg.sender] >= amount, \"Balance not sufficient\") */\n      tag_20\n      jumpi\n      mload(0x40)\n      0x08c379a000000000000000000000000000000000000000000000000000000000\n      dup2\n      mstore\n      0x04\n      add\n      tag_21\n      swap1\n      tag_22\n      jump\t// in\n    tag_21:\n      mload(0x40)\n      dup1\n      swap2\n      sub\n      swap1\n      revert\n    tag_20:\n        /* \"tests/new/Payble.sol\":778:787  recipient */\n      dup2\n        /* \"tests/new/Payble.sol\":764:787  msg.sender != recipient */\n      0xffffffffffffffffffffffffffffffffffffffff\n      and\n        /* \"tests/new/Payble.sol\":764:774  msg.sender */\n      caller\n        /* \"tests/new/Payble.sol\":764:787  msg.sender != recipient */\n      0xffffffffffffffffffffffffffffffffffffffff\n      and\n      sub\n        /* \"tests/new/Payble.sol\":756:824  require(msg.sender != recipient, \"Don't transfer money to yourself\") */\n      tag_23\n      jumpi\n      mload(0x40)\n      0x08c379a000000000000000000000000000000000000000000000000000000000\n      dup2\n      mstore\n      0x04\n      add\n      tag_24\n      swap1\n      tag_25\n      jump\t// in\n    tag_24:\n      mload(0x40)\n      dup1\n      swap2\n      sub\n      swap1\n      revert\n    tag_23:\n        /* \"tests/new/Payble.sol\":837:863  uint previousSenderBalance */\n      0x00\n        /* \"tests/new/Payble.sol\":866:873  balance */\n      dup1\n        /* \"tests/new/Payble.sol\":866:885  balance[msg.sender] */\n      0x00\n        /* \"tests/new/Payble.sol\":874:884  msg.sender */\n      caller\n        /* \"tests/new/Payble.sol\":866:885  balance[msg.sender] */\n      0xffffffffffffffffffffffffffffffffffffffff\n      and\n      0xffffffffffffffffffffffffffffffffffffffff\n      and\n      dup2\n      mstore\n      0x20\n      add\n      swap1\n      dup2\n      mstore\n      0x20\n      add\n      0x00\n      keccak256\n      sload\n        /* \"tests/new/Payble.sol\":837:885  uint previousSenderBalance = balance[msg.sender] */\n      swap1\n      pop\n        /* \"tests/new/Payble.sol\":898:938  _transfer(msg.sender, recipient, amount) */\n      tag_26\n        /* \"tests/new/Payble.sol\":908:918  msg.sender */\n      caller\n        /* \"tests/new/Payble.sol\":920:929  recipient */\n      dup5\n        /* \"tests/new/Payble.sol\":931:937  amount */\n      dup5\n        /* \"tests/new/Payble.sol\":898:907  _transfer */\n      tag_27\n        /* \"tests/new/Payble.sol\":898:938  _transfer(msg.sender, recipient, amount) */\n      jump\t// in\n    tag_26:\n        /* \"tests/new/Payble.sol\":1005:1011  amount */\n      dup2\n        /* \"tests/new/Payble.sol\":981:1002  previousSenderBalance */\n      dup2\n        /* \"tests/new/Payble.sol\":981:1011  previousSenderBalance - amount */\n      tag_28\n      swap2\n      swap1\n      tag_29\n      jump\t// in\n    tag_28:\n        /* \"tests/new/Payble.sol\":958:965  balance */\n      0x00\n        /* \"tests/new/Payble.sol\":958:977  balance[msg.sender] */\n      dup1\n        /* \"tests/new/Payble.sol\":966:976  msg.sender */\n      caller\n        /* \"tests/new/Payble.sol\":958:977  balance[msg.sender] */\n      0xffffffffffffffffffffffffffffffffffffffff\n      and\n      0xffffffffffffffffffffffffffffffffffffffff\n      and\n      dup2\n      mstore\n      0x20\n      add\n      swap1\n      dup2\n      mstore\n      0x20\n      add\n      0x00\n      keccak256\n      sload\n        /* \"tests/new/Payble.sol\":958:1011  balance[msg.sender] == previousSenderBalance - amount */\n      eq\n        /* \"tests/new/Payble.sol\":951:1012  assert(balance[msg.sender] == previousSenderBalance - amount) */\n      tag_30\n      jumpi\n      tag_31\n      tag_32\n      jump\t// in\n    tag_31:\n    tag_30:\n        /* \"tests/new/Payble.sol\":670:1020  {... */\n      pop\n        /* \"tests/new/Payble.sol\":613:1020  function transfer(address recipient, uint amount) public {... */\n      pop\n      pop\n      jump\t// out\n        /* \"tests/new/Payble.sol\":338:513  function deposit() public payable  returns (uint){... */\n    tag_16:\n        /* \"tests/new/Payble.sol\":382:386  uint */\n      0x00\n        /* \"tests/new/Payble.sol\":418:427  msg.value */\n      callvalue\n        /* \"tests/new/Payble.sol\":395:402  balance */\n      0x00\n        /* \"tests/new/Payble.sol\":395:414  balance[msg.sender] */\n      dup1\n        /* \"tests/new/Payble.sol\":403:413  msg.sender */\n      caller\n        /* \"tests/new/Payble.sol\":395:414  balance[msg.sender] */\n      0xffffffffffffffffffffffffffffffffffffffff\n      and\n      0xffffffffffffffffffffffffffffffffffffffff\n      and\n      dup2\n      mstore\n      0x20\n      add\n      swap1\n      dup2\n      mstore\n      0x20\n      add\n      0x00\n      keccak256\n      0x00\n        /* \"tests/new/Payble.sol\":395:427  balance[msg.sender] += msg.value */\n      dup3\n      dup3\n      sload\n      tag_34\n      swap2\n      swap1\n      tag_35\n      jump\t// in\n    tag_34:\n      swap3\n      pop\n      pop\n      dup2\n      swap1\n      sstore\n      pop\n        /* \"tests/new/Payble.sol\":440:474  depositDone(msg.value, msg.sender) */\n      0x55b8d2fc1aaf27628691a3336b517d7b40bee36ba595a24e893d1e872afb82d1\n        /* \"tests/new/Payble.sol\":452:461  msg.value */\n      callvalue\n        /* \"tests/new/Payble.sol\":463:473  msg.sender */\n      caller\n        /* \"tests/new/Payble.sol\":440:474  depositDone(msg.value, msg.sender) */\n      mload(0x40)\n      tag_36\n      swap3\n      swap2\n      swap1\n      tag_37\n      jump\t// in\n    tag_36:\n      mload(0x40)\n      dup1\n      swap2\n      sub\n      swap1\n      log1\n        /* \"tests/new/Payble.sol\":488:495  balance */\n      0x00\n        /* \"tests/new/Payble.sol\":488:507  balance[msg.sender] */\n      dup1\n        /* \"tests/new/Payble.sol\":496:506  msg.sender */\n      caller\n        /* \"tests/new/Payble.sol\":488:507  balance[msg.sender] */\n      0xffffffffffffffffffffffffffffffffffffffff\n      and\n      0xffffffffffffffffffffffffffffffffffffffff\n      and\n      dup2\n      mstore\n      0x20\n      add\n      swap1\n      dup2\n      mstore\n      0x20\n      add\n      0x00\n      keccak256\n      sload\n        /* \"tests/new/Payble.sol\":481:507  return balance[msg.sender] */\n      swap1\n      pop\n        /* \"tests/new/Payble.sol\":338:513  function deposit() public payable  returns (uint){... */\n      swap1\n      jump\t// out\n        /* \"tests/new/Payble.sol\":1028:1168  function _transfer(address from, address to, uint amount) private {... */\n    tag_27:\n        /* \"tests/new/Payble.sol\":1122:1128  amount */\n      dup1\n        /* \"tests/new/Payble.sol\":1105:1112  balance */\n      0x00\n        /* \"tests/new/Payble.sol\":1105:1118  balance[from] */\n      dup1\n        /* \"tests/new/Payble.sol\":1113:1117  from */\n      dup6\n        /* \"tests/new/Payble.sol\":1105:1118  balance[from] */\n      0xffffffffffffffffffffffffffffffffffffffff\n      and\n      0xffffffffffffffffffffffffffffffffffffffff\n      and\n      dup2\n      mstore\n      0x20\n      add\n      swap1\n      dup2\n      mstore\n      0x20\n      add\n      0x00\n      keccak256\n      0x00\n        /* \"tests/new/Payble.sol\":1105:1128  balance[from] -= amount */\n      dup3\n      dup3\n      sload\n      tag_39\n      swap2\n      swap1\n      tag_29\n      jump\t// in\n    tag_39:\n      swap3\n      pop\n      pop\n      dup2\n      swap1\n      sstore\n      pop\n        /* \"tests/new/Payble.sol\":1154:1160  amount */\n      dup1\n        /* \"tests/new/Payble.sol\":1139:1146  balance */\n      0x00\n        /* \"tests/new/Payble.sol\":1139:1150  balance[to] */\n      dup1\n        /* \"tests/new/Payble.sol\":1147:1149  to */\n      dup5\n        /* \"tests/new/Payble.sol\":1139:1150  balance[to] */\n      0xffffffffffffffffffffffffffffffffffffffff\n      and\n      0xffffffffffffffffffffffffffffffffffffffff\n      and\n      dup2\n      mstore\n      0x20\n      add\n      swap1\n      dup2\n      mstore\n      0x20\n      add\n      0x00\n      keccak256\n      0x00\n        /* \"tests/new/Payble.sol\":1139:1160  balance[to] += amount */\n      dup3\n      dup3\n      sload\n      tag_40\n      swap2\n      swap1\n      tag_35\n      jump\t// in\n    tag_40:\n      swap3\n      pop\n      pop\n      dup2\n      swap1\n      sstore\n      pop\n        /* \"tests/new/Payble.sol\":1028:1168  function _transfer(address from, address to, uint amount) private {... */\n      pop\n      pop\n      pop\n      jump\t// out\n        /* \"#utility.yul\":7:84   */\n    tag_41:\n        /* \"#utility.yul\":44:51   */\n      0x00\n        /* \"#utility.yul\":73:78   */\n      dup2\n        /* \"#utility.yul\":62:78   */\n      swap1\n      pop\n        /* \"#utility.yul\":7:84   */\n      swap2\n      swap1\n      pop\n      jump\t// out\n        /* \"#utility.yul\":90:208   */\n    tag_42:\n        /* \"#utility.yul\":177:201   */\n      tag_62\n        /* \"#utility.yul\":195:200   */\n      dup2\n        /* \"#utility.yul\":177:201   */\n      tag_41\n      jump\t// in\n    tag_62:\n        /* \"#utility.yul\":172:175   */\n      dup3\n        /* \"#utility.yul\":165:202   */\n      mstore\n        /* \"#utility.yul\":90:208   */\n      pop\n      pop\n      jump\t// out\n        /* \"#utility.yul\":214:436   */\n    tag_9:\n        /* \"#utility.yul\":307:311   */\n      0x00\n        /* \"#utility.yul\":345:347   */\n      0x20\n        /* \"#utility.yul\":334:343   */\n      dup3\n        /* \"#utility.yul\":330:348   */\n      add\n        /* \"#utility.yul\":322:348   */\n      swap1\n      pop\n        /* \"#utility.yul\":358:429   */\n      tag_64\n        /* \"#utility.yul\":426:427   */\n      0x00\n        /* \"#utility.yul\":415:424   */\n      dup4\n        /* \"#utility.yul\":411:428   */\n      add\n        /* \"#utility.yul\":402:408   */\n      dup5\n        /* \"#utility.yul\":358:429   */\n      tag_42\n      jump\t// in\n    tag_64:\n        /* \"#utility.yul\":214:436   */\n      swap3\n      swap2\n      pop\n      pop\n      jump\t// out\n        /* \"#utility.yul\":523:640   */\n    tag_44:\n        /* \"#utility.yul\":632:633   */\n      0x00\n        /* \"#utility.yul\":629:630   */\n      dup1\n        /* \"#utility.yul\":622:634   */\n      revert\n        /* \"#utility.yul\":769:895   */\n    tag_46:\n        /* \"#utility.yul\":806:813   */\n      0x00\n        /* \"#utility.yul\":846:888   */\n      0xffffffffffffffffffffffffffffffffffffffff\n        /* \"#utility.yul\":839:844   */\n      dup3\n        /* \"#utility.yul\":835:889   */\n      and\n        /* \"#utility.yul\":824:889   */\n      swap1\n      pop\n        /* \"#utility.yul\":769:895   */\n      swap2\n      swap1\n      pop\n      jump\t// out\n        /* \"#utility.yul\":901:997   */\n    tag_47:\n        /* \"#utility.yul\":938:945   */\n      0x00\n        /* \"#utility.yul\":967:991   */\n      tag_70\n        /* \"#utility.yul\":985:990   */\n      dup3\n        /* \"#utility.yul\":967:991   */\n      tag_46\n      jump\t// in\n    tag_70:\n        /* \"#utility.yul\":956:991   */\n      swap1\n      pop\n        /* \"#utility.yul\":901:997   */\n      swap2\n      swap1\n      pop\n      jump\t// out\n        /* \"#utility.yul\":1003:1125   */\n    tag_48:\n        /* \"#utility.yul\":1076:1100   */\n      tag_72\n        /* \"#utility.yul\":1094:1099   */\n      dup2\n        /* \"#utility.yul\":1076:1100   */\n      tag_47\n      jump\t// in\n    tag_72:\n        /* \"#utility.yul\":1069:1074   */\n      dup2\n        /* \"#utility.yul\":1066:1101   */\n      eq\n        /* \"#utility.yul\":1056:1119   */\n      tag_73\n      jumpi\n        /* \"#utility.yul\":1115:1116   */\n      0x00\n        /* \"#utility.yul\":1112:1113   */\n      dup1\n        /* \"#utility.yul\":1105:1117   */\n      revert\n        /* \"#utility.yul\":1056:1119   */\n    tag_73:\n        /* \"#utility.yul\":1003:1125   */\n      pop\n      jump\t// out\n        /* \"#utility.yul\":1131:1270   */\n    tag_49:\n        /* \"#utility.yul\":1177:1182   */\n      0x00\n        /* \"#utility.yul\":1215:1221   */\n      dup2\n        /* \"#utility.yul\":1202:1222   */\n      calldataload\n        /* \"#utility.yul\":1193:1222   */\n      swap1\n      pop\n        /* \"#utility.yul\":1231:1264   */\n      tag_75\n        /* \"#utility.yul\":1258:1263   */\n      dup2\n        /* \"#utility.yul\":1231:1264   */\n      tag_48\n      jump\t// in\n    tag_75:\n        /* \"#utility.yul\":1131:1270   */\n      swap3\n      swap2\n      pop\n      pop\n      jump\t// out\n        /* \"#utility.yul\":1276:1398   */\n    tag_50:\n        /* \"#utility.yul\":1349:1373   */\n      tag_77\n        /* \"#utility.yul\":1367:1372   */\n      dup2\n        /* \"#utility.yul\":1349:1373   */\n      tag_41\n      jump\t// in\n    tag_77:\n        /* \"#utility.yul\":1342:1347   */\n      dup2\n        /* \"#utility.yul\":1339:1374   */\n      eq\n        /* \"#utility.yul\":1329:1392   */\n      tag_78\n      jumpi\n        /* \"#utility.yul\":1388:1389   */\n      0x00\n        /* \"#utility.yul\":1385:1386   */\n      dup1\n        /* \"#utility.yul\":1378:1390   */\n      revert\n        /* \"#utility.yul\":1329:1392   */\n    tag_78:\n        /* \"#utility.yul\":1276:1398   */\n      pop\n      jump\t// out\n        /* \"#utility.yul\":1404:1543   */\n    tag_51:\n        /* \"#utility.yul\":1450:1455   */\n      0x00\n        /* \"#utility.yul\":1488:1494   */\n      dup2\n        /* \"#utility.yul\":1475:1495   */\n      calldataload\n        /* \"#utility.yul\":1466:1495   */\n      swap1\n      pop\n        /* \"#utility.yul\":1504:1537   */\n      tag_80\n        /* \"#utility.yul\":1531:1536   */\n      dup2\n        /* \"#utility.yul\":1504:1537   */\n      tag_50\n      jump\t// in\n    tag_80:\n        /* \"#utility.yul\":1404:1543   */\n      swap3\n      swap2\n      pop\n      pop\n      jump\t// out\n        /* \"#utility.yul\":1549:2023   */\n    tag_13:\n        /* \"#utility.yul\":1617:1623   */\n      0x00\n        /* \"#utility.yul\":1625:1631   */\n      dup1\n        /* \"#utility.yul\":1674:1676   */\n      0x40\n        /* \"#utility.yul\":1662:1671   */\n      dup4\n        /* \"#utility.yul\":1653:1660   */\n      dup6\n        /* \"#utility.yul\":1649:1672   */\n      sub\n        /* \"#utility.yul\":1645:1677   */\n      slt\n        /* \"#utility.yul\":1642:1761   */\n      iszero\n      tag_82\n      jumpi\n        /* \"#utility.yul\":1680:1759   */\n      tag_83\n      tag_44\n      jump\t// in\n    tag_83:\n        /* \"#utility.yul\":1642:1761   */\n    tag_82:\n        /* \"#utility.yul\":1800:1801   */\n      0x00\n        /* \"#utility.yul\":1825:1878   */\n      tag_84\n        /* \"#utility.yul\":1870:1877   */\n      dup6\n        /* \"#utility.yul\":1861:1867   */\n      dup3\n        /* \"#utility.yul\":1850:1859   */\n      dup7\n        /* \"#utility.yul\":1846:1868   */\n      add\n        /* \"#utility.yul\":1825:1878   */\n      tag_49\n      jump\t// in\n    tag_84:\n        /* \"#utility.yul\":1815:1878   */\n      swap3\n      pop\n        /* \"#utility.yul\":1771:1888   */\n      pop\n        /* \"#utility.yul\":1927:1929   */\n      0x20\n        /* \"#utility.yul\":1953:2006   */\n      tag_85\n        /* \"#utility.yul\":1998:2005   */\n      dup6\n        /* \"#utility.yul\":1989:1995   */\n      dup3\n        /* \"#utility.yul\":1978:1987   */\n      dup7\n        /* \"#utility.yul\":1974:1996   */\n      add\n        /* \"#utility.yul\":1953:2006   */\n      tag_51\n      jump\t// in\n    tag_85:\n        /* \"#utility.yul\":1943:2006   */\n      swap2\n      pop\n        /* \"#utility.yul\":1898:2016   */\n      pop\n        /* \"#utility.yul\":1549:2023   */\n      swap3\n      pop\n      swap3\n      swap1\n      pop\n      jump\t// out\n        /* \"#utility.yul\":2029:2198   */\n    tag_52:\n        /* \"#utility.yul\":2113:2124   */\n      0x00\n        /* \"#utility.yul\":2147:2153   */\n      dup3\n        /* \"#utility.yul\":2142:2145   */\n      dup3\n        /* \"#utility.yul\":2135:2154   */\n      mstore\n        /* \"#utility.yul\":2187:2191   */\n      0x20\n        /* \"#utility.yul\":2182:2185   */\n      dup3\n        /* \"#utility.yul\":2178:2192   */\n      add\n        /* \"#utility.yul\":2163:2192   */\n      swap1\n      pop\n        /* \"#utility.yul\":2029:2198   */\n      swap3\n      swap2\n      pop\n      pop\n      jump\t// out\n        /* \"#utility.yul\":2204:2376   */\n    tag_53:\n        /* \"#utility.yul\":2344:2368   */\n      0x42616c616e6365206e6f742073756666696369656e7400000000000000000000\n        /* \"#utility.yul\":2340:2341   */\n      0x00\n        /* \"#utility.yul\":2332:2338   */\n      dup3\n        /* \"#utility.yul\":2328:2342   */\n      add\n        /* \"#utility.yul\":2321:2369   */\n      mstore\n        /* \"#utility.yul\":2204:2376   */\n      pop\n      jump\t// out\n        /* \"#utility.yul\":2382:2748   */\n    tag_54:\n        /* \"#utility.yul\":2524:2527   */\n      0x00\n        /* \"#utility.yul\":2545:2612   */\n      tag_89\n        /* \"#utility.yul\":2609:2611   */\n      0x16\n        /* \"#utility.yul\":2604:2607   */\n      dup4\n        /* \"#utility.yul\":2545:2612   */\n      tag_52\n      jump\t// in\n    tag_89:\n        /* \"#utility.yul\":2538:2612   */\n      swap2\n      pop\n        /* \"#utility.yul\":2621:2714   */\n      tag_90\n        /* \"#utility.yul\":2710:2713   */\n      dup3\n        /* \"#utility.yul\":2621:2714   */\n      tag_53\n      jump\t// in\n    tag_90:\n        /* \"#utility.yul\":2739:2741   */\n      0x20\n        /* \"#utility.yul\":2734:2737   */\n      dup3\n        /* \"#utility.yul\":2730:2742   */\n      add\n        /* \"#utility.yul\":2723:2742   */\n      swap1\n      pop\n        /* \"#utility.yul\":2382:2748   */\n      swap2\n      swap1\n      pop\n      jump\t// out\n        /* \"#utility.yul\":2754:3173   */\n    tag_22:\n        /* \"#utility.yul\":2920:2924   */\n      0x00\n        /* \"#utility.yul\":2958:2960   */\n      0x20\n        /* \"#utility.yul\":2947:2956   */\n      dup3\n        /* \"#utility.yul\":2943:2961   */\n      add\n        /* \"#utility.yul\":2935:2961   */\n      swap1\n      pop\n        /* \"#utility.yul\":3007:3016   */\n      dup2\n        /* \"#utility.yul\":3001:3005   */\n      dup2\n        /* \"#utility.yul\":2997:3017   */\n      sub\n        /* \"#utility.yul\":2993:2994   */\n      0x00\n        /* \"#utility.yul\":2982:2991   */\n      dup4\n        /* \"#utility.yul\":2978:2995   */\n      add\n        /* \"#utility.yul\":2971:3018   */\n      mstore\n        /* \"#utility.yul\":3035:3166   */\n      tag_92\n        /* \"#utility.yul\":3161:3165   */\n      dup2\n        /* \"#utility.yul\":3035:3166   */\n      tag_54\n      jump\t// in\n    tag_92:\n        /* \"#utility.yul\":3027:3166   */\n      swap1\n      pop\n        /* \"#utility.yul\":2754:3173   */\n      swap2\n      swap1\n      pop\n      jump\t// out\n        /* \"#utility.yul\":3179:3361   */\n    tag_55:\n        /* \"#utility.yul\":3319:3353   */\n      0x446f6e2774207472616e73666572206d6f6e657920746f20796f757273656c66\n        /* \"#utility.yul\":3315:3316   */\n      0x00\n        /* \"#utility.yul\":3307:3313   */\n      dup3\n        /* \"#utility.yul\":3303:3317   */\n      add\n        /* \"#utility.yul\":3296:3354   */\n      mstore\n        /* \"#utility.yul\":3179:3361   */\n      pop\n      jump\t// out\n        /* \"#utility.yul\":3367:3733   */\n    tag_56:\n        /* \"#utility.yul\":3509:3512   */\n      0x00\n        /* \"#utility.yul\":3530:3597   */\n      tag_95\n        /* \"#utility.yul\":3594:3596   */\n      0x20\n        /* \"#utility.yul\":3589:3592   */\n      dup4\n        /* \"#utility.yul\":3530:3597   */\n      tag_52\n      jump\t// in\n    tag_95:\n        /* \"#utility.yul\":3523:3597   */\n      swap2\n      pop\n        /* \"#utility.yul\":3606:3699   */\n      tag_96\n        /* \"#utility.yul\":3695:3698   */\n      dup3\n        /* \"#utility.yul\":3606:3699   */\n      tag_55\n      jump\t// in\n    tag_96:\n        /* \"#utility.yul\":3724:3726   */\n      0x20\n        /* \"#utility.yul\":3719:3722   */\n      dup3\n        /* \"#utility.yul\":3715:3727   */\n      add\n        /* \"#utility.yul\":3708:3727   */\n      swap1\n      pop\n        /* \"#utility.yul\":3367:3733   */\n      swap2\n      swap1\n      pop\n      jump\t// out\n        /* \"#utility.yul\":3739:4158   */\n    tag_25:\n        /* \"#utility.yul\":3905:3909   */\n      0x00\n        /* \"#utility.yul\":3943:3945   */\n      0x20\n        /* \"#utility.yul\":3932:3941   */\n      dup3\n        /* \"#utility.yul\":3928:3946   */\n      add\n        /* \"#utility.yul\":3920:3946   */\n      swap1\n      pop\n        /* \"#utility.yul\":3992:4001   */\n      dup2\n        /* \"#utility.yul\":3986:3990   */\n      dup2\n        /* \"#utility.yul\":3982:4002   */\n      sub\n        /* \"#utility.yul\":3978:3979   */\n      0x00\n        /* \"#utility.yul\":3967:3976   */\n      dup4\n        /* \"#utility.yul\":3963:3980   */\n      add\n        /* \"#utility.yul\":3956:4003   */\n      mstore\n        /* \"#utility.yul\":4020:4151   */\n      tag_98\n        /* \"#utility.yul\":4146:4150   */\n      dup2\n        /* \"#utility.yul\":4020:4151   */\n      tag_56\n      jump\t// in\n    tag_98:\n        /* \"#utility.yul\":4012:4151   */\n      swap1\n      pop\n        /* \"#utility.yul\":3739:4158   */\n      swap2\n      swap1\n      pop\n      jump\t// out\n        /* \"#utility.yul\":4164:4344   */\n    tag_57:\n        /* \"#utility.yul\":4212:4289   */\n      0x4e487b7100000000000000000000000000000000000000000000000000000000\n        /* \"#utility.yul\":4209:4210   */\n      0x00\n        /* \"#utility.yul\":4202:4290   */\n      mstore\n        /* \"#utility.yul\":4309:4313   */\n      0x11\n        /* \"#utility.yul\":4306:4307   */\n      0x04\n        /* \"#utility.yul\":4299:4314   */\n      mstore\n        /* \"#utility.yul\":4333:4337   */\n      0x24\n        /* \"#utility.yul\":4330:4331   */\n      0x00\n        /* \"#utility.yul\":4323:4338   */\n      revert\n        /* \"#utility.yul\":4350:4544   */\n    tag_29:\n        /* \"#utility.yul\":4390:4394   */\n      0x00\n        /* \"#utility.yul\":4410:4430   */\n      tag_101\n        /* \"#utility.yul\":4428:4429   */\n      dup3\n        /* \"#utility.yul\":4410:4430   */\n      tag_41\n      jump\t// in\n    tag_101:\n        /* \"#utility.yul\":4405:4430   */\n      swap2\n      pop\n        /* \"#utility.yul\":4444:4464   */\n      tag_102\n        /* \"#utility.yul\":4462:4463   */\n      dup4\n        /* \"#utility.yul\":4444:4464   */\n      tag_41\n      jump\t// in\n    tag_102:\n        /* \"#utility.yul\":4439:4464   */\n      swap3\n      pop\n        /* \"#utility.yul\":4488:4489   */\n      dup3\n        /* \"#utility.yul\":4485:4486   */\n      dup3\n        /* \"#utility.yul\":4481:4490   */\n      sub\n        /* \"#utility.yul\":4473:4490   */\n      swap1\n      pop\n        /* \"#utility.yul\":4512:4513   */\n      dup2\n        /* \"#utility.yul\":4506:4510   */\n      dup2\n        /* \"#utility.yul\":4503:4514   */\n      gt\n        /* \"#utility.yul\":4500:4537   */\n      iszero\n      tag_103\n      jumpi\n        /* \"#utility.yul\":4517:4535   */\n      tag_104\n      tag_57\n      jump\t// in\n    tag_104:\n        /* \"#utility.yul\":4500:4537   */\n    tag_103:\n        /* \"#utility.yul\":4350:4544   */\n      swap3\n      swap2\n      pop\n      pop\n      jump\t// out\n        /* \"#utility.yul\":4550:4730   */\n    tag_32:\n        /* \"#utility.yul\":4598:4675   */\n      0x4e487b7100000000000000000000000000000000000000000000000000000000\n        /* \"#utility.yul\":4595:4596   */\n      0x00\n        /* \"#utility.yul\":4588:4676   */\n      mstore\n        /* \"#utility.yul\":4695:4699   */\n      0x01\n        /* \"#utility.yul\":4692:4693   */\n      0x04\n        /* \"#utility.yul\":4685:4700   */\n      mstore\n        /* \"#utility.yul\":4719:4723   */\n      0x24\n        /* \"#utility.yul\":4716:4717   */\n      0x00\n        /* \"#utility.yul\":4709:4724   */\n      revert\n        /* \"#utility.yul\":4736:4927   */\n    tag_35:\n        /* \"#utility.yul\":4776:4779   */\n      0x00\n        /* \"#utility.yul\":4795:4815   */\n      tag_107\n        /* \"#utility.yul\":4813:4814   */\n      dup3\n        /* \"#utility.yul\":4795:4815   */\n      tag_41\n      jump\t// in\n    tag_107:\n        /* \"#utility.yul\":4790:4815   */\n      swap2\n      pop\n        /* \"#utility.yul\":4829:4849   */\n      tag_108\n        /* \"#utility.yul\":4847:4848   */\n      dup4\n        /* \"#utility.yul\":4829:4849   */\n      tag_41\n      jump\t// in\n    tag_108:\n        /* \"#utility.yul\":4824:4849   */\n      swap3\n      pop\n        /* \"#utility.yul\":4872:4873   */\n      dup3\n        /* \"#utility.yul\":4869:4870   */\n      dup3\n        /* \"#utility.yul\":4865:4874   */\n      add\n        /* \"#utility.yul\":4858:4874   */\n      swap1\n      pop\n        /* \"#utility.yul\":4893:4896   */\n      dup1\n        /* \"#utility.yul\":4890:4891   */\n      dup3\n        /* \"#utility.yul\":4887:4897   */\n      gt\n        /* \"#utility.yul\":4884:4920   */\n      iszero\n      tag_109\n      jumpi\n        /* \"#utility.yul\":4900:4918   */\n      tag_110\n      tag_57\n      jump\t// in\n    tag_110:\n        /* \"#utility.yul\":4884:4920   */\n    tag_109:\n        /* \"#utility.yul\":4736:4927   */\n      swap3\n      swap2\n      pop\n      pop\n      jump\t// out\n        /* \"#utility.yul\":4933:5051   */\n    tag_58:\n        /* \"#utility.yul\":5020:5044   */\n      tag_112\n        /* \"#utility.yul\":5038:5043   */\n      dup2\n        /* \"#utility.yul\":5020:5044   */\n      tag_47\n      jump\t// in\n    tag_112:\n        /* \"#utility.yul\":5015:5018   */\n      dup3\n        /* \"#utility.yul\":5008:5045   */\n      mstore\n        /* \"#utility.yul\":4933:5051   */\n      pop\n      pop\n      jump\t// out\n        /* \"#utility.yul\":5057:5389   */\n    tag_37:\n        /* \"#utility.yul\":5178:5182   */\n      0x00\n        /* \"#utility.yul\":5216:5218   */\n      0x40\n        /* \"#utility.yul\":5205:5214   */\n      dup3\n        /* \"#utility.yul\":5201:5219   */\n      add\n        /* \"#utility.yul\":5193:5219   */\n      swap1\n      pop\n        /* \"#utility.yul\":5229:5300   */\n      tag_114\n        /* \"#utility.yul\":5297:5298   */\n      0x00\n        /* \"#utility.yul\":5286:5295   */\n      dup4\n        /* \"#utility.yul\":5282:5299   */\n      add\n        /* \"#utility.yul\":5273:5279   */\n      dup6\n        /* \"#utility.yul\":5229:5300   */\n      tag_42\n      jump\t// in\n    tag_114:\n        /* \"#utility.yul\":5310:5382   */\n      tag_115\n        /* \"#utility.yul\":5378:5380   */\n      0x20\n        /* \"#utility.yul\":5367:5376   */\n      dup4\n        /* \"#utility.yul\":5363:5381   */\n      add\n        /* \"#utility.yul\":5354:5360   */\n      dup5\n        /* \"#utility.yul\":5310:5382   */\n      tag_58\n      jump\t// in\n    tag_115:\n        /* \"#utility.yul\":5057:5389   */\n      swap4\n      swap3\n      pop\n      pop\n      pop\n      jump\t// out\n\n    auxdata: 0xa26469706673582212204022f46523ae475117e5db606cf0286003790bd3003622a3a4893b6246110b4664736f6c63430008160033\n}\n",
				"bytecode": {
					"linkReferences": {},
					"object": "608060405234801561000f575f80fd5b503360015f6101000a81548173ffffffffffffffffffffffffffffffffffffffff021916908373ffffffffffffffffffffffffffffffffffffffff1602179055506106f88061005d5f395ff3fe608060405260043610610033575f3560e01c8063941be5f714610037578063a9059cbb14610061578063d0e30db014610089575b5f80fd5b348015610042575f80fd5b5061004b6100a7565b604051610058919061040d565b60405180910390f35b34801561006c575f80fd5b50610087600480360381019061008291906104ae565b6100ea565b005b61009161027e565b60405161009e919061040d565b60405180910390f35b5f805f3373ffffffffffffffffffffffffffffffffffffffff1673ffffffffffffffffffffffffffffffffffffffff1681526020019081526020015f2054905090565b805f803373ffffffffffffffffffffffffffffffffffffffff1673ffffffffffffffffffffffffffffffffffffffff1681526020019081526020015f20541015610169576040517f08c379a000000000000000000000000000000000000000000000000000000000815260040161016090610546565b60405180910390fd5b8173ffffffffffffffffffffffffffffffffffffffff163373ffffffffffffffffffffffffffffffffffffffff16036101d7576040517f08c379a00000000000000000000000000000000000000000000000000000000081526004016101ce906105ae565b60405180910390fd5b5f805f3373ffffffffffffffffffffffffffffffffffffffff1673ffffffffffffffffffffffffffffffffffffffff1681526020019081526020015f2054905061022233848461034c565b818161022e91906105f9565b5f803373ffffffffffffffffffffffffffffffffffffffff1673ffffffffffffffffffffffffffffffffffffffff1681526020019081526020015f2054146102795761027861062c565b5b505050565b5f345f803373ffffffffffffffffffffffffffffffffffffffff1673ffffffffffffffffffffffffffffffffffffffff1681526020019081526020015f205f8282546102ca9190610659565b925050819055507f55b8d2fc1aaf27628691a3336b517d7b40bee36ba595a24e893d1e872afb82d1343360405161030292919061069b565b60405180910390a15f803373ffffffffffffffffffffffffffffffffffffffff1673ffffffffffffffffffffffffffffffffffffffff1681526020019081526020015f2054905090565b805f808573ffffffffffffffffffffffffffffffffffffffff1673ffffffffffffffffffffffffffffffffffffffff1681526020019081526020015f205f82825461039791906105f9565b92505081905550805f808473ffffffffffffffffffffffffffffffffffffffff1673ffffffffffffffffffffffffffffffffffffffff1681526020019081526020015f205f8282546103e99190610659565b92505081905550505050565b5f819050919050565b610407816103f5565b82525050565b5f6020820190506104205f8301846103fe565b92915050565b5f80fd5b5f73ffffffffffffffffffffffffffffffffffffffff82169050919050565b5f6104538261042a565b9050919050565b61046381610449565b811461046d575f80fd5b50565b5f8135905061047e8161045a565b92915050565b61048d816103f5565b8114610497575f80fd5b50565b5f813590506104a881610484565b92915050565b5f80604083850312156104c4576104c3610426565b5b5f6104d185828601610470565b92505060206104e28582860161049a565b9150509250929050565b5f82825260208201905092915050565b7f42616c616e6365206e6f742073756666696369656e74000000000000000000005f82015250565b5f6105306016836104ec565b915061053b826104fc565b602082019050919050565b5f6020820190508181035f83015261055d81610524565b9050919050565b7f446f6e2774207472616e73666572206d6f6e657920746f20796f757273656c665f82015250565b5f6105986020836104ec565b91506105a382610564565b602082019050919050565b5f6020820190508181035f8301526105c58161058c565b9050919050565b7f4e487b71000000000000000000000000000000000000000000000000000000005f52601160045260245ffd5b5f610603826103f5565b915061060e836103f5565b9250828203905081811115610626576106256105cc565b5b92915050565b7f4e487b71000000000000000000000000000000000000000000000000000000005f52600160045260245ffd5b5f610663826103f5565b915061066e836103f5565b9250828201905080821115610686576106856105cc565b5b92915050565b61069581610449565b82525050565b5f6040820190506106ae5f8301856103fe565b6106bb602083018461068c565b939250505056fea26469706673582212204022f46523ae475117e5db606cf0286003790bd3003622a3a4893b6246110b4664736f6c63430008160033",
					"opcodes": "PUSH1 0x80 PUSH1 0x40 MSTORE CALLVALUE DUP1 ISZERO PUSH2 0xF JUMPI PUSH0 DUP1 REVERT JUMPDEST POP CALLER PUSH1 0x1 PUSH0 PUSH2 0x100 EXP DUP2 SLOAD DUP2 PUSH20 0xFFFFFFFFFFFFFFFFFFFFFFFFFFFFFFFFFFFFFFFF MUL NOT AND SWAP1 DUP4 PUSH20 0xFFFFFFFFFFFFFFFFFFFFFFFFFFFFFFFFFFFFFFFF AND MUL OR SWAP1 SSTORE POP PUSH2 0x6F8 DUP1 PUSH2 0x5D PUSH0 CODECOPY PUSH0 RETURN INVALID PUSH1 0x80 PUSH1 0x40 MSTORE PUSH1 0x4 CALLDATASIZE LT PUSH2 0x33 JUMPI PUSH0 CALLDATALOAD PUSH1 0xE0 SHR DUP1 PUSH4 0x941BE5F7 EQ PUSH2 0x37 JUMPI DUP1 PUSH4 0xA9059CBB EQ PUSH2 0x61 JUMPI DUP1 PUSH4 0xD0E30DB0 EQ PUSH2 0x89 JUMPI JUMPDEST PUSH0 DUP1 REVERT JUMPDEST CALLVALUE DUP1 ISZERO PUSH2 0x42 JUMPI PUSH0 DUP1 REVERT JUMPDEST POP PUSH2 0x4B PUSH2 0xA7 JUMP JUMPDEST PUSH1 0x40 MLOAD PUSH2 0x58 SWAP2 SWAP1 PUSH2 0x40D JUMP JUMPDEST PUSH1 0x40 MLOAD DUP1 SWAP2 SUB SWAP1 RETURN JUMPDEST CALLVALUE DUP1 ISZERO PUSH2 0x6C JUMPI PUSH0 DUP1 REVERT JUMPDEST POP PUSH2 0x87 PUSH1 0x4 DUP1 CALLDATASIZE SUB DUP2 ADD SWAP1 PUSH2 0x82 SWAP2 SWAP1 PUSH2 0x4AE JUMP JUMPDEST PUSH2 0xEA JUMP JUMPDEST STOP JUMPDEST PUSH2 0x91 PUSH2 0x27E JUMP JUMPDEST PUSH1 0x40 MLOAD PUSH2 0x9E SWAP2 SWAP1 PUSH2 0x40D JUMP JUMPDEST PUSH1 0x40 MLOAD DUP1 SWAP2 SUB SWAP1 RETURN JUMPDEST PUSH0 DUP1 PUSH0 CALLER PUSH20 0xFFFFFFFFFFFFFFFFFFFFFFFFFFFFFFFFFFFFFFFF AND PUSH20 0xFFFFFFFFFFFFFFFFFFFFFFFFFFFFFFFFFFFFFFFF AND DUP2 MSTORE PUSH1 0x20 ADD SWAP1 DUP2 MSTORE PUSH1 0x20 ADD PUSH0 KECCAK256 SLOAD SWAP1 POP SWAP1 JUMP JUMPDEST DUP1 PUSH0 DUP1 CALLER PUSH20 0xFFFFFFFFFFFFFFFFFFFFFFFFFFFFFFFFFFFFFFFF AND PUSH20 0xFFFFFFFFFFFFFFFFFFFFFFFFFFFFFFFFFFFFFFFF AND DUP2 MSTORE PUSH1 0x20 ADD SWAP1 DUP2 MSTORE PUSH1 0x20 ADD PUSH0 KECCAK256 SLOAD LT ISZERO PUSH2 0x169 JUMPI PUSH1 0x40 MLOAD PUSH32 0x8C379A000000000000000000000000000000000000000000000000000000000 DUP2 MSTORE PUSH1 0x4 ADD PUSH2 0x160 SWAP1 PUSH2 0x546 JUMP JUMPDEST PUSH1 0x40 MLOAD DUP1 SWAP2 SUB SWAP1 REVERT JUMPDEST DUP2 PUSH20 0xFFFFFFFFFFFFFFFFFFFFFFFFFFFFFFFFFFFFFFFF AND CALLER PUSH20 0xFFFFFFFFFFFFFFFFFFFFFFFFFFFFFFFFFFFFFFFF AND SUB PUSH2 0x1D7 JUMPI PUSH1 0x40 MLOAD PUSH32 0x8C379A000000000000000000000000000000000000000000000000000000000 DUP2 MSTORE PUSH1 0x4 ADD PUSH2 0x1CE SWAP1 PUSH2 0x5AE JUMP JUMPDEST PUSH1 0x40 MLOAD DUP1 SWAP2 SUB SWAP1 REVERT JUMPDEST PUSH0 DUP1 PUSH0 CALLER PUSH20 0xFFFFFFFFFFFFFFFFFFFFFFFFFFFFFFFFFFFFFFFF AND PUSH20 0xFFFFFFFFFFFFFFFFFFFFFFFFFFFFFFFFFFFFFFFF AND DUP2 MSTORE PUSH1 0x20 ADD SWAP1 DUP2 MSTORE PUSH1 0x20 ADD PUSH0 KECCAK256 SLOAD SWAP1 POP PUSH2 0x222 CALLER DUP5 DUP5 PUSH2 0x34C JUMP JUMPDEST DUP2 DUP2 PUSH2 0x22E SWAP2 SWAP1 PUSH2 0x5F9 JUMP JUMPDEST PUSH0 DUP1 CALLER PUSH20 0xFFFFFFFFFFFFFFFFFFFFFFFFFFFFFFFFFFFFFFFF AND PUSH20 0xFFFFFFFFFFFFFFFFFFFFFFFFFFFFFFFFFFFFFFFF AND DUP2 MSTORE PUSH1 0x20 ADD SWAP1 DUP2 MSTORE PUSH1 0x20 ADD PUSH0 KECCAK256 SLOAD EQ PUSH2 0x279 JUMPI PUSH2 0x278 PUSH2 0x62C JUMP JUMPDEST JUMPDEST POP POP POP JUMP JUMPDEST PUSH0 CALLVALUE PUSH0 DUP1 CALLER PUSH20 0xFFFFFFFFFFFFFFFFFFFFFFFFFFFFFFFFFFFFFFFF AND PUSH20 0xFFFFFFFFFFFFFFFFFFFFFFFFFFFFFFFFFFFFFFFF AND DUP2 MSTORE PUSH1 0x20 ADD SWAP1 DUP2 MSTORE PUSH1 0x20 ADD PUSH0 KECCAK256 PUSH0 DUP3 DUP3 SLOAD PUSH2 0x2CA SWAP2 SWAP1 PUSH2 0x659 JUMP JUMPDEST SWAP3 POP POP DUP2 SWAP1 SSTORE POP PUSH32 0x55B8D2FC1AAF27628691A3336B517D7B40BEE36BA595A24E893D1E872AFB82D1 CALLVALUE CALLER PUSH1 0x40 MLOAD PUSH2 0x302 SWAP3 SWAP2 SWAP1 PUSH2 0x69B JUMP JUMPDEST PUSH1 0x40 MLOAD DUP1 SWAP2 SUB SWAP1 LOG1 PUSH0 DUP1 CALLER PUSH20 0xFFFFFFFFFFFFFFFFFFFFFFFFFFFFFFFFFFFFFFFF AND PUSH20 0xFFFFFFFFFFFFFFFFFFFFFFFFFFFFFFFFFFFFFFFF AND DUP2 MSTORE PUSH1 0x20 ADD SWAP1 DUP2 MSTORE PUSH1 0x20 ADD PUSH0 KECCAK256 SLOAD SWAP1 POP SWAP1 JUMP JUMPDEST DUP1 PUSH0 DUP1 DUP6 PUSH20 0xFFFFFFFFFFFFFFFFFFFFFFFFFFFFFFFFFFFFFFFF AND PUSH20 0xFFFFFFFFFFFFFFFFFFFFFFFFFFFFFFFFFFFFFFFF AND DUP2 MSTORE PUSH1 0x20 ADD SWAP1 DUP2 MSTORE PUSH1 0x20 ADD PUSH0 KECCAK256 PUSH0 DUP3 DUP3 SLOAD PUSH2 0x397 SWAP2 SWAP1 PUSH2 0x5F9 JUMP JUMPDEST SWAP3 POP POP DUP2 SWAP1 SSTORE POP DUP1 PUSH0 DUP1 DUP5 PUSH20 0xFFFFFFFFFFFFFFFFFFFFFFFFFFFFFFFFFFFFFFFF AND PUSH20 0xFFFFFFFFFFFFFFFFFFFFFFFFFFFFFFFFFFFFFFFF AND DUP2 MSTORE PUSH1 0x20 ADD SWAP1 DUP2 MSTORE PUSH1 0x20 ADD PUSH0 KECCAK256 PUSH0 DUP3 DUP3 SLOAD PUSH2 0x3E9 SWAP2 SWAP1 PUSH2 0x659 JUMP JUMPDEST SWAP3 POP POP DUP2 SWAP1 SSTORE POP POP POP POP JUMP JUMPDEST PUSH0 DUP2 SWAP1 POP SWAP2 SWAP1 POP JUMP JUMPDEST PUSH2 0x407 DUP2 PUSH2 0x3F5 JUMP JUMPDEST DUP3 MSTORE POP POP JUMP JUMPDEST PUSH0 PUSH1 0x20 DUP3 ADD SWAP1 POP PUSH2 0x420 PUSH0 DUP4 ADD DUP5 PUSH2 0x3FE JUMP JUMPDEST SWAP3 SWAP2 POP POP JUMP JUMPDEST PUSH0 DUP1 REVERT JUMPDEST PUSH0 PUSH20 0xFFFFFFFFFFFFFFFFFFFFFFFFFFFFFFFFFFFFFFFF DUP3 AND SWAP1 POP SWAP2 SWAP1 POP JUMP JUMPDEST PUSH0 PUSH2 0x453 DUP3 PUSH2 0x42A JUMP JUMPDEST SWAP1 POP SWAP2 SWAP1 POP JUMP JUMPDEST PUSH2 0x463 DUP2 PUSH2 0x449 JUMP JUMPDEST DUP2 EQ PUSH2 0x46D JUMPI PUSH0 DUP1 REVERT JUMPDEST POP JUMP JUMPDEST PUSH0 DUP2 CALLDATALOAD SWAP1 POP PUSH2 0x47E DUP2 PUSH2 0x45A JUMP JUMPDEST SWAP3 SWAP2 POP POP JUMP JUMPDEST PUSH2 0x48D DUP2 PUSH2 0x3F5 JUMP JUMPDEST DUP2 EQ PUSH2 0x497 JUMPI PUSH0 DUP1 REVERT JUMPDEST POP JUMP JUMPDEST PUSH0 DUP2 CALLDATALOAD SWAP1 POP PUSH2 0x4A8 DUP2 PUSH2 0x484 JUMP JUMPDEST SWAP3 SWAP2 POP POP JUMP JUMPDEST PUSH0 DUP1 PUSH1 0x40 DUP4 DUP6 SUB SLT ISZERO PUSH2 0x4C4 JUMPI PUSH2 0x4C3 PUSH2 0x426 JUMP JUMPDEST JUMPDEST PUSH0 PUSH2 0x4D1 DUP6 DUP3 DUP7 ADD PUSH2 0x470 JUMP JUMPDEST SWAP3 POP POP PUSH1 0x20 PUSH2 0x4E2 DUP6 DUP3 DUP7 ADD PUSH2 0x49A JUMP JUMPDEST SWAP2 POP POP SWAP3 POP SWAP3 SWAP1 POP JUMP JUMPDEST PUSH0 DUP3 DUP3 MSTORE PUSH1 0x20 DUP3 ADD SWAP1 POP SWAP3 SWAP2 POP POP JUMP JUMPDEST PUSH32 0x42616C616E6365206E6F742073756666696369656E7400000000000000000000 PUSH0 DUP3 ADD MSTORE POP JUMP JUMPDEST PUSH0 PUSH2 0x530 PUSH1 0x16 DUP4 PUSH2 0x4EC JUMP JUMPDEST SWAP2 POP PUSH2 0x53B DUP3 PUSH2 0x4FC JUMP JUMPDEST PUSH1 0x20 DUP3 ADD SWAP1 POP SWAP2 SWAP1 POP JUMP JUMPDEST PUSH0 PUSH1 0x20 DUP3 ADD SWAP1 POP DUP2 DUP2 SUB PUSH0 DUP4 ADD MSTORE PUSH2 0x55D DUP2 PUSH2 0x524 JUMP JUMPDEST SWAP1 POP SWAP2 SWAP1 POP JUMP JUMPDEST PUSH32 0x446F6E2774207472616E73666572206D6F6E657920746F20796F757273656C66 PUSH0 DUP3 ADD MSTORE POP JUMP JUMPDEST PUSH0 PUSH2 0x598 PUSH1 0x20 DUP4 PUSH2 0x4EC JUMP JUMPDEST SWAP2 POP PUSH2 0x5A3 DUP3 PUSH2 0x564 JUMP JUMPDEST PUSH1 0x20 DUP3 ADD SWAP1 POP SWAP2 SWAP1 POP JUMP JUMPDEST PUSH0 PUSH1 0x20 DUP3 ADD SWAP1 POP DUP2 DUP2 SUB PUSH0 DUP4 ADD MSTORE PUSH2 0x5C5 DUP2 PUSH2 0x58C JUMP JUMPDEST SWAP1 POP SWAP2 SWAP1 POP JUMP JUMPDEST PUSH32 0x4E487B7100000000000000000000000000000000000000000000000000000000 PUSH0 MSTORE PUSH1 0x11 PUSH1 0x4 MSTORE PUSH1 0x24 PUSH0 REVERT JUMPDEST PUSH0 PUSH2 0x603 DUP3 PUSH2 0x3F5 JUMP JUMPDEST SWAP2 POP PUSH2 0x60E DUP4 PUSH2 0x3F5 JUMP JUMPDEST SWAP3 POP DUP3 DUP3 SUB SWAP1 POP DUP2 DUP2 GT ISZERO PUSH2 0x626 JUMPI PUSH2 0x625 PUSH2 0x5CC JUMP JUMPDEST JUMPDEST SWAP3 SWAP2 POP POP JUMP JUMPDEST PUSH32 0x4E487B7100000000000000000000000000000000000000000000000000000000 PUSH0 MSTORE PUSH1 0x1 PUSH1 0x4 MSTORE PUSH1 0x24 PUSH0 REVERT JUMPDEST PUSH0 PUSH2 0x663 DUP3 PUSH2 0x3F5 JUMP JUMPDEST SWAP2 POP PUSH2 0x66E DUP4 PUSH2 0x3F5 JUMP JUMPDEST SWAP3 POP DUP3 DUP3 ADD SWAP1 POP DUP1 DUP3 GT ISZERO PUSH2 0x686 JUMPI PUSH2 0x685 PUSH2 0x5CC JUMP JUMPDEST JUMPDEST SWAP3 SWAP2 POP POP JUMP JUMPDEST PUSH2 0x695 DUP2 PUSH2 0x449 JUMP JUMPDEST DUP3 MSTORE POP POP JUMP JUMPDEST PUSH0 PUSH1 0x40 DUP3 ADD SWAP1 POP PUSH2 0x6AE PUSH0 DUP4 ADD DUP6 PUSH2 0x3FE JUMP JUMPDEST PUSH2 0x6BB PUSH1 0x20 DUP4 ADD DUP5 PUSH2 0x68C JUMP JUMPDEST SWAP4 SWAP3 POP POP POP JUMP INVALID LOG2 PUSH5 0x6970667358 0x22 SLT KECCAK256 BLOCKHASH 0x22 DELEGATECALL PUSH6 0x23AE475117E5 0xDB PUSH1 0x6C CREATE 0x28 PUSH1 0x3 PUSH26 0xBD3003622A3A4893B6246110B4664736F6C6343000816003300 "
				},
				"gasEstimates": {
					"creation": {
						"codeDepositCost": "356800",
						"executionCost": "24656",
						"totalCost": "381456"
					},
					"external": {
						"deposit()": "infinite",
						"getBlance()": "2497",
						"transfer(address,uint256)": "infinite"
					},
					"internal": {
						"_transfer(address,address,uint256)": "infinite"
					}
				},
				"methodIdentifiers": {
					"deposit()": "d0e30db0",
					"getBlance()": "941be5f7",
					"transfer(address,uint256)": "a9059cbb"
				}
			},
			"storageLayout": {
				"storage": [
					{
						"astId": 5,
						"contract": "tests/new/Payble.sol:Bank",
						"label": "balance",
						"offset": 0,
						"slot": "0",
						"type": "t_mapping(t_address,t_uint256)"
					},
					{
						"astId": 7,
						"contract": "tests/new/Payble.sol:Bank",
						"label": "owner",
						"offset": 0,
						"slot": "1",
						"type": "t_address"
					}
				],
				"types": {
					"t_address": {
						"encoding": "inplace",
						"label": "address",
						"numberOfBytes": "20"
					},
					"t_mapping(t_address,t_uint256)": {
						"encoding": "mapping",
						"key": "t_address",
						"label": "mapping(address => uint256)",
						"numberOfBytes": "32",
						"value": "t_uint256"
					},
					"t_uint256": {
						"encoding": "inplace",
						"label": "uint256",
						"numberOfBytes": "32"
					}
				}
			},
			"userdoc": {
				"kind": "user",
				"methods": {},
				"version": 1
			}
		}
	}
}