{
	"tests/new/new.sol": {
		"Bank": {
			"abi": [
				{
					"inputs": [
						{
							"internalType": "bytes32",
							"name": "_merkleRoot",
							"type": "bytes32"
						}
					],
					"stateMutability": "nonpayable",
					"type": "constructor"
				},
				{
					"anonymous": false,
					"inputs": [
						{
							"indexed": false,
							"internalType": "uint256",
							"name": "amount",
							"type": "uint256"
						},
						{
							"indexed": true,
							"internalType": "address",
							"name": "depositedOwner",
							"type": "address"
						}
					],
					"name": "depositedFund",
					"type": "event"
				},
				{
					"anonymous": false,
					"inputs": [
						{
							"indexed": false,
							"internalType": "uint256",
							"name": "amount",
							"type": "uint256"
						},
						{
							"indexed": true,
							"internalType": "address",
							"name": "withdrawalOwner",
							"type": "address"
						}
					],
					"name": "withdrawalFund",
					"type": "event"
				},
				{
					"inputs": [
						{
							"internalType": "bytes32[]",
							"name": "_proof",
							"type": "bytes32[]"
						}
					],
					"name": "claim",
					"outputs": [],
					"stateMutability": "nonpayable",
					"type": "function"
				},
				{
					"inputs": [
						{
							"internalType": "address",
							"name": "",
							"type": "address"
						}
					],
					"name": "depositFund",
					"outputs": [
						{
							"internalType": "uint256",
							"name": "",
							"type": "uint256"
						}
					],
					"stateMutability": "view",
					"type": "function"
				},
				{
					"inputs": [],
					"name": "deposite",
					"outputs": [],
					"stateMutability": "payable",
					"type": "function"
				},
				{
					"inputs": [],
					"name": "getBalance",
					"outputs": [
						{
							"internalType": "uint256",
							"name": "balance",
							"type": "uint256"
						}
					],
					"stateMutability": "view",
					"type": "function"
				},
				{
					"inputs": [],
					"name": "merkleRoot",
					"outputs": [
						{
							"internalType": "bytes32",
							"name": "",
							"type": "bytes32"
						}
					],
					"stateMutability": "view",
					"type": "function"
				},
				{
					"inputs": [],
					"name": "test",
					"outputs": [
						{
							"internalType": "address",
							"name": "",
							"type": "address"
						}
					],
					"stateMutability": "view",
					"type": "function"
				},
				{
					"inputs": [
						{
							"internalType": "uint256",
							"name": "_amount",
							"type": "uint256"
						}
					],
					"name": "withdrawal",
					"outputs": [],
					"stateMutability": "nonpayable",
					"type": "function"
				},
				{
					"inputs": [
						{
							"internalType": "address",
							"name": "",
							"type": "address"
						}
					],
					"name": "withdrawlFund",
					"outputs": [
						{
							"internalType": "uint256",
							"name": "",
							"type": "uint256"
						}
					],
					"stateMutability": "view",
					"type": "function"
				}
			],
			"devdoc": {
				"kind": "dev",
				"methods": {},
				"version": 1
			},
			"evm": {
				"assembly": "    /* \"tests/new/new.sol\":133:1662  contract Bank{... */\n  mstore(0x40, 0x80)\n    /* \"tests/new/new.sol\":765:867  constructor (bytes32 _merkleRoot){... */\n  callvalue\n  dup1\n  iszero\n  tag_1\n  jumpi\n  0x00\n  dup1\n  revert\ntag_1:\n  pop\n  mload(0x40)\n  sub(codesize, bytecodeSize)\n  dup1\n  bytecodeSize\n  dup4\n  codecopy\n  dup2\n  dup2\n  add\n  0x40\n  mstore\n  dup2\n  add\n  swap1\n  tag_2\n  swap2\n  swap1\n  tag_3\n  jump\t// in\ntag_2:\n    /* \"tests/new/new.sol\":822:833  _merkleRoot */\n  dup1\n    /* \"tests/new/new.sol\":809:819  merkleRoot */\n  0x04\n    /* \"tests/new/new.sol\":809:833  merkleRoot = _merkleRoot */\n  dup2\n  swap1\n  sstore\n  pop\n    /* \"tests/new/new.sol\":849:859  msg.sender */\n  caller\n    /* \"tests/new/new.sol\":841:846  owner */\n  0x02\n  0x00\n    /* \"tests/new/new.sol\":841:859  owner = msg.sender */\n  0x0100\n  exp\n  dup2\n  sload\n  dup2\n  0xffffffffffffffffffffffffffffffffffffffff\n  mul\n  not\n  and\n  swap1\n  dup4\n  0xffffffffffffffffffffffffffffffffffffffff\n  and\n  mul\n  or\n  swap1\n  sstore\n  pop\n    /* \"tests/new/new.sol\":765:867  constructor (bytes32 _merkleRoot){... */\n  pop\n    /* \"tests/new/new.sol\":133:1662  contract Bank{... */\n  jump(tag_6)\n    /* \"#utility.yul\":88:205   */\ntag_8:\n    /* \"#utility.yul\":197:198   */\n  0x00\n    /* \"#utility.yul\":194:195   */\n  dup1\n    /* \"#utility.yul\":187:199   */\n  revert\n    /* \"#utility.yul\":334:411   */\ntag_10:\n    /* \"#utility.yul\":371:378   */\n  0x00\n    /* \"#utility.yul\":400:405   */\n  dup2\n    /* \"#utility.yul\":389:405   */\n  swap1\n  pop\n    /* \"#utility.yul\":334:411   */\n  swap2\n  swap1\n  pop\n  jump\t// out\n    /* \"#utility.yul\":417:539   */\ntag_11:\n    /* \"#utility.yul\":490:514   */\n  tag_19\n    /* \"#utility.yul\":508:513   */\n  dup2\n    /* \"#utility.yul\":490:514   */\n  tag_10\n  jump\t// in\ntag_19:\n    /* \"#utility.yul\":483:488   */\n  dup2\n    /* \"#utility.yul\":480:515   */\n  eq\n    /* \"#utility.yul\":470:533   */\n  tag_20\n  jumpi\n    /* \"#utility.yul\":529:530   */\n  0x00\n    /* \"#utility.yul\":526:527   */\n  dup1\n    /* \"#utility.yul\":519:531   */\n  revert\n    /* \"#utility.yul\":470:533   */\ntag_20:\n    /* \"#utility.yul\":417:539   */\n  pop\n  jump\t// out\n    /* \"#utility.yul\":545:688   */\ntag_12:\n    /* \"#utility.yul\":602:607   */\n  0x00\n    /* \"#utility.yul\":633:639   */\n  dup2\n    /* \"#utility.yul\":627:640   */\n  mload\n    /* \"#utility.yul\":618:640   */\n  swap1\n  pop\n    /* \"#utility.yul\":649:682   */\n  tag_22\n    /* \"#utility.yul\":676:681   */\n  dup2\n    /* \"#utility.yul\":649:682   */\n  tag_11\n  jump\t// in\ntag_22:\n    /* \"#utility.yul\":545:688   */\n  swap3\n  swap2\n  pop\n  pop\n  jump\t// out\n    /* \"#utility.yul\":694:1045   */\ntag_3:\n    /* \"#utility.yul\":764:770   */\n  0x00\n    /* \"#utility.yul\":813:815   */\n  0x20\n    /* \"#utility.yul\":801:810   */\n  dup3\n    /* \"#utility.yul\":792:799   */\n  dup5\n    /* \"#utility.yul\":788:811   */\n  sub\n    /* \"#utility.yul\":784:816   */\n  slt\n    /* \"#utility.yul\":781:900   */\n  iszero\n  tag_24\n  jumpi\n    /* \"#utility.yul\":819:898   */\n  tag_25\n  tag_8\n  jump\t// in\ntag_25:\n    /* \"#utility.yul\":781:900   */\ntag_24:\n    /* \"#utility.yul\":939:940   */\n  0x00\n    /* \"#utility.yul\":964:1028   */\n  tag_26\n    /* \"#utility.yul\":1020:1027   */\n  dup5\n    /* \"#utility.yul\":1011:1017   */\n  dup3\n    /* \"#utility.yul\":1000:1009   */\n  dup6\n    /* \"#utility.yul\":996:1018   */\n  add\n    /* \"#utility.yul\":964:1028   */\n  tag_12\n  jump\t// in\ntag_26:\n    /* \"#utility.yul\":954:1028   */\n  swap2\n  pop\n    /* \"#utility.yul\":910:1038   */\n  pop\n    /* \"#utility.yul\":694:1045   */\n  swap3\n  swap2\n  pop\n  pop\n  jump\t// out\n    /* \"tests/new/new.sol\":133:1662  contract Bank{... */\ntag_6:\n  dataSize(sub_0)\n  dup1\n  dataOffset(sub_0)\n  0x00\n  codecopy\n  0x00\n  return\nstop\n\nsub_0: assembly {\n        /* \"tests/new/new.sol\":133:1662  contract Bank{... */\n      mstore(0x40, 0x80)\n      jumpi(tag_1, lt(calldatasize, 0x04))\n      shr(0xe0, calldataload(0x00))\n      dup1\n      0xa50ec326\n      gt\n      tag_10\n      jumpi\n      dup1\n      0xa50ec326\n      eq\n      tag_6\n      jumpi\n      dup1\n      0xb391c508\n      eq\n      tag_7\n      jumpi\n      dup1\n      0xe12d4a52\n      eq\n      tag_8\n      jumpi\n      dup1\n      0xf8a8fd6d\n      eq\n      tag_9\n      jumpi\n      jump(tag_1)\n    tag_10:\n      dup1\n      0x12065fe0\n      eq\n      tag_2\n      jumpi\n      dup1\n      0x2eb4a7ab\n      eq\n      tag_3\n      jumpi\n      dup1\n      0x835fc6ca\n      eq\n      tag_4\n      jumpi\n      dup1\n      0xa14c2d5b\n      eq\n      tag_5\n      jumpi\n    tag_1:\n      0x00\n      dup1\n      revert\n        /* \"tests/new/new.sol\":1246:1379  function getBalance() public view returns (uint balance){... */\n    tag_2:\n      callvalue\n      dup1\n      iszero\n      tag_11\n      jumpi\n      0x00\n      dup1\n      revert\n    tag_11:\n      pop\n      tag_12\n      tag_13\n      jump\t// in\n    tag_12:\n      mload(0x40)\n      tag_14\n      swap2\n      swap1\n      tag_15\n      jump\t// in\n    tag_14:\n      mload(0x40)\n      dup1\n      swap2\n      sub\n      swap1\n      return\n        /* \"tests/new/new.sol\":1413:1438  bytes32 public merkleRoot */\n    tag_3:\n      callvalue\n      dup1\n      iszero\n      tag_16\n      jumpi\n      0x00\n      dup1\n      revert\n    tag_16:\n      pop\n      tag_17\n      tag_18\n      jump\t// in\n    tag_17:\n      mload(0x40)\n      tag_19\n      swap2\n      swap1\n      tag_20\n      jump\t// in\n    tag_19:\n      mload(0x40)\n      dup1\n      swap2\n      sub\n      swap1\n      return\n        /* \"tests/new/new.sol\":1057:1238  function withdrawal(uint _amount) public onlyOwner isWithdraw(_amount) {... */\n    tag_4:\n      callvalue\n      dup1\n      iszero\n      tag_21\n      jumpi\n      0x00\n      dup1\n      revert\n    tag_21:\n      pop\n      tag_22\n      0x04\n      dup1\n      calldatasize\n      sub\n      dup2\n      add\n      swap1\n      tag_23\n      swap2\n      swap1\n      tag_24\n      jump\t// in\n    tag_23:\n      tag_25\n      jump\t// in\n    tag_22:\n      stop\n        /* \"tests/new/new.sol\":203:249  mapping (address => uint) public withdrawlFund */\n    tag_5:\n      callvalue\n      dup1\n      iszero\n      tag_26\n      jumpi\n      0x00\n      dup1\n      revert\n    tag_26:\n      pop\n      tag_27\n      0x04\n      dup1\n      calldatasize\n      sub\n      dup2\n      add\n      swap1\n      tag_28\n      swap2\n      swap1\n      tag_29\n      jump\t// in\n    tag_28:\n      tag_30\n      jump\t// in\n    tag_27:\n      mload(0x40)\n      tag_31\n      swap2\n      swap1\n      tag_15\n      jump\t// in\n    tag_31:\n      mload(0x40)\n      dup1\n      swap2\n      sub\n      swap1\n      return\n        /* \"tests/new/new.sol\":897:1049  function deposite() public onlyOwner payable {... */\n    tag_6:\n      tag_32\n      tag_33\n      jump\t// in\n    tag_32:\n      stop\n        /* \"tests/new/new.sol\":1445:1657  function claim(bytes32[] memory _proof) public {... */\n    tag_7:\n      callvalue\n      dup1\n      iszero\n      tag_34\n      jumpi\n      0x00\n      dup1\n      revert\n    tag_34:\n      pop\n      tag_35\n      0x04\n      dup1\n      calldatasize\n      sub\n      dup2\n      add\n      swap1\n      tag_36\n      swap2\n      swap1\n      tag_37\n      jump\t// in\n    tag_36:\n      tag_38\n      jump\t// in\n    tag_35:\n      stop\n        /* \"tests/new/new.sol\":153:196  mapping(address => uint) public depositFund */\n    tag_8:\n      callvalue\n      dup1\n      iszero\n      tag_39\n      jumpi\n      0x00\n      dup1\n      revert\n    tag_39:\n      pop\n      tag_40\n      0x04\n      dup1\n      calldatasize\n      sub\n      dup2\n      add\n      swap1\n      tag_41\n      swap2\n      swap1\n      tag_29\n      jump\t// in\n    tag_41:\n      tag_42\n      jump\t// in\n    tag_40:\n      mload(0x40)\n      tag_43\n      swap2\n      swap1\n      tag_15\n      jump\t// in\n    tag_43:\n      mload(0x40)\n      dup1\n      swap2\n      sub\n      swap1\n      return\n        /* \"tests/new/new.sol\":1387:1406  address public test */\n    tag_9:\n      callvalue\n      dup1\n      iszero\n      tag_44\n      jumpi\n      0x00\n      dup1\n      revert\n    tag_44:\n      pop\n      tag_45\n      tag_46\n      jump\t// in\n    tag_45:\n      mload(0x40)\n      tag_47\n      swap2\n      swap1\n      tag_48\n      jump\t// in\n    tag_47:\n      mload(0x40)\n      dup1\n      swap2\n      sub\n      swap1\n      return\n        /* \"tests/new/new.sol\":1246:1379  function getBalance() public view returns (uint balance){... */\n    tag_13:\n        /* \"tests/new/new.sol\":1289:1301  uint balance */\n      0x00\n        /* \"tests/new/new.sol\":1346:1359  withdrawlFund */\n      0x01\n        /* \"tests/new/new.sol\":1346:1371  withdrawlFund[msg.sender] */\n      0x00\n        /* \"tests/new/new.sol\":1360:1370  msg.sender */\n      caller\n        /* \"tests/new/new.sol\":1346:1371  withdrawlFund[msg.sender] */\n      0xffffffffffffffffffffffffffffffffffffffff\n      and\n      0xffffffffffffffffffffffffffffffffffffffff\n      and\n      dup2\n      mstore\n      0x20\n      add\n      swap1\n      dup2\n      mstore\n      0x20\n      add\n      0x00\n      keccak256\n      sload\n        /* \"tests/new/new.sol\":1320:1331  depositFund */\n      0x00\n        /* \"tests/new/new.sol\":1320:1343  depositFund[msg.sender] */\n      dup1\n        /* \"tests/new/new.sol\":1332:1342  msg.sender */\n      caller\n        /* \"tests/new/new.sol\":1320:1343  depositFund[msg.sender] */\n      0xffffffffffffffffffffffffffffffffffffffff\n      and\n      0xffffffffffffffffffffffffffffffffffffffff\n      and\n      dup2\n      mstore\n      0x20\n      add\n      swap1\n      dup2\n      mstore\n      0x20\n      add\n      0x00\n      keccak256\n      sload\n        /* \"tests/new/new.sol\":1320:1371  depositFund[msg.sender] - withdrawlFund[msg.sender] */\n      tag_50\n      swap2\n      swap1\n      tag_51\n      jump\t// in\n    tag_50:\n        /* \"tests/new/new.sol\":1313:1371  return depositFund[msg.sender] - withdrawlFund[msg.sender] */\n      swap1\n      pop\n        /* \"tests/new/new.sol\":1246:1379  function getBalance() public view returns (uint balance){... */\n      swap1\n      jump\t// out\n        /* \"tests/new/new.sol\":1413:1438  bytes32 public merkleRoot */\n    tag_18:\n      sload(0x04)\n      dup2\n      jump\t// out\n        /* \"tests/new/new.sol\":1057:1238  function withdrawal(uint _amount) public onlyOwner isWithdraw(_amount) {... */\n    tag_25:\n        /* \"tests/new/new.sol\":489:494  owner */\n      0x02\n      0x00\n      swap1\n      sload\n      swap1\n      0x0100\n      exp\n      swap1\n      div\n      0xffffffffffffffffffffffffffffffffffffffff\n      and\n        /* \"tests/new/new.sol\":475:494  msg.sender == owner */\n      0xffffffffffffffffffffffffffffffffffffffff\n      and\n        /* \"tests/new/new.sol\":475:485  msg.sender */\n      caller\n        /* \"tests/new/new.sol\":475:494  msg.sender == owner */\n      0xffffffffffffffffffffffffffffffffffffffff\n      and\n      eq\n        /* \"tests/new/new.sol\":467:508  require(msg.sender == owner, \"Not Allow\") */\n      tag_53\n      jumpi\n      mload(0x40)\n      0x08c379a000000000000000000000000000000000000000000000000000000000\n      dup2\n      mstore\n      0x04\n      add\n      tag_54\n      swap1\n      tag_55\n      jump\t// in\n    tag_54:\n      mload(0x40)\n      dup1\n      swap2\n      sub\n      swap1\n      revert\n    tag_53:\n        /* \"tests/new/new.sol\":1119:1126  _amount */\n      dup1\n        /* \"tests/new/new.sol\":580:603  uint previousWithdrawal */\n      0x00\n        /* \"tests/new/new.sol\":606:619  withdrawlFund */\n      0x01\n        /* \"tests/new/new.sol\":606:631  withdrawlFund[msg.sender] */\n      0x00\n        /* \"tests/new/new.sol\":620:630  msg.sender */\n      caller\n        /* \"tests/new/new.sol\":606:631  withdrawlFund[msg.sender] */\n      0xffffffffffffffffffffffffffffffffffffffff\n      and\n      0xffffffffffffffffffffffffffffffffffffffff\n      and\n      dup2\n      mstore\n      0x20\n      add\n      swap1\n      dup2\n      mstore\n      0x20\n      add\n      0x00\n      keccak256\n      sload\n        /* \"tests/new/new.sol\":580:631  uint previousWithdrawal = withdrawlFund[msg.sender] */\n      swap1\n      pop\n        /* \"tests/new/new.sol\":698:704  amount */\n      dup2\n        /* \"tests/new/new.sol\":676:694  previousWithdrawal */\n      dup2\n        /* \"tests/new/new.sol\":650:661  depositFund */\n      0x00\n        /* \"tests/new/new.sol\":650:673  depositFund[msg.sender] */\n      dup1\n        /* \"tests/new/new.sol\":662:672  msg.sender */\n      caller\n        /* \"tests/new/new.sol\":650:673  depositFund[msg.sender] */\n      0xffffffffffffffffffffffffffffffffffffffff\n      and\n      0xffffffffffffffffffffffffffffffffffffffff\n      and\n      dup2\n      mstore\n      0x20\n      add\n      swap1\n      dup2\n      mstore\n      0x20\n      add\n      0x00\n      keccak256\n      sload\n        /* \"tests/new/new.sol\":650:694  depositFund[msg.sender] - previousWithdrawal */\n      tag_57\n      swap2\n      swap1\n      tag_51\n      jump\t// in\n    tag_57:\n        /* \"tests/new/new.sol\":650:704  depositFund[msg.sender] - previousWithdrawal >= amount */\n      lt\n      iszero\n        /* \"tests/new/new.sol\":642:737  require(depositFund[msg.sender] - previousWithdrawal >= amount, \"Insufficient Account Balance\") */\n      tag_58\n      jumpi\n      mload(0x40)\n      0x08c379a000000000000000000000000000000000000000000000000000000000\n      dup2\n      mstore\n      0x04\n      add\n      tag_59\n      swap1\n      tag_60\n      jump\t// in\n    tag_59:\n      mload(0x40)\n      dup1\n      swap2\n      sub\n      swap1\n      revert\n    tag_58:\n        /* \"tests/new/new.sol\":1168:1175  _amount */\n      dup3\n        /* \"tests/new/new.sol\":1139:1152  withdrawlFund */\n      0x01\n        /* \"tests/new/new.sol\":1139:1164  withdrawlFund[msg.sender] */\n      0x00\n        /* \"tests/new/new.sol\":1153:1163  msg.sender */\n      caller\n        /* \"tests/new/new.sol\":1139:1164  withdrawlFund[msg.sender] */\n      0xffffffffffffffffffffffffffffffffffffffff\n      and\n      0xffffffffffffffffffffffffffffffffffffffff\n      and\n      dup2\n      mstore\n      0x20\n      add\n      swap1\n      dup2\n      mstore\n      0x20\n      add\n      0x00\n      keccak256\n      0x00\n        /* \"tests/new/new.sol\":1139:1175  withdrawlFund[msg.sender] += _amount */\n      dup3\n      dup3\n      sload\n      tag_62\n      swap2\n      swap1\n      tag_63\n      jump\t// in\n    tag_62:\n      swap3\n      pop\n      pop\n      dup2\n      swap1\n      sstore\n      pop\n        /* \"tests/new/new.sol\":1217:1227  msg.sender */\n      caller\n        /* \"tests/new/new.sol\":1193:1228  withdrawalFund(_amount, msg.sender) */\n      0xffffffffffffffffffffffffffffffffffffffff\n      and\n      0x5abb37b6a6e999ed1b32adaa92157f682779d5c878f8133de3e53cfdd319fafb\n        /* \"tests/new/new.sol\":1208:1215  _amount */\n      dup5\n        /* \"tests/new/new.sol\":1193:1228  withdrawalFund(_amount, msg.sender) */\n      mload(0x40)\n      tag_64\n      swap2\n      swap1\n      tag_15\n      jump\t// in\n    tag_64:\n      mload(0x40)\n      dup1\n      swap2\n      sub\n      swap1\n      log2\n        /* \"tests/new/new.sol\":569:757  {... */\n      pop\n        /* \"tests/new/new.sol\":519:520  _ */\n      pop\n        /* \"tests/new/new.sol\":1057:1238  function withdrawal(uint _amount) public onlyOwner isWithdraw(_amount) {... */\n      pop\n      jump\t// out\n        /* \"tests/new/new.sol\":203:249  mapping (address => uint) public withdrawlFund */\n    tag_30:\n      mstore(0x20, 0x01)\n      dup1\n      0x00\n      mstore\n      keccak256(0x00, 0x40)\n      0x00\n      swap2\n      pop\n      swap1\n      pop\n      sload\n      dup2\n      jump\t// out\n        /* \"tests/new/new.sol\":897:1049  function deposite() public onlyOwner payable {... */\n    tag_33:\n        /* \"tests/new/new.sol\":489:494  owner */\n      0x02\n      0x00\n      swap1\n      sload\n      swap1\n      0x0100\n      exp\n      swap1\n      div\n      0xffffffffffffffffffffffffffffffffffffffff\n      and\n        /* \"tests/new/new.sol\":475:494  msg.sender == owner */\n      0xffffffffffffffffffffffffffffffffffffffff\n      and\n        /* \"tests/new/new.sol\":475:485  msg.sender */\n      caller\n        /* \"tests/new/new.sol\":475:494  msg.sender == owner */\n      0xffffffffffffffffffffffffffffffffffffffff\n      and\n      eq\n        /* \"tests/new/new.sol\":467:508  require(msg.sender == owner, \"Not Allow\") */\n      tag_66\n      jumpi\n      mload(0x40)\n      0x08c379a000000000000000000000000000000000000000000000000000000000\n      dup2\n      mstore\n      0x04\n      add\n      tag_67\n      swap1\n      tag_55\n      jump\t// in\n    tag_67:\n      mload(0x40)\n      dup1\n      swap2\n      sub\n      swap1\n      revert\n    tag_66:\n        /* \"tests/new/new.sol\":980:989  msg.value */\n      callvalue\n        /* \"tests/new/new.sol\":953:964  depositFund */\n      0x00\n        /* \"tests/new/new.sol\":953:976  depositFund[msg.sender] */\n      dup1\n        /* \"tests/new/new.sol\":965:975  msg.sender */\n      caller\n        /* \"tests/new/new.sol\":953:976  depositFund[msg.sender] */\n      0xffffffffffffffffffffffffffffffffffffffff\n      and\n      0xffffffffffffffffffffffffffffffffffffffff\n      and\n      dup2\n      mstore\n      0x20\n      add\n      swap1\n      dup2\n      mstore\n      0x20\n      add\n      0x00\n      keccak256\n      0x00\n        /* \"tests/new/new.sol\":953:989  depositFund[msg.sender] += msg.value */\n      dup3\n      dup3\n      sload\n      tag_69\n      swap2\n      swap1\n      tag_63\n      jump\t// in\n    tag_69:\n      swap3\n      pop\n      pop\n      dup2\n      swap1\n      sstore\n      pop\n        /* \"tests/new/new.sol\":1030:1040  msg.sender */\n      caller\n        /* \"tests/new/new.sol\":1005:1041  depositedFund(msg.value, msg.sender) */\n      0xffffffffffffffffffffffffffffffffffffffff\n      and\n      0xe5249d60e46bc17c93ebe0077404ce0986693b526789d52d468942ca2eba7ad3\n        /* \"tests/new/new.sol\":1019:1028  msg.value */\n      callvalue\n        /* \"tests/new/new.sol\":1005:1041  depositedFund(msg.value, msg.sender) */\n      mload(0x40)\n      tag_70\n      swap2\n      swap1\n      tag_15\n      jump\t// in\n    tag_70:\n      mload(0x40)\n      dup1\n      swap2\n      sub\n      swap1\n      log2\n        /* \"tests/new/new.sol\":897:1049  function deposite() public onlyOwner payable {... */\n      jump\t// out\n        /* \"tests/new/new.sol\":1445:1657  function claim(bytes32[] memory _proof) public {... */\n    tag_38:\n        /* \"tests/new/new.sol\":1497:1509  bytes32 leaf */\n      0x00\n        /* \"tests/new/new.sol\":1539:1549  msg.sender */\n      caller\n        /* \"tests/new/new.sol\":1522:1550  abi.encodePacked(msg.sender) */\n      add(0x20, mload(0x40))\n      tag_72\n      swap2\n      swap1\n      tag_73\n      jump\t// in\n    tag_72:\n      mload(0x40)\n      0x20\n      dup2\n      dup4\n      sub\n      sub\n      dup2\n      mstore\n      swap1\n      0x40\n      mstore\n        /* \"tests/new/new.sol\":1512:1551  keccak256(abi.encodePacked(msg.sender)) */\n      dup1\n      mload\n      swap1\n      0x20\n      add\n      keccak256\n        /* \"tests/new/new.sol\":1497:1551  bytes32 leaf = keccak256(abi.encodePacked(msg.sender)) */\n      swap1\n      pop\n        /* \"tests/new/new.sol\":1562:1606  MerkleProof.verify(_proof, merkleRoot, leaf) */\n      tag_74\n        /* \"tests/new/new.sol\":1581:1587  _proof */\n      dup3\n        /* \"tests/new/new.sol\":1589:1599  merkleRoot */\n      sload(0x04)\n        /* \"tests/new/new.sol\":1601:1605  leaf */\n      dup4\n        /* \"tests/new/new.sol\":1562:1580  MerkleProof.verify */\n      tag_75\n        /* \"tests/new/new.sol\":1562:1606  MerkleProof.verify(_proof, merkleRoot, leaf) */\n      jump\t// in\n    tag_74:\n        /* \"tests/new/new.sol\":1554:1633  require(MerkleProof.verify(_proof, merkleRoot, leaf), \"Invalid Merkle Proof.\" ) */\n      tag_76\n      jumpi\n      mload(0x40)\n      0x08c379a000000000000000000000000000000000000000000000000000000000\n      dup2\n      mstore\n      0x04\n      add\n      tag_77\n      swap1\n      tag_78\n      jump\t// in\n    tag_77:\n      mload(0x40)\n      dup1\n      swap2\n      sub\n      swap1\n      revert\n    tag_76:\n        /* \"tests/new/new.sol\":1643:1653  msg.sender */\n      caller\n        /* \"tests/new/new.sol\":1636:1640  test */\n      0x03\n      0x00\n        /* \"tests/new/new.sol\":1636:1653  test = msg.sender */\n      0x0100\n      exp\n      dup2\n      sload\n      dup2\n      0xffffffffffffffffffffffffffffffffffffffff\n      mul\n      not\n      and\n      swap1\n      dup4\n      0xffffffffffffffffffffffffffffffffffffffff\n      and\n      mul\n      or\n      swap1\n      sstore\n      pop\n        /* \"tests/new/new.sol\":1492:1657  {... */\n      pop\n        /* \"tests/new/new.sol\":1445:1657  function claim(bytes32[] memory _proof) public {... */\n      pop\n      jump\t// out\n        /* \"tests/new/new.sol\":153:196  mapping(address => uint) public depositFund */\n    tag_42:\n      mstore(0x20, 0x00)\n      dup1\n      0x00\n      mstore\n      keccak256(0x00, 0x40)\n      0x00\n      swap2\n      pop\n      swap1\n      pop\n      sload\n      dup2\n      jump\t// out\n        /* \"tests/new/new.sol\":1387:1406  address public test */\n    tag_46:\n      0x03\n      0x00\n      swap1\n      sload\n      swap1\n      0x0100\n      exp\n      swap1\n      div\n      0xffffffffffffffffffffffffffffffffffffffff\n      and\n      dup2\n      jump\t// out\n        /* \"@openzeppelin/contracts/utils/cryptography/MerkleProof.sol\":1265:1419  function verify(bytes32[] memory proof, bytes32 root, bytes32 leaf) internal pure returns (bool) {... */\n    tag_75:\n        /* \"@openzeppelin/contracts/utils/cryptography/MerkleProof.sol\":1356:1360  bool */\n      0x00\n        /* \"@openzeppelin/contracts/utils/cryptography/MerkleProof.sol\":1408:1412  root */\n      dup3\n        /* \"@openzeppelin/contracts/utils/cryptography/MerkleProof.sol\":1379:1404  processProof(proof, leaf) */\n      tag_80\n        /* \"@openzeppelin/contracts/utils/cryptography/MerkleProof.sol\":1392:1397  proof */\n      dup6\n        /* \"@openzeppelin/contracts/utils/cryptography/MerkleProof.sol\":1399:1403  leaf */\n      dup5\n        /* \"@openzeppelin/contracts/utils/cryptography/MerkleProof.sol\":1379:1391  processProof */\n      tag_81\n        /* \"@openzeppelin/contracts/utils/cryptography/MerkleProof.sol\":1379:1404  processProof(proof, leaf) */\n      jump\t// in\n    tag_80:\n        /* \"@openzeppelin/contracts/utils/cryptography/MerkleProof.sol\":1379:1412  processProof(proof, leaf) == root */\n      eq\n        /* \"@openzeppelin/contracts/utils/cryptography/MerkleProof.sol\":1372:1412  return processProof(proof, leaf) == root */\n      swap1\n      pop\n        /* \"@openzeppelin/contracts/utils/cryptography/MerkleProof.sol\":1265:1419  function verify(bytes32[] memory proof, bytes32 root, bytes32 leaf) internal pure returns (bool) {... */\n      swap4\n      swap3\n      pop\n      pop\n      pop\n      jump\t// out\n        /* \"@openzeppelin/contracts/utils/cryptography/MerkleProof.sol\":1967:2257  function processProof(bytes32[] memory proof, bytes32 leaf) internal pure returns (bytes32) {... */\n    tag_81:\n        /* \"@openzeppelin/contracts/utils/cryptography/MerkleProof.sol\":2050:2057  bytes32 */\n      0x00\n        /* \"@openzeppelin/contracts/utils/cryptography/MerkleProof.sol\":2069:2089  bytes32 computedHash */\n      dup1\n        /* \"@openzeppelin/contracts/utils/cryptography/MerkleProof.sol\":2092:2096  leaf */\n      dup3\n        /* \"@openzeppelin/contracts/utils/cryptography/MerkleProof.sol\":2069:2096  bytes32 computedHash = leaf */\n      swap1\n      pop\n        /* \"@openzeppelin/contracts/utils/cryptography/MerkleProof.sol\":2111:2120  uint256 i */\n      0x00\n        /* \"@openzeppelin/contracts/utils/cryptography/MerkleProof.sol\":2106:2222  for (uint256 i = 0; i < proof.length; i++) {... */\n    tag_83:\n        /* \"@openzeppelin/contracts/utils/cryptography/MerkleProof.sol\":2130:2135  proof */\n      dup5\n        /* \"@openzeppelin/contracts/utils/cryptography/MerkleProof.sol\":2130:2142  proof.length */\n      mload\n        /* \"@openzeppelin/contracts/utils/cryptography/MerkleProof.sol\":2126:2127  i */\n      dup2\n        /* \"@openzeppelin/contracts/utils/cryptography/MerkleProof.sol\":2126:2142  i < proof.length */\n      lt\n        /* \"@openzeppelin/contracts/utils/cryptography/MerkleProof.sol\":2106:2222  for (uint256 i = 0; i < proof.length; i++) {... */\n      iszero\n      tag_84\n      jumpi\n        /* \"@openzeppelin/contracts/utils/cryptography/MerkleProof.sol\":2178:2211  _hashPair(computedHash, proof[i]) */\n      tag_86\n        /* \"@openzeppelin/contracts/utils/cryptography/MerkleProof.sol\":2188:2200  computedHash */\n      dup3\n        /* \"@openzeppelin/contracts/utils/cryptography/MerkleProof.sol\":2202:2207  proof */\n      dup7\n        /* \"@openzeppelin/contracts/utils/cryptography/MerkleProof.sol\":2208:2209  i */\n      dup4\n        /* \"@openzeppelin/contracts/utils/cryptography/MerkleProof.sol\":2202:2210  proof[i] */\n      dup2\n      mload\n      dup2\n      lt\n      tag_87\n      jumpi\n      tag_88\n      tag_89\n      jump\t// in\n    tag_88:\n    tag_87:\n      0x20\n      mul\n      0x20\n      add\n      add\n      mload\n        /* \"@openzeppelin/contracts/utils/cryptography/MerkleProof.sol\":2178:2187  _hashPair */\n      tag_90\n        /* \"@openzeppelin/contracts/utils/cryptography/MerkleProof.sol\":2178:2211  _hashPair(computedHash, proof[i]) */\n      jump\t// in\n    tag_86:\n        /* \"@openzeppelin/contracts/utils/cryptography/MerkleProof.sol\":2163:2211  computedHash = _hashPair(computedHash, proof[i]) */\n      swap2\n      pop\n        /* \"@openzeppelin/contracts/utils/cryptography/MerkleProof.sol\":2144:2147  i++ */\n      dup1\n      dup1\n      0x01\n      add\n      swap2\n      pop\n      pop\n        /* \"@openzeppelin/contracts/utils/cryptography/MerkleProof.sol\":2106:2222  for (uint256 i = 0; i < proof.length; i++) {... */\n      jump(tag_83)\n    tag_84:\n      pop\n        /* \"@openzeppelin/contracts/utils/cryptography/MerkleProof.sol\":2238:2250  computedHash */\n      dup1\n        /* \"@openzeppelin/contracts/utils/cryptography/MerkleProof.sol\":2231:2250  return computedHash */\n      swap2\n      pop\n      pop\n        /* \"@openzeppelin/contracts/utils/cryptography/MerkleProof.sol\":1967:2257  function processProof(bytes32[] memory proof, bytes32 leaf) internal pure returns (bytes32) {... */\n      swap3\n      swap2\n      pop\n      pop\n      jump\t// out\n        /* \"@openzeppelin/contracts/utils/cryptography/MerkleProof.sol\":9229:9376  function _hashPair(bytes32 a, bytes32 b) private pure returns (bytes32) {... */\n    tag_90:\n        /* \"@openzeppelin/contracts/utils/cryptography/MerkleProof.sol\":9292:9299  bytes32 */\n      0x00\n        /* \"@openzeppelin/contracts/utils/cryptography/MerkleProof.sol\":9322:9323  b */\n      dup2\n        /* \"@openzeppelin/contracts/utils/cryptography/MerkleProof.sol\":9318:9319  a */\n      dup4\n        /* \"@openzeppelin/contracts/utils/cryptography/MerkleProof.sol\":9318:9323  a < b */\n      lt\n        /* \"@openzeppelin/contracts/utils/cryptography/MerkleProof.sol\":9318:9369  a < b ? _efficientHash(a, b) : _efficientHash(b, a) */\n      tag_92\n      jumpi\n        /* \"@openzeppelin/contracts/utils/cryptography/MerkleProof.sol\":9349:9369  _efficientHash(b, a) */\n      tag_93\n        /* \"@openzeppelin/contracts/utils/cryptography/MerkleProof.sol\":9364:9365  b */\n      dup3\n        /* \"@openzeppelin/contracts/utils/cryptography/MerkleProof.sol\":9367:9368  a */\n      dup5\n        /* \"@openzeppelin/contracts/utils/cryptography/MerkleProof.sol\":9349:9363  _efficientHash */\n      tag_94\n        /* \"@openzeppelin/contracts/utils/cryptography/MerkleProof.sol\":9349:9369  _efficientHash(b, a) */\n      jump\t// in\n    tag_93:\n        /* \"@openzeppelin/contracts/utils/cryptography/MerkleProof.sol\":9318:9369  a < b ? _efficientHash(a, b) : _efficientHash(b, a) */\n      jump(tag_95)\n    tag_92:\n        /* \"@openzeppelin/contracts/utils/cryptography/MerkleProof.sol\":9326:9346  _efficientHash(a, b) */\n      tag_96\n        /* \"@openzeppelin/contracts/utils/cryptography/MerkleProof.sol\":9341:9342  a */\n      dup4\n        /* \"@openzeppelin/contracts/utils/cryptography/MerkleProof.sol\":9344:9345  b */\n      dup4\n        /* \"@openzeppelin/contracts/utils/cryptography/MerkleProof.sol\":9326:9340  _efficientHash */\n      tag_94\n        /* \"@openzeppelin/contracts/utils/cryptography/MerkleProof.sol\":9326:9346  _efficientHash(a, b) */\n      jump\t// in\n    tag_96:\n        /* \"@openzeppelin/contracts/utils/cryptography/MerkleProof.sol\":9318:9369  a < b ? _efficientHash(a, b) : _efficientHash(b, a) */\n    tag_95:\n        /* \"@openzeppelin/contracts/utils/cryptography/MerkleProof.sol\":9311:9369  return a < b ? _efficientHash(a, b) : _efficientHash(b, a) */\n      swap1\n      pop\n        /* \"@openzeppelin/contracts/utils/cryptography/MerkleProof.sol\":9229:9376  function _hashPair(bytes32 a, bytes32 b) private pure returns (bytes32) {... */\n      swap3\n      swap2\n      pop\n      pop\n      jump\t// out\n        /* \"@openzeppelin/contracts/utils/cryptography/MerkleProof.sol\":9496:9757  function _efficientHash(bytes32 a, bytes32 b) private pure returns (bytes32 value) {... */\n    tag_94:\n        /* \"@openzeppelin/contracts/utils/cryptography/MerkleProof.sol\":9564:9577  bytes32 value */\n      0x00\n        /* \"@openzeppelin/contracts/utils/cryptography/MerkleProof.sol\":9668:9669  a */\n      dup3\n        /* \"@openzeppelin/contracts/utils/cryptography/MerkleProof.sol\":9662:9666  0x00 */\n      0x00\n        /* \"@openzeppelin/contracts/utils/cryptography/MerkleProof.sol\":9655:9670  mstore(0x00, a) */\n      mstore\n        /* \"@openzeppelin/contracts/utils/cryptography/MerkleProof.sol\":9696:9697  b */\n      dup2\n        /* \"@openzeppelin/contracts/utils/cryptography/MerkleProof.sol\":9690:9694  0x20 */\n      0x20\n        /* \"@openzeppelin/contracts/utils/cryptography/MerkleProof.sol\":9683:9698  mstore(0x20, b) */\n      mstore\n        /* \"@openzeppelin/contracts/utils/cryptography/MerkleProof.sol\":9736:9740  0x40 */\n      0x40\n        /* \"@openzeppelin/contracts/utils/cryptography/MerkleProof.sol\":9730:9734  0x00 */\n      0x00\n        /* \"@openzeppelin/contracts/utils/cryptography/MerkleProof.sol\":9720:9741  keccak256(0x00, 0x40) */\n      keccak256\n        /* \"@openzeppelin/contracts/utils/cryptography/MerkleProof.sol\":9711:9741  value := keccak256(0x00, 0x40) */\n      swap1\n      pop\n        /* \"@openzeppelin/contracts/utils/cryptography/MerkleProof.sol\":9496:9757  function _efficientHash(bytes32 a, bytes32 b) private pure returns (bytes32 value) {... */\n      swap3\n      swap2\n      pop\n      pop\n      jump\t// out\n        /* \"#utility.yul\":7:84   */\n    tag_98:\n        /* \"#utility.yul\":44:51   */\n      0x00\n        /* \"#utility.yul\":73:78   */\n      dup2\n        /* \"#utility.yul\":62:78   */\n      swap1\n      pop\n        /* \"#utility.yul\":7:84   */\n      swap2\n      swap1\n      pop\n      jump\t// out\n        /* \"#utility.yul\":90:208   */\n    tag_99:\n        /* \"#utility.yul\":177:201   */\n      tag_138\n        /* \"#utility.yul\":195:200   */\n      dup2\n        /* \"#utility.yul\":177:201   */\n      tag_98\n      jump\t// in\n    tag_138:\n        /* \"#utility.yul\":172:175   */\n      dup3\n        /* \"#utility.yul\":165:202   */\n      mstore\n        /* \"#utility.yul\":90:208   */\n      pop\n      pop\n      jump\t// out\n        /* \"#utility.yul\":214:436   */\n    tag_15:\n        /* \"#utility.yul\":307:311   */\n      0x00\n        /* \"#utility.yul\":345:347   */\n      0x20\n        /* \"#utility.yul\":334:343   */\n      dup3\n        /* \"#utility.yul\":330:348   */\n      add\n        /* \"#utility.yul\":322:348   */\n      swap1\n      pop\n        /* \"#utility.yul\":358:429   */\n      tag_140\n        /* \"#utility.yul\":426:427   */\n      0x00\n        /* \"#utility.yul\":415:424   */\n      dup4\n        /* \"#utility.yul\":411:428   */\n      add\n        /* \"#utility.yul\":402:408   */\n      dup5\n        /* \"#utility.yul\":358:429   */\n      tag_99\n      jump\t// in\n    tag_140:\n        /* \"#utility.yul\":214:436   */\n      swap3\n      swap2\n      pop\n      pop\n      jump\t// out\n        /* \"#utility.yul\":442:519   */\n    tag_100:\n        /* \"#utility.yul\":479:486   */\n      0x00\n        /* \"#utility.yul\":508:513   */\n      dup2\n        /* \"#utility.yul\":497:513   */\n      swap1\n      pop\n        /* \"#utility.yul\":442:519   */\n      swap2\n      swap1\n      pop\n      jump\t// out\n        /* \"#utility.yul\":525:643   */\n    tag_101:\n        /* \"#utility.yul\":612:636   */\n      tag_143\n        /* \"#utility.yul\":630:635   */\n      dup2\n        /* \"#utility.yul\":612:636   */\n      tag_100\n      jump\t// in\n    tag_143:\n        /* \"#utility.yul\":607:610   */\n      dup3\n        /* \"#utility.yul\":600:637   */\n      mstore\n        /* \"#utility.yul\":525:643   */\n      pop\n      pop\n      jump\t// out\n        /* \"#utility.yul\":649:871   */\n    tag_20:\n        /* \"#utility.yul\":742:746   */\n      0x00\n        /* \"#utility.yul\":780:782   */\n      0x20\n        /* \"#utility.yul\":769:778   */\n      dup3\n        /* \"#utility.yul\":765:783   */\n      add\n        /* \"#utility.yul\":757:783   */\n      swap1\n      pop\n        /* \"#utility.yul\":793:864   */\n      tag_145\n        /* \"#utility.yul\":861:862   */\n      0x00\n        /* \"#utility.yul\":850:859   */\n      dup4\n        /* \"#utility.yul\":846:863   */\n      add\n        /* \"#utility.yul\":837:843   */\n      dup5\n        /* \"#utility.yul\":793:864   */\n      tag_101\n      jump\t// in\n    tag_145:\n        /* \"#utility.yul\":649:871   */\n      swap3\n      swap2\n      pop\n      pop\n      jump\t// out\n        /* \"#utility.yul\":877:952   */\n    tag_102:\n        /* \"#utility.yul\":910:916   */\n      0x00\n        /* \"#utility.yul\":943:945   */\n      0x40\n        /* \"#utility.yul\":937:946   */\n      mload\n        /* \"#utility.yul\":927:946   */\n      swap1\n      pop\n        /* \"#utility.yul\":877:952   */\n      swap1\n      jump\t// out\n        /* \"#utility.yul\":958:1075   */\n    tag_103:\n        /* \"#utility.yul\":1067:1068   */\n      0x00\n        /* \"#utility.yul\":1064:1065   */\n      dup1\n        /* \"#utility.yul\":1057:1069   */\n      revert\n        /* \"#utility.yul\":1081:1198   */\n    tag_104:\n        /* \"#utility.yul\":1190:1191   */\n      0x00\n        /* \"#utility.yul\":1187:1188   */\n      dup1\n        /* \"#utility.yul\":1180:1192   */\n      revert\n        /* \"#utility.yul\":1204:1326   */\n    tag_105:\n        /* \"#utility.yul\":1277:1301   */\n      tag_150\n        /* \"#utility.yul\":1295:1300   */\n      dup2\n        /* \"#utility.yul\":1277:1301   */\n      tag_98\n      jump\t// in\n    tag_150:\n        /* \"#utility.yul\":1270:1275   */\n      dup2\n        /* \"#utility.yul\":1267:1302   */\n      eq\n        /* \"#utility.yul\":1257:1320   */\n      tag_151\n      jumpi\n        /* \"#utility.yul\":1316:1317   */\n      0x00\n        /* \"#utility.yul\":1313:1314   */\n      dup1\n        /* \"#utility.yul\":1306:1318   */\n      revert\n        /* \"#utility.yul\":1257:1320   */\n    tag_151:\n        /* \"#utility.yul\":1204:1326   */\n      pop\n      jump\t// out\n        /* \"#utility.yul\":1332:1471   */\n    tag_106:\n        /* \"#utility.yul\":1378:1383   */\n      0x00\n        /* \"#utility.yul\":1416:1422   */\n      dup2\n        /* \"#utility.yul\":1403:1423   */\n      calldataload\n        /* \"#utility.yul\":1394:1423   */\n      swap1\n      pop\n        /* \"#utility.yul\":1432:1465   */\n      tag_153\n        /* \"#utility.yul\":1459:1464   */\n      dup2\n        /* \"#utility.yul\":1432:1465   */\n      tag_105\n      jump\t// in\n    tag_153:\n        /* \"#utility.yul\":1332:1471   */\n      swap3\n      swap2\n      pop\n      pop\n      jump\t// out\n        /* \"#utility.yul\":1477:1806   */\n    tag_24:\n        /* \"#utility.yul\":1536:1542   */\n      0x00\n        /* \"#utility.yul\":1585:1587   */\n      0x20\n        /* \"#utility.yul\":1573:1582   */\n      dup3\n        /* \"#utility.yul\":1564:1571   */\n      dup5\n        /* \"#utility.yul\":1560:1583   */\n      sub\n        /* \"#utility.yul\":1556:1588   */\n      slt\n        /* \"#utility.yul\":1553:1672   */\n      iszero\n      tag_155\n      jumpi\n        /* \"#utility.yul\":1591:1670   */\n      tag_156\n      tag_103\n      jump\t// in\n    tag_156:\n        /* \"#utility.yul\":1553:1672   */\n    tag_155:\n        /* \"#utility.yul\":1711:1712   */\n      0x00\n        /* \"#utility.yul\":1736:1789   */\n      tag_157\n        /* \"#utility.yul\":1781:1788   */\n      dup5\n        /* \"#utility.yul\":1772:1778   */\n      dup3\n        /* \"#utility.yul\":1761:1770   */\n      dup6\n        /* \"#utility.yul\":1757:1779   */\n      add\n        /* \"#utility.yul\":1736:1789   */\n      tag_106\n      jump\t// in\n    tag_157:\n        /* \"#utility.yul\":1726:1789   */\n      swap2\n      pop\n        /* \"#utility.yul\":1682:1799   */\n      pop\n        /* \"#utility.yul\":1477:1806   */\n      swap3\n      swap2\n      pop\n      pop\n      jump\t// out\n        /* \"#utility.yul\":1812:1938   */\n    tag_107:\n        /* \"#utility.yul\":1849:1856   */\n      0x00\n        /* \"#utility.yul\":1889:1931   */\n      0xffffffffffffffffffffffffffffffffffffffff\n        /* \"#utility.yul\":1882:1887   */\n      dup3\n        /* \"#utility.yul\":1878:1932   */\n      and\n        /* \"#utility.yul\":1867:1932   */\n      swap1\n      pop\n        /* \"#utility.yul\":1812:1938   */\n      swap2\n      swap1\n      pop\n      jump\t// out\n        /* \"#utility.yul\":1944:2040   */\n    tag_108:\n        /* \"#utility.yul\":1981:1988   */\n      0x00\n        /* \"#utility.yul\":2010:2034   */\n      tag_160\n        /* \"#utility.yul\":2028:2033   */\n      dup3\n        /* \"#utility.yul\":2010:2034   */\n      tag_107\n      jump\t// in\n    tag_160:\n        /* \"#utility.yul\":1999:2034   */\n      swap1\n      pop\n        /* \"#utility.yul\":1944:2040   */\n      swap2\n      swap1\n      pop\n      jump\t// out\n        /* \"#utility.yul\":2046:2168   */\n    tag_109:\n        /* \"#utility.yul\":2119:2143   */\n      tag_162\n        /* \"#utility.yul\":2137:2142   */\n      dup2\n        /* \"#utility.yul\":2119:2143   */\n      tag_108\n      jump\t// in\n    tag_162:\n        /* \"#utility.yul\":2112:2117   */\n      dup2\n        /* \"#utility.yul\":2109:2144   */\n      eq\n        /* \"#utility.yul\":2099:2162   */\n      tag_163\n      jumpi\n        /* \"#utility.yul\":2158:2159   */\n      0x00\n        /* \"#utility.yul\":2155:2156   */\n      dup1\n        /* \"#utility.yul\":2148:2160   */\n      revert\n        /* \"#utility.yul\":2099:2162   */\n    tag_163:\n        /* \"#utility.yul\":2046:2168   */\n      pop\n      jump\t// out\n        /* \"#utility.yul\":2174:2313   */\n    tag_110:\n        /* \"#utility.yul\":2220:2225   */\n      0x00\n        /* \"#utility.yul\":2258:2264   */\n      dup2\n        /* \"#utility.yul\":2245:2265   */\n      calldataload\n        /* \"#utility.yul\":2236:2265   */\n      swap1\n      pop\n        /* \"#utility.yul\":2274:2307   */\n      tag_165\n        /* \"#utility.yul\":2301:2306   */\n      dup2\n        /* \"#utility.yul\":2274:2307   */\n      tag_109\n      jump\t// in\n    tag_165:\n        /* \"#utility.yul\":2174:2313   */\n      swap3\n      swap2\n      pop\n      pop\n      jump\t// out\n        /* \"#utility.yul\":2319:2648   */\n    tag_29:\n        /* \"#utility.yul\":2378:2384   */\n      0x00\n        /* \"#utility.yul\":2427:2429   */\n      0x20\n        /* \"#utility.yul\":2415:2424   */\n      dup3\n        /* \"#utility.yul\":2406:2413   */\n      dup5\n        /* \"#utility.yul\":2402:2425   */\n      sub\n        /* \"#utility.yul\":2398:2430   */\n      slt\n        /* \"#utility.yul\":2395:2514   */\n      iszero\n      tag_167\n      jumpi\n        /* \"#utility.yul\":2433:2512   */\n      tag_168\n      tag_103\n      jump\t// in\n    tag_168:\n        /* \"#utility.yul\":2395:2514   */\n    tag_167:\n        /* \"#utility.yul\":2553:2554   */\n      0x00\n        /* \"#utility.yul\":2578:2631   */\n      tag_169\n        /* \"#utility.yul\":2623:2630   */\n      dup5\n        /* \"#utility.yul\":2614:2620   */\n      dup3\n        /* \"#utility.yul\":2603:2612   */\n      dup6\n        /* \"#utility.yul\":2599:2621   */\n      add\n        /* \"#utility.yul\":2578:2631   */\n      tag_110\n      jump\t// in\n    tag_169:\n        /* \"#utility.yul\":2568:2631   */\n      swap2\n      pop\n        /* \"#utility.yul\":2524:2641   */\n      pop\n        /* \"#utility.yul\":2319:2648   */\n      swap3\n      swap2\n      pop\n      pop\n      jump\t// out\n        /* \"#utility.yul\":2654:2771   */\n    tag_111:\n        /* \"#utility.yul\":2763:2764   */\n      0x00\n        /* \"#utility.yul\":2760:2761   */\n      dup1\n        /* \"#utility.yul\":2753:2765   */\n      revert\n        /* \"#utility.yul\":2777:2879   */\n    tag_112:\n        /* \"#utility.yul\":2818:2824   */\n      0x00\n        /* \"#utility.yul\":2869:2871   */\n      0x1f\n        /* \"#utility.yul\":2865:2872   */\n      not\n        /* \"#utility.yul\":2860:2862   */\n      0x1f\n        /* \"#utility.yul\":2853:2858   */\n      dup4\n        /* \"#utility.yul\":2849:2863   */\n      add\n        /* \"#utility.yul\":2845:2873   */\n      and\n        /* \"#utility.yul\":2835:2873   */\n      swap1\n      pop\n        /* \"#utility.yul\":2777:2879   */\n      swap2\n      swap1\n      pop\n      jump\t// out\n        /* \"#utility.yul\":2885:3065   */\n    tag_113:\n        /* \"#utility.yul\":2933:3010   */\n      0x4e487b7100000000000000000000000000000000000000000000000000000000\n        /* \"#utility.yul\":2930:2931   */\n      0x00\n        /* \"#utility.yul\":2923:3011   */\n      mstore\n        /* \"#utility.yul\":3030:3034   */\n      0x41\n        /* \"#utility.yul\":3027:3028   */\n      0x04\n        /* \"#utility.yul\":3020:3035   */\n      mstore\n        /* \"#utility.yul\":3054:3058   */\n      0x24\n        /* \"#utility.yul\":3051:3052   */\n      0x00\n        /* \"#utility.yul\":3044:3059   */\n      revert\n        /* \"#utility.yul\":3071:3352   */\n    tag_114:\n        /* \"#utility.yul\":3154:3181   */\n      tag_174\n        /* \"#utility.yul\":3176:3180   */\n      dup3\n        /* \"#utility.yul\":3154:3181   */\n      tag_112\n      jump\t// in\n    tag_174:\n        /* \"#utility.yul\":3146:3152   */\n      dup2\n        /* \"#utility.yul\":3142:3182   */\n      add\n        /* \"#utility.yul\":3284:3290   */\n      dup2\n        /* \"#utility.yul\":3272:3282   */\n      dup2\n        /* \"#utility.yul\":3269:3291   */\n      lt\n        /* \"#utility.yul\":3248:3266   */\n      0xffffffffffffffff\n        /* \"#utility.yul\":3236:3246   */\n      dup3\n        /* \"#utility.yul\":3233:3267   */\n      gt\n        /* \"#utility.yul\":3230:3292   */\n      or\n        /* \"#utility.yul\":3227:3315   */\n      iszero\n      tag_175\n      jumpi\n        /* \"#utility.yul\":3295:3313   */\n      tag_176\n      tag_113\n      jump\t// in\n    tag_176:\n        /* \"#utility.yul\":3227:3315   */\n    tag_175:\n        /* \"#utility.yul\":3335:3345   */\n      dup1\n        /* \"#utility.yul\":3331:3333   */\n      0x40\n        /* \"#utility.yul\":3324:3346   */\n      mstore\n        /* \"#utility.yul\":3114:3352   */\n      pop\n        /* \"#utility.yul\":3071:3352   */\n      pop\n      pop\n      jump\t// out\n        /* \"#utility.yul\":3358:3487   */\n    tag_115:\n        /* \"#utility.yul\":3392:3398   */\n      0x00\n        /* \"#utility.yul\":3419:3439   */\n      tag_178\n      tag_102\n      jump\t// in\n    tag_178:\n        /* \"#utility.yul\":3409:3439   */\n      swap1\n      pop\n        /* \"#utility.yul\":3448:3481   */\n      tag_179\n        /* \"#utility.yul\":3476:3480   */\n      dup3\n        /* \"#utility.yul\":3468:3474   */\n      dup3\n        /* \"#utility.yul\":3448:3481   */\n      tag_114\n      jump\t// in\n    tag_179:\n        /* \"#utility.yul\":3358:3487   */\n      swap2\n      swap1\n      pop\n      jump\t// out\n        /* \"#utility.yul\":3493:3804   */\n    tag_116:\n        /* \"#utility.yul\":3570:3574   */\n      0x00\n        /* \"#utility.yul\":3660:3678   */\n      0xffffffffffffffff\n        /* \"#utility.yul\":3652:3658   */\n      dup3\n        /* \"#utility.yul\":3649:3679   */\n      gt\n        /* \"#utility.yul\":3646:3702   */\n      iszero\n      tag_181\n      jumpi\n        /* \"#utility.yul\":3682:3700   */\n      tag_182\n      tag_113\n      jump\t// in\n    tag_182:\n        /* \"#utility.yul\":3646:3702   */\n    tag_181:\n        /* \"#utility.yul\":3732:3736   */\n      0x20\n        /* \"#utility.yul\":3724:3730   */\n      dup3\n        /* \"#utility.yul\":3720:3737   */\n      mul\n        /* \"#utility.yul\":3712:3737   */\n      swap1\n      pop\n        /* \"#utility.yul\":3792:3796   */\n      0x20\n        /* \"#utility.yul\":3786:3790   */\n      dup2\n        /* \"#utility.yul\":3782:3797   */\n      add\n        /* \"#utility.yul\":3774:3797   */\n      swap1\n      pop\n        /* \"#utility.yul\":3493:3804   */\n      swap2\n      swap1\n      pop\n      jump\t// out\n        /* \"#utility.yul\":3810:3927   */\n    tag_117:\n        /* \"#utility.yul\":3919:3920   */\n      0x00\n        /* \"#utility.yul\":3916:3917   */\n      dup1\n        /* \"#utility.yul\":3909:3921   */\n      revert\n        /* \"#utility.yul\":3933:4055   */\n    tag_118:\n        /* \"#utility.yul\":4006:4030   */\n      tag_185\n        /* \"#utility.yul\":4024:4029   */\n      dup2\n        /* \"#utility.yul\":4006:4030   */\n      tag_100\n      jump\t// in\n    tag_185:\n        /* \"#utility.yul\":3999:4004   */\n      dup2\n        /* \"#utility.yul\":3996:4031   */\n      eq\n        /* \"#utility.yul\":3986:4049   */\n      tag_186\n      jumpi\n        /* \"#utility.yul\":4045:4046   */\n      0x00\n        /* \"#utility.yul\":4042:4043   */\n      dup1\n        /* \"#utility.yul\":4035:4047   */\n      revert\n        /* \"#utility.yul\":3986:4049   */\n    tag_186:\n        /* \"#utility.yul\":3933:4055   */\n      pop\n      jump\t// out\n        /* \"#utility.yul\":4061:4200   */\n    tag_119:\n        /* \"#utility.yul\":4107:4112   */\n      0x00\n        /* \"#utility.yul\":4145:4151   */\n      dup2\n        /* \"#utility.yul\":4132:4152   */\n      calldataload\n        /* \"#utility.yul\":4123:4152   */\n      swap1\n      pop\n        /* \"#utility.yul\":4161:4194   */\n      tag_188\n        /* \"#utility.yul\":4188:4193   */\n      dup2\n        /* \"#utility.yul\":4161:4194   */\n      tag_118\n      jump\t// in\n    tag_188:\n        /* \"#utility.yul\":4061:4200   */\n      swap3\n      swap2\n      pop\n      pop\n      jump\t// out\n        /* \"#utility.yul\":4223:4933   */\n    tag_120:\n        /* \"#utility.yul\":4319:4324   */\n      0x00\n        /* \"#utility.yul\":4344:4425   */\n      tag_190\n        /* \"#utility.yul\":4360:4424   */\n      tag_191\n        /* \"#utility.yul\":4417:4423   */\n      dup5\n        /* \"#utility.yul\":4360:4424   */\n      tag_116\n      jump\t// in\n    tag_191:\n        /* \"#utility.yul\":4344:4425   */\n      tag_115\n      jump\t// in\n    tag_190:\n        /* \"#utility.yul\":4335:4425   */\n      swap1\n      pop\n        /* \"#utility.yul\":4445:4450   */\n      dup1\n        /* \"#utility.yul\":4474:4480   */\n      dup4\n        /* \"#utility.yul\":4467:4472   */\n      dup3\n        /* \"#utility.yul\":4460:4481   */\n      mstore\n        /* \"#utility.yul\":4508:4512   */\n      0x20\n        /* \"#utility.yul\":4501:4506   */\n      dup3\n        /* \"#utility.yul\":4497:4513   */\n      add\n        /* \"#utility.yul\":4490:4513   */\n      swap1\n      pop\n        /* \"#utility.yul\":4561:4565   */\n      0x20\n        /* \"#utility.yul\":4553:4559   */\n      dup5\n        /* \"#utility.yul\":4549:4566   */\n      mul\n        /* \"#utility.yul\":4541:4547   */\n      dup4\n        /* \"#utility.yul\":4537:4567   */\n      add\n        /* \"#utility.yul\":4590:4593   */\n      dup6\n        /* \"#utility.yul\":4582:4588   */\n      dup2\n        /* \"#utility.yul\":4579:4594   */\n      gt\n        /* \"#utility.yul\":4576:4698   */\n      iszero\n      tag_192\n      jumpi\n        /* \"#utility.yul\":4609:4688   */\n      tag_193\n      tag_117\n      jump\t// in\n    tag_193:\n        /* \"#utility.yul\":4576:4698   */\n    tag_192:\n        /* \"#utility.yul\":4724:4730   */\n      dup4\n        /* \"#utility.yul\":4707:4927   */\n    tag_194:\n        /* \"#utility.yul\":4741:4747   */\n      dup2\n        /* \"#utility.yul\":4736:4739   */\n      dup2\n        /* \"#utility.yul\":4733:4748   */\n      lt\n        /* \"#utility.yul\":4707:4927   */\n      iszero\n      tag_196\n      jumpi\n        /* \"#utility.yul\":4816:4819   */\n      dup1\n        /* \"#utility.yul\":4845:4882   */\n      tag_197\n        /* \"#utility.yul\":4878:4881   */\n      dup9\n        /* \"#utility.yul\":4866:4876   */\n      dup3\n        /* \"#utility.yul\":4845:4882   */\n      tag_119\n      jump\t// in\n    tag_197:\n        /* \"#utility.yul\":4840:4843   */\n      dup5\n        /* \"#utility.yul\":4833:4883   */\n      mstore\n        /* \"#utility.yul\":4912:4916   */\n      0x20\n        /* \"#utility.yul\":4907:4910   */\n      dup5\n        /* \"#utility.yul\":4903:4917   */\n      add\n        /* \"#utility.yul\":4896:4917   */\n      swap4\n      pop\n        /* \"#utility.yul\":4783:4927   */\n      pop\n        /* \"#utility.yul\":4767:4771   */\n      0x20\n        /* \"#utility.yul\":4762:4765   */\n      dup2\n        /* \"#utility.yul\":4758:4772   */\n      add\n        /* \"#utility.yul\":4751:4772   */\n      swap1\n      pop\n        /* \"#utility.yul\":4707:4927   */\n      jump(tag_194)\n    tag_196:\n        /* \"#utility.yul\":4711:4732   */\n      pop\n        /* \"#utility.yul\":4325:4933   */\n      pop\n      pop\n        /* \"#utility.yul\":4223:4933   */\n      swap4\n      swap3\n      pop\n      pop\n      pop\n      jump\t// out\n        /* \"#utility.yul\":4956:5326   */\n    tag_121:\n        /* \"#utility.yul\":5027:5032   */\n      0x00\n        /* \"#utility.yul\":5076:5079   */\n      dup3\n        /* \"#utility.yul\":5069:5073   */\n      0x1f\n        /* \"#utility.yul\":5061:5067   */\n      dup4\n        /* \"#utility.yul\":5057:5074   */\n      add\n        /* \"#utility.yul\":5053:5080   */\n      slt\n        /* \"#utility.yul\":5043:5165   */\n      tag_199\n      jumpi\n        /* \"#utility.yul\":5084:5163   */\n      tag_200\n      tag_111\n      jump\t// in\n    tag_200:\n        /* \"#utility.yul\":5043:5165   */\n    tag_199:\n        /* \"#utility.yul\":5201:5207   */\n      dup2\n        /* \"#utility.yul\":5188:5208   */\n      calldataload\n        /* \"#utility.yul\":5226:5320   */\n      tag_201\n        /* \"#utility.yul\":5316:5319   */\n      dup5\n        /* \"#utility.yul\":5308:5314   */\n      dup3\n        /* \"#utility.yul\":5301:5305   */\n      0x20\n        /* \"#utility.yul\":5293:5299   */\n      dup7\n        /* \"#utility.yul\":5289:5306   */\n      add\n        /* \"#utility.yul\":5226:5320   */\n      tag_120\n      jump\t// in\n    tag_201:\n        /* \"#utility.yul\":5217:5320   */\n      swap2\n      pop\n        /* \"#utility.yul\":5033:5326   */\n      pop\n        /* \"#utility.yul\":4956:5326   */\n      swap3\n      swap2\n      pop\n      pop\n      jump\t// out\n        /* \"#utility.yul\":5332:5871   */\n    tag_37:\n        /* \"#utility.yul\":5416:5422   */\n      0x00\n        /* \"#utility.yul\":5465:5467   */\n      0x20\n        /* \"#utility.yul\":5453:5462   */\n      dup3\n        /* \"#utility.yul\":5444:5451   */\n      dup5\n        /* \"#utility.yul\":5440:5463   */\n      sub\n        /* \"#utility.yul\":5436:5468   */\n      slt\n        /* \"#utility.yul\":5433:5552   */\n      iszero\n      tag_203\n      jumpi\n        /* \"#utility.yul\":5471:5550   */\n      tag_204\n      tag_103\n      jump\t// in\n    tag_204:\n        /* \"#utility.yul\":5433:5552   */\n    tag_203:\n        /* \"#utility.yul\":5619:5620   */\n      0x00\n        /* \"#utility.yul\":5608:5617   */\n      dup3\n        /* \"#utility.yul\":5604:5621   */\n      add\n        /* \"#utility.yul\":5591:5622   */\n      calldataload\n        /* \"#utility.yul\":5649:5667   */\n      0xffffffffffffffff\n        /* \"#utility.yul\":5641:5647   */\n      dup2\n        /* \"#utility.yul\":5638:5668   */\n      gt\n        /* \"#utility.yul\":5635:5752   */\n      iszero\n      tag_205\n      jumpi\n        /* \"#utility.yul\":5671:5750   */\n      tag_206\n      tag_104\n      jump\t// in\n    tag_206:\n        /* \"#utility.yul\":5635:5752   */\n    tag_205:\n        /* \"#utility.yul\":5776:5854   */\n      tag_207\n        /* \"#utility.yul\":5846:5853   */\n      dup5\n        /* \"#utility.yul\":5837:5843   */\n      dup3\n        /* \"#utility.yul\":5826:5835   */\n      dup6\n        /* \"#utility.yul\":5822:5844   */\n      add\n        /* \"#utility.yul\":5776:5854   */\n      tag_121\n      jump\t// in\n    tag_207:\n        /* \"#utility.yul\":5766:5854   */\n      swap2\n      pop\n        /* \"#utility.yul\":5562:5864   */\n      pop\n        /* \"#utility.yul\":5332:5871   */\n      swap3\n      swap2\n      pop\n      pop\n      jump\t// out\n        /* \"#utility.yul\":5877:5995   */\n    tag_122:\n        /* \"#utility.yul\":5964:5988   */\n      tag_209\n        /* \"#utility.yul\":5982:5987   */\n      dup2\n        /* \"#utility.yul\":5964:5988   */\n      tag_108\n      jump\t// in\n    tag_209:\n        /* \"#utility.yul\":5959:5962   */\n      dup3\n        /* \"#utility.yul\":5952:5989   */\n      mstore\n        /* \"#utility.yul\":5877:5995   */\n      pop\n      pop\n      jump\t// out\n        /* \"#utility.yul\":6001:6223   */\n    tag_48:\n        /* \"#utility.yul\":6094:6098   */\n      0x00\n        /* \"#utility.yul\":6132:6134   */\n      0x20\n        /* \"#utility.yul\":6121:6130   */\n      dup3\n        /* \"#utility.yul\":6117:6135   */\n      add\n        /* \"#utility.yul\":6109:6135   */\n      swap1\n      pop\n        /* \"#utility.yul\":6145:6216   */\n      tag_211\n        /* \"#utility.yul\":6213:6214   */\n      0x00\n        /* \"#utility.yul\":6202:6211   */\n      dup4\n        /* \"#utility.yul\":6198:6215   */\n      add\n        /* \"#utility.yul\":6189:6195   */\n      dup5\n        /* \"#utility.yul\":6145:6216   */\n      tag_122\n      jump\t// in\n    tag_211:\n        /* \"#utility.yul\":6001:6223   */\n      swap3\n      swap2\n      pop\n      pop\n      jump\t// out\n        /* \"#utility.yul\":6229:6409   */\n    tag_123:\n        /* \"#utility.yul\":6277:6354   */\n      0x4e487b7100000000000000000000000000000000000000000000000000000000\n        /* \"#utility.yul\":6274:6275   */\n      0x00\n        /* \"#utility.yul\":6267:6355   */\n      mstore\n        /* \"#utility.yul\":6374:6378   */\n      0x11\n        /* \"#utility.yul\":6371:6372   */\n      0x04\n        /* \"#utility.yul\":6364:6379   */\n      mstore\n        /* \"#utility.yul\":6398:6402   */\n      0x24\n        /* \"#utility.yul\":6395:6396   */\n      0x00\n        /* \"#utility.yul\":6388:6403   */\n      revert\n        /* \"#utility.yul\":6415:6609   */\n    tag_51:\n        /* \"#utility.yul\":6455:6459   */\n      0x00\n        /* \"#utility.yul\":6475:6495   */\n      tag_214\n        /* \"#utility.yul\":6493:6494   */\n      dup3\n        /* \"#utility.yul\":6475:6495   */\n      tag_98\n      jump\t// in\n    tag_214:\n        /* \"#utility.yul\":6470:6495   */\n      swap2\n      pop\n        /* \"#utility.yul\":6509:6529   */\n      tag_215\n        /* \"#utility.yul\":6527:6528   */\n      dup4\n        /* \"#utility.yul\":6509:6529   */\n      tag_98\n      jump\t// in\n    tag_215:\n        /* \"#utility.yul\":6504:6529   */\n      swap3\n      pop\n        /* \"#utility.yul\":6553:6554   */\n      dup3\n        /* \"#utility.yul\":6550:6551   */\n      dup3\n        /* \"#utility.yul\":6546:6555   */\n      sub\n        /* \"#utility.yul\":6538:6555   */\n      swap1\n      pop\n        /* \"#utility.yul\":6577:6578   */\n      dup2\n        /* \"#utility.yul\":6571:6575   */\n      dup2\n        /* \"#utility.yul\":6568:6579   */\n      gt\n        /* \"#utility.yul\":6565:6602   */\n      iszero\n      tag_216\n      jumpi\n        /* \"#utility.yul\":6582:6600   */\n      tag_217\n      tag_123\n      jump\t// in\n    tag_217:\n        /* \"#utility.yul\":6565:6602   */\n    tag_216:\n        /* \"#utility.yul\":6415:6609   */\n      swap3\n      swap2\n      pop\n      pop\n      jump\t// out\n        /* \"#utility.yul\":6615:6784   */\n    tag_124:\n        /* \"#utility.yul\":6699:6710   */\n      0x00\n        /* \"#utility.yul\":6733:6739   */\n      dup3\n        /* \"#utility.yul\":6728:6731   */\n      dup3\n        /* \"#utility.yul\":6721:6740   */\n      mstore\n        /* \"#utility.yul\":6773:6777   */\n      0x20\n        /* \"#utility.yul\":6768:6771   */\n      dup3\n        /* \"#utility.yul\":6764:6778   */\n      add\n        /* \"#utility.yul\":6749:6778   */\n      swap1\n      pop\n        /* \"#utility.yul\":6615:6784   */\n      swap3\n      swap2\n      pop\n      pop\n      jump\t// out\n        /* \"#utility.yul\":6790:6949   */\n    tag_125:\n        /* \"#utility.yul\":6930:6941   */\n      0x4e6f7420416c6c6f770000000000000000000000000000000000000000000000\n        /* \"#utility.yul\":6926:6927   */\n      0x00\n        /* \"#utility.yul\":6918:6924   */\n      dup3\n        /* \"#utility.yul\":6914:6928   */\n      add\n        /* \"#utility.yul\":6907:6942   */\n      mstore\n        /* \"#utility.yul\":6790:6949   */\n      pop\n      jump\t// out\n        /* \"#utility.yul\":6955:7320   */\n    tag_126:\n        /* \"#utility.yul\":7097:7100   */\n      0x00\n        /* \"#utility.yul\":7118:7184   */\n      tag_221\n        /* \"#utility.yul\":7182:7183   */\n      0x09\n        /* \"#utility.yul\":7177:7180   */\n      dup4\n        /* \"#utility.yul\":7118:7184   */\n      tag_124\n      jump\t// in\n    tag_221:\n        /* \"#utility.yul\":7111:7184   */\n      swap2\n      pop\n        /* \"#utility.yul\":7193:7286   */\n      tag_222\n        /* \"#utility.yul\":7282:7285   */\n      dup3\n        /* \"#utility.yul\":7193:7286   */\n      tag_125\n      jump\t// in\n    tag_222:\n        /* \"#utility.yul\":7311:7313   */\n      0x20\n        /* \"#utility.yul\":7306:7309   */\n      dup3\n        /* \"#utility.yul\":7302:7314   */\n      add\n        /* \"#utility.yul\":7295:7314   */\n      swap1\n      pop\n        /* \"#utility.yul\":6955:7320   */\n      swap2\n      swap1\n      pop\n      jump\t// out\n        /* \"#utility.yul\":7326:7745   */\n    tag_55:\n        /* \"#utility.yul\":7492:7496   */\n      0x00\n        /* \"#utility.yul\":7530:7532   */\n      0x20\n        /* \"#utility.yul\":7519:7528   */\n      dup3\n        /* \"#utility.yul\":7515:7533   */\n      add\n        /* \"#utility.yul\":7507:7533   */\n      swap1\n      pop\n        /* \"#utility.yul\":7579:7588   */\n      dup2\n        /* \"#utility.yul\":7573:7577   */\n      dup2\n        /* \"#utility.yul\":7569:7589   */\n      sub\n        /* \"#utility.yul\":7565:7566   */\n      0x00\n        /* \"#utility.yul\":7554:7563   */\n      dup4\n        /* \"#utility.yul\":7550:7567   */\n      add\n        /* \"#utility.yul\":7543:7590   */\n      mstore\n        /* \"#utility.yul\":7607:7738   */\n      tag_224\n        /* \"#utility.yul\":7733:7737   */\n      dup2\n        /* \"#utility.yul\":7607:7738   */\n      tag_126\n      jump\t// in\n    tag_224:\n        /* \"#utility.yul\":7599:7738   */\n      swap1\n      pop\n        /* \"#utility.yul\":7326:7745   */\n      swap2\n      swap1\n      pop\n      jump\t// out\n        /* \"#utility.yul\":7751:7929   */\n    tag_127:\n        /* \"#utility.yul\":7891:7921   */\n      0x496e73756666696369656e74204163636f756e742042616c616e636500000000\n        /* \"#utility.yul\":7887:7888   */\n      0x00\n        /* \"#utility.yul\":7879:7885   */\n      dup3\n        /* \"#utility.yul\":7875:7889   */\n      add\n        /* \"#utility.yul\":7868:7922   */\n      mstore\n        /* \"#utility.yul\":7751:7929   */\n      pop\n      jump\t// out\n        /* \"#utility.yul\":7935:8301   */\n    tag_128:\n        /* \"#utility.yul\":8077:8080   */\n      0x00\n        /* \"#utility.yul\":8098:8165   */\n      tag_227\n        /* \"#utility.yul\":8162:8164   */\n      0x1c\n        /* \"#utility.yul\":8157:8160   */\n      dup4\n        /* \"#utility.yul\":8098:8165   */\n      tag_124\n      jump\t// in\n    tag_227:\n        /* \"#utility.yul\":8091:8165   */\n      swap2\n      pop\n        /* \"#utility.yul\":8174:8267   */\n      tag_228\n        /* \"#utility.yul\":8263:8266   */\n      dup3\n        /* \"#utility.yul\":8174:8267   */\n      tag_127\n      jump\t// in\n    tag_228:\n        /* \"#utility.yul\":8292:8294   */\n      0x20\n        /* \"#utility.yul\":8287:8290   */\n      dup3\n        /* \"#utility.yul\":8283:8295   */\n      add\n        /* \"#utility.yul\":8276:8295   */\n      swap1\n      pop\n        /* \"#utility.yul\":7935:8301   */\n      swap2\n      swap1\n      pop\n      jump\t// out\n        /* \"#utility.yul\":8307:8726   */\n    tag_60:\n        /* \"#utility.yul\":8473:8477   */\n      0x00\n        /* \"#utility.yul\":8511:8513   */\n      0x20\n        /* \"#utility.yul\":8500:8509   */\n      dup3\n        /* \"#utility.yul\":8496:8514   */\n      add\n        /* \"#utility.yul\":8488:8514   */\n      swap1\n      pop\n        /* \"#utility.yul\":8560:8569   */\n      dup2\n        /* \"#utility.yul\":8554:8558   */\n      dup2\n        /* \"#utility.yul\":8550:8570   */\n      sub\n        /* \"#utility.yul\":8546:8547   */\n      0x00\n        /* \"#utility.yul\":8535:8544   */\n      dup4\n        /* \"#utility.yul\":8531:8548   */\n      add\n        /* \"#utility.yul\":8524:8571   */\n      mstore\n        /* \"#utility.yul\":8588:8719   */\n      tag_230\n        /* \"#utility.yul\":8714:8718   */\n      dup2\n        /* \"#utility.yul\":8588:8719   */\n      tag_128\n      jump\t// in\n    tag_230:\n        /* \"#utility.yul\":8580:8719   */\n      swap1\n      pop\n        /* \"#utility.yul\":8307:8726   */\n      swap2\n      swap1\n      pop\n      jump\t// out\n        /* \"#utility.yul\":8732:8923   */\n    tag_63:\n        /* \"#utility.yul\":8772:8775   */\n      0x00\n        /* \"#utility.yul\":8791:8811   */\n      tag_232\n        /* \"#utility.yul\":8809:8810   */\n      dup3\n        /* \"#utility.yul\":8791:8811   */\n      tag_98\n      jump\t// in\n    tag_232:\n        /* \"#utility.yul\":8786:8811   */\n      swap2\n      pop\n        /* \"#utility.yul\":8825:8845   */\n      tag_233\n        /* \"#utility.yul\":8843:8844   */\n      dup4\n        /* \"#utility.yul\":8825:8845   */\n      tag_98\n      jump\t// in\n    tag_233:\n        /* \"#utility.yul\":8820:8845   */\n      swap3\n      pop\n        /* \"#utility.yul\":8868:8869   */\n      dup3\n        /* \"#utility.yul\":8865:8866   */\n      dup3\n        /* \"#utility.yul\":8861:8870   */\n      add\n        /* \"#utility.yul\":8854:8870   */\n      swap1\n      pop\n        /* \"#utility.yul\":8889:8892   */\n      dup1\n        /* \"#utility.yul\":8886:8887   */\n      dup3\n        /* \"#utility.yul\":8883:8893   */\n      gt\n        /* \"#utility.yul\":8880:8916   */\n      iszero\n      tag_234\n      jumpi\n        /* \"#utility.yul\":8896:8914   */\n      tag_235\n      tag_123\n      jump\t// in\n    tag_235:\n        /* \"#utility.yul\":8880:8916   */\n    tag_234:\n        /* \"#utility.yul\":8732:8923   */\n      swap3\n      swap2\n      pop\n      pop\n      jump\t// out\n        /* \"#utility.yul\":8929:9023   */\n    tag_129:\n        /* \"#utility.yul\":8962:8970   */\n      0x00\n        /* \"#utility.yul\":9010:9015   */\n      dup2\n        /* \"#utility.yul\":9006:9008   */\n      0x60\n        /* \"#utility.yul\":9002:9016   */\n      shl\n        /* \"#utility.yul\":8981:9016   */\n      swap1\n      pop\n        /* \"#utility.yul\":8929:9023   */\n      swap2\n      swap1\n      pop\n      jump\t// out\n        /* \"#utility.yul\":9029:9123   */\n    tag_130:\n        /* \"#utility.yul\":9068:9075   */\n      0x00\n        /* \"#utility.yul\":9097:9117   */\n      tag_238\n        /* \"#utility.yul\":9111:9116   */\n      dup3\n        /* \"#utility.yul\":9097:9117   */\n      tag_129\n      jump\t// in\n    tag_238:\n        /* \"#utility.yul\":9086:9117   */\n      swap1\n      pop\n        /* \"#utility.yul\":9029:9123   */\n      swap2\n      swap1\n      pop\n      jump\t// out\n        /* \"#utility.yul\":9129:9229   */\n    tag_131:\n        /* \"#utility.yul\":9168:9175   */\n      0x00\n        /* \"#utility.yul\":9197:9223   */\n      tag_240\n        /* \"#utility.yul\":9217:9222   */\n      dup3\n        /* \"#utility.yul\":9197:9223   */\n      tag_130\n      jump\t// in\n    tag_240:\n        /* \"#utility.yul\":9186:9223   */\n      swap1\n      pop\n        /* \"#utility.yul\":9129:9229   */\n      swap2\n      swap1\n      pop\n      jump\t// out\n        /* \"#utility.yul\":9235:9392   */\n    tag_132:\n        /* \"#utility.yul\":9340:9385   */\n      tag_242\n        /* \"#utility.yul\":9360:9384   */\n      tag_243\n        /* \"#utility.yul\":9378:9383   */\n      dup3\n        /* \"#utility.yul\":9360:9384   */\n      tag_108\n      jump\t// in\n    tag_243:\n        /* \"#utility.yul\":9340:9385   */\n      tag_131\n      jump\t// in\n    tag_242:\n        /* \"#utility.yul\":9335:9338   */\n      dup3\n        /* \"#utility.yul\":9328:9386   */\n      mstore\n        /* \"#utility.yul\":9235:9392   */\n      pop\n      pop\n      jump\t// out\n        /* \"#utility.yul\":9398:9654   */\n    tag_73:\n        /* \"#utility.yul\":9510:9513   */\n      0x00\n        /* \"#utility.yul\":9525:9600   */\n      tag_245\n        /* \"#utility.yul\":9596:9599   */\n      dup3\n        /* \"#utility.yul\":9587:9593   */\n      dup5\n        /* \"#utility.yul\":9525:9600   */\n      tag_132\n      jump\t// in\n    tag_245:\n        /* \"#utility.yul\":9625:9627   */\n      0x14\n        /* \"#utility.yul\":9620:9623   */\n      dup3\n        /* \"#utility.yul\":9616:9628   */\n      add\n        /* \"#utility.yul\":9609:9628   */\n      swap2\n      pop\n        /* \"#utility.yul\":9645:9648   */\n      dup2\n        /* \"#utility.yul\":9638:9648   */\n      swap1\n      pop\n        /* \"#utility.yul\":9398:9654   */\n      swap3\n      swap2\n      pop\n      pop\n      jump\t// out\n        /* \"#utility.yul\":9660:9831   */\n    tag_133:\n        /* \"#utility.yul\":9800:9823   */\n      0x496e76616c6964204d65726b6c652050726f6f662e0000000000000000000000\n        /* \"#utility.yul\":9796:9797   */\n      0x00\n        /* \"#utility.yul\":9788:9794   */\n      dup3\n        /* \"#utility.yul\":9784:9798   */\n      add\n        /* \"#utility.yul\":9777:9824   */\n      mstore\n        /* \"#utility.yul\":9660:9831   */\n      pop\n      jump\t// out\n        /* \"#utility.yul\":9837:10203   */\n    tag_134:\n        /* \"#utility.yul\":9979:9982   */\n      0x00\n        /* \"#utility.yul\":10000:10067   */\n      tag_248\n        /* \"#utility.yul\":10064:10066   */\n      0x15\n        /* \"#utility.yul\":10059:10062   */\n      dup4\n        /* \"#utility.yul\":10000:10067   */\n      tag_124\n      jump\t// in\n    tag_248:\n        /* \"#utility.yul\":9993:10067   */\n      swap2\n      pop\n        /* \"#utility.yul\":10076:10169   */\n      tag_249\n        /* \"#utility.yul\":10165:10168   */\n      dup3\n        /* \"#utility.yul\":10076:10169   */\n      tag_133\n      jump\t// in\n    tag_249:\n        /* \"#utility.yul\":10194:10196   */\n      0x20\n        /* \"#utility.yul\":10189:10192   */\n      dup3\n        /* \"#utility.yul\":10185:10197   */\n      add\n        /* \"#utility.yul\":10178:10197   */\n      swap1\n      pop\n        /* \"#utility.yul\":9837:10203   */\n      swap2\n      swap1\n      pop\n      jump\t// out\n        /* \"#utility.yul\":10209:10628   */\n    tag_78:\n        /* \"#utility.yul\":10375:10379   */\n      0x00\n        /* \"#utility.yul\":10413:10415   */\n      0x20\n        /* \"#utility.yul\":10402:10411   */\n      dup3\n        /* \"#utility.yul\":10398:10416   */\n      add\n        /* \"#utility.yul\":10390:10416   */\n      swap1\n      pop\n        /* \"#utility.yul\":10462:10471   */\n      dup2\n        /* \"#utility.yul\":10456:10460   */\n      dup2\n        /* \"#utility.yul\":10452:10472   */\n      sub\n        /* \"#utility.yul\":10448:10449   */\n      0x00\n        /* \"#utility.yul\":10437:10446   */\n      dup4\n        /* \"#utility.yul\":10433:10450   */\n      add\n        /* \"#utility.yul\":10426:10473   */\n      mstore\n        /* \"#utility.yul\":10490:10621   */\n      tag_251\n        /* \"#utility.yul\":10616:10620   */\n      dup2\n        /* \"#utility.yul\":10490:10621   */\n      tag_134\n      jump\t// in\n    tag_251:\n        /* \"#utility.yul\":10482:10621   */\n      swap1\n      pop\n        /* \"#utility.yul\":10209:10628   */\n      swap2\n      swap1\n      pop\n      jump\t// out\n        /* \"#utility.yul\":10634:10814   */\n    tag_89:\n        /* \"#utility.yul\":10682:10759   */\n      0x4e487b7100000000000000000000000000000000000000000000000000000000\n        /* \"#utility.yul\":10679:10680   */\n      0x00\n        /* \"#utility.yul\":10672:10760   */\n      mstore\n        /* \"#utility.yul\":10779:10783   */\n      0x32\n        /* \"#utility.yul\":10776:10777   */\n      0x04\n        /* \"#utility.yul\":10769:10784   */\n      mstore\n        /* \"#utility.yul\":10803:10807   */\n      0x24\n        /* \"#utility.yul\":10800:10801   */\n      0x00\n        /* \"#utility.yul\":10793:10808   */\n      revert\n\n    auxdata: 0xa2646970667358221220db8341ceb0daf7b1f8df454abd047913ae97dc608f8d9889eb95206ec6024f4b64736f6c63430008160033\n}\n",
				"bytecode": {
					"linkReferences": {},
					"object": "608060405234801561000f575f80fd5b50604051610dfb380380610dfb833981810160405281019061003191906100b5565b806004819055503360025f6101000a81548173ffffffffffffffffffffffffffffffffffffffff021916908373ffffffffffffffffffffffffffffffffffffffff160217905550506100e0565b5f80fd5b5f819050919050565b61009481610082565b811461009e575f80fd5b50565b5f815190506100af8161008b565b92915050565b5f602082840312156100ca576100c961007e565b5b5f6100d7848285016100a1565b91505092915050565b610d0e806100ed5f395ff3fe60806040526004361061007a575f3560e01c8063a50ec3261161004d578063a50ec32614610136578063b391c50814610140578063e12d4a5214610168578063f8a8fd6d146101a45761007a565b806312065fe01461007e5780632eb4a7ab146100a8578063835fc6ca146100d2578063a14c2d5b146100fa575b5f80fd5b348015610089575f80fd5b506100926101ce565b60405161009f9190610753565b60405180910390f35b3480156100b3575f80fd5b506100bc610259565b6040516100c99190610784565b60405180910390f35b3480156100dd575f80fd5b506100f860048036038101906100f391906107d8565b61025f565b005b348015610105575f80fd5b50610120600480360381019061011b919061085d565b610460565b60405161012d9190610753565b60405180910390f35b61013e610475565b005b34801561014b575f80fd5b5061016660048036038101906101619190610a02565b6105a6565b005b348015610173575f80fd5b5061018e6004803603810190610189919061085d565b610660565b60405161019b9190610753565b60405180910390f35b3480156101af575f80fd5b506101b8610674565b6040516101c59190610a58565b60405180910390f35b5f60015f3373ffffffffffffffffffffffffffffffffffffffff1673ffffffffffffffffffffffffffffffffffffffff1681526020019081526020015f20545f803373ffffffffffffffffffffffffffffffffffffffff1673ffffffffffffffffffffffffffffffffffffffff1681526020019081526020015f20546102549190610a9e565b905090565b60045481565b60025f9054906101000a900473ffffffffffffffffffffffffffffffffffffffff1673ffffffffffffffffffffffffffffffffffffffff163373ffffffffffffffffffffffffffffffffffffffff16146102ee576040517f08c379a00000000000000000000000000000000000000000000000000000000081526004016102e590610b2b565b60405180910390fd5b805f60015f3373ffffffffffffffffffffffffffffffffffffffff1673ffffffffffffffffffffffffffffffffffffffff1681526020019081526020015f2054905081815f803373ffffffffffffffffffffffffffffffffffffffff1673ffffffffffffffffffffffffffffffffffffffff1681526020019081526020015f20546103799190610a9e565b10156103ba576040517f08c379a00000000000000000000000000000000000000000000000000000000081526004016103b190610b93565b60405180910390fd5b8260015f3373ffffffffffffffffffffffffffffffffffffffff1673ffffffffffffffffffffffffffffffffffffffff1681526020019081526020015f205f8282546104069190610bb1565b925050819055503373ffffffffffffffffffffffffffffffffffffffff167f5abb37b6a6e999ed1b32adaa92157f682779d5c878f8133de3e53cfdd319fafb846040516104539190610753565b60405180910390a2505050565b6001602052805f5260405f205f915090505481565b60025f9054906101000a900473ffffffffffffffffffffffffffffffffffffffff1673ffffffffffffffffffffffffffffffffffffffff163373ffffffffffffffffffffffffffffffffffffffff1614610504576040517f08c379a00000000000000000000000000000000000000000000000000000000081526004016104fb90610b2b565b60405180910390fd5b345f803373ffffffffffffffffffffffffffffffffffffffff1673ffffffffffffffffffffffffffffffffffffffff1681526020019081526020015f205f82825461054f9190610bb1565b925050819055503373ffffffffffffffffffffffffffffffffffffffff167fe5249d60e46bc17c93ebe0077404ce0986693b526789d52d468942ca2eba7ad33460405161059c9190610753565b60405180910390a2565b5f336040516020016105b89190610c29565b6040516020818303038152906040528051906020012090506105dd8260045483610699565b61061c576040517f08c379a000000000000000000000000000000000000000000000000000000000815260040161061390610c8d565b60405180910390fd5b3360035f6101000a81548173ffffffffffffffffffffffffffffffffffffffff021916908373ffffffffffffffffffffffffffffffffffffffff1602179055505050565b5f602052805f5260405f205f915090505481565b60035f9054906101000a900473ffffffffffffffffffffffffffffffffffffffff1681565b5f826106a585846106af565b1490509392505050565b5f808290505f5b84518110156106f2576106e3828683815181106106d6576106d5610cab565b5b60200260200101516106fd565b915080806001019150506106b6565b508091505092915050565b5f8183106107145761070f8284610727565b61071f565b61071e8383610727565b5b905092915050565b5f825f528160205260405f20905092915050565b5f819050919050565b61074d8161073b565b82525050565b5f6020820190506107665f830184610744565b92915050565b5f819050919050565b61077e8161076c565b82525050565b5f6020820190506107975f830184610775565b92915050565b5f604051905090565b5f80fd5b5f80fd5b6107b78161073b565b81146107c1575f80fd5b50565b5f813590506107d2816107ae565b92915050565b5f602082840312156107ed576107ec6107a6565b5b5f6107fa848285016107c4565b91505092915050565b5f73ffffffffffffffffffffffffffffffffffffffff82169050919050565b5f61082c82610803565b9050919050565b61083c81610822565b8114610846575f80fd5b50565b5f8135905061085781610833565b92915050565b5f60208284031215610872576108716107a6565b5b5f61087f84828501610849565b91505092915050565b5f80fd5b5f601f19601f8301169050919050565b7f4e487b71000000000000000000000000000000000000000000000000000000005f52604160045260245ffd5b6108d28261088c565b810181811067ffffffffffffffff821117156108f1576108f061089c565b5b80604052505050565b5f61090361079d565b905061090f82826108c9565b919050565b5f67ffffffffffffffff82111561092e5761092d61089c565b5b602082029050602081019050919050565b5f80fd5b61094c8161076c565b8114610956575f80fd5b50565b5f8135905061096781610943565b92915050565b5f61097f61097a84610914565b6108fa565b905080838252602082019050602084028301858111156109a2576109a161093f565b5b835b818110156109cb57806109b78882610959565b8452602084019350506020810190506109a4565b5050509392505050565b5f82601f8301126109e9576109e8610888565b5b81356109f984826020860161096d565b91505092915050565b5f60208284031215610a1757610a166107a6565b5b5f82013567ffffffffffffffff811115610a3457610a336107aa565b5b610a40848285016109d5565b91505092915050565b610a5281610822565b82525050565b5f602082019050610a6b5f830184610a49565b92915050565b7f4e487b71000000000000000000000000000000000000000000000000000000005f52601160045260245ffd5b5f610aa88261073b565b9150610ab38361073b565b9250828203905081811115610acb57610aca610a71565b5b92915050565b5f82825260208201905092915050565b7f4e6f7420416c6c6f7700000000000000000000000000000000000000000000005f82015250565b5f610b15600983610ad1565b9150610b2082610ae1565b602082019050919050565b5f6020820190508181035f830152610b4281610b09565b9050919050565b7f496e73756666696369656e74204163636f756e742042616c616e6365000000005f82015250565b5f610b7d601c83610ad1565b9150610b8882610b49565b602082019050919050565b5f6020820190508181035f830152610baa81610b71565b9050919050565b5f610bbb8261073b565b9150610bc68361073b565b9250828201905080821115610bde57610bdd610a71565b5b92915050565b5f8160601b9050919050565b5f610bfa82610be4565b9050919050565b5f610c0b82610bf0565b9050919050565b610c23610c1e82610822565b610c01565b82525050565b5f610c348284610c12565b60148201915081905092915050565b7f496e76616c6964204d65726b6c652050726f6f662e00000000000000000000005f82015250565b5f610c77601583610ad1565b9150610c8282610c43565b602082019050919050565b5f6020820190508181035f830152610ca481610c6b565b9050919050565b7f4e487b71000000000000000000000000000000000000000000000000000000005f52603260045260245ffdfea2646970667358221220db8341ceb0daf7b1f8df454abd047913ae97dc608f8d9889eb95206ec6024f4b64736f6c63430008160033",
					"opcodes": "PUSH1 0x80 PUSH1 0x40 MSTORE CALLVALUE DUP1 ISZERO PUSH2 0xF JUMPI PUSH0 DUP1 REVERT JUMPDEST POP PUSH1 0x40 MLOAD PUSH2 0xDFB CODESIZE SUB DUP1 PUSH2 0xDFB DUP4 CODECOPY DUP2 DUP2 ADD PUSH1 0x40 MSTORE DUP2 ADD SWAP1 PUSH2 0x31 SWAP2 SWAP1 PUSH2 0xB5 JUMP JUMPDEST DUP1 PUSH1 0x4 DUP2 SWAP1 SSTORE POP CALLER PUSH1 0x2 PUSH0 PUSH2 0x100 EXP DUP2 SLOAD DUP2 PUSH20 0xFFFFFFFFFFFFFFFFFFFFFFFFFFFFFFFFFFFFFFFF MUL NOT AND SWAP1 DUP4 PUSH20 0xFFFFFFFFFFFFFFFFFFFFFFFFFFFFFFFFFFFFFFFF AND MUL OR SWAP1 SSTORE POP POP PUSH2 0xE0 JUMP JUMPDEST PUSH0 DUP1 REVERT JUMPDEST PUSH0 DUP2 SWAP1 POP SWAP2 SWAP1 POP JUMP JUMPDEST PUSH2 0x94 DUP2 PUSH2 0x82 JUMP JUMPDEST DUP2 EQ PUSH2 0x9E JUMPI PUSH0 DUP1 REVERT JUMPDEST POP JUMP JUMPDEST PUSH0 DUP2 MLOAD SWAP1 POP PUSH2 0xAF DUP2 PUSH2 0x8B JUMP JUMPDEST SWAP3 SWAP2 POP POP JUMP JUMPDEST PUSH0 PUSH1 0x20 DUP3 DUP5 SUB SLT ISZERO PUSH2 0xCA JUMPI PUSH2 0xC9 PUSH2 0x7E JUMP JUMPDEST JUMPDEST PUSH0 PUSH2 0xD7 DUP5 DUP3 DUP6 ADD PUSH2 0xA1 JUMP JUMPDEST SWAP2 POP POP SWAP3 SWAP2 POP POP JUMP JUMPDEST PUSH2 0xD0E DUP1 PUSH2 0xED PUSH0 CODECOPY PUSH0 RETURN INVALID PUSH1 0x80 PUSH1 0x40 MSTORE PUSH1 0x4 CALLDATASIZE LT PUSH2 0x7A JUMPI PUSH0 CALLDATALOAD PUSH1 0xE0 SHR DUP1 PUSH4 0xA50EC326 GT PUSH2 0x4D JUMPI DUP1 PUSH4 0xA50EC326 EQ PUSH2 0x136 JUMPI DUP1 PUSH4 0xB391C508 EQ PUSH2 0x140 JUMPI DUP1 PUSH4 0xE12D4A52 EQ PUSH2 0x168 JUMPI DUP1 PUSH4 0xF8A8FD6D EQ PUSH2 0x1A4 JUMPI PUSH2 0x7A JUMP JUMPDEST DUP1 PUSH4 0x12065FE0 EQ PUSH2 0x7E JUMPI DUP1 PUSH4 0x2EB4A7AB EQ PUSH2 0xA8 JUMPI DUP1 PUSH4 0x835FC6CA EQ PUSH2 0xD2 JUMPI DUP1 PUSH4 0xA14C2D5B EQ PUSH2 0xFA JUMPI JUMPDEST PUSH0 DUP1 REVERT JUMPDEST CALLVALUE DUP1 ISZERO PUSH2 0x89 JUMPI PUSH0 DUP1 REVERT JUMPDEST POP PUSH2 0x92 PUSH2 0x1CE JUMP JUMPDEST PUSH1 0x40 MLOAD PUSH2 0x9F SWAP2 SWAP1 PUSH2 0x753 JUMP JUMPDEST PUSH1 0x40 MLOAD DUP1 SWAP2 SUB SWAP1 RETURN JUMPDEST CALLVALUE DUP1 ISZERO PUSH2 0xB3 JUMPI PUSH0 DUP1 REVERT JUMPDEST POP PUSH2 0xBC PUSH2 0x259 JUMP JUMPDEST PUSH1 0x40 MLOAD PUSH2 0xC9 SWAP2 SWAP1 PUSH2 0x784 JUMP JUMPDEST PUSH1 0x40 MLOAD DUP1 SWAP2 SUB SWAP1 RETURN JUMPDEST CALLVALUE DUP1 ISZERO PUSH2 0xDD JUMPI PUSH0 DUP1 REVERT JUMPDEST POP PUSH2 0xF8 PUSH1 0x4 DUP1 CALLDATASIZE SUB DUP2 ADD SWAP1 PUSH2 0xF3 SWAP2 SWAP1 PUSH2 0x7D8 JUMP JUMPDEST PUSH2 0x25F JUMP JUMPDEST STOP JUMPDEST CALLVALUE DUP1 ISZERO PUSH2 0x105 JUMPI PUSH0 DUP1 REVERT JUMPDEST POP PUSH2 0x120 PUSH1 0x4 DUP1 CALLDATASIZE SUB DUP2 ADD SWAP1 PUSH2 0x11B SWAP2 SWAP1 PUSH2 0x85D JUMP JUMPDEST PUSH2 0x460 JUMP JUMPDEST PUSH1 0x40 MLOAD PUSH2 0x12D SWAP2 SWAP1 PUSH2 0x753 JUMP JUMPDEST PUSH1 0x40 MLOAD DUP1 SWAP2 SUB SWAP1 RETURN JUMPDEST PUSH2 0x13E PUSH2 0x475 JUMP JUMPDEST STOP JUMPDEST CALLVALUE DUP1 ISZERO PUSH2 0x14B JUMPI PUSH0 DUP1 REVERT JUMPDEST POP PUSH2 0x166 PUSH1 0x4 DUP1 CALLDATASIZE SUB DUP2 ADD SWAP1 PUSH2 0x161 SWAP2 SWAP1 PUSH2 0xA02 JUMP JUMPDEST PUSH2 0x5A6 JUMP JUMPDEST STOP JUMPDEST CALLVALUE DUP1 ISZERO PUSH2 0x173 JUMPI PUSH0 DUP1 REVERT JUMPDEST POP PUSH2 0x18E PUSH1 0x4 DUP1 CALLDATASIZE SUB DUP2 ADD SWAP1 PUSH2 0x189 SWAP2 SWAP1 PUSH2 0x85D JUMP JUMPDEST PUSH2 0x660 JUMP JUMPDEST PUSH1 0x40 MLOAD PUSH2 0x19B SWAP2 SWAP1 PUSH2 0x753 JUMP JUMPDEST PUSH1 0x40 MLOAD DUP1 SWAP2 SUB SWAP1 RETURN JUMPDEST CALLVALUE DUP1 ISZERO PUSH2 0x1AF JUMPI PUSH0 DUP1 REVERT JUMPDEST POP PUSH2 0x1B8 PUSH2 0x674 JUMP JUMPDEST PUSH1 0x40 MLOAD PUSH2 0x1C5 SWAP2 SWAP1 PUSH2 0xA58 JUMP JUMPDEST PUSH1 0x40 MLOAD DUP1 SWAP2 SUB SWAP1 RETURN JUMPDEST PUSH0 PUSH1 0x1 PUSH0 CALLER PUSH20 0xFFFFFFFFFFFFFFFFFFFFFFFFFFFFFFFFFFFFFFFF AND PUSH20 0xFFFFFFFFFFFFFFFFFFFFFFFFFFFFFFFFFFFFFFFF AND DUP2 MSTORE PUSH1 0x20 ADD SWAP1 DUP2 MSTORE PUSH1 0x20 ADD PUSH0 KECCAK256 SLOAD PUSH0 DUP1 CALLER PUSH20 0xFFFFFFFFFFFFFFFFFFFFFFFFFFFFFFFFFFFFFFFF AND PUSH20 0xFFFFFFFFFFFFFFFFFFFFFFFFFFFFFFFFFFFFFFFF AND DUP2 MSTORE PUSH1 0x20 ADD SWAP1 DUP2 MSTORE PUSH1 0x20 ADD PUSH0 KECCAK256 SLOAD PUSH2 0x254 SWAP2 SWAP1 PUSH2 0xA9E JUMP JUMPDEST SWAP1 POP SWAP1 JUMP JUMPDEST PUSH1 0x4 SLOAD DUP2 JUMP JUMPDEST PUSH1 0x2 PUSH0 SWAP1 SLOAD SWAP1 PUSH2 0x100 EXP SWAP1 DIV PUSH20 0xFFFFFFFFFFFFFFFFFFFFFFFFFFFFFFFFFFFFFFFF AND PUSH20 0xFFFFFFFFFFFFFFFFFFFFFFFFFFFFFFFFFFFFFFFF AND CALLER PUSH20 0xFFFFFFFFFFFFFFFFFFFFFFFFFFFFFFFFFFFFFFFF AND EQ PUSH2 0x2EE JUMPI PUSH1 0x40 MLOAD PUSH32 0x8C379A000000000000000000000000000000000000000000000000000000000 DUP2 MSTORE PUSH1 0x4 ADD PUSH2 0x2E5 SWAP1 PUSH2 0xB2B JUMP JUMPDEST PUSH1 0x40 MLOAD DUP1 SWAP2 SUB SWAP1 REVERT JUMPDEST DUP1 PUSH0 PUSH1 0x1 PUSH0 CALLER PUSH20 0xFFFFFFFFFFFFFFFFFFFFFFFFFFFFFFFFFFFFFFFF AND PUSH20 0xFFFFFFFFFFFFFFFFFFFFFFFFFFFFFFFFFFFFFFFF AND DUP2 MSTORE PUSH1 0x20 ADD SWAP1 DUP2 MSTORE PUSH1 0x20 ADD PUSH0 KECCAK256 SLOAD SWAP1 POP DUP2 DUP2 PUSH0 DUP1 CALLER PUSH20 0xFFFFFFFFFFFFFFFFFFFFFFFFFFFFFFFFFFFFFFFF AND PUSH20 0xFFFFFFFFFFFFFFFFFFFFFFFFFFFFFFFFFFFFFFFF AND DUP2 MSTORE PUSH1 0x20 ADD SWAP1 DUP2 MSTORE PUSH1 0x20 ADD PUSH0 KECCAK256 SLOAD PUSH2 0x379 SWAP2 SWAP1 PUSH2 0xA9E JUMP JUMPDEST LT ISZERO PUSH2 0x3BA JUMPI PUSH1 0x40 MLOAD PUSH32 0x8C379A000000000000000000000000000000000000000000000000000000000 DUP2 MSTORE PUSH1 0x4 ADD PUSH2 0x3B1 SWAP1 PUSH2 0xB93 JUMP JUMPDEST PUSH1 0x40 MLOAD DUP1 SWAP2 SUB SWAP1 REVERT JUMPDEST DUP3 PUSH1 0x1 PUSH0 CALLER PUSH20 0xFFFFFFFFFFFFFFFFFFFFFFFFFFFFFFFFFFFFFFFF AND PUSH20 0xFFFFFFFFFFFFFFFFFFFFFFFFFFFFFFFFFFFFFFFF AND DUP2 MSTORE PUSH1 0x20 ADD SWAP1 DUP2 MSTORE PUSH1 0x20 ADD PUSH0 KECCAK256 PUSH0 DUP3 DUP3 SLOAD PUSH2 0x406 SWAP2 SWAP1 PUSH2 0xBB1 JUMP JUMPDEST SWAP3 POP POP DUP2 SWAP1 SSTORE POP CALLER PUSH20 0xFFFFFFFFFFFFFFFFFFFFFFFFFFFFFFFFFFFFFFFF AND PUSH32 0x5ABB37B6A6E999ED1B32ADAA92157F682779D5C878F8133DE3E53CFDD319FAFB DUP5 PUSH1 0x40 MLOAD PUSH2 0x453 SWAP2 SWAP1 PUSH2 0x753 JUMP JUMPDEST PUSH1 0x40 MLOAD DUP1 SWAP2 SUB SWAP1 LOG2 POP POP POP JUMP JUMPDEST PUSH1 0x1 PUSH1 0x20 MSTORE DUP1 PUSH0 MSTORE PUSH1 0x40 PUSH0 KECCAK256 PUSH0 SWAP2 POP SWAP1 POP SLOAD DUP2 JUMP JUMPDEST PUSH1 0x2 PUSH0 SWAP1 SLOAD SWAP1 PUSH2 0x100 EXP SWAP1 DIV PUSH20 0xFFFFFFFFFFFFFFFFFFFFFFFFFFFFFFFFFFFFFFFF AND PUSH20 0xFFFFFFFFFFFFFFFFFFFFFFFFFFFFFFFFFFFFFFFF AND CALLER PUSH20 0xFFFFFFFFFFFFFFFFFFFFFFFFFFFFFFFFFFFFFFFF AND EQ PUSH2 0x504 JUMPI PUSH1 0x40 MLOAD PUSH32 0x8C379A000000000000000000000000000000000000000000000000000000000 DUP2 MSTORE PUSH1 0x4 ADD PUSH2 0x4FB SWAP1 PUSH2 0xB2B JUMP JUMPDEST PUSH1 0x40 MLOAD DUP1 SWAP2 SUB SWAP1 REVERT JUMPDEST CALLVALUE PUSH0 DUP1 CALLER PUSH20 0xFFFFFFFFFFFFFFFFFFFFFFFFFFFFFFFFFFFFFFFF AND PUSH20 0xFFFFFFFFFFFFFFFFFFFFFFFFFFFFFFFFFFFFFFFF AND DUP2 MSTORE PUSH1 0x20 ADD SWAP1 DUP2 MSTORE PUSH1 0x20 ADD PUSH0 KECCAK256 PUSH0 DUP3 DUP3 SLOAD PUSH2 0x54F SWAP2 SWAP1 PUSH2 0xBB1 JUMP JUMPDEST SWAP3 POP POP DUP2 SWAP1 SSTORE POP CALLER PUSH20 0xFFFFFFFFFFFFFFFFFFFFFFFFFFFFFFFFFFFFFFFF AND PUSH32 0xE5249D60E46BC17C93EBE0077404CE0986693B526789D52D468942CA2EBA7AD3 CALLVALUE PUSH1 0x40 MLOAD PUSH2 0x59C SWAP2 SWAP1 PUSH2 0x753 JUMP JUMPDEST PUSH1 0x40 MLOAD DUP1 SWAP2 SUB SWAP1 LOG2 JUMP JUMPDEST PUSH0 CALLER PUSH1 0x40 MLOAD PUSH1 0x20 ADD PUSH2 0x5B8 SWAP2 SWAP1 PUSH2 0xC29 JUMP JUMPDEST PUSH1 0x40 MLOAD PUSH1 0x20 DUP2 DUP4 SUB SUB DUP2 MSTORE SWAP1 PUSH1 0x40 MSTORE DUP1 MLOAD SWAP1 PUSH1 0x20 ADD KECCAK256 SWAP1 POP PUSH2 0x5DD DUP3 PUSH1 0x4 SLOAD DUP4 PUSH2 0x699 JUMP JUMPDEST PUSH2 0x61C JUMPI PUSH1 0x40 MLOAD PUSH32 0x8C379A000000000000000000000000000000000000000000000000000000000 DUP2 MSTORE PUSH1 0x4 ADD PUSH2 0x613 SWAP1 PUSH2 0xC8D JUMP JUMPDEST PUSH1 0x40 MLOAD DUP1 SWAP2 SUB SWAP1 REVERT JUMPDEST CALLER PUSH1 0x3 PUSH0 PUSH2 0x100 EXP DUP2 SLOAD DUP2 PUSH20 0xFFFFFFFFFFFFFFFFFFFFFFFFFFFFFFFFFFFFFFFF MUL NOT AND SWAP1 DUP4 PUSH20 0xFFFFFFFFFFFFFFFFFFFFFFFFFFFFFFFFFFFFFFFF AND MUL OR SWAP1 SSTORE POP POP POP JUMP JUMPDEST PUSH0 PUSH1 0x20 MSTORE DUP1 PUSH0 MSTORE PUSH1 0x40 PUSH0 KECCAK256 PUSH0 SWAP2 POP SWAP1 POP SLOAD DUP2 JUMP JUMPDEST PUSH1 0x3 PUSH0 SWAP1 SLOAD SWAP1 PUSH2 0x100 EXP SWAP1 DIV PUSH20 0xFFFFFFFFFFFFFFFFFFFFFFFFFFFFFFFFFFFFFFFF AND DUP2 JUMP JUMPDEST PUSH0 DUP3 PUSH2 0x6A5 DUP6 DUP5 PUSH2 0x6AF JUMP JUMPDEST EQ SWAP1 POP SWAP4 SWAP3 POP POP POP JUMP JUMPDEST PUSH0 DUP1 DUP3 SWAP1 POP PUSH0 JUMPDEST DUP5 MLOAD DUP2 LT ISZERO PUSH2 0x6F2 JUMPI PUSH2 0x6E3 DUP3 DUP7 DUP4 DUP2 MLOAD DUP2 LT PUSH2 0x6D6 JUMPI PUSH2 0x6D5 PUSH2 0xCAB JUMP JUMPDEST JUMPDEST PUSH1 0x20 MUL PUSH1 0x20 ADD ADD MLOAD PUSH2 0x6FD JUMP JUMPDEST SWAP2 POP DUP1 DUP1 PUSH1 0x1 ADD SWAP2 POP POP PUSH2 0x6B6 JUMP JUMPDEST POP DUP1 SWAP2 POP POP SWAP3 SWAP2 POP POP JUMP JUMPDEST PUSH0 DUP2 DUP4 LT PUSH2 0x714 JUMPI PUSH2 0x70F DUP3 DUP5 PUSH2 0x727 JUMP JUMPDEST PUSH2 0x71F JUMP JUMPDEST PUSH2 0x71E DUP4 DUP4 PUSH2 0x727 JUMP JUMPDEST JUMPDEST SWAP1 POP SWAP3 SWAP2 POP POP JUMP JUMPDEST PUSH0 DUP3 PUSH0 MSTORE DUP2 PUSH1 0x20 MSTORE PUSH1 0x40 PUSH0 KECCAK256 SWAP1 POP SWAP3 SWAP2 POP POP JUMP JUMPDEST PUSH0 DUP2 SWAP1 POP SWAP2 SWAP1 POP JUMP JUMPDEST PUSH2 0x74D DUP2 PUSH2 0x73B JUMP JUMPDEST DUP3 MSTORE POP POP JUMP JUMPDEST PUSH0 PUSH1 0x20 DUP3 ADD SWAP1 POP PUSH2 0x766 PUSH0 DUP4 ADD DUP5 PUSH2 0x744 JUMP JUMPDEST SWAP3 SWAP2 POP POP JUMP JUMPDEST PUSH0 DUP2 SWAP1 POP SWAP2 SWAP1 POP JUMP JUMPDEST PUSH2 0x77E DUP2 PUSH2 0x76C JUMP JUMPDEST DUP3 MSTORE POP POP JUMP JUMPDEST PUSH0 PUSH1 0x20 DUP3 ADD SWAP1 POP PUSH2 0x797 PUSH0 DUP4 ADD DUP5 PUSH2 0x775 JUMP JUMPDEST SWAP3 SWAP2 POP POP JUMP JUMPDEST PUSH0 PUSH1 0x40 MLOAD SWAP1 POP SWAP1 JUMP JUMPDEST PUSH0 DUP1 REVERT JUMPDEST PUSH0 DUP1 REVERT JUMPDEST PUSH2 0x7B7 DUP2 PUSH2 0x73B JUMP JUMPDEST DUP2 EQ PUSH2 0x7C1 JUMPI PUSH0 DUP1 REVERT JUMPDEST POP JUMP JUMPDEST PUSH0 DUP2 CALLDATALOAD SWAP1 POP PUSH2 0x7D2 DUP2 PUSH2 0x7AE JUMP JUMPDEST SWAP3 SWAP2 POP POP JUMP JUMPDEST PUSH0 PUSH1 0x20 DUP3 DUP5 SUB SLT ISZERO PUSH2 0x7ED JUMPI PUSH2 0x7EC PUSH2 0x7A6 JUMP JUMPDEST JUMPDEST PUSH0 PUSH2 0x7FA DUP5 DUP3 DUP6 ADD PUSH2 0x7C4 JUMP JUMPDEST SWAP2 POP POP SWAP3 SWAP2 POP POP JUMP JUMPDEST PUSH0 PUSH20 0xFFFFFFFFFFFFFFFFFFFFFFFFFFFFFFFFFFFFFFFF DUP3 AND SWAP1 POP SWAP2 SWAP1 POP JUMP JUMPDEST PUSH0 PUSH2 0x82C DUP3 PUSH2 0x803 JUMP JUMPDEST SWAP1 POP SWAP2 SWAP1 POP JUMP JUMPDEST PUSH2 0x83C DUP2 PUSH2 0x822 JUMP JUMPDEST DUP2 EQ PUSH2 0x846 JUMPI PUSH0 DUP1 REVERT JUMPDEST POP JUMP JUMPDEST PUSH0 DUP2 CALLDATALOAD SWAP1 POP PUSH2 0x857 DUP2 PUSH2 0x833 JUMP JUMPDEST SWAP3 SWAP2 POP POP JUMP JUMPDEST PUSH0 PUSH1 0x20 DUP3 DUP5 SUB SLT ISZERO PUSH2 0x872 JUMPI PUSH2 0x871 PUSH2 0x7A6 JUMP JUMPDEST JUMPDEST PUSH0 PUSH2 0x87F DUP5 DUP3 DUP6 ADD PUSH2 0x849 JUMP JUMPDEST SWAP2 POP POP SWAP3 SWAP2 POP POP JUMP JUMPDEST PUSH0 DUP1 REVERT JUMPDEST PUSH0 PUSH1 0x1F NOT PUSH1 0x1F DUP4 ADD AND SWAP1 POP SWAP2 SWAP1 POP JUMP JUMPDEST PUSH32 0x4E487B7100000000000000000000000000000000000000000000000000000000 PUSH0 MSTORE PUSH1 0x41 PUSH1 0x4 MSTORE PUSH1 0x24 PUSH0 REVERT JUMPDEST PUSH2 0x8D2 DUP3 PUSH2 0x88C JUMP JUMPDEST DUP2 ADD DUP2 DUP2 LT PUSH8 0xFFFFFFFFFFFFFFFF DUP3 GT OR ISZERO PUSH2 0x8F1 JUMPI PUSH2 0x8F0 PUSH2 0x89C JUMP JUMPDEST JUMPDEST DUP1 PUSH1 0x40 MSTORE POP POP POP JUMP JUMPDEST PUSH0 PUSH2 0x903 PUSH2 0x79D JUMP JUMPDEST SWAP1 POP PUSH2 0x90F DUP3 DUP3 PUSH2 0x8C9 JUMP JUMPDEST SWAP2 SWAP1 POP JUMP JUMPDEST PUSH0 PUSH8 0xFFFFFFFFFFFFFFFF DUP3 GT ISZERO PUSH2 0x92E JUMPI PUSH2 0x92D PUSH2 0x89C JUMP JUMPDEST JUMPDEST PUSH1 0x20 DUP3 MUL SWAP1 POP PUSH1 0x20 DUP2 ADD SWAP1 POP SWAP2 SWAP1 POP JUMP JUMPDEST PUSH0 DUP1 REVERT JUMPDEST PUSH2 0x94C DUP2 PUSH2 0x76C JUMP JUMPDEST DUP2 EQ PUSH2 0x956 JUMPI PUSH0 DUP1 REVERT JUMPDEST POP JUMP JUMPDEST PUSH0 DUP2 CALLDATALOAD SWAP1 POP PUSH2 0x967 DUP2 PUSH2 0x943 JUMP JUMPDEST SWAP3 SWAP2 POP POP JUMP JUMPDEST PUSH0 PUSH2 0x97F PUSH2 0x97A DUP5 PUSH2 0x914 JUMP JUMPDEST PUSH2 0x8FA JUMP JUMPDEST SWAP1 POP DUP1 DUP4 DUP3 MSTORE PUSH1 0x20 DUP3 ADD SWAP1 POP PUSH1 0x20 DUP5 MUL DUP4 ADD DUP6 DUP2 GT ISZERO PUSH2 0x9A2 JUMPI PUSH2 0x9A1 PUSH2 0x93F JUMP JUMPDEST JUMPDEST DUP4 JUMPDEST DUP2 DUP2 LT ISZERO PUSH2 0x9CB JUMPI DUP1 PUSH2 0x9B7 DUP9 DUP3 PUSH2 0x959 JUMP JUMPDEST DUP5 MSTORE PUSH1 0x20 DUP5 ADD SWAP4 POP POP PUSH1 0x20 DUP2 ADD SWAP1 POP PUSH2 0x9A4 JUMP JUMPDEST POP POP POP SWAP4 SWAP3 POP POP POP JUMP JUMPDEST PUSH0 DUP3 PUSH1 0x1F DUP4 ADD SLT PUSH2 0x9E9 JUMPI PUSH2 0x9E8 PUSH2 0x888 JUMP JUMPDEST JUMPDEST DUP2 CALLDATALOAD PUSH2 0x9F9 DUP5 DUP3 PUSH1 0x20 DUP7 ADD PUSH2 0x96D JUMP JUMPDEST SWAP2 POP POP SWAP3 SWAP2 POP POP JUMP JUMPDEST PUSH0 PUSH1 0x20 DUP3 DUP5 SUB SLT ISZERO PUSH2 0xA17 JUMPI PUSH2 0xA16 PUSH2 0x7A6 JUMP JUMPDEST JUMPDEST PUSH0 DUP3 ADD CALLDATALOAD PUSH8 0xFFFFFFFFFFFFFFFF DUP2 GT ISZERO PUSH2 0xA34 JUMPI PUSH2 0xA33 PUSH2 0x7AA JUMP JUMPDEST JUMPDEST PUSH2 0xA40 DUP5 DUP3 DUP6 ADD PUSH2 0x9D5 JUMP JUMPDEST SWAP2 POP POP SWAP3 SWAP2 POP POP JUMP JUMPDEST PUSH2 0xA52 DUP2 PUSH2 0x822 JUMP JUMPDEST DUP3 MSTORE POP POP JUMP JUMPDEST PUSH0 PUSH1 0x20 DUP3 ADD SWAP1 POP PUSH2 0xA6B PUSH0 DUP4 ADD DUP5 PUSH2 0xA49 JUMP JUMPDEST SWAP3 SWAP2 POP POP JUMP JUMPDEST PUSH32 0x4E487B7100000000000000000000000000000000000000000000000000000000 PUSH0 MSTORE PUSH1 0x11 PUSH1 0x4 MSTORE PUSH1 0x24 PUSH0 REVERT JUMPDEST PUSH0 PUSH2 0xAA8 DUP3 PUSH2 0x73B JUMP JUMPDEST SWAP2 POP PUSH2 0xAB3 DUP4 PUSH2 0x73B JUMP JUMPDEST SWAP3 POP DUP3 DUP3 SUB SWAP1 POP DUP2 DUP2 GT ISZERO PUSH2 0xACB JUMPI PUSH2 0xACA PUSH2 0xA71 JUMP JUMPDEST JUMPDEST SWAP3 SWAP2 POP POP JUMP JUMPDEST PUSH0 DUP3 DUP3 MSTORE PUSH1 0x20 DUP3 ADD SWAP1 POP SWAP3 SWAP2 POP POP JUMP JUMPDEST PUSH32 0x4E6F7420416C6C6F770000000000000000000000000000000000000000000000 PUSH0 DUP3 ADD MSTORE POP JUMP JUMPDEST PUSH0 PUSH2 0xB15 PUSH1 0x9 DUP4 PUSH2 0xAD1 JUMP JUMPDEST SWAP2 POP PUSH2 0xB20 DUP3 PUSH2 0xAE1 JUMP JUMPDEST PUSH1 0x20 DUP3 ADD SWAP1 POP SWAP2 SWAP1 POP JUMP JUMPDEST PUSH0 PUSH1 0x20 DUP3 ADD SWAP1 POP DUP2 DUP2 SUB PUSH0 DUP4 ADD MSTORE PUSH2 0xB42 DUP2 PUSH2 0xB09 JUMP JUMPDEST SWAP1 POP SWAP2 SWAP1 POP JUMP JUMPDEST PUSH32 0x496E73756666696369656E74204163636F756E742042616C616E636500000000 PUSH0 DUP3 ADD MSTORE POP JUMP JUMPDEST PUSH0 PUSH2 0xB7D PUSH1 0x1C DUP4 PUSH2 0xAD1 JUMP JUMPDEST SWAP2 POP PUSH2 0xB88 DUP3 PUSH2 0xB49 JUMP JUMPDEST PUSH1 0x20 DUP3 ADD SWAP1 POP SWAP2 SWAP1 POP JUMP JUMPDEST PUSH0 PUSH1 0x20 DUP3 ADD SWAP1 POP DUP2 DUP2 SUB PUSH0 DUP4 ADD MSTORE PUSH2 0xBAA DUP2 PUSH2 0xB71 JUMP JUMPDEST SWAP1 POP SWAP2 SWAP1 POP JUMP JUMPDEST PUSH0 PUSH2 0xBBB DUP3 PUSH2 0x73B JUMP JUMPDEST SWAP2 POP PUSH2 0xBC6 DUP4 PUSH2 0x73B JUMP JUMPDEST SWAP3 POP DUP3 DUP3 ADD SWAP1 POP DUP1 DUP3 GT ISZERO PUSH2 0xBDE JUMPI PUSH2 0xBDD PUSH2 0xA71 JUMP JUMPDEST JUMPDEST SWAP3 SWAP2 POP POP JUMP JUMPDEST PUSH0 DUP2 PUSH1 0x60 SHL SWAP1 POP SWAP2 SWAP1 POP JUMP JUMPDEST PUSH0 PUSH2 0xBFA DUP3 PUSH2 0xBE4 JUMP JUMPDEST SWAP1 POP SWAP2 SWAP1 POP JUMP JUMPDEST PUSH0 PUSH2 0xC0B DUP3 PUSH2 0xBF0 JUMP JUMPDEST SWAP1 POP SWAP2 SWAP1 POP JUMP JUMPDEST PUSH2 0xC23 PUSH2 0xC1E DUP3 PUSH2 0x822 JUMP JUMPDEST PUSH2 0xC01 JUMP JUMPDEST DUP3 MSTORE POP POP JUMP JUMPDEST PUSH0 PUSH2 0xC34 DUP3 DUP5 PUSH2 0xC12 JUMP JUMPDEST PUSH1 0x14 DUP3 ADD SWAP2 POP DUP2 SWAP1 POP SWAP3 SWAP2 POP POP JUMP JUMPDEST PUSH32 0x496E76616C6964204D65726B6C652050726F6F662E0000000000000000000000 PUSH0 DUP3 ADD MSTORE POP JUMP JUMPDEST PUSH0 PUSH2 0xC77 PUSH1 0x15 DUP4 PUSH2 0xAD1 JUMP JUMPDEST SWAP2 POP PUSH2 0xC82 DUP3 PUSH2 0xC43 JUMP JUMPDEST PUSH1 0x20 DUP3 ADD SWAP1 POP SWAP2 SWAP1 POP JUMP JUMPDEST PUSH0 PUSH1 0x20 DUP3 ADD SWAP1 POP DUP2 DUP2 SUB PUSH0 DUP4 ADD MSTORE PUSH2 0xCA4 DUP2 PUSH2 0xC6B JUMP JUMPDEST SWAP1 POP SWAP2 SWAP1 POP JUMP JUMPDEST PUSH32 0x4E487B7100000000000000000000000000000000000000000000000000000000 PUSH0 MSTORE PUSH1 0x32 PUSH1 0x4 MSTORE PUSH1 0x24 PUSH0 REVERT INVALID LOG2 PUSH5 0x6970667358 0x22 SLT KECCAK256 0xDB DUP4 COINBASE 0xCE 0xB0 0xDA 0xF7 0xB1 0xF8 0xDF GASLIMIT 0x4A 0xBD DIV PUSH26 0x13AE97DC608F8D9889EB95206EC6024F4B64736F6C6343000816 STOP CALLER "
				},
				"gasEstimates": {
					"creation": {
						"codeDepositCost": "668400",
						"executionCost": "infinite",
						"totalCost": "infinite"
					},
					"external": {
						"claim(bytes32[])": "infinite",
						"depositFund(address)": "2845",
						"deposite()": "infinite",
						"getBalance()": "infinite",
						"merkleRoot()": "2448",
						"test()": "2574",
						"withdrawal(uint256)": "infinite",
						"withdrawlFund(address)": "2869"
					}
				},
				"methodIdentifiers": {
					"claim(bytes32[])": "b391c508",
					"depositFund(address)": "e12d4a52",
					"deposite()": "a50ec326",
					"getBalance()": "12065fe0",
					"merkleRoot()": "2eb4a7ab",
					"test()": "f8a8fd6d",
					"withdrawal(uint256)": "835fc6ca",
					"withdrawlFund(address)": "a14c2d5b"
				}
			},
			"storageLayout": {
				"storage": [
					{
						"astId": 543,
						"contract": "tests/new/new.sol:Bank",
						"label": "depositFund",
						"offset": 0,
						"slot": "0",
						"type": "t_mapping(t_address,t_uint256)"
					},
					{
						"astId": 547,
						"contract": "tests/new/new.sol:Bank",
						"label": "withdrawlFund",
						"offset": 0,
						"slot": "1",
						"type": "t_mapping(t_address,t_uint256)"
					},
					{
						"astId": 549,
						"contract": "tests/new/new.sol:Bank",
						"label": "owner",
						"offset": 0,
						"slot": "2",
						"type": "t_address"
					},
					{
						"astId": 676,
						"contract": "tests/new/new.sol:Bank",
						"label": "test",
						"offset": 0,
						"slot": "3",
						"type": "t_address"
					},
					{
						"astId": 678,
						"contract": "tests/new/new.sol:Bank",
						"label": "merkleRoot",
						"offset": 0,
						"slot": "4",
						"type": "t_bytes32"
					}
				],
				"types": {
					"t_address": {
						"encoding": "inplace",
						"label": "address",
						"numberOfBytes": "20"
					},
					"t_bytes32": {
						"encoding": "inplace",
						"label": "bytes32",
						"numberOfBytes": "32"
					},
					"t_mapping(t_address,t_uint256)": {
						"encoding": "mapping",
						"key": "t_address",
						"label": "mapping(address => uint256)",
						"numberOfBytes": "32",
						"value": "t_uint256"
					},
					"t_uint256": {
						"encoding": "inplace",
						"label": "uint256",
						"numberOfBytes": "32"
					}
				}
			},
			"userdoc": {
				"kind": "user",
				"methods": {},
				"version": 1
			}
		}
	}
}