{
	"tests/new/project.sol": {
		"Wallet": {
			"abi": [
				{
					"inputs": [
						{
							"internalType": "address[]",
							"name": "_owners",
							"type": "address[]"
						},
						{
							"internalType": "uint256",
							"name": "_limit",
							"type": "uint256"
						}
					],
					"stateMutability": "nonpayable",
					"type": "constructor"
				},
				{
					"anonymous": false,
					"inputs": [
						{
							"indexed": false,
							"internalType": "uint256",
							"name": "_id",
							"type": "uint256"
						},
						{
							"indexed": false,
							"internalType": "uint256",
							"name": "_approvals",
							"type": "uint256"
						},
						{
							"indexed": false,
							"internalType": "address",
							"name": "_approver",
							"type": "address"
						}
					],
					"name": "ApprovalReceived",
					"type": "event"
				},
				{
					"anonymous": false,
					"inputs": [
						{
							"indexed": false,
							"internalType": "uint256",
							"name": "_id",
							"type": "uint256"
						}
					],
					"name": "TransferApproved",
					"type": "event"
				},
				{
					"anonymous": false,
					"inputs": [
						{
							"indexed": false,
							"internalType": "uint256",
							"name": "_id",
							"type": "uint256"
						},
						{
							"indexed": false,
							"internalType": "uint256",
							"name": "_amount",
							"type": "uint256"
						},
						{
							"indexed": false,
							"internalType": "address",
							"name": "_initiator",
							"type": "address"
						},
						{
							"indexed": false,
							"internalType": "address",
							"name": "_receiver",
							"type": "address"
						}
					],
					"name": "TransferRequestsCreated",
					"type": "event"
				},
				{
					"inputs": [
						{
							"internalType": "uint256",
							"name": "_id",
							"type": "uint256"
						}
					],
					"name": "approve",
					"outputs": [],
					"stateMutability": "nonpayable",
					"type": "function"
				},
				{
					"inputs": [
						{
							"internalType": "uint256",
							"name": "_amount",
							"type": "uint256"
						},
						{
							"internalType": "address payable",
							"name": "_receiver",
							"type": "address"
						}
					],
					"name": "createTransfer",
					"outputs": [],
					"stateMutability": "nonpayable",
					"type": "function"
				},
				{
					"inputs": [],
					"name": "deposit",
					"outputs": [],
					"stateMutability": "payable",
					"type": "function"
				},
				{
					"inputs": [],
					"name": "getBlance",
					"outputs": [
						{
							"internalType": "uint256",
							"name": "",
							"type": "uint256"
						}
					],
					"stateMutability": "view",
					"type": "function"
				},
				{
					"inputs": [],
					"name": "getTransferRequests",
					"outputs": [
						{
							"components": [
								{
									"internalType": "uint256",
									"name": "amount",
									"type": "uint256"
								},
								{
									"internalType": "address payable",
									"name": "receiver",
									"type": "address"
								},
								{
									"internalType": "uint256",
									"name": "approvals",
									"type": "uint256"
								},
								{
									"internalType": "bool",
									"name": "hasBeenSent",
									"type": "bool"
								},
								{
									"internalType": "uint256",
									"name": "id",
									"type": "uint256"
								}
							],
							"internalType": "struct Wallet.Transfer[]",
							"name": "",
							"type": "tuple[]"
						}
					],
					"stateMutability": "view",
					"type": "function"
				},
				{
					"inputs": [
						{
							"internalType": "uint256",
							"name": "",
							"type": "uint256"
						}
					],
					"name": "owners",
					"outputs": [
						{
							"internalType": "address",
							"name": "",
							"type": "address"
						}
					],
					"stateMutability": "view",
					"type": "function"
				}
			],
			"devdoc": {
				"kind": "dev",
				"methods": {},
				"version": 1
			},
			"evm": {
				"assembly": "    /* \"tests/new/project.sol\":224:2330  contract Wallet {... */\n  mstore(0x40, 0x80)\n    /* \"tests/new/project.sol\":1065:1177  constructor(address[] memory _owners, uint _limit) {... */\n  callvalue\n  dup1\n  iszero\n  tag_1\n  jumpi\n  0x00\n  dup1\n  revert\ntag_1:\n  pop\n  mload(0x40)\n  sub(codesize, bytecodeSize)\n  dup1\n  bytecodeSize\n  dup4\n  codecopy\n  dup2\n  dup2\n  add\n  0x40\n  mstore\n  dup2\n  add\n  swap1\n  tag_2\n  swap2\n  swap1\n  tag_3\n  jump\t// in\ntag_2:\n    /* \"tests/new/project.sol\":1136:1143  _owners */\n  dup2\n    /* \"tests/new/project.sol\":1127:1133  owners */\n  0x00\n    /* \"tests/new/project.sol\":1127:1143  owners = _owners */\n  swap1\n  dup1\n  mload\n  swap1\n  0x20\n  add\n  swap1\n  tag_6\n  swap3\n  swap2\n  swap1\n  tag_7\n  jump\t// in\ntag_6:\n  pop\n    /* \"tests/new/project.sol\":1065:1177  constructor(address[] memory _owners, uint _limit) {... */\n  pop\n  pop\n    /* \"tests/new/project.sol\":224:2330  contract Wallet {... */\n  jump(tag_8)\ntag_7:\n  dup3\n  dup1\n  sload\n  dup3\n  dup3\n  sstore\n  swap1\n  0x00\n  mstore\n  keccak256(0x00, 0x20)\n  swap1\n  dup2\n  add\n  swap3\n  dup3\n  iszero\n  tag_9\n  jumpi\n  swap2\n  0x20\n  mul\n  dup3\n  add\ntag_10:\n  dup3\n  dup2\n  gt\n  iszero\n  tag_11\n  jumpi\n  dup3\n  mload\n  dup3\n  exp(0x0100, 0x00)\n  dup2\n  sload\n  dup2\n  0xffffffffffffffffffffffffffffffffffffffff\n  mul\n  not\n  and\n  swap1\n  dup4\n  0xffffffffffffffffffffffffffffffffffffffff\n  and\n  mul\n  or\n  swap1\n  sstore\n  pop\n  swap2\n  0x20\n  add\n  swap2\n  swap1\n  0x01\n  add\n  swap1\n  jump(tag_10)\ntag_11:\ntag_9:\n  pop\n  swap1\n  pop\n  tag_12\n  swap2\n  swap1\n  tag_13\n  jump\t// in\ntag_12:\n  pop\n  swap1\n  jump\t// out\ntag_13:\ntag_14:\n  dup1\n  dup3\n  gt\n  iszero\n  tag_15\n  jumpi\n  0x00\n  dup2\n  0x00\n  swap1\n  sstore\n  pop\n  0x01\n  add\n  jump(tag_14)\ntag_15:\n  pop\n  swap1\n  jump\t// out\n    /* \"#utility.yul\":7:82   */\ntag_16:\n    /* \"#utility.yul\":40:46   */\n  0x00\n    /* \"#utility.yul\":73:75   */\n  0x40\n    /* \"#utility.yul\":67:76   */\n  mload\n    /* \"#utility.yul\":57:76   */\n  swap1\n  pop\n    /* \"#utility.yul\":7:82   */\n  swap1\n  jump\t// out\n    /* \"#utility.yul\":88:205   */\ntag_17:\n    /* \"#utility.yul\":197:198   */\n  0x00\n    /* \"#utility.yul\":194:195   */\n  dup1\n    /* \"#utility.yul\":187:199   */\n  revert\n    /* \"#utility.yul\":211:328   */\ntag_18:\n    /* \"#utility.yul\":320:321   */\n  0x00\n    /* \"#utility.yul\":317:318   */\n  dup1\n    /* \"#utility.yul\":310:322   */\n  revert\n    /* \"#utility.yul\":334:451   */\ntag_19:\n    /* \"#utility.yul\":443:444   */\n  0x00\n    /* \"#utility.yul\":440:441   */\n  dup1\n    /* \"#utility.yul\":433:445   */\n  revert\n    /* \"#utility.yul\":457:559   */\ntag_20:\n    /* \"#utility.yul\":498:504   */\n  0x00\n    /* \"#utility.yul\":549:551   */\n  0x1f\n    /* \"#utility.yul\":545:552   */\n  not\n    /* \"#utility.yul\":540:542   */\n  0x1f\n    /* \"#utility.yul\":533:538   */\n  dup4\n    /* \"#utility.yul\":529:543   */\n  add\n    /* \"#utility.yul\":525:553   */\n  and\n    /* \"#utility.yul\":515:553   */\n  swap1\n  pop\n    /* \"#utility.yul\":457:559   */\n  swap2\n  swap1\n  pop\n  jump\t// out\n    /* \"#utility.yul\":565:745   */\ntag_21:\n    /* \"#utility.yul\":613:690   */\n  0x4e487b7100000000000000000000000000000000000000000000000000000000\n    /* \"#utility.yul\":610:611   */\n  0x00\n    /* \"#utility.yul\":603:691   */\n  mstore\n    /* \"#utility.yul\":710:714   */\n  0x41\n    /* \"#utility.yul\":707:708   */\n  0x04\n    /* \"#utility.yul\":700:715   */\n  mstore\n    /* \"#utility.yul\":734:738   */\n  0x24\n    /* \"#utility.yul\":731:732   */\n  0x00\n    /* \"#utility.yul\":724:739   */\n  revert\n    /* \"#utility.yul\":751:1032   */\ntag_22:\n    /* \"#utility.yul\":834:861   */\n  tag_43\n    /* \"#utility.yul\":856:860   */\n  dup3\n    /* \"#utility.yul\":834:861   */\n  tag_20\n  jump\t// in\ntag_43:\n    /* \"#utility.yul\":826:832   */\n  dup2\n    /* \"#utility.yul\":822:862   */\n  add\n    /* \"#utility.yul\":964:970   */\n  dup2\n    /* \"#utility.yul\":952:962   */\n  dup2\n    /* \"#utility.yul\":949:971   */\n  lt\n    /* \"#utility.yul\":928:946   */\n  0xffffffffffffffff\n    /* \"#utility.yul\":916:926   */\n  dup3\n    /* \"#utility.yul\":913:947   */\n  gt\n    /* \"#utility.yul\":910:972   */\n  or\n    /* \"#utility.yul\":907:995   */\n  iszero\n  tag_44\n  jumpi\n    /* \"#utility.yul\":975:993   */\n  tag_45\n  tag_21\n  jump\t// in\ntag_45:\n    /* \"#utility.yul\":907:995   */\ntag_44:\n    /* \"#utility.yul\":1015:1025   */\n  dup1\n    /* \"#utility.yul\":1011:1013   */\n  0x40\n    /* \"#utility.yul\":1004:1026   */\n  mstore\n    /* \"#utility.yul\":794:1032   */\n  pop\n    /* \"#utility.yul\":751:1032   */\n  pop\n  pop\n  jump\t// out\n    /* \"#utility.yul\":1038:1167   */\ntag_23:\n    /* \"#utility.yul\":1072:1078   */\n  0x00\n    /* \"#utility.yul\":1099:1119   */\n  tag_47\n  tag_16\n  jump\t// in\ntag_47:\n    /* \"#utility.yul\":1089:1119   */\n  swap1\n  pop\n    /* \"#utility.yul\":1128:1161   */\n  tag_48\n    /* \"#utility.yul\":1156:1160   */\n  dup3\n    /* \"#utility.yul\":1148:1154   */\n  dup3\n    /* \"#utility.yul\":1128:1161   */\n  tag_22\n  jump\t// in\ntag_48:\n    /* \"#utility.yul\":1038:1167   */\n  swap2\n  swap1\n  pop\n  jump\t// out\n    /* \"#utility.yul\":1173:1484   */\ntag_24:\n    /* \"#utility.yul\":1250:1254   */\n  0x00\n    /* \"#utility.yul\":1340:1358   */\n  0xffffffffffffffff\n    /* \"#utility.yul\":1332:1338   */\n  dup3\n    /* \"#utility.yul\":1329:1359   */\n  gt\n    /* \"#utility.yul\":1326:1382   */\n  iszero\n  tag_50\n  jumpi\n    /* \"#utility.yul\":1362:1380   */\n  tag_51\n  tag_21\n  jump\t// in\ntag_51:\n    /* \"#utility.yul\":1326:1382   */\ntag_50:\n    /* \"#utility.yul\":1412:1416   */\n  0x20\n    /* \"#utility.yul\":1404:1410   */\n  dup3\n    /* \"#utility.yul\":1400:1417   */\n  mul\n    /* \"#utility.yul\":1392:1417   */\n  swap1\n  pop\n    /* \"#utility.yul\":1472:1476   */\n  0x20\n    /* \"#utility.yul\":1466:1470   */\n  dup2\n    /* \"#utility.yul\":1462:1477   */\n  add\n    /* \"#utility.yul\":1454:1477   */\n  swap1\n  pop\n    /* \"#utility.yul\":1173:1484   */\n  swap2\n  swap1\n  pop\n  jump\t// out\n    /* \"#utility.yul\":1490:1607   */\ntag_25:\n    /* \"#utility.yul\":1599:1600   */\n  0x00\n    /* \"#utility.yul\":1596:1597   */\n  dup1\n    /* \"#utility.yul\":1589:1601   */\n  revert\n    /* \"#utility.yul\":1613:1739   */\ntag_26:\n    /* \"#utility.yul\":1650:1657   */\n  0x00\n    /* \"#utility.yul\":1690:1732   */\n  0xffffffffffffffffffffffffffffffffffffffff\n    /* \"#utility.yul\":1683:1688   */\n  dup3\n    /* \"#utility.yul\":1679:1733   */\n  and\n    /* \"#utility.yul\":1668:1733   */\n  swap1\n  pop\n    /* \"#utility.yul\":1613:1739   */\n  swap2\n  swap1\n  pop\n  jump\t// out\n    /* \"#utility.yul\":1745:1841   */\ntag_27:\n    /* \"#utility.yul\":1782:1789   */\n  0x00\n    /* \"#utility.yul\":1811:1835   */\n  tag_55\n    /* \"#utility.yul\":1829:1834   */\n  dup3\n    /* \"#utility.yul\":1811:1835   */\n  tag_26\n  jump\t// in\ntag_55:\n    /* \"#utility.yul\":1800:1835   */\n  swap1\n  pop\n    /* \"#utility.yul\":1745:1841   */\n  swap2\n  swap1\n  pop\n  jump\t// out\n    /* \"#utility.yul\":1847:1969   */\ntag_28:\n    /* \"#utility.yul\":1920:1944   */\n  tag_57\n    /* \"#utility.yul\":1938:1943   */\n  dup2\n    /* \"#utility.yul\":1920:1944   */\n  tag_27\n  jump\t// in\ntag_57:\n    /* \"#utility.yul\":1913:1918   */\n  dup2\n    /* \"#utility.yul\":1910:1945   */\n  eq\n    /* \"#utility.yul\":1900:1963   */\n  tag_58\n  jumpi\n    /* \"#utility.yul\":1959:1960   */\n  0x00\n    /* \"#utility.yul\":1956:1957   */\n  dup1\n    /* \"#utility.yul\":1949:1961   */\n  revert\n    /* \"#utility.yul\":1900:1963   */\ntag_58:\n    /* \"#utility.yul\":1847:1969   */\n  pop\n  jump\t// out\n    /* \"#utility.yul\":1975:2118   */\ntag_29:\n    /* \"#utility.yul\":2032:2037   */\n  0x00\n    /* \"#utility.yul\":2063:2069   */\n  dup2\n    /* \"#utility.yul\":2057:2070   */\n  mload\n    /* \"#utility.yul\":2048:2070   */\n  swap1\n  pop\n    /* \"#utility.yul\":2079:2112   */\n  tag_60\n    /* \"#utility.yul\":2106:2111   */\n  dup2\n    /* \"#utility.yul\":2079:2112   */\n  tag_28\n  jump\t// in\ntag_60:\n    /* \"#utility.yul\":1975:2118   */\n  swap3\n  swap2\n  pop\n  pop\n  jump\t// out\n    /* \"#utility.yul\":2141:2873   */\ntag_30:\n    /* \"#utility.yul\":2248:2253   */\n  0x00\n    /* \"#utility.yul\":2273:2354   */\n  tag_62\n    /* \"#utility.yul\":2289:2353   */\n  tag_63\n    /* \"#utility.yul\":2346:2352   */\n  dup5\n    /* \"#utility.yul\":2289:2353   */\n  tag_24\n  jump\t// in\ntag_63:\n    /* \"#utility.yul\":2273:2354   */\n  tag_23\n  jump\t// in\ntag_62:\n    /* \"#utility.yul\":2264:2354   */\n  swap1\n  pop\n    /* \"#utility.yul\":2374:2379   */\n  dup1\n    /* \"#utility.yul\":2403:2409   */\n  dup4\n    /* \"#utility.yul\":2396:2401   */\n  dup3\n    /* \"#utility.yul\":2389:2410   */\n  mstore\n    /* \"#utility.yul\":2437:2441   */\n  0x20\n    /* \"#utility.yul\":2430:2435   */\n  dup3\n    /* \"#utility.yul\":2426:2442   */\n  add\n    /* \"#utility.yul\":2419:2442   */\n  swap1\n  pop\n    /* \"#utility.yul\":2490:2494   */\n  0x20\n    /* \"#utility.yul\":2482:2488   */\n  dup5\n    /* \"#utility.yul\":2478:2495   */\n  mul\n    /* \"#utility.yul\":2470:2476   */\n  dup4\n    /* \"#utility.yul\":2466:2496   */\n  add\n    /* \"#utility.yul\":2519:2522   */\n  dup6\n    /* \"#utility.yul\":2511:2517   */\n  dup2\n    /* \"#utility.yul\":2508:2523   */\n  gt\n    /* \"#utility.yul\":2505:2627   */\n  iszero\n  tag_64\n  jumpi\n    /* \"#utility.yul\":2538:2617   */\n  tag_65\n  tag_25\n  jump\t// in\ntag_65:\n    /* \"#utility.yul\":2505:2627   */\ntag_64:\n    /* \"#utility.yul\":2653:2659   */\n  dup4\n    /* \"#utility.yul\":2636:2867   */\ntag_66:\n    /* \"#utility.yul\":2670:2676   */\n  dup2\n    /* \"#utility.yul\":2665:2668   */\n  dup2\n    /* \"#utility.yul\":2662:2677   */\n  lt\n    /* \"#utility.yul\":2636:2867   */\n  iszero\n  tag_68\n  jumpi\n    /* \"#utility.yul\":2745:2748   */\n  dup1\n    /* \"#utility.yul\":2774:2822   */\n  tag_69\n    /* \"#utility.yul\":2818:2821   */\n  dup9\n    /* \"#utility.yul\":2806:2816   */\n  dup3\n    /* \"#utility.yul\":2774:2822   */\n  tag_29\n  jump\t// in\ntag_69:\n    /* \"#utility.yul\":2769:2772   */\n  dup5\n    /* \"#utility.yul\":2762:2823   */\n  mstore\n    /* \"#utility.yul\":2852:2856   */\n  0x20\n    /* \"#utility.yul\":2847:2850   */\n  dup5\n    /* \"#utility.yul\":2843:2857   */\n  add\n    /* \"#utility.yul\":2836:2857   */\n  swap4\n  pop\n    /* \"#utility.yul\":2712:2867   */\n  pop\n    /* \"#utility.yul\":2696:2700   */\n  0x20\n    /* \"#utility.yul\":2691:2694   */\n  dup2\n    /* \"#utility.yul\":2687:2701   */\n  add\n    /* \"#utility.yul\":2680:2701   */\n  swap1\n  pop\n    /* \"#utility.yul\":2636:2867   */\n  jump(tag_66)\ntag_68:\n    /* \"#utility.yul\":2640:2661   */\n  pop\n    /* \"#utility.yul\":2254:2873   */\n  pop\n  pop\n    /* \"#utility.yul\":2141:2873   */\n  swap4\n  swap3\n  pop\n  pop\n  pop\n  jump\t// out\n    /* \"#utility.yul\":2896:3281   */\ntag_31:\n    /* \"#utility.yul\":2978:2983   */\n  0x00\n    /* \"#utility.yul\":3027:3030   */\n  dup3\n    /* \"#utility.yul\":3020:3024   */\n  0x1f\n    /* \"#utility.yul\":3012:3018   */\n  dup4\n    /* \"#utility.yul\":3008:3025   */\n  add\n    /* \"#utility.yul\":3004:3031   */\n  slt\n    /* \"#utility.yul\":2994:3116   */\n  tag_71\n  jumpi\n    /* \"#utility.yul\":3035:3114   */\n  tag_72\n  tag_19\n  jump\t// in\ntag_72:\n    /* \"#utility.yul\":2994:3116   */\ntag_71:\n    /* \"#utility.yul\":3145:3151   */\n  dup2\n    /* \"#utility.yul\":3139:3152   */\n  mload\n    /* \"#utility.yul\":3170:3275   */\n  tag_73\n    /* \"#utility.yul\":3271:3274   */\n  dup5\n    /* \"#utility.yul\":3263:3269   */\n  dup3\n    /* \"#utility.yul\":3256:3260   */\n  0x20\n    /* \"#utility.yul\":3248:3254   */\n  dup7\n    /* \"#utility.yul\":3244:3261   */\n  add\n    /* \"#utility.yul\":3170:3275   */\n  tag_30\n  jump\t// in\ntag_73:\n    /* \"#utility.yul\":3161:3275   */\n  swap2\n  pop\n    /* \"#utility.yul\":2984:3281   */\n  pop\n    /* \"#utility.yul\":2896:3281   */\n  swap3\n  swap2\n  pop\n  pop\n  jump\t// out\n    /* \"#utility.yul\":3287:3364   */\ntag_32:\n    /* \"#utility.yul\":3324:3331   */\n  0x00\n    /* \"#utility.yul\":3353:3358   */\n  dup2\n    /* \"#utility.yul\":3342:3358   */\n  swap1\n  pop\n    /* \"#utility.yul\":3287:3364   */\n  swap2\n  swap1\n  pop\n  jump\t// out\n    /* \"#utility.yul\":3370:3492   */\ntag_33:\n    /* \"#utility.yul\":3443:3467   */\n  tag_76\n    /* \"#utility.yul\":3461:3466   */\n  dup2\n    /* \"#utility.yul\":3443:3467   */\n  tag_32\n  jump\t// in\ntag_76:\n    /* \"#utility.yul\":3436:3441   */\n  dup2\n    /* \"#utility.yul\":3433:3468   */\n  eq\n    /* \"#utility.yul\":3423:3486   */\n  tag_77\n  jumpi\n    /* \"#utility.yul\":3482:3483   */\n  0x00\n    /* \"#utility.yul\":3479:3480   */\n  dup1\n    /* \"#utility.yul\":3472:3484   */\n  revert\n    /* \"#utility.yul\":3423:3486   */\ntag_77:\n    /* \"#utility.yul\":3370:3492   */\n  pop\n  jump\t// out\n    /* \"#utility.yul\":3498:3641   */\ntag_34:\n    /* \"#utility.yul\":3555:3560   */\n  0x00\n    /* \"#utility.yul\":3586:3592   */\n  dup2\n    /* \"#utility.yul\":3580:3593   */\n  mload\n    /* \"#utility.yul\":3571:3593   */\n  swap1\n  pop\n    /* \"#utility.yul\":3602:3635   */\n  tag_79\n    /* \"#utility.yul\":3629:3634   */\n  dup2\n    /* \"#utility.yul\":3602:3635   */\n  tag_33\n  jump\t// in\ntag_79:\n    /* \"#utility.yul\":3498:3641   */\n  swap3\n  swap2\n  pop\n  pop\n  jump\t// out\n    /* \"#utility.yul\":3647:4357   */\ntag_3:\n    /* \"#utility.yul\":3751:3757   */\n  0x00\n    /* \"#utility.yul\":3759:3765   */\n  dup1\n    /* \"#utility.yul\":3808:3810   */\n  0x40\n    /* \"#utility.yul\":3796:3805   */\n  dup4\n    /* \"#utility.yul\":3787:3794   */\n  dup6\n    /* \"#utility.yul\":3783:3806   */\n  sub\n    /* \"#utility.yul\":3779:3811   */\n  slt\n    /* \"#utility.yul\":3776:3895   */\n  iszero\n  tag_81\n  jumpi\n    /* \"#utility.yul\":3814:3893   */\n  tag_82\n  tag_17\n  jump\t// in\ntag_82:\n    /* \"#utility.yul\":3776:3895   */\ntag_81:\n    /* \"#utility.yul\":3955:3956   */\n  0x00\n    /* \"#utility.yul\":3944:3953   */\n  dup4\n    /* \"#utility.yul\":3940:3957   */\n  add\n    /* \"#utility.yul\":3934:3958   */\n  mload\n    /* \"#utility.yul\":3985:4003   */\n  0xffffffffffffffff\n    /* \"#utility.yul\":3977:3983   */\n  dup2\n    /* \"#utility.yul\":3974:4004   */\n  gt\n    /* \"#utility.yul\":3971:4088   */\n  iszero\n  tag_83\n  jumpi\n    /* \"#utility.yul\":4007:4086   */\n  tag_84\n  tag_18\n  jump\t// in\ntag_84:\n    /* \"#utility.yul\":3971:4088   */\ntag_83:\n    /* \"#utility.yul\":4112:4201   */\n  tag_85\n    /* \"#utility.yul\":4193:4200   */\n  dup6\n    /* \"#utility.yul\":4184:4190   */\n  dup3\n    /* \"#utility.yul\":4173:4182   */\n  dup7\n    /* \"#utility.yul\":4169:4191   */\n  add\n    /* \"#utility.yul\":4112:4201   */\n  tag_31\n  jump\t// in\ntag_85:\n    /* \"#utility.yul\":4102:4201   */\n  swap3\n  pop\n    /* \"#utility.yul\":3905:4211   */\n  pop\n    /* \"#utility.yul\":4250:4252   */\n  0x20\n    /* \"#utility.yul\":4276:4340   */\n  tag_86\n    /* \"#utility.yul\":4332:4339   */\n  dup6\n    /* \"#utility.yul\":4323:4329   */\n  dup3\n    /* \"#utility.yul\":4312:4321   */\n  dup7\n    /* \"#utility.yul\":4308:4330   */\n  add\n    /* \"#utility.yul\":4276:4340   */\n  tag_34\n  jump\t// in\ntag_86:\n    /* \"#utility.yul\":4266:4340   */\n  swap2\n  pop\n    /* \"#utility.yul\":4221:4350   */\n  pop\n    /* \"#utility.yul\":3647:4357   */\n  swap3\n  pop\n  swap3\n  swap1\n  pop\n  jump\t// out\n    /* \"tests/new/project.sol\":224:2330  contract Wallet {... */\ntag_8:\n  dataSize(sub_0)\n  dup1\n  dataOffset(sub_0)\n  0x00\n  codecopy\n  0x00\n  return\nstop\n\nsub_0: assembly {\n        /* \"tests/new/project.sol\":224:2330  contract Wallet {... */\n      mstore(0x40, 0x80)\n      jumpi(tag_1, lt(calldatasize, 0x04))\n      shr(0xe0, calldataload(0x00))\n      dup1\n      0x025e7c27\n      eq\n      tag_2\n      jumpi\n      dup1\n      0x4c12fa47\n      eq\n      tag_3\n      jumpi\n      dup1\n      0x941be5f7\n      eq\n      tag_4\n      jumpi\n      dup1\n      0xa04ef145\n      eq\n      tag_5\n      jumpi\n      dup1\n      0xb759f954\n      eq\n      tag_6\n      jumpi\n      dup1\n      0xd0e30db0\n      eq\n      tag_7\n      jumpi\n    tag_1:\n      0x00\n      dup1\n      revert\n        /* \"tests/new/project.sol\":247:270  address[] public owners */\n    tag_2:\n      callvalue\n      dup1\n      iszero\n      tag_8\n      jumpi\n      0x00\n      dup1\n      revert\n    tag_8:\n      pop\n      tag_9\n      0x04\n      dup1\n      calldatasize\n      sub\n      dup2\n      add\n      swap1\n      tag_10\n      swap2\n      swap1\n      tag_11\n      jump\t// in\n    tag_10:\n      tag_12\n      jump\t// in\n    tag_9:\n      mload(0x40)\n      tag_13\n      swap2\n      swap1\n      tag_14\n      jump\t// in\n    tag_13:\n      mload(0x40)\n      dup1\n      swap2\n      sub\n      swap1\n      return\n        /* \"tests/new/project.sol\":1229:1537  function createTransfer(uint _amount, address payable _receiver) public onlyOwners {... */\n    tag_3:\n      callvalue\n      dup1\n      iszero\n      tag_15\n      jumpi\n      0x00\n      dup1\n      revert\n    tag_15:\n      pop\n      tag_16\n      0x04\n      dup1\n      calldatasize\n      sub\n      dup2\n      add\n      swap1\n      tag_17\n      swap2\n      swap1\n      tag_18\n      jump\t// in\n    tag_17:\n      tag_19\n      jump\t// in\n    tag_16:\n      stop\n        /* \"tests/new/project.sol\":1543:1631  function getBlance() public view returns (uint){... */\n    tag_4:\n      callvalue\n      dup1\n      iszero\n      tag_20\n      jumpi\n      0x00\n      dup1\n      revert\n    tag_20:\n      pop\n      tag_21\n      tag_22\n      jump\t// in\n    tag_21:\n      mload(0x40)\n      tag_23\n      swap2\n      swap1\n      tag_24\n      jump\t// in\n    tag_23:\n      mload(0x40)\n      dup1\n      swap2\n      sub\n      swap1\n      return\n        /* \"tests/new/project.sol\":2214:2327  function getTransferRequests() public view returns (Transfer[] memory) {... */\n    tag_5:\n      callvalue\n      dup1\n      iszero\n      tag_25\n      jumpi\n      0x00\n      dup1\n      revert\n    tag_25:\n      pop\n      tag_26\n      tag_27\n      jump\t// in\n    tag_26:\n      mload(0x40)\n      tag_28\n      swap2\n      swap1\n      tag_29\n      jump\t// in\n    tag_28:\n      mload(0x40)\n      dup1\n      swap2\n      sub\n      swap1\n      return\n        /* \"tests/new/project.sol\":1643:2206  function approve(uint _id) public onlyOwners {... */\n    tag_6:\n      callvalue\n      dup1\n      iszero\n      tag_30\n      jumpi\n      0x00\n      dup1\n      revert\n    tag_30:\n      pop\n      tag_31\n      0x04\n      dup1\n      calldatasize\n      sub\n      dup2\n      add\n      swap1\n      tag_32\n      swap2\n      swap1\n      tag_11\n      jump\t// in\n    tag_32:\n      tag_33\n      jump\t// in\n    tag_31:\n      stop\n        /* \"tests/new/project.sol\":1185:1221  function deposit() public payable {} */\n    tag_7:\n      tag_34\n      tag_35\n      jump\t// in\n    tag_34:\n      stop\n        /* \"tests/new/project.sol\":247:270  address[] public owners */\n    tag_12:\n      0x00\n      dup2\n      dup2\n      sload\n      dup2\n      lt\n      tag_36\n      jumpi\n      0x00\n      dup1\n      revert\n    tag_36:\n      swap1\n      0x00\n      mstore\n      keccak256(0x00, 0x20)\n      add\n      0x00\n      swap2\n      pop\n      sload\n      swap1\n      0x0100\n      exp\n      swap1\n      div\n      0xffffffffffffffffffffffffffffffffffffffff\n      and\n      dup2\n      jump\t// out\n        /* \"tests/new/project.sol\":1229:1537  function createTransfer(uint _amount, address payable _receiver) public onlyOwners {... */\n    tag_19:\n        /* \"tests/new/project.sol\":840:850  bool owner */\n      0x00\n        /* \"tests/new/project.sol\":873:879  uint i */\n      dup1\n        /* \"tests/new/project.sol\":869:1003  for(uint i=0; i<owners.length;i++){... */\n    tag_39:\n        /* \"tests/new/project.sol\":885:891  owners */\n      0x00\n        /* \"tests/new/project.sol\":885:898  owners.length */\n      dup1\n      sload\n      swap1\n      pop\n        /* \"tests/new/project.sol\":883:884  i */\n      dup2\n        /* \"tests/new/project.sol\":883:898  i<owners.length */\n      lt\n        /* \"tests/new/project.sol\":869:1003  for(uint i=0; i<owners.length;i++){... */\n      iszero\n      tag_40\n      jumpi\n        /* \"tests/new/project.sol\":934:944  msg.sender */\n      caller\n        /* \"tests/new/project.sol\":921:944  owners[i] == msg.sender */\n      0xffffffffffffffffffffffffffffffffffffffff\n      and\n        /* \"tests/new/project.sol\":921:927  owners */\n      0x00\n        /* \"tests/new/project.sol\":928:929  i */\n      dup3\n        /* \"tests/new/project.sol\":921:930  owners[i] */\n      dup2\n      sload\n      dup2\n      lt\n      tag_42\n      jumpi\n      tag_43\n      tag_44\n      jump\t// in\n    tag_43:\n    tag_42:\n      swap1\n      0x00\n      mstore\n      keccak256(0x00, 0x20)\n      add\n      0x00\n      swap1\n      sload\n      swap1\n      0x0100\n      exp\n      swap1\n      div\n      0xffffffffffffffffffffffffffffffffffffffff\n      and\n        /* \"tests/new/project.sol\":921:944  owners[i] == msg.sender */\n      0xffffffffffffffffffffffffffffffffffffffff\n      and\n      sub\n        /* \"tests/new/project.sol\":918:992  if(owners[i] == msg.sender){... */\n      tag_46\n      jumpi\n        /* \"tests/new/project.sol\":972:976  true */\n      0x01\n        /* \"tests/new/project.sol\":964:976  owner = true */\n      swap2\n      pop\n        /* \"tests/new/project.sol\":918:992  if(owners[i] == msg.sender){... */\n    tag_46:\n        /* \"tests/new/project.sol\":899:902  i++ */\n      dup1\n      dup1\n      0x01\n      add\n      swap2\n      pop\n      pop\n        /* \"tests/new/project.sol\":869:1003  for(uint i=0; i<owners.length;i++){... */\n      jump(tag_39)\n    tag_40:\n      pop\n        /* \"tests/new/project.sol\":1030:1034  true */\n      0x01\n        /* \"tests/new/project.sol\":1021:1034  owner == true */\n      iszero\n      iszero\n        /* \"tests/new/project.sol\":1021:1026  owner */\n      dup2\n        /* \"tests/new/project.sol\":1021:1034  owner == true */\n      iszero\n      iszero\n      eq\n        /* \"tests/new/project.sol\":1013:1035  require(owner == true) */\n      tag_47\n      jumpi\n      0x00\n      dup1\n      revert\n    tag_47:\n        /* \"tests/new/project.sol\":1328:1408  TransferRequestsCreated(transferRequests.length, _amount, msg.sender, _receiver) */\n      0x32e340cac9a0540003161460e7fc9f3d43c9db6168397b7115d76679581f596c\n        /* \"tests/new/project.sol\":1352:1368  transferRequests */\n      0x02\n        /* \"tests/new/project.sol\":1352:1375  transferRequests.length */\n      dup1\n      sload\n      swap1\n      pop\n        /* \"tests/new/project.sol\":1377:1384  _amount */\n      dup5\n        /* \"tests/new/project.sol\":1386:1396  msg.sender */\n      caller\n        /* \"tests/new/project.sol\":1398:1407  _receiver */\n      dup6\n        /* \"tests/new/project.sol\":1328:1408  TransferRequestsCreated(transferRequests.length, _amount, msg.sender, _receiver) */\n      mload(0x40)\n      tag_49\n      swap5\n      swap4\n      swap3\n      swap2\n      swap1\n      tag_50\n      jump\t// in\n    tag_49:\n      mload(0x40)\n      dup1\n      swap2\n      sub\n      swap1\n      log1\n        /* \"tests/new/project.sol\":1419:1435  transferRequests */\n      0x02\n        /* \"tests/new/project.sol\":1455:1518  Transfer(_amount, _receiver, 0, false, transferRequests.length) */\n      mload(0x40)\n      dup1\n      0xa0\n      add\n      0x40\n      mstore\n      dup1\n        /* \"tests/new/project.sol\":1464:1471  _amount */\n      dup6\n        /* \"tests/new/project.sol\":1455:1518  Transfer(_amount, _receiver, 0, false, transferRequests.length) */\n      dup2\n      mstore\n      0x20\n      add\n        /* \"tests/new/project.sol\":1473:1482  _receiver */\n      dup5\n        /* \"tests/new/project.sol\":1455:1518  Transfer(_amount, _receiver, 0, false, transferRequests.length) */\n      0xffffffffffffffffffffffffffffffffffffffff\n      and\n      dup2\n      mstore\n      0x20\n      add\n        /* \"tests/new/project.sol\":1484:1485  0 */\n      0x00\n        /* \"tests/new/project.sol\":1455:1518  Transfer(_amount, _receiver, 0, false, transferRequests.length) */\n      dup2\n      mstore\n      0x20\n      add\n        /* \"tests/new/project.sol\":1487:1492  false */\n      0x00\n        /* \"tests/new/project.sol\":1455:1518  Transfer(_amount, _receiver, 0, false, transferRequests.length) */\n      iszero\n      iszero\n      dup2\n      mstore\n      0x20\n      add\n        /* \"tests/new/project.sol\":1494:1510  transferRequests */\n      0x02\n        /* \"tests/new/project.sol\":1494:1517  transferRequests.length */\n      dup1\n      sload\n      swap1\n      pop\n        /* \"tests/new/project.sol\":1455:1518  Transfer(_amount, _receiver, 0, false, transferRequests.length) */\n      dup2\n      mstore\n      pop\n        /* \"tests/new/project.sol\":1419:1529  transferRequests.push(... */\n      swap1\n      dup1\n      0x01\n      dup2\n      sload\n      add\n      dup1\n      dup3\n      sstore\n      dup1\n      swap2\n      pop\n      pop\n      0x01\n      swap1\n      sub\n      swap1\n      0x00\n      mstore\n      keccak256(0x00, 0x20)\n      swap1\n      0x05\n      mul\n      add\n      0x00\n      swap1\n      swap2\n      swap1\n      swap2\n      swap1\n      swap2\n      pop\n      0x00\n      dup3\n      add\n      mload\n      dup2\n      0x00\n      add\n      sstore\n      0x20\n      dup3\n      add\n      mload\n      dup2\n      0x01\n      add\n      exp(0x0100, 0x00)\n      dup2\n      sload\n      dup2\n      0xffffffffffffffffffffffffffffffffffffffff\n      mul\n      not\n      and\n      swap1\n      dup4\n      0xffffffffffffffffffffffffffffffffffffffff\n      and\n      mul\n      or\n      swap1\n      sstore\n      pop\n      0x40\n      dup3\n      add\n      mload\n      dup2\n      0x02\n      add\n      sstore\n      0x60\n      dup3\n      add\n      mload\n      dup2\n      0x03\n      add\n      exp(0x0100, 0x00)\n      dup2\n      sload\n      dup2\n      0xff\n      mul\n      not\n      and\n      swap1\n      dup4\n      iszero\n      iszero\n      mul\n      or\n      swap1\n      sstore\n      pop\n      0x80\n      dup3\n      add\n      mload\n      dup2\n      0x04\n      add\n      sstore\n      pop\n      pop\n        /* \"tests/new/project.sol\":829:1055  {... */\n      pop\n        /* \"tests/new/project.sol\":1229:1537  function createTransfer(uint _amount, address payable _receiver) public onlyOwners {... */\n      pop\n      pop\n      jump\t// out\n        /* \"tests/new/project.sol\":1543:1631  function getBlance() public view returns (uint){... */\n    tag_22:\n        /* \"tests/new/project.sol\":1585:1589  uint */\n      0x00\n        /* \"tests/new/project.sol\":1604:1611  balance */\n      0x04\n        /* \"tests/new/project.sol\":1604:1623  balance[msg.sender] */\n      0x00\n        /* \"tests/new/project.sol\":1612:1622  msg.sender */\n      caller\n        /* \"tests/new/project.sol\":1604:1623  balance[msg.sender] */\n      0xffffffffffffffffffffffffffffffffffffffff\n      and\n      0xffffffffffffffffffffffffffffffffffffffff\n      and\n      dup2\n      mstore\n      0x20\n      add\n      swap1\n      dup2\n      mstore\n      0x20\n      add\n      0x00\n      keccak256\n      sload\n        /* \"tests/new/project.sol\":1597:1623  return balance[msg.sender] */\n      swap1\n      pop\n        /* \"tests/new/project.sol\":1543:1631  function getBlance() public view returns (uint){... */\n      swap1\n      jump\t// out\n        /* \"tests/new/project.sol\":2214:2327  function getTransferRequests() public view returns (Transfer[] memory) {... */\n    tag_27:\n        /* \"tests/new/project.sol\":2266:2283  Transfer[] memory */\n      0x60\n        /* \"tests/new/project.sol\":2303:2319  transferRequests */\n      0x02\n        /* \"tests/new/project.sol\":2296:2319  return transferRequests */\n      dup1\n      sload\n      dup1\n      0x20\n      mul\n      0x20\n      add\n      mload(0x40)\n      swap1\n      dup2\n      add\n      0x40\n      mstore\n      dup1\n      swap3\n      swap2\n      swap1\n      dup2\n      dup2\n      mstore\n      0x20\n      add\n      0x00\n      swap1\n    tag_54:\n      dup3\n      dup3\n      lt\n      iszero\n      tag_55\n      jumpi\n      dup4\n      dup3\n      swap1\n      0x00\n      mstore\n      keccak256(0x00, 0x20)\n      swap1\n      0x05\n      mul\n      add\n      mload(0x40)\n      dup1\n      0xa0\n      add\n      0x40\n      mstore\n      swap1\n      dup2\n      0x00\n      dup3\n      add\n      sload\n      dup2\n      mstore\n      0x20\n      add\n      0x01\n      dup3\n      add\n      0x00\n      swap1\n      sload\n      swap1\n      0x0100\n      exp\n      swap1\n      div\n      0xffffffffffffffffffffffffffffffffffffffff\n      and\n      0xffffffffffffffffffffffffffffffffffffffff\n      and\n      0xffffffffffffffffffffffffffffffffffffffff\n      and\n      dup2\n      mstore\n      0x20\n      add\n      0x02\n      dup3\n      add\n      sload\n      dup2\n      mstore\n      0x20\n      add\n      0x03\n      dup3\n      add\n      0x00\n      swap1\n      sload\n      swap1\n      0x0100\n      exp\n      swap1\n      div\n      0xff\n      and\n      iszero\n      iszero\n      iszero\n      iszero\n      dup2\n      mstore\n      0x20\n      add\n      0x04\n      dup3\n      add\n      sload\n      dup2\n      mstore\n      pop\n      pop\n      dup2\n      mstore\n      0x20\n      add\n      swap1\n      0x01\n      add\n      swap1\n      jump(tag_54)\n    tag_55:\n      pop\n      pop\n      pop\n      pop\n      swap1\n      pop\n        /* \"tests/new/project.sol\":2214:2327  function getTransferRequests() public view returns (Transfer[] memory) {... */\n      swap1\n      jump\t// out\n        /* \"tests/new/project.sol\":1643:2206  function approve(uint _id) public onlyOwners {... */\n    tag_33:\n        /* \"tests/new/project.sol\":840:850  bool owner */\n      0x00\n        /* \"tests/new/project.sol\":873:879  uint i */\n      dup1\n        /* \"tests/new/project.sol\":869:1003  for(uint i=0; i<owners.length;i++){... */\n    tag_58:\n        /* \"tests/new/project.sol\":885:891  owners */\n      0x00\n        /* \"tests/new/project.sol\":885:898  owners.length */\n      dup1\n      sload\n      swap1\n      pop\n        /* \"tests/new/project.sol\":883:884  i */\n      dup2\n        /* \"tests/new/project.sol\":883:898  i<owners.length */\n      lt\n        /* \"tests/new/project.sol\":869:1003  for(uint i=0; i<owners.length;i++){... */\n      iszero\n      tag_59\n      jumpi\n        /* \"tests/new/project.sol\":934:944  msg.sender */\n      caller\n        /* \"tests/new/project.sol\":921:944  owners[i] == msg.sender */\n      0xffffffffffffffffffffffffffffffffffffffff\n      and\n        /* \"tests/new/project.sol\":921:927  owners */\n      0x00\n        /* \"tests/new/project.sol\":928:929  i */\n      dup3\n        /* \"tests/new/project.sol\":921:930  owners[i] */\n      dup2\n      sload\n      dup2\n      lt\n      tag_61\n      jumpi\n      tag_62\n      tag_44\n      jump\t// in\n    tag_62:\n    tag_61:\n      swap1\n      0x00\n      mstore\n      keccak256(0x00, 0x20)\n      add\n      0x00\n      swap1\n      sload\n      swap1\n      0x0100\n      exp\n      swap1\n      div\n      0xffffffffffffffffffffffffffffffffffffffff\n      and\n        /* \"tests/new/project.sol\":921:944  owners[i] == msg.sender */\n      0xffffffffffffffffffffffffffffffffffffffff\n      and\n      sub\n        /* \"tests/new/project.sol\":918:992  if(owners[i] == msg.sender){... */\n      tag_64\n      jumpi\n        /* \"tests/new/project.sol\":972:976  true */\n      0x01\n        /* \"tests/new/project.sol\":964:976  owner = true */\n      swap2\n      pop\n        /* \"tests/new/project.sol\":918:992  if(owners[i] == msg.sender){... */\n    tag_64:\n        /* \"tests/new/project.sol\":899:902  i++ */\n      dup1\n      dup1\n      0x01\n      add\n      swap2\n      pop\n      pop\n        /* \"tests/new/project.sol\":869:1003  for(uint i=0; i<owners.length;i++){... */\n      jump(tag_58)\n    tag_59:\n      pop\n        /* \"tests/new/project.sol\":1030:1034  true */\n      0x01\n        /* \"tests/new/project.sol\":1021:1034  owner == true */\n      iszero\n      iszero\n        /* \"tests/new/project.sol\":1021:1026  owner */\n      dup2\n        /* \"tests/new/project.sol\":1021:1034  owner == true */\n      iszero\n      iszero\n      eq\n        /* \"tests/new/project.sol\":1013:1035  require(owner == true) */\n      tag_65\n      jumpi\n      0x00\n      dup1\n      revert\n    tag_65:\n        /* \"tests/new/project.sol\":1737:1742  false */\n      0x00\n        /* \"tests/new/project.sol\":1707:1742  approvals[msg.sender][_id] == false */\n      iszero\n      iszero\n        /* \"tests/new/project.sol\":1707:1716  approvals */\n      0x03\n        /* \"tests/new/project.sol\":1707:1728  approvals[msg.sender] */\n      0x00\n        /* \"tests/new/project.sol\":1717:1727  msg.sender */\n      caller\n        /* \"tests/new/project.sol\":1707:1728  approvals[msg.sender] */\n      0xffffffffffffffffffffffffffffffffffffffff\n      and\n      0xffffffffffffffffffffffffffffffffffffffff\n      and\n      dup2\n      mstore\n      0x20\n      add\n      swap1\n      dup2\n      mstore\n      0x20\n      add\n      0x00\n      keccak256\n        /* \"tests/new/project.sol\":1707:1733  approvals[msg.sender][_id] */\n      0x00\n        /* \"tests/new/project.sol\":1729:1732  _id */\n      dup5\n        /* \"tests/new/project.sol\":1707:1733  approvals[msg.sender][_id] */\n      dup2\n      mstore\n      0x20\n      add\n      swap1\n      dup2\n      mstore\n      0x20\n      add\n      0x00\n      keccak256\n      0x00\n      swap1\n      sload\n      swap1\n      0x0100\n      exp\n      swap1\n      div\n      0xff\n      and\n        /* \"tests/new/project.sol\":1707:1742  approvals[msg.sender][_id] == false */\n      iszero\n      iszero\n      eq\n        /* \"tests/new/project.sol\":1699:1743  require(approvals[msg.sender][_id] == false) */\n      tag_67\n      jumpi\n      0x00\n      dup1\n      revert\n    tag_67:\n        /* \"tests/new/project.sol\":1799:1804  false */\n      0x00\n        /* \"tests/new/project.sol\":1762:1804  transferRequests[_id].hasBeenSent == false */\n      iszero\n      iszero\n        /* \"tests/new/project.sol\":1762:1778  transferRequests */\n      0x02\n        /* \"tests/new/project.sol\":1779:1782  _id */\n      dup4\n        /* \"tests/new/project.sol\":1762:1783  transferRequests[_id] */\n      dup2\n      sload\n      dup2\n      lt\n      tag_68\n      jumpi\n      tag_69\n      tag_44\n      jump\t// in\n    tag_69:\n    tag_68:\n      swap1\n      0x00\n      mstore\n      keccak256(0x00, 0x20)\n      swap1\n      0x05\n      mul\n      add\n        /* \"tests/new/project.sol\":1762:1795  transferRequests[_id].hasBeenSent */\n      0x03\n      add\n      0x00\n      swap1\n      sload\n      swap1\n      0x0100\n      exp\n      swap1\n      div\n      0xff\n      and\n        /* \"tests/new/project.sol\":1762:1804  transferRequests[_id].hasBeenSent == false */\n      iszero\n      iszero\n      eq\n        /* \"tests/new/project.sol\":1754:1805  require(transferRequests[_id].hasBeenSent == false) */\n      tag_71\n      jumpi\n      0x00\n      dup1\n      revert\n    tag_71:\n        /* \"tests/new/project.sol\":1847:1851  true */\n      0x01\n        /* \"tests/new/project.sol\":1818:1827  approvals */\n      0x03\n        /* \"tests/new/project.sol\":1818:1839  approvals[msg.sender] */\n      0x00\n        /* \"tests/new/project.sol\":1828:1838  msg.sender */\n      caller\n        /* \"tests/new/project.sol\":1818:1839  approvals[msg.sender] */\n      0xffffffffffffffffffffffffffffffffffffffff\n      and\n      0xffffffffffffffffffffffffffffffffffffffff\n      and\n      dup2\n      mstore\n      0x20\n      add\n      swap1\n      dup2\n      mstore\n      0x20\n      add\n      0x00\n      keccak256\n        /* \"tests/new/project.sol\":1818:1844  approvals[msg.sender][_id] */\n      0x00\n        /* \"tests/new/project.sol\":1840:1843  _id */\n      dup5\n        /* \"tests/new/project.sol\":1818:1844  approvals[msg.sender][_id] */\n      dup2\n      mstore\n      0x20\n      add\n      swap1\n      dup2\n      mstore\n      0x20\n      add\n      0x00\n      keccak256\n      0x00\n        /* \"tests/new/project.sol\":1818:1851  approvals[msg.sender][_id] = true */\n      0x0100\n      exp\n      dup2\n      sload\n      dup2\n      0xff\n      mul\n      not\n      and\n      swap1\n      dup4\n      iszero\n      iszero\n      mul\n      or\n      swap1\n      sstore\n      pop\n        /* \"tests/new/project.sol\":1862:1878  transferRequests */\n      0x02\n        /* \"tests/new/project.sol\":1879:1882  _id */\n      dup3\n        /* \"tests/new/project.sol\":1862:1883  transferRequests[_id] */\n      dup2\n      sload\n      dup2\n      lt\n      tag_72\n      jumpi\n      tag_73\n      tag_44\n      jump\t// in\n    tag_73:\n    tag_72:\n      swap1\n      0x00\n      mstore\n      keccak256(0x00, 0x20)\n      swap1\n      0x05\n      mul\n      add\n        /* \"tests/new/project.sol\":1862:1893  transferRequests[_id].approvals */\n      0x02\n      add\n      0x00\n        /* \"tests/new/project.sol\":1862:1895  transferRequests[_id].approvals++ */\n      dup2\n      sload\n      dup1\n      swap3\n      swap2\n      swap1\n      tag_75\n      swap1\n      tag_76\n      jump\t// in\n    tag_75:\n      swap2\n      swap1\n      pop\n      sstore\n      pop\n        /* \"tests/new/project.sol\":1913:1979  ApprovalReceived(_id, transferRequests[_id].approvals, msg.sender) */\n      0xfec9d12d15ee8c8b836a58347cb0d4980db38411bcd0b83662cee48fb20b6dee\n        /* \"tests/new/project.sol\":1930:1933  _id */\n      dup3\n        /* \"tests/new/project.sol\":1935:1951  transferRequests */\n      0x02\n        /* \"tests/new/project.sol\":1952:1955  _id */\n      dup5\n        /* \"tests/new/project.sol\":1935:1956  transferRequests[_id] */\n      dup2\n      sload\n      dup2\n      lt\n      tag_77\n      jumpi\n      tag_78\n      tag_44\n      jump\t// in\n    tag_78:\n    tag_77:\n      swap1\n      0x00\n      mstore\n      keccak256(0x00, 0x20)\n      swap1\n      0x05\n      mul\n      add\n        /* \"tests/new/project.sol\":1935:1966  transferRequests[_id].approvals */\n      0x02\n      add\n      sload\n        /* \"tests/new/project.sol\":1968:1978  msg.sender */\n      caller\n        /* \"tests/new/project.sol\":1913:1979  ApprovalReceived(_id, transferRequests[_id].approvals, msg.sender) */\n      mload(0x40)\n      tag_80\n      swap4\n      swap3\n      swap2\n      swap1\n      tag_81\n      jump\t// in\n    tag_80:\n      mload(0x40)\n      dup1\n      swap2\n      sub\n      swap1\n      log1\n        /* \"tests/new/project.sol\":2030:2035  limit */\n      sload(0x01)\n        /* \"tests/new/project.sol\":1995:2011  transferRequests */\n      0x02\n        /* \"tests/new/project.sol\":2012:2015  _id */\n      dup4\n        /* \"tests/new/project.sol\":1995:2016  transferRequests[_id] */\n      dup2\n      sload\n      dup2\n      lt\n      tag_82\n      jumpi\n      tag_83\n      tag_44\n      jump\t// in\n    tag_83:\n    tag_82:\n      swap1\n      0x00\n      mstore\n      keccak256(0x00, 0x20)\n      swap1\n      0x05\n      mul\n      add\n        /* \"tests/new/project.sol\":1995:2026  transferRequests[_id].approvals */\n      0x02\n      add\n      sload\n        /* \"tests/new/project.sol\":1995:2035  transferRequests[_id].approvals >= limit */\n      lt\n        /* \"tests/new/project.sol\":1992:2199  if(transferRequests[_id].approvals >= limit){... */\n      tag_85\n      jumpi\n        /* \"tests/new/project.sol\":2079:2083  true */\n      0x01\n        /* \"tests/new/project.sol\":2043:2059  transferRequests */\n      0x02\n        /* \"tests/new/project.sol\":2060:2063  _id */\n      dup4\n        /* \"tests/new/project.sol\":2043:2064  transferRequests[_id] */\n      dup2\n      sload\n      dup2\n      lt\n      tag_86\n      jumpi\n      tag_87\n      tag_44\n      jump\t// in\n    tag_87:\n    tag_86:\n      swap1\n      0x00\n      mstore\n      keccak256(0x00, 0x20)\n      swap1\n      0x05\n      mul\n      add\n        /* \"tests/new/project.sol\":2043:2076  transferRequests[_id].hasBeenSent */\n      0x03\n      add\n      0x00\n        /* \"tests/new/project.sol\":2043:2083  transferRequests[_id].hasBeenSent = true */\n      0x0100\n      exp\n      dup2\n      sload\n      dup2\n      0xff\n      mul\n      not\n      and\n      swap1\n      dup4\n      iszero\n      iszero\n      mul\n      or\n      swap1\n      sstore\n      pop\n        /* \"tests/new/project.sol\":2090:2106  transferRequests */\n      0x02\n        /* \"tests/new/project.sol\":2107:2110  _id */\n      dup3\n        /* \"tests/new/project.sol\":2090:2111  transferRequests[_id] */\n      dup2\n      sload\n      dup2\n      lt\n      tag_89\n      jumpi\n      tag_90\n      tag_44\n      jump\t// in\n    tag_90:\n    tag_89:\n      swap1\n      0x00\n      mstore\n      keccak256(0x00, 0x20)\n      swap1\n      0x05\n      mul\n      add\n        /* \"tests/new/project.sol\":2090:2120  transferRequests[_id].receiver */\n      0x01\n      add\n      0x00\n      swap1\n      sload\n      swap1\n      0x0100\n      exp\n      swap1\n      div\n      0xffffffffffffffffffffffffffffffffffffffff\n      and\n        /* \"tests/new/project.sol\":2090:2129  transferRequests[_id].receiver.transfer */\n      0xffffffffffffffffffffffffffffffffffffffff\n      and\n        /* \"tests/new/project.sol\":2090:2159  transferRequests[_id].receiver.transfer(transferRequests[_id].amount) */\n      0x08fc\n        /* \"tests/new/project.sol\":2130:2146  transferRequests */\n      0x02\n        /* \"tests/new/project.sol\":2147:2150  _id */\n      dup5\n        /* \"tests/new/project.sol\":2130:2151  transferRequests[_id] */\n      dup2\n      sload\n      dup2\n      lt\n      tag_92\n      jumpi\n      tag_93\n      tag_44\n      jump\t// in\n    tag_93:\n    tag_92:\n      swap1\n      0x00\n      mstore\n      keccak256(0x00, 0x20)\n      swap1\n      0x05\n      mul\n      add\n        /* \"tests/new/project.sol\":2130:2158  transferRequests[_id].amount */\n      0x00\n      add\n      sload\n        /* \"tests/new/project.sol\":2090:2159  transferRequests[_id].receiver.transfer(transferRequests[_id].amount) */\n      swap1\n      dup2\n      iszero\n      mul\n      swap1\n      mload(0x40)\n      0x00\n      mload(0x40)\n      dup1\n      dup4\n      sub\n      dup2\n      dup6\n      dup9\n      dup9\n      call\n      swap4\n      pop\n      pop\n      pop\n      pop\n      iszero\n      dup1\n      iszero\n      tag_96\n      jumpi\n      returndatasize\n      0x00\n      dup1\n      returndatacopy\n      revert(0x00, returndatasize)\n    tag_96:\n      pop\n        /* \"tests/new/project.sol\":2171:2192  TransferApproved(_id) */\n      0xd9bbf1d8bef570b7e92ef1ba025425fc15915ae01f3d3be144cdc8be05442eb5\n        /* \"tests/new/project.sol\":2188:2191  _id */\n      dup3\n        /* \"tests/new/project.sol\":2171:2192  TransferApproved(_id) */\n      mload(0x40)\n      tag_97\n      swap2\n      swap1\n      tag_24\n      jump\t// in\n    tag_97:\n      mload(0x40)\n      dup1\n      swap2\n      sub\n      swap1\n      log1\n        /* \"tests/new/project.sol\":1992:2199  if(transferRequests[_id].approvals >= limit){... */\n    tag_85:\n        /* \"tests/new/project.sol\":829:1055  {... */\n      pop\n        /* \"tests/new/project.sol\":1643:2206  function approve(uint _id) public onlyOwners {... */\n      pop\n      jump\t// out\n        /* \"tests/new/project.sol\":1185:1221  function deposit() public payable {} */\n    tag_35:\n      jump\t// out\n        /* \"#utility.yul\":88:205   */\n    tag_100:\n        /* \"#utility.yul\":197:198   */\n      0x00\n        /* \"#utility.yul\":194:195   */\n      dup1\n        /* \"#utility.yul\":187:199   */\n      revert\n        /* \"#utility.yul\":334:411   */\n    tag_102:\n        /* \"#utility.yul\":371:378   */\n      0x00\n        /* \"#utility.yul\":400:405   */\n      dup2\n        /* \"#utility.yul\":389:405   */\n      swap1\n      pop\n        /* \"#utility.yul\":334:411   */\n      swap2\n      swap1\n      pop\n      jump\t// out\n        /* \"#utility.yul\":417:539   */\n    tag_103:\n        /* \"#utility.yul\":490:514   */\n      tag_135\n        /* \"#utility.yul\":508:513   */\n      dup2\n        /* \"#utility.yul\":490:514   */\n      tag_102\n      jump\t// in\n    tag_135:\n        /* \"#utility.yul\":483:488   */\n      dup2\n        /* \"#utility.yul\":480:515   */\n      eq\n        /* \"#utility.yul\":470:533   */\n      tag_136\n      jumpi\n        /* \"#utility.yul\":529:530   */\n      0x00\n        /* \"#utility.yul\":526:527   */\n      dup1\n        /* \"#utility.yul\":519:531   */\n      revert\n        /* \"#utility.yul\":470:533   */\n    tag_136:\n        /* \"#utility.yul\":417:539   */\n      pop\n      jump\t// out\n        /* \"#utility.yul\":545:684   */\n    tag_104:\n        /* \"#utility.yul\":591:596   */\n      0x00\n        /* \"#utility.yul\":629:635   */\n      dup2\n        /* \"#utility.yul\":616:636   */\n      calldataload\n        /* \"#utility.yul\":607:636   */\n      swap1\n      pop\n        /* \"#utility.yul\":645:678   */\n      tag_138\n        /* \"#utility.yul\":672:677   */\n      dup2\n        /* \"#utility.yul\":645:678   */\n      tag_103\n      jump\t// in\n    tag_138:\n        /* \"#utility.yul\":545:684   */\n      swap3\n      swap2\n      pop\n      pop\n      jump\t// out\n        /* \"#utility.yul\":690:1019   */\n    tag_11:\n        /* \"#utility.yul\":749:755   */\n      0x00\n        /* \"#utility.yul\":798:800   */\n      0x20\n        /* \"#utility.yul\":786:795   */\n      dup3\n        /* \"#utility.yul\":777:784   */\n      dup5\n        /* \"#utility.yul\":773:796   */\n      sub\n        /* \"#utility.yul\":769:801   */\n      slt\n        /* \"#utility.yul\":766:885   */\n      iszero\n      tag_140\n      jumpi\n        /* \"#utility.yul\":804:883   */\n      tag_141\n      tag_100\n      jump\t// in\n    tag_141:\n        /* \"#utility.yul\":766:885   */\n    tag_140:\n        /* \"#utility.yul\":924:925   */\n      0x00\n        /* \"#utility.yul\":949:1002   */\n      tag_142\n        /* \"#utility.yul\":994:1001   */\n      dup5\n        /* \"#utility.yul\":985:991   */\n      dup3\n        /* \"#utility.yul\":974:983   */\n      dup6\n        /* \"#utility.yul\":970:992   */\n      add\n        /* \"#utility.yul\":949:1002   */\n      tag_104\n      jump\t// in\n    tag_142:\n        /* \"#utility.yul\":939:1002   */\n      swap2\n      pop\n        /* \"#utility.yul\":895:1012   */\n      pop\n        /* \"#utility.yul\":690:1019   */\n      swap3\n      swap2\n      pop\n      pop\n      jump\t// out\n        /* \"#utility.yul\":1025:1151   */\n    tag_105:\n        /* \"#utility.yul\":1062:1069   */\n      0x00\n        /* \"#utility.yul\":1102:1144   */\n      0xffffffffffffffffffffffffffffffffffffffff\n        /* \"#utility.yul\":1095:1100   */\n      dup3\n        /* \"#utility.yul\":1091:1145   */\n      and\n        /* \"#utility.yul\":1080:1145   */\n      swap1\n      pop\n        /* \"#utility.yul\":1025:1151   */\n      swap2\n      swap1\n      pop\n      jump\t// out\n        /* \"#utility.yul\":1157:1253   */\n    tag_106:\n        /* \"#utility.yul\":1194:1201   */\n      0x00\n        /* \"#utility.yul\":1223:1247   */\n      tag_145\n        /* \"#utility.yul\":1241:1246   */\n      dup3\n        /* \"#utility.yul\":1223:1247   */\n      tag_105\n      jump\t// in\n    tag_145:\n        /* \"#utility.yul\":1212:1247   */\n      swap1\n      pop\n        /* \"#utility.yul\":1157:1253   */\n      swap2\n      swap1\n      pop\n      jump\t// out\n        /* \"#utility.yul\":1259:1377   */\n    tag_107:\n        /* \"#utility.yul\":1346:1370   */\n      tag_147\n        /* \"#utility.yul\":1364:1369   */\n      dup2\n        /* \"#utility.yul\":1346:1370   */\n      tag_106\n      jump\t// in\n    tag_147:\n        /* \"#utility.yul\":1341:1344   */\n      dup3\n        /* \"#utility.yul\":1334:1371   */\n      mstore\n        /* \"#utility.yul\":1259:1377   */\n      pop\n      pop\n      jump\t// out\n        /* \"#utility.yul\":1383:1605   */\n    tag_14:\n        /* \"#utility.yul\":1476:1480   */\n      0x00\n        /* \"#utility.yul\":1514:1516   */\n      0x20\n        /* \"#utility.yul\":1503:1512   */\n      dup3\n        /* \"#utility.yul\":1499:1517   */\n      add\n        /* \"#utility.yul\":1491:1517   */\n      swap1\n      pop\n        /* \"#utility.yul\":1527:1598   */\n      tag_149\n        /* \"#utility.yul\":1595:1596   */\n      0x00\n        /* \"#utility.yul\":1584:1593   */\n      dup4\n        /* \"#utility.yul\":1580:1597   */\n      add\n        /* \"#utility.yul\":1571:1577   */\n      dup5\n        /* \"#utility.yul\":1527:1598   */\n      tag_107\n      jump\t// in\n    tag_149:\n        /* \"#utility.yul\":1383:1605   */\n      swap3\n      swap2\n      pop\n      pop\n      jump\t// out\n        /* \"#utility.yul\":1611:1715   */\n    tag_108:\n        /* \"#utility.yul\":1656:1663   */\n      0x00\n        /* \"#utility.yul\":1685:1709   */\n      tag_151\n        /* \"#utility.yul\":1703:1708   */\n      dup3\n        /* \"#utility.yul\":1685:1709   */\n      tag_105\n      jump\t// in\n    tag_151:\n        /* \"#utility.yul\":1674:1709   */\n      swap1\n      pop\n        /* \"#utility.yul\":1611:1715   */\n      swap2\n      swap1\n      pop\n      jump\t// out\n        /* \"#utility.yul\":1721:1859   */\n    tag_109:\n        /* \"#utility.yul\":1802:1834   */\n      tag_153\n        /* \"#utility.yul\":1828:1833   */\n      dup2\n        /* \"#utility.yul\":1802:1834   */\n      tag_108\n      jump\t// in\n    tag_153:\n        /* \"#utility.yul\":1795:1800   */\n      dup2\n        /* \"#utility.yul\":1792:1835   */\n      eq\n        /* \"#utility.yul\":1782:1853   */\n      tag_154\n      jumpi\n        /* \"#utility.yul\":1849:1850   */\n      0x00\n        /* \"#utility.yul\":1846:1847   */\n      dup1\n        /* \"#utility.yul\":1839:1851   */\n      revert\n        /* \"#utility.yul\":1782:1853   */\n    tag_154:\n        /* \"#utility.yul\":1721:1859   */\n      pop\n      jump\t// out\n        /* \"#utility.yul\":1865:2020   */\n    tag_110:\n        /* \"#utility.yul\":1919:1924   */\n      0x00\n        /* \"#utility.yul\":1957:1963   */\n      dup2\n        /* \"#utility.yul\":1944:1964   */\n      calldataload\n        /* \"#utility.yul\":1935:1964   */\n      swap1\n      pop\n        /* \"#utility.yul\":1973:2014   */\n      tag_156\n        /* \"#utility.yul\":2008:2013   */\n      dup2\n        /* \"#utility.yul\":1973:2014   */\n      tag_109\n      jump\t// in\n    tag_156:\n        /* \"#utility.yul\":1865:2020   */\n      swap3\n      swap2\n      pop\n      pop\n      jump\t// out\n        /* \"#utility.yul\":2026:2516   */\n    tag_18:\n        /* \"#utility.yul\":2102:2108   */\n      0x00\n        /* \"#utility.yul\":2110:2116   */\n      dup1\n        /* \"#utility.yul\":2159:2161   */\n      0x40\n        /* \"#utility.yul\":2147:2156   */\n      dup4\n        /* \"#utility.yul\":2138:2145   */\n      dup6\n        /* \"#utility.yul\":2134:2157   */\n      sub\n        /* \"#utility.yul\":2130:2162   */\n      slt\n        /* \"#utility.yul\":2127:2246   */\n      iszero\n      tag_158\n      jumpi\n        /* \"#utility.yul\":2165:2244   */\n      tag_159\n      tag_100\n      jump\t// in\n    tag_159:\n        /* \"#utility.yul\":2127:2246   */\n    tag_158:\n        /* \"#utility.yul\":2285:2286   */\n      0x00\n        /* \"#utility.yul\":2310:2363   */\n      tag_160\n        /* \"#utility.yul\":2355:2362   */\n      dup6\n        /* \"#utility.yul\":2346:2352   */\n      dup3\n        /* \"#utility.yul\":2335:2344   */\n      dup7\n        /* \"#utility.yul\":2331:2353   */\n      add\n        /* \"#utility.yul\":2310:2363   */\n      tag_104\n      jump\t// in\n    tag_160:\n        /* \"#utility.yul\":2300:2363   */\n      swap3\n      pop\n        /* \"#utility.yul\":2256:2373   */\n      pop\n        /* \"#utility.yul\":2412:2414   */\n      0x20\n        /* \"#utility.yul\":2438:2499   */\n      tag_161\n        /* \"#utility.yul\":2491:2498   */\n      dup6\n        /* \"#utility.yul\":2482:2488   */\n      dup3\n        /* \"#utility.yul\":2471:2480   */\n      dup7\n        /* \"#utility.yul\":2467:2489   */\n      add\n        /* \"#utility.yul\":2438:2499   */\n      tag_110\n      jump\t// in\n    tag_161:\n        /* \"#utility.yul\":2428:2499   */\n      swap2\n      pop\n        /* \"#utility.yul\":2383:2509   */\n      pop\n        /* \"#utility.yul\":2026:2516   */\n      swap3\n      pop\n      swap3\n      swap1\n      pop\n      jump\t// out\n        /* \"#utility.yul\":2522:2640   */\n    tag_111:\n        /* \"#utility.yul\":2609:2633   */\n      tag_163\n        /* \"#utility.yul\":2627:2632   */\n      dup2\n        /* \"#utility.yul\":2609:2633   */\n      tag_102\n      jump\t// in\n    tag_163:\n        /* \"#utility.yul\":2604:2607   */\n      dup3\n        /* \"#utility.yul\":2597:2634   */\n      mstore\n        /* \"#utility.yul\":2522:2640   */\n      pop\n      pop\n      jump\t// out\n        /* \"#utility.yul\":2646:2868   */\n    tag_24:\n        /* \"#utility.yul\":2739:2743   */\n      0x00\n        /* \"#utility.yul\":2777:2779   */\n      0x20\n        /* \"#utility.yul\":2766:2775   */\n      dup3\n        /* \"#utility.yul\":2762:2780   */\n      add\n        /* \"#utility.yul\":2754:2780   */\n      swap1\n      pop\n        /* \"#utility.yul\":2790:2861   */\n      tag_165\n        /* \"#utility.yul\":2858:2859   */\n      0x00\n        /* \"#utility.yul\":2847:2856   */\n      dup4\n        /* \"#utility.yul\":2843:2860   */\n      add\n        /* \"#utility.yul\":2834:2840   */\n      dup5\n        /* \"#utility.yul\":2790:2861   */\n      tag_111\n      jump\t// in\n    tag_165:\n        /* \"#utility.yul\":2646:2868   */\n      swap3\n      swap2\n      pop\n      pop\n      jump\t// out\n        /* \"#utility.yul\":2874:3012   */\n    tag_112:\n        /* \"#utility.yul\":2965:2971   */\n      0x00\n        /* \"#utility.yul\":2999:3004   */\n      dup2\n        /* \"#utility.yul\":2993:3005   */\n      mload\n        /* \"#utility.yul\":2983:3005   */\n      swap1\n      pop\n        /* \"#utility.yul\":2874:3012   */\n      swap2\n      swap1\n      pop\n      jump\t// out\n        /* \"#utility.yul\":3018:3226   */\n    tag_113:\n        /* \"#utility.yul\":3141:3152   */\n      0x00\n        /* \"#utility.yul\":3175:3181   */\n      dup3\n        /* \"#utility.yul\":3170:3173   */\n      dup3\n        /* \"#utility.yul\":3163:3182   */\n      mstore\n        /* \"#utility.yul\":3215:3219   */\n      0x20\n        /* \"#utility.yul\":3210:3213   */\n      dup3\n        /* \"#utility.yul\":3206:3220   */\n      add\n        /* \"#utility.yul\":3191:3220   */\n      swap1\n      pop\n        /* \"#utility.yul\":3018:3226   */\n      swap3\n      swap2\n      pop\n      pop\n      jump\t// out\n        /* \"#utility.yul\":3232:3388   */\n    tag_114:\n        /* \"#utility.yul\":3323:3327   */\n      0x00\n        /* \"#utility.yul\":3346:3349   */\n      dup2\n        /* \"#utility.yul\":3338:3349   */\n      swap1\n      pop\n        /* \"#utility.yul\":3376:3380   */\n      0x20\n        /* \"#utility.yul\":3371:3374   */\n      dup3\n        /* \"#utility.yul\":3367:3381   */\n      add\n        /* \"#utility.yul\":3359:3381   */\n      swap1\n      pop\n        /* \"#utility.yul\":3232:3388   */\n      swap2\n      swap1\n      pop\n      jump\t// out\n        /* \"#utility.yul\":3394:3502   */\n    tag_115:\n        /* \"#utility.yul\":3471:3495   */\n      tag_170\n        /* \"#utility.yul\":3489:3494   */\n      dup2\n        /* \"#utility.yul\":3471:3495   */\n      tag_102\n      jump\t// in\n    tag_170:\n        /* \"#utility.yul\":3466:3469   */\n      dup3\n        /* \"#utility.yul\":3459:3496   */\n      mstore\n        /* \"#utility.yul\":3394:3502   */\n      pop\n      pop\n      jump\t// out\n        /* \"#utility.yul\":3508:3640   */\n    tag_116:\n        /* \"#utility.yul\":3601:3633   */\n      tag_172\n        /* \"#utility.yul\":3627:3632   */\n      dup2\n        /* \"#utility.yul\":3601:3633   */\n      tag_108\n      jump\t// in\n    tag_172:\n        /* \"#utility.yul\":3596:3599   */\n      dup3\n        /* \"#utility.yul\":3589:3634   */\n      mstore\n        /* \"#utility.yul\":3508:3640   */\n      pop\n      pop\n      jump\t// out\n        /* \"#utility.yul\":3646:3736   */\n    tag_117:\n        /* \"#utility.yul\":3680:3687   */\n      0x00\n        /* \"#utility.yul\":3723:3728   */\n      dup2\n        /* \"#utility.yul\":3716:3729   */\n      iszero\n        /* \"#utility.yul\":3709:3730   */\n      iszero\n        /* \"#utility.yul\":3698:3730   */\n      swap1\n      pop\n        /* \"#utility.yul\":3646:3736   */\n      swap2\n      swap1\n      pop\n      jump\t// out\n        /* \"#utility.yul\":3742:3841   */\n    tag_118:\n        /* \"#utility.yul\":3813:3834   */\n      tag_175\n        /* \"#utility.yul\":3828:3833   */\n      dup2\n        /* \"#utility.yul\":3813:3834   */\n      tag_117\n      jump\t// in\n    tag_175:\n        /* \"#utility.yul\":3808:3811   */\n      dup3\n        /* \"#utility.yul\":3801:3835   */\n      mstore\n        /* \"#utility.yul\":3742:3841   */\n      pop\n      pop\n      jump\t// out\n        /* \"#utility.yul\":3903:4946   */\n    tag_119:\n        /* \"#utility.yul\":4038:4042   */\n      0xa0\n        /* \"#utility.yul\":4033:4036   */\n      dup3\n        /* \"#utility.yul\":4029:4043   */\n      add\n        /* \"#utility.yul\":4127:4131   */\n      0x00\n        /* \"#utility.yul\":4120:4125   */\n      dup3\n        /* \"#utility.yul\":4116:4132   */\n      add\n        /* \"#utility.yul\":4110:4133   */\n      mload\n        /* \"#utility.yul\":4146:4209   */\n      tag_177\n        /* \"#utility.yul\":4203:4207   */\n      0x00\n        /* \"#utility.yul\":4198:4201   */\n      dup6\n        /* \"#utility.yul\":4194:4208   */\n      add\n        /* \"#utility.yul\":4180:4192   */\n      dup3\n        /* \"#utility.yul\":4146:4209   */\n      tag_115\n      jump\t// in\n    tag_177:\n        /* \"#utility.yul\":4053:4219   */\n      pop\n        /* \"#utility.yul\":4305:4309   */\n      0x20\n        /* \"#utility.yul\":4298:4303   */\n      dup3\n        /* \"#utility.yul\":4294:4310   */\n      add\n        /* \"#utility.yul\":4288:4311   */\n      mload\n        /* \"#utility.yul\":4324:4403   */\n      tag_178\n        /* \"#utility.yul\":4397:4401   */\n      0x20\n        /* \"#utility.yul\":4392:4395   */\n      dup6\n        /* \"#utility.yul\":4388:4402   */\n      add\n        /* \"#utility.yul\":4374:4386   */\n      dup3\n        /* \"#utility.yul\":4324:4403   */\n      tag_116\n      jump\t// in\n    tag_178:\n        /* \"#utility.yul\":4229:4413   */\n      pop\n        /* \"#utility.yul\":4500:4504   */\n      0x40\n        /* \"#utility.yul\":4493:4498   */\n      dup3\n        /* \"#utility.yul\":4489:4505   */\n      add\n        /* \"#utility.yul\":4483:4506   */\n      mload\n        /* \"#utility.yul\":4519:4582   */\n      tag_179\n        /* \"#utility.yul\":4576:4580   */\n      0x40\n        /* \"#utility.yul\":4571:4574   */\n      dup6\n        /* \"#utility.yul\":4567:4581   */\n      add\n        /* \"#utility.yul\":4553:4565   */\n      dup3\n        /* \"#utility.yul\":4519:4582   */\n      tag_115\n      jump\t// in\n    tag_179:\n        /* \"#utility.yul\":4423:4592   */\n      pop\n        /* \"#utility.yul\":4681:4685   */\n      0x60\n        /* \"#utility.yul\":4674:4679   */\n      dup3\n        /* \"#utility.yul\":4670:4686   */\n      add\n        /* \"#utility.yul\":4664:4687   */\n      mload\n        /* \"#utility.yul\":4700:4757   */\n      tag_180\n        /* \"#utility.yul\":4751:4755   */\n      0x60\n        /* \"#utility.yul\":4746:4749   */\n      dup6\n        /* \"#utility.yul\":4742:4756   */\n      add\n        /* \"#utility.yul\":4728:4740   */\n      dup3\n        /* \"#utility.yul\":4700:4757   */\n      tag_118\n      jump\t// in\n    tag_180:\n        /* \"#utility.yul\":4602:4767   */\n      pop\n        /* \"#utility.yul\":4847:4851   */\n      0x80\n        /* \"#utility.yul\":4840:4845   */\n      dup3\n        /* \"#utility.yul\":4836:4852   */\n      add\n        /* \"#utility.yul\":4830:4853   */\n      mload\n        /* \"#utility.yul\":4866:4929   */\n      tag_181\n        /* \"#utility.yul\":4923:4927   */\n      0x80\n        /* \"#utility.yul\":4918:4921   */\n      dup6\n        /* \"#utility.yul\":4914:4928   */\n      add\n        /* \"#utility.yul\":4900:4912   */\n      dup3\n        /* \"#utility.yul\":4866:4929   */\n      tag_115\n      jump\t// in\n    tag_181:\n        /* \"#utility.yul\":4777:4939   */\n      pop\n        /* \"#utility.yul\":4007:4946   */\n      pop\n        /* \"#utility.yul\":3903:4946   */\n      pop\n      pop\n      jump\t// out\n        /* \"#utility.yul\":4952:5227   */\n    tag_120:\n        /* \"#utility.yul\":5069:5079   */\n      0x00\n        /* \"#utility.yul\":5090:5184   */\n      tag_183\n        /* \"#utility.yul\":5180:5183   */\n      dup4\n        /* \"#utility.yul\":5172:5178   */\n      dup4\n        /* \"#utility.yul\":5090:5184   */\n      tag_119\n      jump\t// in\n    tag_183:\n        /* \"#utility.yul\":5216:5220   */\n      0xa0\n        /* \"#utility.yul\":5211:5214   */\n      dup4\n        /* \"#utility.yul\":5207:5221   */\n      add\n        /* \"#utility.yul\":5193:5221   */\n      swap1\n      pop\n        /* \"#utility.yul\":4952:5227   */\n      swap3\n      swap2\n      pop\n      pop\n      jump\t// out\n        /* \"#utility.yul\":5233:5370   */\n    tag_121:\n        /* \"#utility.yul\":5327:5331   */\n      0x00\n        /* \"#utility.yul\":5359:5363   */\n      0x20\n        /* \"#utility.yul\":5354:5357   */\n      dup3\n        /* \"#utility.yul\":5350:5364   */\n      add\n        /* \"#utility.yul\":5342:5364   */\n      swap1\n      pop\n        /* \"#utility.yul\":5233:5370   */\n      swap2\n      swap1\n      pop\n      jump\t// out\n        /* \"#utility.yul\":5436:6360   */\n    tag_122:\n        /* \"#utility.yul\":5603:5606   */\n      0x00\n        /* \"#utility.yul\":5632:5710   */\n      tag_186\n        /* \"#utility.yul\":5704:5709   */\n      dup3\n        /* \"#utility.yul\":5632:5710   */\n      tag_112\n      jump\t// in\n    tag_186:\n        /* \"#utility.yul\":5726:5836   */\n      tag_187\n        /* \"#utility.yul\":5829:5835   */\n      dup2\n        /* \"#utility.yul\":5824:5827   */\n      dup6\n        /* \"#utility.yul\":5726:5836   */\n      tag_113\n      jump\t// in\n    tag_187:\n        /* \"#utility.yul\":5719:5836   */\n      swap4\n      pop\n        /* \"#utility.yul\":5860:5940   */\n      tag_188\n        /* \"#utility.yul\":5934:5939   */\n      dup4\n        /* \"#utility.yul\":5860:5940   */\n      tag_114\n      jump\t// in\n    tag_188:\n        /* \"#utility.yul\":5963:5970   */\n      dup1\n        /* \"#utility.yul\":5994:5995   */\n      0x00\n        /* \"#utility.yul\":5979:6335   */\n    tag_189:\n        /* \"#utility.yul\":6004:6010   */\n      dup4\n        /* \"#utility.yul\":6001:6002   */\n      dup2\n        /* \"#utility.yul\":5998:6011   */\n      lt\n        /* \"#utility.yul\":5979:6335   */\n      iszero\n      tag_191\n      jumpi\n        /* \"#utility.yul\":6080:6086   */\n      dup2\n        /* \"#utility.yul\":6074:6087   */\n      mload\n        /* \"#utility.yul\":6107:6218   */\n      tag_192\n        /* \"#utility.yul\":6214:6217   */\n      dup9\n        /* \"#utility.yul\":6199:6212   */\n      dup3\n        /* \"#utility.yul\":6107:6218   */\n      tag_120\n      jump\t// in\n    tag_192:\n        /* \"#utility.yul\":6100:6218   */\n      swap8\n      pop\n        /* \"#utility.yul\":6241:6325   */\n      tag_193\n        /* \"#utility.yul\":6318:6324   */\n      dup4\n        /* \"#utility.yul\":6241:6325   */\n      tag_121\n      jump\t// in\n    tag_193:\n        /* \"#utility.yul\":6231:6325   */\n      swap3\n      pop\n        /* \"#utility.yul\":6039:6335   */\n      pop\n        /* \"#utility.yul\":6026:6027   */\n      0x01\n        /* \"#utility.yul\":6023:6024   */\n      dup2\n        /* \"#utility.yul\":6019:6028   */\n      add\n        /* \"#utility.yul\":6014:6028   */\n      swap1\n      pop\n        /* \"#utility.yul\":5979:6335   */\n      jump(tag_189)\n    tag_191:\n        /* \"#utility.yul\":5983:5997   */\n      pop\n        /* \"#utility.yul\":6351:6354   */\n      dup6\n        /* \"#utility.yul\":6344:6354   */\n      swap4\n      pop\n        /* \"#utility.yul\":5608:6360   */\n      pop\n      pop\n      pop\n        /* \"#utility.yul\":5436:6360   */\n      swap3\n      swap2\n      pop\n      pop\n      jump\t// out\n        /* \"#utility.yul\":6366:6835   */\n    tag_29:\n        /* \"#utility.yul\":6557:6561   */\n      0x00\n        /* \"#utility.yul\":6595:6597   */\n      0x20\n        /* \"#utility.yul\":6584:6593   */\n      dup3\n        /* \"#utility.yul\":6580:6598   */\n      add\n        /* \"#utility.yul\":6572:6598   */\n      swap1\n      pop\n        /* \"#utility.yul\":6644:6653   */\n      dup2\n        /* \"#utility.yul\":6638:6642   */\n      dup2\n        /* \"#utility.yul\":6634:6654   */\n      sub\n        /* \"#utility.yul\":6630:6631   */\n      0x00\n        /* \"#utility.yul\":6619:6628   */\n      dup4\n        /* \"#utility.yul\":6615:6632   */\n      add\n        /* \"#utility.yul\":6608:6655   */\n      mstore\n        /* \"#utility.yul\":6672:6828   */\n      tag_195\n        /* \"#utility.yul\":6823:6827   */\n      dup2\n        /* \"#utility.yul\":6814:6820   */\n      dup5\n        /* \"#utility.yul\":6672:6828   */\n      tag_122\n      jump\t// in\n    tag_195:\n        /* \"#utility.yul\":6664:6828   */\n      swap1\n      pop\n        /* \"#utility.yul\":6366:6835   */\n      swap3\n      swap2\n      pop\n      pop\n      jump\t// out\n        /* \"#utility.yul\":6841:7021   */\n    tag_44:\n        /* \"#utility.yul\":6889:6966   */\n      0x4e487b7100000000000000000000000000000000000000000000000000000000\n        /* \"#utility.yul\":6886:6887   */\n      0x00\n        /* \"#utility.yul\":6879:6967   */\n      mstore\n        /* \"#utility.yul\":6986:6990   */\n      0x32\n        /* \"#utility.yul\":6983:6984   */\n      0x04\n        /* \"#utility.yul\":6976:6991   */\n      mstore\n        /* \"#utility.yul\":7010:7014   */\n      0x24\n        /* \"#utility.yul\":7007:7008   */\n      0x00\n        /* \"#utility.yul\":7000:7015   */\n      revert\n        /* \"#utility.yul\":7027:7087   */\n    tag_123:\n        /* \"#utility.yul\":7055:7058   */\n      0x00\n        /* \"#utility.yul\":7076:7081   */\n      dup2\n        /* \"#utility.yul\":7069:7081   */\n      swap1\n      pop\n        /* \"#utility.yul\":7027:7087   */\n      swap2\n      swap1\n      pop\n      jump\t// out\n        /* \"#utility.yul\":7093:7235   */\n    tag_124:\n        /* \"#utility.yul\":7143:7152   */\n      0x00\n        /* \"#utility.yul\":7176:7229   */\n      tag_199\n        /* \"#utility.yul\":7194:7228   */\n      tag_200\n        /* \"#utility.yul\":7203:7227   */\n      tag_201\n        /* \"#utility.yul\":7221:7226   */\n      dup5\n        /* \"#utility.yul\":7203:7227   */\n      tag_105\n      jump\t// in\n    tag_201:\n        /* \"#utility.yul\":7194:7228   */\n      tag_123\n      jump\t// in\n    tag_200:\n        /* \"#utility.yul\":7176:7229   */\n      tag_105\n      jump\t// in\n    tag_199:\n        /* \"#utility.yul\":7163:7229   */\n      swap1\n      pop\n        /* \"#utility.yul\":7093:7235   */\n      swap2\n      swap1\n      pop\n      jump\t// out\n        /* \"#utility.yul\":7241:7367   */\n    tag_125:\n        /* \"#utility.yul\":7291:7300   */\n      0x00\n        /* \"#utility.yul\":7324:7361   */\n      tag_203\n        /* \"#utility.yul\":7355:7360   */\n      dup3\n        /* \"#utility.yul\":7324:7361   */\n      tag_124\n      jump\t// in\n    tag_203:\n        /* \"#utility.yul\":7311:7361   */\n      swap1\n      pop\n        /* \"#utility.yul\":7241:7367   */\n      swap2\n      swap1\n      pop\n      jump\t// out\n        /* \"#utility.yul\":7373:7507   */\n    tag_126:\n        /* \"#utility.yul\":7431:7440   */\n      0x00\n        /* \"#utility.yul\":7464:7501   */\n      tag_205\n        /* \"#utility.yul\":7495:7500   */\n      dup3\n        /* \"#utility.yul\":7464:7501   */\n      tag_125\n      jump\t// in\n    tag_205:\n        /* \"#utility.yul\":7451:7501   */\n      swap1\n      pop\n        /* \"#utility.yul\":7373:7507   */\n      swap2\n      swap1\n      pop\n      jump\t// out\n        /* \"#utility.yul\":7513:7660   */\n    tag_127:\n        /* \"#utility.yul\":7608:7653   */\n      tag_207\n        /* \"#utility.yul\":7647:7652   */\n      dup2\n        /* \"#utility.yul\":7608:7653   */\n      tag_126\n      jump\t// in\n    tag_207:\n        /* \"#utility.yul\":7603:7606   */\n      dup3\n        /* \"#utility.yul\":7596:7654   */\n      mstore\n        /* \"#utility.yul\":7513:7660   */\n      pop\n      pop\n      jump\t// out\n        /* \"#utility.yul\":7666:8235   */\n    tag_50:\n        /* \"#utility.yul\":7851:7855   */\n      0x00\n        /* \"#utility.yul\":7889:7892   */\n      0x80\n        /* \"#utility.yul\":7878:7887   */\n      dup3\n        /* \"#utility.yul\":7874:7893   */\n      add\n        /* \"#utility.yul\":7866:7893   */\n      swap1\n      pop\n        /* \"#utility.yul\":7903:7974   */\n      tag_209\n        /* \"#utility.yul\":7971:7972   */\n      0x00\n        /* \"#utility.yul\":7960:7969   */\n      dup4\n        /* \"#utility.yul\":7956:7973   */\n      add\n        /* \"#utility.yul\":7947:7953   */\n      dup8\n        /* \"#utility.yul\":7903:7974   */\n      tag_111\n      jump\t// in\n    tag_209:\n        /* \"#utility.yul\":7984:8056   */\n      tag_210\n        /* \"#utility.yul\":8052:8054   */\n      0x20\n        /* \"#utility.yul\":8041:8050   */\n      dup4\n        /* \"#utility.yul\":8037:8055   */\n      add\n        /* \"#utility.yul\":8028:8034   */\n      dup7\n        /* \"#utility.yul\":7984:8056   */\n      tag_111\n      jump\t// in\n    tag_210:\n        /* \"#utility.yul\":8066:8138   */\n      tag_211\n        /* \"#utility.yul\":8134:8136   */\n      0x40\n        /* \"#utility.yul\":8123:8132   */\n      dup4\n        /* \"#utility.yul\":8119:8137   */\n      add\n        /* \"#utility.yul\":8110:8116   */\n      dup6\n        /* \"#utility.yul\":8066:8138   */\n      tag_107\n      jump\t// in\n    tag_211:\n        /* \"#utility.yul\":8148:8228   */\n      tag_212\n        /* \"#utility.yul\":8224:8226   */\n      0x60\n        /* \"#utility.yul\":8213:8222   */\n      dup4\n        /* \"#utility.yul\":8209:8227   */\n      add\n        /* \"#utility.yul\":8200:8206   */\n      dup5\n        /* \"#utility.yul\":8148:8228   */\n      tag_127\n      jump\t// in\n    tag_212:\n        /* \"#utility.yul\":7666:8235   */\n      swap6\n      swap5\n      pop\n      pop\n      pop\n      pop\n      pop\n      jump\t// out\n        /* \"#utility.yul\":8241:8421   */\n    tag_128:\n        /* \"#utility.yul\":8289:8366   */\n      0x4e487b7100000000000000000000000000000000000000000000000000000000\n        /* \"#utility.yul\":8286:8287   */\n      0x00\n        /* \"#utility.yul\":8279:8367   */\n      mstore\n        /* \"#utility.yul\":8386:8390   */\n      0x11\n        /* \"#utility.yul\":8383:8384   */\n      0x04\n        /* \"#utility.yul\":8376:8391   */\n      mstore\n        /* \"#utility.yul\":8410:8414   */\n      0x24\n        /* \"#utility.yul\":8407:8408   */\n      0x00\n        /* \"#utility.yul\":8400:8415   */\n      revert\n        /* \"#utility.yul\":8427:8660   */\n    tag_76:\n        /* \"#utility.yul\":8466:8469   */\n      0x00\n        /* \"#utility.yul\":8489:8513   */\n      tag_215\n        /* \"#utility.yul\":8507:8512   */\n      dup3\n        /* \"#utility.yul\":8489:8513   */\n      tag_102\n      jump\t// in\n    tag_215:\n        /* \"#utility.yul\":8480:8513   */\n      swap2\n      pop\n        /* \"#utility.yul\":8535:8601   */\n      0xffffffffffffffffffffffffffffffffffffffffffffffffffffffffffffffff\n        /* \"#utility.yul\":8528:8533   */\n      dup3\n        /* \"#utility.yul\":8525:8602   */\n      sub\n        /* \"#utility.yul\":8522:8625   */\n      tag_216\n      jumpi\n        /* \"#utility.yul\":8605:8623   */\n      tag_217\n      tag_128\n      jump\t// in\n    tag_217:\n        /* \"#utility.yul\":8522:8625   */\n    tag_216:\n        /* \"#utility.yul\":8652:8653   */\n      0x01\n        /* \"#utility.yul\":8645:8650   */\n      dup3\n        /* \"#utility.yul\":8641:8654   */\n      add\n        /* \"#utility.yul\":8634:8654   */\n      swap1\n      pop\n        /* \"#utility.yul\":8427:8660   */\n      swap2\n      swap1\n      pop\n      jump\t// out\n        /* \"#utility.yul\":8666:9108   */\n    tag_81:\n        /* \"#utility.yul\":8815:8819   */\n      0x00\n        /* \"#utility.yul\":8853:8855   */\n      0x60\n        /* \"#utility.yul\":8842:8851   */\n      dup3\n        /* \"#utility.yul\":8838:8856   */\n      add\n        /* \"#utility.yul\":8830:8856   */\n      swap1\n      pop\n        /* \"#utility.yul\":8866:8937   */\n      tag_219\n        /* \"#utility.yul\":8934:8935   */\n      0x00\n        /* \"#utility.yul\":8923:8932   */\n      dup4\n        /* \"#utility.yul\":8919:8936   */\n      add\n        /* \"#utility.yul\":8910:8916   */\n      dup7\n        /* \"#utility.yul\":8866:8937   */\n      tag_111\n      jump\t// in\n    tag_219:\n        /* \"#utility.yul\":8947:9019   */\n      tag_220\n        /* \"#utility.yul\":9015:9017   */\n      0x20\n        /* \"#utility.yul\":9004:9013   */\n      dup4\n        /* \"#utility.yul\":9000:9018   */\n      add\n        /* \"#utility.yul\":8991:8997   */\n      dup6\n        /* \"#utility.yul\":8947:9019   */\n      tag_111\n      jump\t// in\n    tag_220:\n        /* \"#utility.yul\":9029:9101   */\n      tag_221\n        /* \"#utility.yul\":9097:9099   */\n      0x40\n        /* \"#utility.yul\":9086:9095   */\n      dup4\n        /* \"#utility.yul\":9082:9100   */\n      add\n        /* \"#utility.yul\":9073:9079   */\n      dup5\n        /* \"#utility.yul\":9029:9101   */\n      tag_107\n      jump\t// in\n    tag_221:\n        /* \"#utility.yul\":8666:9108   */\n      swap5\n      swap4\n      pop\n      pop\n      pop\n      pop\n      jump\t// out\n\n    auxdata: 0xa264697066735822122037aaff39c1a1494785bb7a738d309e6a6c8865878ec7d070dc9347ac9ab31b6f64736f6c63430008160033\n}\n",
				"bytecode": {
					"linkReferences": {},
					"object": "608060405234801562000010575f80fd5b5060405162000ffa38038062000ffa833981810160405281019062000036919062000315565b815f90805190602001906200004d92919062000056565b50505062000379565b828054828255905f5260205f20908101928215620000cf579160200282015b82811115620000ce578251825f6101000a81548173ffffffffffffffffffffffffffffffffffffffff021916908373ffffffffffffffffffffffffffffffffffffffff1602179055509160200191906001019062000075565b5b509050620000de9190620000e2565b5090565b5b80821115620000fb575f815f905550600101620000e3565b5090565b5f604051905090565b5f80fd5b5f80fd5b5f80fd5b5f601f19601f8301169050919050565b7f4e487b71000000000000000000000000000000000000000000000000000000005f52604160045260245ffd5b6200015c8262000114565b810181811067ffffffffffffffff821117156200017e576200017d62000124565b5b80604052505050565b5f62000192620000ff565b9050620001a0828262000151565b919050565b5f67ffffffffffffffff821115620001c257620001c162000124565b5b602082029050602081019050919050565b5f80fd5b5f73ffffffffffffffffffffffffffffffffffffffff82169050919050565b5f6200020282620001d7565b9050919050565b6200021481620001f6565b81146200021f575f80fd5b50565b5f81519050620002328162000209565b92915050565b5f6200024e6200024884620001a5565b62000187565b90508083825260208201905060208402830185811115620002745762000273620001d3565b5b835b81811015620002a157806200028c888262000222565b84526020840193505060208101905062000276565b5050509392505050565b5f82601f830112620002c257620002c162000110565b5b8151620002d484826020860162000238565b91505092915050565b5f819050919050565b620002f181620002dd565b8114620002fc575f80fd5b50565b5f815190506200030f81620002e6565b92915050565b5f80604083850312156200032e576200032d62000108565b5b5f83015167ffffffffffffffff8111156200034e576200034d6200010c565b5b6200035c85828601620002ab565b92505060206200036f85828601620002ff565b9150509250929050565b610c7380620003875f395ff3fe608060405260043610610054575f3560e01c8063025e7c27146100585780634c12fa4714610094578063941be5f7146100bc578063a04ef145146100e6578063b759f95414610110578063d0e30db014610138575b5f80fd5b348015610063575f80fd5b5061007e6004803603810190610079919061083f565b610142565b60405161008b91906108a9565b60405180910390f35b34801561009f575f80fd5b506100ba60048036038101906100b591906108fd565b61017c565b005b3480156100c7575f80fd5b506100d0610351565b6040516100dd919061094a565b60405180910390f35b3480156100f1575f80fd5b506100fa610395565b6040516101079190610aa9565b60405180910390f35b34801561011b575f80fd5b506101366004803603810190610131919061083f565b61047d565b005b610140610806565b005b5f8181548110610150575f80fd5b905f5260205f20015f915054906101000a900473ffffffffffffffffffffffffffffffffffffffff1681565b5f805b5f8054905081101561020a573373ffffffffffffffffffffffffffffffffffffffff165f82815481106101b5576101b4610ac9565b5b905f5260205f20015f9054906101000a900473ffffffffffffffffffffffffffffffffffffffff1673ffffffffffffffffffffffffffffffffffffffff16036101fd57600191505b808060010191505061017f565b50600115158115151461021b575f80fd5b7f32e340cac9a0540003161460e7fc9f3d43c9db6168397b7115d76679581f596c6002805490508433856040516102559493929190610b51565b60405180910390a160026040518060a001604052808581526020018473ffffffffffffffffffffffffffffffffffffffff1681526020015f81526020015f15158152602001600280549050815250908060018154018082558091505060019003905f5260205f2090600502015f909190919091505f820151815f01556020820151816001015f6101000a81548173ffffffffffffffffffffffffffffffffffffffff021916908373ffffffffffffffffffffffffffffffffffffffff160217905550604082015181600201556060820151816003015f6101000a81548160ff021916908315150217905550608082015181600401555050505050565b5f60045f3373ffffffffffffffffffffffffffffffffffffffff1673ffffffffffffffffffffffffffffffffffffffff1681526020019081526020015f2054905090565b60606002805480602002602001604051908101604052809291908181526020015f905b82821015610474578382905f5260205f2090600502016040518060a00160405290815f8201548152602001600182015f9054906101000a900473ffffffffffffffffffffffffffffffffffffffff1673ffffffffffffffffffffffffffffffffffffffff1673ffffffffffffffffffffffffffffffffffffffff16815260200160028201548152602001600382015f9054906101000a900460ff16151515158152602001600482015481525050815260200190600101906103b8565b50505050905090565b5f805b5f8054905081101561050b573373ffffffffffffffffffffffffffffffffffffffff165f82815481106104b6576104b5610ac9565b5b905f5260205f20015f9054906101000a900473ffffffffffffffffffffffffffffffffffffffff1673ffffffffffffffffffffffffffffffffffffffff16036104fe57600191505b8080600101915050610480565b50600115158115151461051c575f80fd5b5f151560035f3373ffffffffffffffffffffffffffffffffffffffff1673ffffffffffffffffffffffffffffffffffffffff1681526020019081526020015f205f8481526020019081526020015f205f9054906101000a900460ff16151514610583575f80fd5b5f15156002838154811061059a57610599610ac9565b5b905f5260205f2090600502016003015f9054906101000a900460ff161515146105c1575f80fd5b600160035f3373ffffffffffffffffffffffffffffffffffffffff1673ffffffffffffffffffffffffffffffffffffffff1681526020019081526020015f205f8481526020019081526020015f205f6101000a81548160ff0219169083151502179055506002828154811061063957610638610ac9565b5b905f5260205f2090600502016002015f81548092919061065890610bc1565b91905055507ffec9d12d15ee8c8b836a58347cb0d4980db38411bcd0b83662cee48fb20b6dee826002848154811061069357610692610ac9565b5b905f5260205f20906005020160020154336040516106b393929190610c08565b60405180910390a1600154600283815481106106d2576106d1610ac9565b5b905f5260205f2090600502016002015410610802576001600283815481106106fd576106fc610ac9565b5b905f5260205f2090600502016003015f6101000a81548160ff0219169083151502179055506002828154811061073657610735610ac9565b5b905f5260205f2090600502016001015f9054906101000a900473ffffffffffffffffffffffffffffffffffffffff1673ffffffffffffffffffffffffffffffffffffffff166108fc6002848154811061079257610791610ac9565b5b905f5260205f2090600502015f015490811502906040515f60405180830381858888f193505050501580156107c9573d5f803e3d5ffd5b507fd9bbf1d8bef570b7e92ef1ba025425fc15915ae01f3d3be144cdc8be05442eb5826040516107f9919061094a565b60405180910390a15b5050565b565b5f80fd5b5f819050919050565b61081e8161080c565b8114610828575f80fd5b50565b5f8135905061083981610815565b92915050565b5f6020828403121561085457610853610808565b5b5f6108618482850161082b565b91505092915050565b5f73ffffffffffffffffffffffffffffffffffffffff82169050919050565b5f6108938261086a565b9050919050565b6108a381610889565b82525050565b5f6020820190506108bc5f83018461089a565b92915050565b5f6108cc8261086a565b9050919050565b6108dc816108c2565b81146108e6575f80fd5b50565b5f813590506108f7816108d3565b92915050565b5f806040838503121561091357610912610808565b5b5f6109208582860161082b565b9250506020610931858286016108e9565b9150509250929050565b6109448161080c565b82525050565b5f60208201905061095d5f83018461093b565b92915050565b5f81519050919050565b5f82825260208201905092915050565b5f819050602082019050919050565b6109958161080c565b82525050565b6109a4816108c2565b82525050565b5f8115159050919050565b6109be816109aa565b82525050565b60a082015f8201516109d85f85018261098c565b5060208201516109eb602085018261099b565b5060408201516109fe604085018261098c565b506060820151610a1160608501826109b5565b506080820151610a24608085018261098c565b50505050565b5f610a3583836109c4565b60a08301905092915050565b5f602082019050919050565b5f610a5782610963565b610a61818561096d565b9350610a6c8361097d565b805f5b83811015610a9c578151610a838882610a2a565b9750610a8e83610a41565b925050600181019050610a6f565b5085935050505092915050565b5f6020820190508181035f830152610ac18184610a4d565b905092915050565b7f4e487b71000000000000000000000000000000000000000000000000000000005f52603260045260245ffd5b5f819050919050565b5f610b19610b14610b0f8461086a565b610af6565b61086a565b9050919050565b5f610b2a82610aff565b9050919050565b5f610b3b82610b20565b9050919050565b610b4b81610b31565b82525050565b5f608082019050610b645f83018761093b565b610b71602083018661093b565b610b7e604083018561089a565b610b8b6060830184610b42565b95945050505050565b7f4e487b71000000000000000000000000000000000000000000000000000000005f52601160045260245ffd5b5f610bcb8261080c565b91507fffffffffffffffffffffffffffffffffffffffffffffffffffffffffffffffff8203610bfd57610bfc610b94565b5b600182019050919050565b5f606082019050610c1b5f83018661093b565b610c28602083018561093b565b610c35604083018461089a565b94935050505056fea264697066735822122037aaff39c1a1494785bb7a738d309e6a6c8865878ec7d070dc9347ac9ab31b6f64736f6c63430008160033",
					"opcodes": "PUSH1 0x80 PUSH1 0x40 MSTORE CALLVALUE DUP1 ISZERO PUSH3 0x10 JUMPI PUSH0 DUP1 REVERT JUMPDEST POP PUSH1 0x40 MLOAD PUSH3 0xFFA CODESIZE SUB DUP1 PUSH3 0xFFA DUP4 CODECOPY DUP2 DUP2 ADD PUSH1 0x40 MSTORE DUP2 ADD SWAP1 PUSH3 0x36 SWAP2 SWAP1 PUSH3 0x315 JUMP JUMPDEST DUP2 PUSH0 SWAP1 DUP1 MLOAD SWAP1 PUSH1 0x20 ADD SWAP1 PUSH3 0x4D SWAP3 SWAP2 SWAP1 PUSH3 0x56 JUMP JUMPDEST POP POP POP PUSH3 0x379 JUMP JUMPDEST DUP3 DUP1 SLOAD DUP3 DUP3 SSTORE SWAP1 PUSH0 MSTORE PUSH1 0x20 PUSH0 KECCAK256 SWAP1 DUP2 ADD SWAP3 DUP3 ISZERO PUSH3 0xCF JUMPI SWAP2 PUSH1 0x20 MUL DUP3 ADD JUMPDEST DUP3 DUP2 GT ISZERO PUSH3 0xCE JUMPI DUP3 MLOAD DUP3 PUSH0 PUSH2 0x100 EXP DUP2 SLOAD DUP2 PUSH20 0xFFFFFFFFFFFFFFFFFFFFFFFFFFFFFFFFFFFFFFFF MUL NOT AND SWAP1 DUP4 PUSH20 0xFFFFFFFFFFFFFFFFFFFFFFFFFFFFFFFFFFFFFFFF AND MUL OR SWAP1 SSTORE POP SWAP2 PUSH1 0x20 ADD SWAP2 SWAP1 PUSH1 0x1 ADD SWAP1 PUSH3 0x75 JUMP JUMPDEST JUMPDEST POP SWAP1 POP PUSH3 0xDE SWAP2 SWAP1 PUSH3 0xE2 JUMP JUMPDEST POP SWAP1 JUMP JUMPDEST JUMPDEST DUP1 DUP3 GT ISZERO PUSH3 0xFB JUMPI PUSH0 DUP2 PUSH0 SWAP1 SSTORE POP PUSH1 0x1 ADD PUSH3 0xE3 JUMP JUMPDEST POP SWAP1 JUMP JUMPDEST PUSH0 PUSH1 0x40 MLOAD SWAP1 POP SWAP1 JUMP JUMPDEST PUSH0 DUP1 REVERT JUMPDEST PUSH0 DUP1 REVERT JUMPDEST PUSH0 DUP1 REVERT JUMPDEST PUSH0 PUSH1 0x1F NOT PUSH1 0x1F DUP4 ADD AND SWAP1 POP SWAP2 SWAP1 POP JUMP JUMPDEST PUSH32 0x4E487B7100000000000000000000000000000000000000000000000000000000 PUSH0 MSTORE PUSH1 0x41 PUSH1 0x4 MSTORE PUSH1 0x24 PUSH0 REVERT JUMPDEST PUSH3 0x15C DUP3 PUSH3 0x114 JUMP JUMPDEST DUP2 ADD DUP2 DUP2 LT PUSH8 0xFFFFFFFFFFFFFFFF DUP3 GT OR ISZERO PUSH3 0x17E JUMPI PUSH3 0x17D PUSH3 0x124 JUMP JUMPDEST JUMPDEST DUP1 PUSH1 0x40 MSTORE POP POP POP JUMP JUMPDEST PUSH0 PUSH3 0x192 PUSH3 0xFF JUMP JUMPDEST SWAP1 POP PUSH3 0x1A0 DUP3 DUP3 PUSH3 0x151 JUMP JUMPDEST SWAP2 SWAP1 POP JUMP JUMPDEST PUSH0 PUSH8 0xFFFFFFFFFFFFFFFF DUP3 GT ISZERO PUSH3 0x1C2 JUMPI PUSH3 0x1C1 PUSH3 0x124 JUMP JUMPDEST JUMPDEST PUSH1 0x20 DUP3 MUL SWAP1 POP PUSH1 0x20 DUP2 ADD SWAP1 POP SWAP2 SWAP1 POP JUMP JUMPDEST PUSH0 DUP1 REVERT JUMPDEST PUSH0 PUSH20 0xFFFFFFFFFFFFFFFFFFFFFFFFFFFFFFFFFFFFFFFF DUP3 AND SWAP1 POP SWAP2 SWAP1 POP JUMP JUMPDEST PUSH0 PUSH3 0x202 DUP3 PUSH3 0x1D7 JUMP JUMPDEST SWAP1 POP SWAP2 SWAP1 POP JUMP JUMPDEST PUSH3 0x214 DUP2 PUSH3 0x1F6 JUMP JUMPDEST DUP2 EQ PUSH3 0x21F JUMPI PUSH0 DUP1 REVERT JUMPDEST POP JUMP JUMPDEST PUSH0 DUP2 MLOAD SWAP1 POP PUSH3 0x232 DUP2 PUSH3 0x209 JUMP JUMPDEST SWAP3 SWAP2 POP POP JUMP JUMPDEST PUSH0 PUSH3 0x24E PUSH3 0x248 DUP5 PUSH3 0x1A5 JUMP JUMPDEST PUSH3 0x187 JUMP JUMPDEST SWAP1 POP DUP1 DUP4 DUP3 MSTORE PUSH1 0x20 DUP3 ADD SWAP1 POP PUSH1 0x20 DUP5 MUL DUP4 ADD DUP6 DUP2 GT ISZERO PUSH3 0x274 JUMPI PUSH3 0x273 PUSH3 0x1D3 JUMP JUMPDEST JUMPDEST DUP4 JUMPDEST DUP2 DUP2 LT ISZERO PUSH3 0x2A1 JUMPI DUP1 PUSH3 0x28C DUP9 DUP3 PUSH3 0x222 JUMP JUMPDEST DUP5 MSTORE PUSH1 0x20 DUP5 ADD SWAP4 POP POP PUSH1 0x20 DUP2 ADD SWAP1 POP PUSH3 0x276 JUMP JUMPDEST POP POP POP SWAP4 SWAP3 POP POP POP JUMP JUMPDEST PUSH0 DUP3 PUSH1 0x1F DUP4 ADD SLT PUSH3 0x2C2 JUMPI PUSH3 0x2C1 PUSH3 0x110 JUMP JUMPDEST JUMPDEST DUP2 MLOAD PUSH3 0x2D4 DUP5 DUP3 PUSH1 0x20 DUP7 ADD PUSH3 0x238 JUMP JUMPDEST SWAP2 POP POP SWAP3 SWAP2 POP POP JUMP JUMPDEST PUSH0 DUP2 SWAP1 POP SWAP2 SWAP1 POP JUMP JUMPDEST PUSH3 0x2F1 DUP2 PUSH3 0x2DD JUMP JUMPDEST DUP2 EQ PUSH3 0x2FC JUMPI PUSH0 DUP1 REVERT JUMPDEST POP JUMP JUMPDEST PUSH0 DUP2 MLOAD SWAP1 POP PUSH3 0x30F DUP2 PUSH3 0x2E6 JUMP JUMPDEST SWAP3 SWAP2 POP POP JUMP JUMPDEST PUSH0 DUP1 PUSH1 0x40 DUP4 DUP6 SUB SLT ISZERO PUSH3 0x32E JUMPI PUSH3 0x32D PUSH3 0x108 JUMP JUMPDEST JUMPDEST PUSH0 DUP4 ADD MLOAD PUSH8 0xFFFFFFFFFFFFFFFF DUP2 GT ISZERO PUSH3 0x34E JUMPI PUSH3 0x34D PUSH3 0x10C JUMP JUMPDEST JUMPDEST PUSH3 0x35C DUP6 DUP3 DUP7 ADD PUSH3 0x2AB JUMP JUMPDEST SWAP3 POP POP PUSH1 0x20 PUSH3 0x36F DUP6 DUP3 DUP7 ADD PUSH3 0x2FF JUMP JUMPDEST SWAP2 POP POP SWAP3 POP SWAP3 SWAP1 POP JUMP JUMPDEST PUSH2 0xC73 DUP1 PUSH3 0x387 PUSH0 CODECOPY PUSH0 RETURN INVALID PUSH1 0x80 PUSH1 0x40 MSTORE PUSH1 0x4 CALLDATASIZE LT PUSH2 0x54 JUMPI PUSH0 CALLDATALOAD PUSH1 0xE0 SHR DUP1 PUSH4 0x25E7C27 EQ PUSH2 0x58 JUMPI DUP1 PUSH4 0x4C12FA47 EQ PUSH2 0x94 JUMPI DUP1 PUSH4 0x941BE5F7 EQ PUSH2 0xBC JUMPI DUP1 PUSH4 0xA04EF145 EQ PUSH2 0xE6 JUMPI DUP1 PUSH4 0xB759F954 EQ PUSH2 0x110 JUMPI DUP1 PUSH4 0xD0E30DB0 EQ PUSH2 0x138 JUMPI JUMPDEST PUSH0 DUP1 REVERT JUMPDEST CALLVALUE DUP1 ISZERO PUSH2 0x63 JUMPI PUSH0 DUP1 REVERT JUMPDEST POP PUSH2 0x7E PUSH1 0x4 DUP1 CALLDATASIZE SUB DUP2 ADD SWAP1 PUSH2 0x79 SWAP2 SWAP1 PUSH2 0x83F JUMP JUMPDEST PUSH2 0x142 JUMP JUMPDEST PUSH1 0x40 MLOAD PUSH2 0x8B SWAP2 SWAP1 PUSH2 0x8A9 JUMP JUMPDEST PUSH1 0x40 MLOAD DUP1 SWAP2 SUB SWAP1 RETURN JUMPDEST CALLVALUE DUP1 ISZERO PUSH2 0x9F JUMPI PUSH0 DUP1 REVERT JUMPDEST POP PUSH2 0xBA PUSH1 0x4 DUP1 CALLDATASIZE SUB DUP2 ADD SWAP1 PUSH2 0xB5 SWAP2 SWAP1 PUSH2 0x8FD JUMP JUMPDEST PUSH2 0x17C JUMP JUMPDEST STOP JUMPDEST CALLVALUE DUP1 ISZERO PUSH2 0xC7 JUMPI PUSH0 DUP1 REVERT JUMPDEST POP PUSH2 0xD0 PUSH2 0x351 JUMP JUMPDEST PUSH1 0x40 MLOAD PUSH2 0xDD SWAP2 SWAP1 PUSH2 0x94A JUMP JUMPDEST PUSH1 0x40 MLOAD DUP1 SWAP2 SUB SWAP1 RETURN JUMPDEST CALLVALUE DUP1 ISZERO PUSH2 0xF1 JUMPI PUSH0 DUP1 REVERT JUMPDEST POP PUSH2 0xFA PUSH2 0x395 JUMP JUMPDEST PUSH1 0x40 MLOAD PUSH2 0x107 SWAP2 SWAP1 PUSH2 0xAA9 JUMP JUMPDEST PUSH1 0x40 MLOAD DUP1 SWAP2 SUB SWAP1 RETURN JUMPDEST CALLVALUE DUP1 ISZERO PUSH2 0x11B JUMPI PUSH0 DUP1 REVERT JUMPDEST POP PUSH2 0x136 PUSH1 0x4 DUP1 CALLDATASIZE SUB DUP2 ADD SWAP1 PUSH2 0x131 SWAP2 SWAP1 PUSH2 0x83F JUMP JUMPDEST PUSH2 0x47D JUMP JUMPDEST STOP JUMPDEST PUSH2 0x140 PUSH2 0x806 JUMP JUMPDEST STOP JUMPDEST PUSH0 DUP2 DUP2 SLOAD DUP2 LT PUSH2 0x150 JUMPI PUSH0 DUP1 REVERT JUMPDEST SWAP1 PUSH0 MSTORE PUSH1 0x20 PUSH0 KECCAK256 ADD PUSH0 SWAP2 POP SLOAD SWAP1 PUSH2 0x100 EXP SWAP1 DIV PUSH20 0xFFFFFFFFFFFFFFFFFFFFFFFFFFFFFFFFFFFFFFFF AND DUP2 JUMP JUMPDEST PUSH0 DUP1 JUMPDEST PUSH0 DUP1 SLOAD SWAP1 POP DUP2 LT ISZERO PUSH2 0x20A JUMPI CALLER PUSH20 0xFFFFFFFFFFFFFFFFFFFFFFFFFFFFFFFFFFFFFFFF AND PUSH0 DUP3 DUP2 SLOAD DUP2 LT PUSH2 0x1B5 JUMPI PUSH2 0x1B4 PUSH2 0xAC9 JUMP JUMPDEST JUMPDEST SWAP1 PUSH0 MSTORE PUSH1 0x20 PUSH0 KECCAK256 ADD PUSH0 SWAP1 SLOAD SWAP1 PUSH2 0x100 EXP SWAP1 DIV PUSH20 0xFFFFFFFFFFFFFFFFFFFFFFFFFFFFFFFFFFFFFFFF AND PUSH20 0xFFFFFFFFFFFFFFFFFFFFFFFFFFFFFFFFFFFFFFFF AND SUB PUSH2 0x1FD JUMPI PUSH1 0x1 SWAP2 POP JUMPDEST DUP1 DUP1 PUSH1 0x1 ADD SWAP2 POP POP PUSH2 0x17F JUMP JUMPDEST POP PUSH1 0x1 ISZERO ISZERO DUP2 ISZERO ISZERO EQ PUSH2 0x21B JUMPI PUSH0 DUP1 REVERT JUMPDEST PUSH32 0x32E340CAC9A0540003161460E7FC9F3D43C9DB6168397B7115D76679581F596C PUSH1 0x2 DUP1 SLOAD SWAP1 POP DUP5 CALLER DUP6 PUSH1 0x40 MLOAD PUSH2 0x255 SWAP5 SWAP4 SWAP3 SWAP2 SWAP1 PUSH2 0xB51 JUMP JUMPDEST PUSH1 0x40 MLOAD DUP1 SWAP2 SUB SWAP1 LOG1 PUSH1 0x2 PUSH1 0x40 MLOAD DUP1 PUSH1 0xA0 ADD PUSH1 0x40 MSTORE DUP1 DUP6 DUP2 MSTORE PUSH1 0x20 ADD DUP5 PUSH20 0xFFFFFFFFFFFFFFFFFFFFFFFFFFFFFFFFFFFFFFFF AND DUP2 MSTORE PUSH1 0x20 ADD PUSH0 DUP2 MSTORE PUSH1 0x20 ADD PUSH0 ISZERO ISZERO DUP2 MSTORE PUSH1 0x20 ADD PUSH1 0x2 DUP1 SLOAD SWAP1 POP DUP2 MSTORE POP SWAP1 DUP1 PUSH1 0x1 DUP2 SLOAD ADD DUP1 DUP3 SSTORE DUP1 SWAP2 POP POP PUSH1 0x1 SWAP1 SUB SWAP1 PUSH0 MSTORE PUSH1 0x20 PUSH0 KECCAK256 SWAP1 PUSH1 0x5 MUL ADD PUSH0 SWAP1 SWAP2 SWAP1 SWAP2 SWAP1 SWAP2 POP PUSH0 DUP3 ADD MLOAD DUP2 PUSH0 ADD SSTORE PUSH1 0x20 DUP3 ADD MLOAD DUP2 PUSH1 0x1 ADD PUSH0 PUSH2 0x100 EXP DUP2 SLOAD DUP2 PUSH20 0xFFFFFFFFFFFFFFFFFFFFFFFFFFFFFFFFFFFFFFFF MUL NOT AND SWAP1 DUP4 PUSH20 0xFFFFFFFFFFFFFFFFFFFFFFFFFFFFFFFFFFFFFFFF AND MUL OR SWAP1 SSTORE POP PUSH1 0x40 DUP3 ADD MLOAD DUP2 PUSH1 0x2 ADD SSTORE PUSH1 0x60 DUP3 ADD MLOAD DUP2 PUSH1 0x3 ADD PUSH0 PUSH2 0x100 EXP DUP2 SLOAD DUP2 PUSH1 0xFF MUL NOT AND SWAP1 DUP4 ISZERO ISZERO MUL OR SWAP1 SSTORE POP PUSH1 0x80 DUP3 ADD MLOAD DUP2 PUSH1 0x4 ADD SSTORE POP POP POP POP POP JUMP JUMPDEST PUSH0 PUSH1 0x4 PUSH0 CALLER PUSH20 0xFFFFFFFFFFFFFFFFFFFFFFFFFFFFFFFFFFFFFFFF AND PUSH20 0xFFFFFFFFFFFFFFFFFFFFFFFFFFFFFFFFFFFFFFFF AND DUP2 MSTORE PUSH1 0x20 ADD SWAP1 DUP2 MSTORE PUSH1 0x20 ADD PUSH0 KECCAK256 SLOAD SWAP1 POP SWAP1 JUMP JUMPDEST PUSH1 0x60 PUSH1 0x2 DUP1 SLOAD DUP1 PUSH1 0x20 MUL PUSH1 0x20 ADD PUSH1 0x40 MLOAD SWAP1 DUP2 ADD PUSH1 0x40 MSTORE DUP1 SWAP3 SWAP2 SWAP1 DUP2 DUP2 MSTORE PUSH1 0x20 ADD PUSH0 SWAP1 JUMPDEST DUP3 DUP3 LT ISZERO PUSH2 0x474 JUMPI DUP4 DUP3 SWAP1 PUSH0 MSTORE PUSH1 0x20 PUSH0 KECCAK256 SWAP1 PUSH1 0x5 MUL ADD PUSH1 0x40 MLOAD DUP1 PUSH1 0xA0 ADD PUSH1 0x40 MSTORE SWAP1 DUP2 PUSH0 DUP3 ADD SLOAD DUP2 MSTORE PUSH1 0x20 ADD PUSH1 0x1 DUP3 ADD PUSH0 SWAP1 SLOAD SWAP1 PUSH2 0x100 EXP SWAP1 DIV PUSH20 0xFFFFFFFFFFFFFFFFFFFFFFFFFFFFFFFFFFFFFFFF AND PUSH20 0xFFFFFFFFFFFFFFFFFFFFFFFFFFFFFFFFFFFFFFFF AND PUSH20 0xFFFFFFFFFFFFFFFFFFFFFFFFFFFFFFFFFFFFFFFF AND DUP2 MSTORE PUSH1 0x20 ADD PUSH1 0x2 DUP3 ADD SLOAD DUP2 MSTORE PUSH1 0x20 ADD PUSH1 0x3 DUP3 ADD PUSH0 SWAP1 SLOAD SWAP1 PUSH2 0x100 EXP SWAP1 DIV PUSH1 0xFF AND ISZERO ISZERO ISZERO ISZERO DUP2 MSTORE PUSH1 0x20 ADD PUSH1 0x4 DUP3 ADD SLOAD DUP2 MSTORE POP POP DUP2 MSTORE PUSH1 0x20 ADD SWAP1 PUSH1 0x1 ADD SWAP1 PUSH2 0x3B8 JUMP JUMPDEST POP POP POP POP SWAP1 POP SWAP1 JUMP JUMPDEST PUSH0 DUP1 JUMPDEST PUSH0 DUP1 SLOAD SWAP1 POP DUP2 LT ISZERO PUSH2 0x50B JUMPI CALLER PUSH20 0xFFFFFFFFFFFFFFFFFFFFFFFFFFFFFFFFFFFFFFFF AND PUSH0 DUP3 DUP2 SLOAD DUP2 LT PUSH2 0x4B6 JUMPI PUSH2 0x4B5 PUSH2 0xAC9 JUMP JUMPDEST JUMPDEST SWAP1 PUSH0 MSTORE PUSH1 0x20 PUSH0 KECCAK256 ADD PUSH0 SWAP1 SLOAD SWAP1 PUSH2 0x100 EXP SWAP1 DIV PUSH20 0xFFFFFFFFFFFFFFFFFFFFFFFFFFFFFFFFFFFFFFFF AND PUSH20 0xFFFFFFFFFFFFFFFFFFFFFFFFFFFFFFFFFFFFFFFF AND SUB PUSH2 0x4FE JUMPI PUSH1 0x1 SWAP2 POP JUMPDEST DUP1 DUP1 PUSH1 0x1 ADD SWAP2 POP POP PUSH2 0x480 JUMP JUMPDEST POP PUSH1 0x1 ISZERO ISZERO DUP2 ISZERO ISZERO EQ PUSH2 0x51C JUMPI PUSH0 DUP1 REVERT JUMPDEST PUSH0 ISZERO ISZERO PUSH1 0x3 PUSH0 CALLER PUSH20 0xFFFFFFFFFFFFFFFFFFFFFFFFFFFFFFFFFFFFFFFF AND PUSH20 0xFFFFFFFFFFFFFFFFFFFFFFFFFFFFFFFFFFFFFFFF AND DUP2 MSTORE PUSH1 0x20 ADD SWAP1 DUP2 MSTORE PUSH1 0x20 ADD PUSH0 KECCAK256 PUSH0 DUP5 DUP2 MSTORE PUSH1 0x20 ADD SWAP1 DUP2 MSTORE PUSH1 0x20 ADD PUSH0 KECCAK256 PUSH0 SWAP1 SLOAD SWAP1 PUSH2 0x100 EXP SWAP1 DIV PUSH1 0xFF AND ISZERO ISZERO EQ PUSH2 0x583 JUMPI PUSH0 DUP1 REVERT JUMPDEST PUSH0 ISZERO ISZERO PUSH1 0x2 DUP4 DUP2 SLOAD DUP2 LT PUSH2 0x59A JUMPI PUSH2 0x599 PUSH2 0xAC9 JUMP JUMPDEST JUMPDEST SWAP1 PUSH0 MSTORE PUSH1 0x20 PUSH0 KECCAK256 SWAP1 PUSH1 0x5 MUL ADD PUSH1 0x3 ADD PUSH0 SWAP1 SLOAD SWAP1 PUSH2 0x100 EXP SWAP1 DIV PUSH1 0xFF AND ISZERO ISZERO EQ PUSH2 0x5C1 JUMPI PUSH0 DUP1 REVERT JUMPDEST PUSH1 0x1 PUSH1 0x3 PUSH0 CALLER PUSH20 0xFFFFFFFFFFFFFFFFFFFFFFFFFFFFFFFFFFFFFFFF AND PUSH20 0xFFFFFFFFFFFFFFFFFFFFFFFFFFFFFFFFFFFFFFFF AND DUP2 MSTORE PUSH1 0x20 ADD SWAP1 DUP2 MSTORE PUSH1 0x20 ADD PUSH0 KECCAK256 PUSH0 DUP5 DUP2 MSTORE PUSH1 0x20 ADD SWAP1 DUP2 MSTORE PUSH1 0x20 ADD PUSH0 KECCAK256 PUSH0 PUSH2 0x100 EXP DUP2 SLOAD DUP2 PUSH1 0xFF MUL NOT AND SWAP1 DUP4 ISZERO ISZERO MUL OR SWAP1 SSTORE POP PUSH1 0x2 DUP3 DUP2 SLOAD DUP2 LT PUSH2 0x639 JUMPI PUSH2 0x638 PUSH2 0xAC9 JUMP JUMPDEST JUMPDEST SWAP1 PUSH0 MSTORE PUSH1 0x20 PUSH0 KECCAK256 SWAP1 PUSH1 0x5 MUL ADD PUSH1 0x2 ADD PUSH0 DUP2 SLOAD DUP1 SWAP3 SWAP2 SWAP1 PUSH2 0x658 SWAP1 PUSH2 0xBC1 JUMP JUMPDEST SWAP2 SWAP1 POP SSTORE POP PUSH32 0xFEC9D12D15EE8C8B836A58347CB0D4980DB38411BCD0B83662CEE48FB20B6DEE DUP3 PUSH1 0x2 DUP5 DUP2 SLOAD DUP2 LT PUSH2 0x693 JUMPI PUSH2 0x692 PUSH2 0xAC9 JUMP JUMPDEST JUMPDEST SWAP1 PUSH0 MSTORE PUSH1 0x20 PUSH0 KECCAK256 SWAP1 PUSH1 0x5 MUL ADD PUSH1 0x2 ADD SLOAD CALLER PUSH1 0x40 MLOAD PUSH2 0x6B3 SWAP4 SWAP3 SWAP2 SWAP1 PUSH2 0xC08 JUMP JUMPDEST PUSH1 0x40 MLOAD DUP1 SWAP2 SUB SWAP1 LOG1 PUSH1 0x1 SLOAD PUSH1 0x2 DUP4 DUP2 SLOAD DUP2 LT PUSH2 0x6D2 JUMPI PUSH2 0x6D1 PUSH2 0xAC9 JUMP JUMPDEST JUMPDEST SWAP1 PUSH0 MSTORE PUSH1 0x20 PUSH0 KECCAK256 SWAP1 PUSH1 0x5 MUL ADD PUSH1 0x2 ADD SLOAD LT PUSH2 0x802 JUMPI PUSH1 0x1 PUSH1 0x2 DUP4 DUP2 SLOAD DUP2 LT PUSH2 0x6FD JUMPI PUSH2 0x6FC PUSH2 0xAC9 JUMP JUMPDEST JUMPDEST SWAP1 PUSH0 MSTORE PUSH1 0x20 PUSH0 KECCAK256 SWAP1 PUSH1 0x5 MUL ADD PUSH1 0x3 ADD PUSH0 PUSH2 0x100 EXP DUP2 SLOAD DUP2 PUSH1 0xFF MUL NOT AND SWAP1 DUP4 ISZERO ISZERO MUL OR SWAP1 SSTORE POP PUSH1 0x2 DUP3 DUP2 SLOAD DUP2 LT PUSH2 0x736 JUMPI PUSH2 0x735 PUSH2 0xAC9 JUMP JUMPDEST JUMPDEST SWAP1 PUSH0 MSTORE PUSH1 0x20 PUSH0 KECCAK256 SWAP1 PUSH1 0x5 MUL ADD PUSH1 0x1 ADD PUSH0 SWAP1 SLOAD SWAP1 PUSH2 0x100 EXP SWAP1 DIV PUSH20 0xFFFFFFFFFFFFFFFFFFFFFFFFFFFFFFFFFFFFFFFF AND PUSH20 0xFFFFFFFFFFFFFFFFFFFFFFFFFFFFFFFFFFFFFFFF AND PUSH2 0x8FC PUSH1 0x2 DUP5 DUP2 SLOAD DUP2 LT PUSH2 0x792 JUMPI PUSH2 0x791 PUSH2 0xAC9 JUMP JUMPDEST JUMPDEST SWAP1 PUSH0 MSTORE PUSH1 0x20 PUSH0 KECCAK256 SWAP1 PUSH1 0x5 MUL ADD PUSH0 ADD SLOAD SWAP1 DUP2 ISZERO MUL SWAP1 PUSH1 0x40 MLOAD PUSH0 PUSH1 0x40 MLOAD DUP1 DUP4 SUB DUP2 DUP6 DUP9 DUP9 CALL SWAP4 POP POP POP POP ISZERO DUP1 ISZERO PUSH2 0x7C9 JUMPI RETURNDATASIZE PUSH0 DUP1 RETURNDATACOPY RETURNDATASIZE PUSH0 REVERT JUMPDEST POP PUSH32 0xD9BBF1D8BEF570B7E92EF1BA025425FC15915AE01F3D3BE144CDC8BE05442EB5 DUP3 PUSH1 0x40 MLOAD PUSH2 0x7F9 SWAP2 SWAP1 PUSH2 0x94A JUMP JUMPDEST PUSH1 0x40 MLOAD DUP1 SWAP2 SUB SWAP1 LOG1 JUMPDEST POP POP JUMP JUMPDEST JUMP JUMPDEST PUSH0 DUP1 REVERT JUMPDEST PUSH0 DUP2 SWAP1 POP SWAP2 SWAP1 POP JUMP JUMPDEST PUSH2 0x81E DUP2 PUSH2 0x80C JUMP JUMPDEST DUP2 EQ PUSH2 0x828 JUMPI PUSH0 DUP1 REVERT JUMPDEST POP JUMP JUMPDEST PUSH0 DUP2 CALLDATALOAD SWAP1 POP PUSH2 0x839 DUP2 PUSH2 0x815 JUMP JUMPDEST SWAP3 SWAP2 POP POP JUMP JUMPDEST PUSH0 PUSH1 0x20 DUP3 DUP5 SUB SLT ISZERO PUSH2 0x854 JUMPI PUSH2 0x853 PUSH2 0x808 JUMP JUMPDEST JUMPDEST PUSH0 PUSH2 0x861 DUP5 DUP3 DUP6 ADD PUSH2 0x82B JUMP JUMPDEST SWAP2 POP POP SWAP3 SWAP2 POP POP JUMP JUMPDEST PUSH0 PUSH20 0xFFFFFFFFFFFFFFFFFFFFFFFFFFFFFFFFFFFFFFFF DUP3 AND SWAP1 POP SWAP2 SWAP1 POP JUMP JUMPDEST PUSH0 PUSH2 0x893 DUP3 PUSH2 0x86A JUMP JUMPDEST SWAP1 POP SWAP2 SWAP1 POP JUMP JUMPDEST PUSH2 0x8A3 DUP2 PUSH2 0x889 JUMP JUMPDEST DUP3 MSTORE POP POP JUMP JUMPDEST PUSH0 PUSH1 0x20 DUP3 ADD SWAP1 POP PUSH2 0x8BC PUSH0 DUP4 ADD DUP5 PUSH2 0x89A JUMP JUMPDEST SWAP3 SWAP2 POP POP JUMP JUMPDEST PUSH0 PUSH2 0x8CC DUP3 PUSH2 0x86A JUMP JUMPDEST SWAP1 POP SWAP2 SWAP1 POP JUMP JUMPDEST PUSH2 0x8DC DUP2 PUSH2 0x8C2 JUMP JUMPDEST DUP2 EQ PUSH2 0x8E6 JUMPI PUSH0 DUP1 REVERT JUMPDEST POP JUMP JUMPDEST PUSH0 DUP2 CALLDATALOAD SWAP1 POP PUSH2 0x8F7 DUP2 PUSH2 0x8D3 JUMP JUMPDEST SWAP3 SWAP2 POP POP JUMP JUMPDEST PUSH0 DUP1 PUSH1 0x40 DUP4 DUP6 SUB SLT ISZERO PUSH2 0x913 JUMPI PUSH2 0x912 PUSH2 0x808 JUMP JUMPDEST JUMPDEST PUSH0 PUSH2 0x920 DUP6 DUP3 DUP7 ADD PUSH2 0x82B JUMP JUMPDEST SWAP3 POP POP PUSH1 0x20 PUSH2 0x931 DUP6 DUP3 DUP7 ADD PUSH2 0x8E9 JUMP JUMPDEST SWAP2 POP POP SWAP3 POP SWAP3 SWAP1 POP JUMP JUMPDEST PUSH2 0x944 DUP2 PUSH2 0x80C JUMP JUMPDEST DUP3 MSTORE POP POP JUMP JUMPDEST PUSH0 PUSH1 0x20 DUP3 ADD SWAP1 POP PUSH2 0x95D PUSH0 DUP4 ADD DUP5 PUSH2 0x93B JUMP JUMPDEST SWAP3 SWAP2 POP POP JUMP JUMPDEST PUSH0 DUP2 MLOAD SWAP1 POP SWAP2 SWAP1 POP JUMP JUMPDEST PUSH0 DUP3 DUP3 MSTORE PUSH1 0x20 DUP3 ADD SWAP1 POP SWAP3 SWAP2 POP POP JUMP JUMPDEST PUSH0 DUP2 SWAP1 POP PUSH1 0x20 DUP3 ADD SWAP1 POP SWAP2 SWAP1 POP JUMP JUMPDEST PUSH2 0x995 DUP2 PUSH2 0x80C JUMP JUMPDEST DUP3 MSTORE POP POP JUMP JUMPDEST PUSH2 0x9A4 DUP2 PUSH2 0x8C2 JUMP JUMPDEST DUP3 MSTORE POP POP JUMP JUMPDEST PUSH0 DUP2 ISZERO ISZERO SWAP1 POP SWAP2 SWAP1 POP JUMP JUMPDEST PUSH2 0x9BE DUP2 PUSH2 0x9AA JUMP JUMPDEST DUP3 MSTORE POP POP JUMP JUMPDEST PUSH1 0xA0 DUP3 ADD PUSH0 DUP3 ADD MLOAD PUSH2 0x9D8 PUSH0 DUP6 ADD DUP3 PUSH2 0x98C JUMP JUMPDEST POP PUSH1 0x20 DUP3 ADD MLOAD PUSH2 0x9EB PUSH1 0x20 DUP6 ADD DUP3 PUSH2 0x99B JUMP JUMPDEST POP PUSH1 0x40 DUP3 ADD MLOAD PUSH2 0x9FE PUSH1 0x40 DUP6 ADD DUP3 PUSH2 0x98C JUMP JUMPDEST POP PUSH1 0x60 DUP3 ADD MLOAD PUSH2 0xA11 PUSH1 0x60 DUP6 ADD DUP3 PUSH2 0x9B5 JUMP JUMPDEST POP PUSH1 0x80 DUP3 ADD MLOAD PUSH2 0xA24 PUSH1 0x80 DUP6 ADD DUP3 PUSH2 0x98C JUMP JUMPDEST POP POP POP POP JUMP JUMPDEST PUSH0 PUSH2 0xA35 DUP4 DUP4 PUSH2 0x9C4 JUMP JUMPDEST PUSH1 0xA0 DUP4 ADD SWAP1 POP SWAP3 SWAP2 POP POP JUMP JUMPDEST PUSH0 PUSH1 0x20 DUP3 ADD SWAP1 POP SWAP2 SWAP1 POP JUMP JUMPDEST PUSH0 PUSH2 0xA57 DUP3 PUSH2 0x963 JUMP JUMPDEST PUSH2 0xA61 DUP2 DUP6 PUSH2 0x96D JUMP JUMPDEST SWAP4 POP PUSH2 0xA6C DUP4 PUSH2 0x97D JUMP JUMPDEST DUP1 PUSH0 JUMPDEST DUP4 DUP2 LT ISZERO PUSH2 0xA9C JUMPI DUP2 MLOAD PUSH2 0xA83 DUP9 DUP3 PUSH2 0xA2A JUMP JUMPDEST SWAP8 POP PUSH2 0xA8E DUP4 PUSH2 0xA41 JUMP JUMPDEST SWAP3 POP POP PUSH1 0x1 DUP2 ADD SWAP1 POP PUSH2 0xA6F JUMP JUMPDEST POP DUP6 SWAP4 POP POP POP POP SWAP3 SWAP2 POP POP JUMP JUMPDEST PUSH0 PUSH1 0x20 DUP3 ADD SWAP1 POP DUP2 DUP2 SUB PUSH0 DUP4 ADD MSTORE PUSH2 0xAC1 DUP2 DUP5 PUSH2 0xA4D JUMP JUMPDEST SWAP1 POP SWAP3 SWAP2 POP POP JUMP JUMPDEST PUSH32 0x4E487B7100000000000000000000000000000000000000000000000000000000 PUSH0 MSTORE PUSH1 0x32 PUSH1 0x4 MSTORE PUSH1 0x24 PUSH0 REVERT JUMPDEST PUSH0 DUP2 SWAP1 POP SWAP2 SWAP1 POP JUMP JUMPDEST PUSH0 PUSH2 0xB19 PUSH2 0xB14 PUSH2 0xB0F DUP5 PUSH2 0x86A JUMP JUMPDEST PUSH2 0xAF6 JUMP JUMPDEST PUSH2 0x86A JUMP JUMPDEST SWAP1 POP SWAP2 SWAP1 POP JUMP JUMPDEST PUSH0 PUSH2 0xB2A DUP3 PUSH2 0xAFF JUMP JUMPDEST SWAP1 POP SWAP2 SWAP1 POP JUMP JUMPDEST PUSH0 PUSH2 0xB3B DUP3 PUSH2 0xB20 JUMP JUMPDEST SWAP1 POP SWAP2 SWAP1 POP JUMP JUMPDEST PUSH2 0xB4B DUP2 PUSH2 0xB31 JUMP JUMPDEST DUP3 MSTORE POP POP JUMP JUMPDEST PUSH0 PUSH1 0x80 DUP3 ADD SWAP1 POP PUSH2 0xB64 PUSH0 DUP4 ADD DUP8 PUSH2 0x93B JUMP JUMPDEST PUSH2 0xB71 PUSH1 0x20 DUP4 ADD DUP7 PUSH2 0x93B JUMP JUMPDEST PUSH2 0xB7E PUSH1 0x40 DUP4 ADD DUP6 PUSH2 0x89A JUMP JUMPDEST PUSH2 0xB8B PUSH1 0x60 DUP4 ADD DUP5 PUSH2 0xB42 JUMP JUMPDEST SWAP6 SWAP5 POP POP POP POP POP JUMP JUMPDEST PUSH32 0x4E487B7100000000000000000000000000000000000000000000000000000000 PUSH0 MSTORE PUSH1 0x11 PUSH1 0x4 MSTORE PUSH1 0x24 PUSH0 REVERT JUMPDEST PUSH0 PUSH2 0xBCB DUP3 PUSH2 0x80C JUMP JUMPDEST SWAP2 POP PUSH32 0xFFFFFFFFFFFFFFFFFFFFFFFFFFFFFFFFFFFFFFFFFFFFFFFFFFFFFFFFFFFFFFFF DUP3 SUB PUSH2 0xBFD JUMPI PUSH2 0xBFC PUSH2 0xB94 JUMP JUMPDEST JUMPDEST PUSH1 0x1 DUP3 ADD SWAP1 POP SWAP2 SWAP1 POP JUMP JUMPDEST PUSH0 PUSH1 0x60 DUP3 ADD SWAP1 POP PUSH2 0xC1B PUSH0 DUP4 ADD DUP7 PUSH2 0x93B JUMP JUMPDEST PUSH2 0xC28 PUSH1 0x20 DUP4 ADD DUP6 PUSH2 0x93B JUMP JUMPDEST PUSH2 0xC35 PUSH1 0x40 DUP4 ADD DUP5 PUSH2 0x89A JUMP JUMPDEST SWAP5 SWAP4 POP POP POP POP JUMP INVALID LOG2 PUSH5 0x6970667358 0x22 SLT KECCAK256 CALLDATACOPY 0xAA SELFDESTRUCT CODECOPY 0xC1 LOG1 0x49 SELFBALANCE DUP6 0xBB PUSH27 0x738D309E6A6C8865878EC7D070DC9347AC9AB31B6F64736F6C6343 STOP ADDMOD AND STOP CALLER "
				},
				"gasEstimates": {
					"creation": {
						"codeDepositCost": "637400",
						"executionCost": "infinite",
						"totalCost": "infinite"
					},
					"external": {
						"approve(uint256)": "infinite",
						"createTransfer(uint256,address)": "infinite",
						"deposit()": "207",
						"getBlance()": "2541",
						"getTransferRequests()": "infinite",
						"owners(uint256)": "4921"
					}
				},
				"methodIdentifiers": {
					"approve(uint256)": "b759f954",
					"createTransfer(uint256,address)": "4c12fa47",
					"deposit()": "d0e30db0",
					"getBlance()": "941be5f7",
					"getTransferRequests()": "a04ef145",
					"owners(uint256)": "025e7c27"
				}
			},
			"storageLayout": {
				"storage": [
					{
						"astId": 5,
						"contract": "tests/new/project.sol:Wallet",
						"label": "owners",
						"offset": 0,
						"slot": "0",
						"type": "t_array(t_address)dyn_storage"
					},
					{
						"astId": 7,
						"contract": "tests/new/project.sol:Wallet",
						"label": "limit",
						"offset": 0,
						"slot": "1",
						"type": "t_uint256"
					},
					{
						"astId": 44,
						"contract": "tests/new/project.sol:Wallet",
						"label": "transferRequests",
						"offset": 0,
						"slot": "2",
						"type": "t_array(t_struct(Transfer)18_storage)dyn_storage"
					},
					{
						"astId": 50,
						"contract": "tests/new/project.sol:Wallet",
						"label": "approvals",
						"offset": 0,
						"slot": "3",
						"type": "t_mapping(t_address,t_mapping(t_uint256,t_bool))"
					},
					{
						"astId": 54,
						"contract": "tests/new/project.sol:Wallet",
						"label": "balance",
						"offset": 0,
						"slot": "4",
						"type": "t_mapping(t_address,t_uint256)"
					}
				],
				"types": {
					"t_address": {
						"encoding": "inplace",
						"label": "address",
						"numberOfBytes": "20"
					},
					"t_address_payable": {
						"encoding": "inplace",
						"label": "address payable",
						"numberOfBytes": "20"
					},
					"t_array(t_address)dyn_storage": {
						"base": "t_address",
						"encoding": "dynamic_array",
						"label": "address[]",
						"numberOfBytes": "32"
					},
					"t_array(t_struct(Transfer)18_storage)dyn_storage": {
						"base": "t_struct(Transfer)18_storage",
						"encoding": "dynamic_array",
						"label": "struct Wallet.Transfer[]",
						"numberOfBytes": "32"
					},
					"t_bool": {
						"encoding": "inplace",
						"label": "bool",
						"numberOfBytes": "1"
					},
					"t_mapping(t_address,t_mapping(t_uint256,t_bool))": {
						"encoding": "mapping",
						"key": "t_address",
						"label": "mapping(address => mapping(uint256 => bool))",
						"numberOfBytes": "32",
						"value": "t_mapping(t_uint256,t_bool)"
					},
					"t_mapping(t_address,t_uint256)": {
						"encoding": "mapping",
						"key": "t_address",
						"label": "mapping(address => uint256)",
						"numberOfBytes": "32",
						"value": "t_uint256"
					},
					"t_mapping(t_uint256,t_bool)": {
						"encoding": "mapping",
						"key": "t_uint256",
						"label": "mapping(uint256 => bool)",
						"numberOfBytes": "32",
						"value": "t_bool"
					},
					"t_struct(Transfer)18_storage": {
						"encoding": "inplace",
						"label": "struct Wallet.Transfer",
						"members": [
							{
								"astId": 9,
								"contract": "tests/new/project.sol:Wallet",
								"label": "amount",
								"offset": 0,
								"slot": "0",
								"type": "t_uint256"
							},
							{
								"astId": 11,
								"contract": "tests/new/project.sol:Wallet",
								"label": "receiver",
								"offset": 0,
								"slot": "1",
								"type": "t_address_payable"
							},
							{
								"astId": 13,
								"contract": "tests/new/project.sol:Wallet",
								"label": "approvals",
								"offset": 0,
								"slot": "2",
								"type": "t_uint256"
							},
							{
								"astId": 15,
								"contract": "tests/new/project.sol:Wallet",
								"label": "hasBeenSent",
								"offset": 0,
								"slot": "3",
								"type": "t_bool"
							},
							{
								"astId": 17,
								"contract": "tests/new/project.sol:Wallet",
								"label": "id",
								"offset": 0,
								"slot": "4",
								"type": "t_uint256"
							}
						],
						"numberOfBytes": "160"
					},
					"t_uint256": {
						"encoding": "inplace",
						"label": "uint256",
						"numberOfBytes": "32"
					}
				}
			},
			"userdoc": {
				"kind": "user",
				"methods": {},
				"version": 1
			}
		}
	}
}